{"abi":[{"type":"constructor","inputs":[{"name":"_entryPoint","type":"address","internalType":"contract IEntryPoint"}],"stateMutability":"nonpayable"},{"type":"function","name":"addStake","inputs":[{"name":"unstakeDelaySec","type":"uint32","internalType":"uint32"}],"outputs":[],"stateMutability":"payable"},{"type":"function","name":"deposit","inputs":[],"outputs":[],"stateMutability":"payable"},{"type":"function","name":"entryPoint","inputs":[],"outputs":[{"name":"","type":"address","internalType":"contract IEntryPoint"}],"stateMutability":"view"},{"type":"function","name":"getDeposit","inputs":[],"outputs":[{"name":"","type":"uint256","internalType":"uint256"}],"stateMutability":"view"},{"type":"function","name":"owner","inputs":[],"outputs":[{"name":"","type":"address","internalType":"address"}],"stateMutability":"view"},{"type":"function","name":"postOp","inputs":[{"name":"mode","type":"uint8","internalType":"enum IPaymaster.PostOpMode"},{"name":"context","type":"bytes","internalType":"bytes"},{"name":"actualGasCost","type":"uint256","internalType":"uint256"},{"name":"actualUserOpFeePerGas","type":"uint256","internalType":"uint256"}],"outputs":[],"stateMutability":"nonpayable"},{"type":"function","name":"renounceOwnership","inputs":[],"outputs":[],"stateMutability":"nonpayable"},{"type":"function","name":"transferOwnership","inputs":[{"name":"newOwner","type":"address","internalType":"address"}],"outputs":[],"stateMutability":"nonpayable"},{"type":"function","name":"unlockStake","inputs":[],"outputs":[],"stateMutability":"nonpayable"},{"type":"function","name":"validatePaymasterUserOp","inputs":[{"name":"userOp","type":"tuple","internalType":"struct PackedUserOperation","components":[{"name":"sender","type":"address","internalType":"address"},{"name":"nonce","type":"uint256","internalType":"uint256"},{"name":"initCode","type":"bytes","internalType":"bytes"},{"name":"callData","type":"bytes","internalType":"bytes"},{"name":"accountGasLimits","type":"bytes32","internalType":"bytes32"},{"name":"preVerificationGas","type":"uint256","internalType":"uint256"},{"name":"gasFees","type":"bytes32","internalType":"bytes32"},{"name":"paymasterAndData","type":"bytes","internalType":"bytes"},{"name":"signature","type":"bytes","internalType":"bytes"}]},{"name":"userOpHash","type":"bytes32","internalType":"bytes32"},{"name":"maxCost","type":"uint256","internalType":"uint256"}],"outputs":[{"name":"context","type":"bytes","internalType":"bytes"},{"name":"validationData","type":"uint256","internalType":"uint256"}],"stateMutability":"nonpayable"},{"type":"function","name":"withdrawStake","inputs":[{"name":"withdrawAddress","type":"address","internalType":"address payable"}],"outputs":[],"stateMutability":"nonpayable"},{"type":"function","name":"withdrawTo","inputs":[{"name":"withdrawAddress","type":"address","internalType":"address payable"},{"name":"amount","type":"uint256","internalType":"uint256"}],"outputs":[],"stateMutability":"nonpayable"},{"type":"event","name":"OwnershipTransferred","inputs":[{"name":"previousOwner","type":"address","indexed":true,"internalType":"address"},{"name":"newOwner","type":"address","indexed":true,"internalType":"address"}],"anonymous":false},{"type":"error","name":"OwnableInvalidOwner","inputs":[{"name":"owner","type":"address","internalType":"address"}]},{"type":"error","name":"OwnableUnauthorizedAccount","inputs":[{"name":"account","type":"address","internalType":"address"}]}],"bytecode":{"object":"0x60a060405234801561001057600080fd5b5060405161170d38038061170d83398181016040528101906100329190610315565b8033600073ffffffffffffffffffffffffffffffffffffffff168173ffffffffffffffffffffffffffffffffffffffff16036100a65760006040517f1e4fbdf700000000000000000000000000000000000000000000000000000000815260040161009d9190610351565b60405180910390fd5b6100b58161010060201b60201c565b506100c5816101c460201b60201c565b8073ffffffffffffffffffffffffffffffffffffffff1660808173ffffffffffffffffffffffffffffffffffffffff168152505050506104a4565b60008060009054906101000a900473ffffffffffffffffffffffffffffffffffffffff169050816000806101000a81548173ffffffffffffffffffffffffffffffffffffffff021916908373ffffffffffffffffffffffffffffffffffffffff1602179055508173ffffffffffffffffffffffffffffffffffffffff168173ffffffffffffffffffffffffffffffffffffffff167f8be0079c531659141344cd1fd0a4f28419497f9722a3daafe3b4186f6b6457e060405160405180910390a35050565b8073ffffffffffffffffffffffffffffffffffffffff166301ffc9a77f915074d8000000000000000000000000000000000000000000000000000000006040518263ffffffff1660e01b815260040161021d91906103a7565b602060405180830381865afa15801561023a573d6000803e3d6000fd5b505050506040513d601f19601f8201168201806040525081019061025e91906103fa565b61029d576040517f08c379a000000000000000000000000000000000000000000000000000000000815260040161029490610484565b60405180910390fd5b50565b600080fd5b600073ffffffffffffffffffffffffffffffffffffffff82169050919050565b60006102d0826102a5565b9050919050565b60006102e2826102c5565b9050919050565b6102f2816102d7565b81146102fd57600080fd5b50565b60008151905061030f816102e9565b92915050565b60006020828403121561032b5761032a6102a0565b5b600061033984828501610300565b91505092915050565b61034b816102c5565b82525050565b60006020820190506103666000830184610342565b92915050565b60007fffffffff0000000000000000000000000000000000000000000000000000000082169050919050565b6103a18161036c565b82525050565b60006020820190506103bc6000830184610398565b92915050565b60008115159050919050565b6103d7816103c2565b81146103e257600080fd5b50565b6000815190506103f4816103ce565b92915050565b6000602082840312156104105761040f6102a0565b5b600061041e848285016103e5565b91505092915050565b600082825260208201905092915050565b7f49456e747279506f696e7420696e74657266616365206d69736d617463680000600082015250565b600061046e601e83610427565b915061047982610438565b602082019050919050565b6000602082019050818103600083015261049d81610461565b9050919050565b60805161121d6104f06000396000818161026d01528181610304015281816104110152818161043d015281816104c701528181610557015281816105f60152610791015261121d6000f3fe6080604052600436106100a75760003560e01c8063b0d691fe11610064578063b0d691fe1461019a578063bb9fe6bf146101c5578063c23a5cea146101dc578063c399ec8814610205578063d0e30db014610230578063f2fde38b1461023a576100a7565b80630396cb60146100ac578063205c2878146100c857806352b7512c146100f1578063715018a61461012f5780637c627b21146101465780638da5cb5b1461016f575b600080fd5b6100c660048036038101906100c19190610a07565b610263565b005b3480156100d457600080fd5b506100ef60048036038101906100ea9190610ac8565b6102fa565b005b3480156100fd57600080fd5b5061011860048036038101906101139190610b63565b610393565b604051610126929190610c71565b60405180910390f35b34801561013b57600080fd5b506101446103b6565b005b34801561015257600080fd5b5061016d60048036038101906101689190610d2b565b6103ca565b005b34801561017b57600080fd5b506101846103e6565b6040516101919190610dd4565b60405180910390f35b3480156101a657600080fd5b506101af61040f565b6040516101bc9190610e4e565b60405180910390f35b3480156101d157600080fd5b506101da610433565b005b3480156101e857600080fd5b5061020360048036038101906101fe9190610e69565b6104bd565b005b34801561021157600080fd5b5061021a610553565b6040516102279190610e96565b60405180910390f35b6102386105f4565b005b34801561024657600080fd5b50610261600480360381019061025c9190610edd565b610682565b005b61026b610708565b7f000000000000000000000000000000000000000000000000000000000000000073ffffffffffffffffffffffffffffffffffffffff16630396cb6034836040518363ffffffff1660e01b81526004016102c59190610f19565b6000604051808303818588803b1580156102de57600080fd5b505af11580156102f2573d6000803e3d6000fd5b505050505050565b610302610708565b7f000000000000000000000000000000000000000000000000000000000000000073ffffffffffffffffffffffffffffffffffffffff1663205c287883836040518363ffffffff1660e01b815260040161035d929190610f43565b600060405180830381600087803b15801561037757600080fd5b505af115801561038b573d6000803e3d6000fd5b505050505050565b6060600061039f61078f565b6103aa85858561081f565b91509150935093915050565b6103be610708565b6103c86000610881565b565b6103d261078f565b6103df8585858585610945565b5050505050565b60008060009054906101000a900473ffffffffffffffffffffffffffffffffffffffff16905090565b7f000000000000000000000000000000000000000000000000000000000000000081565b61043b610708565b7f000000000000000000000000000000000000000000000000000000000000000073ffffffffffffffffffffffffffffffffffffffff1663bb9fe6bf6040518163ffffffff1660e01b8152600401600060405180830381600087803b1580156104a357600080fd5b505af11580156104b7573d6000803e3d6000fd5b50505050565b6104c5610708565b7f000000000000000000000000000000000000000000000000000000000000000073ffffffffffffffffffffffffffffffffffffffff1663c23a5cea826040518263ffffffff1660e01b815260040161051e9190610f6c565b600060405180830381600087803b15801561053857600080fd5b505af115801561054c573d6000803e3d6000fd5b5050505050565b60007f000000000000000000000000000000000000000000000000000000000000000073ffffffffffffffffffffffffffffffffffffffff166370a08231306040518263ffffffff1660e01b81526004016105ae9190610dd4565b602060405180830381865afa1580156105cb573d6000803e3d6000fd5b505050506040513d601f19601f820116820180604052508101906105ef9190610f9c565b905090565b7f000000000000000000000000000000000000000000000000000000000000000073ffffffffffffffffffffffffffffffffffffffff1663b760faf934306040518363ffffffff1660e01b815260040161064e9190610dd4565b6000604051808303818588803b15801561066757600080fd5b505af115801561067b573d6000803e3d6000fd5b5050505050565b61068a610708565b600073ffffffffffffffffffffffffffffffffffffffff168173ffffffffffffffffffffffffffffffffffffffff16036106fc5760006040517f1e4fbdf70000000000000000000000000000000000000000000000000000000081526004016106f39190610dd4565b60405180910390fd5b61070581610881565b50565b610710610980565b73ffffffffffffffffffffffffffffffffffffffff1661072e6103e6565b73ffffffffffffffffffffffffffffffffffffffff161461078d57610751610980565b6040517f118cdaa70000000000000000000000000000000000000000000000000000000081526004016107849190610dd4565b60405180910390fd5b565b7f000000000000000000000000000000000000000000000000000000000000000073ffffffffffffffffffffffffffffffffffffffff163373ffffffffffffffffffffffffffffffffffffffff161461081d576040517f08c379a000000000000000000000000000000000000000000000000000000000815260040161081490611026565b60405180910390fd5b565b606060008080868060e001906108359190611055565b6034908092610846939291906110c2565b810190610853919061113b565b9150915061086360008284610988565b92506040518060200160405280600081525093505050935093915050565b60008060009054906101000a900473ffffffffffffffffffffffffffffffffffffffff169050816000806101000a81548173ffffffffffffffffffffffffffffffffffffffff021916908373ffffffffffffffffffffffffffffffffffffffff1602179055508173ffffffffffffffffffffffffffffffffffffffff168173ffffffffffffffffffffffffffffffffffffffff167f8be0079c531659141344cd1fd0a4f28419497f9722a3daafe3b4186f6b6457e060405160405180910390a35050565b6040517f08c379a0000000000000000000000000000000000000000000000000000000008152600401610977906111c7565b60405180910390fd5b600033905090565b600060d08265ffffffffffff16901b60a08465ffffffffffff16901b856109b05760006109b3565b60015b60ff16171790509392505050565b600080fd5b600080fd5b600063ffffffff82169050919050565b6109e4816109cb565b81146109ef57600080fd5b50565b600081359050610a01816109db565b92915050565b600060208284031215610a1d57610a1c6109c1565b5b6000610a2b848285016109f2565b91505092915050565b600073ffffffffffffffffffffffffffffffffffffffff82169050919050565b6000610a5f82610a34565b9050919050565b610a6f81610a54565b8114610a7a57600080fd5b50565b600081359050610a8c81610a66565b92915050565b6000819050919050565b610aa581610a92565b8114610ab057600080fd5b50565b600081359050610ac281610a9c565b92915050565b60008060408385031215610adf57610ade6109c1565b5b6000610aed85828601610a7d565b9250506020610afe85828601610ab3565b9150509250929050565b600080fd5b60006101208284031215610b2457610b23610b08565b5b81905092915050565b6000819050919050565b610b4081610b2d565b8114610b4b57600080fd5b50565b600081359050610b5d81610b37565b92915050565b600080600060608486031215610b7c57610b7b6109c1565b5b600084013567ffffffffffffffff811115610b9a57610b996109c6565b5b610ba686828701610b0d565b9350506020610bb786828701610b4e565b9250506040610bc886828701610ab3565b9150509250925092565b600081519050919050565b600082825260208201905092915050565b60005b83811015610c0c578082015181840152602081019050610bf1565b60008484015250505050565b6000601f19601f8301169050919050565b6000610c3482610bd2565b610c3e8185610bdd565b9350610c4e818560208601610bee565b610c5781610c18565b840191505092915050565b610c6b81610a92565b82525050565b60006040820190508181036000830152610c8b8185610c29565b9050610c9a6020830184610c62565b9392505050565b60038110610cae57600080fd5b50565b600081359050610cc081610ca1565b92915050565b600080fd5b600080fd5b600080fd5b60008083601f840112610ceb57610cea610cc6565b5b8235905067ffffffffffffffff811115610d0857610d07610ccb565b5b602083019150836001820283011115610d2457610d23610cd0565b5b9250929050565b600080600080600060808688031215610d4757610d466109c1565b5b6000610d5588828901610cb1565b955050602086013567ffffffffffffffff811115610d7657610d756109c6565b5b610d8288828901610cd5565b94509450506040610d9588828901610ab3565b9250506060610da688828901610ab3565b9150509295509295909350565b6000610dbe82610a34565b9050919050565b610dce81610db3565b82525050565b6000602082019050610de96000830184610dc5565b92915050565b6000819050919050565b6000610e14610e0f610e0a84610a34565b610def565b610a34565b9050919050565b6000610e2682610df9565b9050919050565b6000610e3882610e1b565b9050919050565b610e4881610e2d565b82525050565b6000602082019050610e636000830184610e3f565b92915050565b600060208284031215610e7f57610e7e6109c1565b5b6000610e8d84828501610a7d565b91505092915050565b6000602082019050610eab6000830184610c62565b92915050565b610eba81610db3565b8114610ec557600080fd5b50565b600081359050610ed781610eb1565b92915050565b600060208284031215610ef357610ef26109c1565b5b6000610f0184828501610ec8565b91505092915050565b610f13816109cb565b82525050565b6000602082019050610f2e6000830184610f0a565b92915050565b610f3d81610a54565b82525050565b6000604082019050610f586000830185610f34565b610f656020830184610c62565b9392505050565b6000602082019050610f816000830184610f34565b92915050565b600081519050610f9681610a9c565b92915050565b600060208284031215610fb257610fb16109c1565b5b6000610fc084828501610f87565b91505092915050565b600082825260208201905092915050565b7f53656e646572206e6f7420456e747279506f696e740000000000000000000000600082015250565b6000611010601583610fc9565b915061101b82610fda565b602082019050919050565b6000602082019050818103600083015261103f81611003565b9050919050565b600080fd5b600080fd5b600080fd5b6000808335600160200384360303811261107257611071611046565b5b80840192508235915067ffffffffffffffff8211156110945761109361104b565b5b6020830192506001820236038313156110b0576110af611050565b5b509250929050565b600080fd5b600080fd5b600080858511156110d6576110d56110b8565b5b838611156110e7576110e66110bd565b5b6001850283019150848603905094509492505050565b600065ffffffffffff82169050919050565b611118816110fd565b811461112357600080fd5b50565b6000813590506111358161110f565b92915050565b60008060408385031215611152576111516109c1565b5b600061116085828601611126565b925050602061117185828601611126565b9150509250929050565b7f6d757374206f7665727269646500000000000000000000000000000000000000600082015250565b60006111b1600d83610fc9565b91506111bc8261117b565b602082019050919050565b600060208201905081810360008301526111e0816111a4565b905091905056fea264697066735822122071f45351a8b4d3befa3f75f20176d93552fa9ded0e8f677d11ae4cc94cd213c464736f6c634300081a0033","linkReferences":{}},"methodIdentifiers":{"addStake(uint32)":"0396cb60","deposit()":"d0e30db0","entryPoint()":"b0d691fe","getDeposit()":"c399ec88","owner()":"8da5cb5b","postOp(uint8,bytes,uint256,uint256)":"7c627b21","renounceOwnership()":"715018a6","transferOwnership(address)":"f2fde38b","unlockStake()":"bb9fe6bf","validatePaymasterUserOp((address,uint256,bytes,bytes,bytes32,uint256,bytes32,bytes,bytes),bytes32,uint256)":"52b7512c","withdrawStake(address)":"c23a5cea","withdrawTo(address,uint256)":"205c2878"},"id":50}