{"abi":[{"type":"function","name":"hashToPoint","inputs":[{"name":"domain","type":"bytes32","internalType":"bytes32"},{"name":"message","type":"bytes","internalType":"bytes"}],"outputs":[{"name":"","type":"uint256[2]","internalType":"uint256[2]"}],"stateMutability":"view"},{"type":"function","name":"isZeroBLSKey","inputs":[{"name":"blsKey","type":"uint256[4]","internalType":"uint256[4]"}],"outputs":[{"name":"","type":"bool","internalType":"bool"}],"stateMutability":"pure"},{"type":"function","name":"verifyMultiple","inputs":[{"name":"signature","type":"uint256[2]","internalType":"uint256[2]"},{"name":"pubkeys","type":"uint256[4][]","internalType":"uint256[4][]"},{"name":"messages","type":"uint256[2][]","internalType":"uint256[2][]"}],"outputs":[{"name":"","type":"bool","internalType":"bool"}],"stateMutability":"view"},{"type":"function","name":"verifySingle","inputs":[{"name":"signature","type":"uint256[2]","internalType":"uint256[2]"},{"name":"pubkey","type":"uint256[4]","internalType":"uint256[4]"},{"name":"message","type":"uint256[2]","internalType":"uint256[2]"}],"outputs":[{"name":"","type":"bool","internalType":"bool"}],"stateMutability":"view"}],"bytecode":{"object":"0x613175610052600b82828239805160001a6073146045577f4e487b7100000000000000000000000000000000000000000000000000000000600052600060045260246000fd5b30600052607381538281f3fe73000000000000000000000000000000000000000030146080604052600436106100565760003560e01c8063914137631461005b578063a850a9091461008b578063c2ad5b98146100bb578063ebbdac91146100eb575b600080fd5b610075600480360381019061007091906128e2565b61011b565b6040516100829190612988565b60405180910390f35b6100a560048036038101906100a09190612a8e565b610144565b6040516100b29190612b95565b60405180910390f35b6100d560048036038101906100d09190612bb0565b61015e565b6040516100e29190612988565b60405180910390f35b61010560048036038101906101009190612bdd565b6101b4565b6040516101129190612988565b60405180910390f35b600080600061012b8686866102d0565b915091508080156101395750815b925050509392505050565b61014c6124b4565b6101568383610838565b905092915050565b6000806001905060005b8180156101755750600481105b156101aa57600084826004811061018f5761018e612c31565b5b602002015114915080806101a290612c8f565b915050610168565b5080915050919050565b600080600167ffffffffffffffff8111156101d2576101d1612544565b5b60405190808252806020026020018201604052801561020b57816020015b6101f86124d6565b8152602001906001900390816101f05790505b5090506000600167ffffffffffffffff81111561022b5761022a612544565b5b60405190808252806020026020018201604052801561026457816020015b6102516124b4565b8152602001906001900390816102495790505b509050848260008151811061027c5761027b612c31565b5b6020026020010181905250838160008151811061029c5761029b612c31565b5b60200260200101819052506000806102b58885856102d0565b915091508080156102c35750815b9450505050509392505050565b6000806000845190506000811161031c576040517f08c379a000000000000000000000000000000000000000000000000000000000815260040161031390612d5a565b60405180910390fd5b8351811461035f576040517f08c379a000000000000000000000000000000000000000000000000000000000815260040161035690612dec565b60405180910390fd5b600060066001836103709190612e0c565b61037a9190612e40565b905060008167ffffffffffffffff81111561039857610397612544565b5b6040519080825280602002602001820160405280156103c65781602001602082028036833780820191505090505b509050876000600281106103dd576103dc612c31565b5b6020020151816000815181106103f6576103f5612c31565b5b6020026020010181815250508760016002811061041657610415612c31565b5b60200201518160018151811061042f5761042e612c31565b5b6020026020010181815250507f198e9393920d483a7260bfb731fb5d25f1aa493335a9e71297e485b7aef312c2816002815181106104705761046f612c31565b5b6020026020010181815250507f1800deef121f1e76426a00665e5c4479674322d4f75edadd46debd5cd992f6ed816003815181106104b1576104b0612c31565b5b6020026020010181815250507f275dc4a288d1afb3cbb1ac09187524c7db36395df7be3b99e673b13a075a65ec816004815181106104f2576104f1612c31565b5b6020026020010181815250507f1d9befcd05a5323e6da4d435f3b617cdb3af83285c2df711ef39c01571827f9d8160058151811061053357610532612c31565b5b60200260200101818152505060005b838110156107d25786818151811061055d5761055c612c31565b5b602002602001015160006002811061057857610577612c31565b5b6020020151826006808461058c9190612e40565b6105969190612e0c565b815181106105a7576105a6612c31565b5b6020026020010181815250508681815181106105c6576105c5612c31565b5b60200260200101516001600281106105e1576105e0612c31565b5b60200201518260076006846105f69190612e40565b6106009190612e0c565b8151811061061157610610612c31565b5b6020026020010181815250508781815181106106305761062f612c31565b5b602002602001015160016004811061064b5761064a612c31565b5b60200201518260086006846106609190612e40565b61066a9190612e0c565b8151811061067b5761067a612c31565b5b60200260200101818152505087818151811061069a57610699612c31565b5b60200260200101516000600481106106b5576106b4612c31565b5b60200201518260096006846106ca9190612e40565b6106d49190612e0c565b815181106106e5576106e4612c31565b5b60200260200101818152505087818151811061070457610703612c31565b5b602002602001015160036004811061071f5761071e612c31565b5b602002015182600a6006846107349190612e40565b61073e9190612e0c565b8151811061074f5761074e612c31565b5b60200260200101818152505087818151811061076e5761076d612c31565b5b602002602001015160026004811061078957610788612c31565b5b602002015182600b60068461079e9190612e40565b6107a89190612e0c565b815181106107b9576107b8612c31565b5b6020026020010181815250508080600101915050610542565b506107db6124f8565b60005a90506020826020860260208601600885fa95508561080757600080965096505050505050610830565b60008260006001811061081d5761081c612c31565b5b6020020151141560019650965050505050505b935093915050565b6108406124b4565b600061084c84846109e4565b905060006108718260006002811061086757610866612c31565b5b6020020151610b75565b905060006108968360016002811061088c5761088b612c31565b5b6020020151610b75565b90506108a06124d6565b826000600281106108b4576108b3612c31565b5b6020020151816000600481106108cd576108cc612c31565b5b602002018181525050826001600281106108ea576108e9612c31565b5b60200201518160016004811061090357610902612c31565b5b602002018181525050816000600281106109205761091f612c31565b5b60200201518160026004811061093957610938612c31565b5b6020020181815250508160016002811061095657610955612c31565b5b60200201518160036004811061096f5761096e612c31565b5b602002018181525050600060408460808460066107d05a03fa9050806000810361099557fe5b50806109d6576040517f08c379a00000000000000000000000000000000000000000000000000000000081526004016109cd90612ece565b60405180910390fd5b839550505050505092915050565b6109ec6124b4565b60006109f884846112bf565b90506000806000806018850177ffffffffffffffffffffffffffffffffffffffffffffffff815116935060308601905077ffffffffffffffffffffffffffffffffffffffffffffffff81511694507f30644e72e131a029b85045b68181585d97816a916871ca8d3c208c16d87cfd47857f30644e72e131a029b85045b68181585d97816a916871ca8d3c208c16d87cfd477801000000000000000000000000000000000000000000000000870908925060488601905077ffffffffffffffffffffffffffffffffffffffffffffffff815116935060608601905077ffffffffffffffffffffffffffffffffffffffffffffffff81511694507f30644e72e131a029b85045b68181585d97816a916871ca8d3c208c16d87cfd47857f30644e72e131a029b85045b68181585d97816a916871ca8d3c208c16d87cfd4778010000000000000000000000000000000000000000000000008709089150506040518060400160405280838152602001828152509550505050505092915050565b610b7d6124b4565b7f30644e72e131a029b85045b68181585d97816a916871ca8d3c208c16d87cfd478210610bdf576040517f08c379a0000000000000000000000000000000000000000000000000000000008152600401610bd690612f60565b60405180910390fd5b60008290506000610bef826115b7565b91505060007f30644e72e131a029b85045b68181585d97816a916871ca8d3c208c16d87cfd4780610c2357610c22612f80565b5b83840990507f30644e72e131a029b85045b68181585d97816a916871ca8d3c208c16d87cfd4780610c5757610c56612f80565b5b60048208905060007f30644e72e131a029b85045b68181585d97816a916871ca8d3c208c16d87cfd4780610c8e57610c8d612f80565b5b77b3c4d79d41a91759a9e4c7e359b6b89eaec68e62effffffd8509905060007f30644e72e131a029b85045b68181585d97816a916871ca8d3c208c16d87cfd4780610cdc57610cdb612f80565b5b8383099050610cea81611600565b90507f30644e72e131a029b85045b68181585d97816a916871ca8d3c208c16d87cfd4780610d1b57610d1a612f80565b5b82830991507f30644e72e131a029b85045b68181585d97816a916871ca8d3c208c16d87cfd4780610d4f57610d4e612f80565b5b81830991507f30644e72e131a029b85045b68181585d97816a916871ca8d3c208c16d87cfd4780610d8357610d82612f80565b5b82860991507f30644e72e131a029b85045b68181585d97816a916871ca8d3c208c16d87cfd4780610db757610db6612f80565b5b827f30644e72e131a029b85045b68181585d97816a916871ca8d3c208c16d87cfd47610de39190612faf565b7759e26bcea0d48bacd4f263f1acdb5c4f5763473177fffffe0894507f30644e72e131a029b85045b68181585d97816a916871ca8d3c208c16d87cfd4780610e2e57610e2d612f80565b5b85860991507f30644e72e131a029b85045b68181585d97816a916871ca8d3c208c16d87cfd4780610e6257610e61612f80565b5b85830991507f30644e72e131a029b85045b68181585d97816a916871ca8d3c208c16d87cfd4780610e9657610e95612f80565b5b6003830891506000610ea7836115b7565b80925081945050508015610f0b5784610ee957827f30644e72e131a029b85045b68181585d97816a916871ca8d3c208c16d87cfd47610ee69190612faf565b92505b60405180604001604052808781526020018481525096505050505050506112ba565b7f30644e72e131a029b85045b68181585d97816a916871ca8d3c208c16d87cfd4780610f3a57610f39612f80565b5b600187087f30644e72e131a029b85045b68181585d97816a916871ca8d3c208c16d87cfd47610f699190612faf565b95507f30644e72e131a029b85045b68181585d97816a916871ca8d3c208c16d87cfd4780610f9a57610f99612f80565b5b86870992507f30644e72e131a029b85045b68181585d97816a916871ca8d3c208c16d87cfd4780610fce57610fcd612f80565b5b86840992507f30644e72e131a029b85045b68181585d97816a916871ca8d3c208c16d87cfd478061100257611001612f80565b5b600384089250611011836115b7565b80925081945050508015611075578461105357827f30644e72e131a029b85045b68181585d97816a916871ca8d3c208c16d87cfd476110509190612faf565b92505b60405180604001604052808781526020018481525096505050505050506112ba565b7f30644e72e131a029b85045b68181585d97816a916871ca8d3c208c16d87cfd47806110a4576110a3612f80565b5b84850995507f30644e72e131a029b85045b68181585d97816a916871ca8d3c208c16d87cfd47806110d8576110d7612f80565b5b86870995507f30644e72e131a029b85045b68181585d97816a916871ca8d3c208c16d87cfd478061110c5761110b612f80565b5b82870995507f30644e72e131a029b85045b68181585d97816a916871ca8d3c208c16d87cfd47806111405761113f612f80565b5b82870995507f30644e72e131a029b85045b68181585d97816a916871ca8d3c208c16d87cfd478061117457611173612f80565b5b6001870895507f30644e72e131a029b85045b68181585d97816a916871ca8d3c208c16d87cfd47806111a9576111a8612f80565b5b86870992507f30644e72e131a029b85045b68181585d97816a916871ca8d3c208c16d87cfd47806111dd576111dc612f80565b5b86840992507f30644e72e131a029b85045b68181585d97816a916871ca8d3c208c16d87cfd478061121157611210612f80565b5b600384089250611220836115b7565b809250819450505080611268576040517f08c379a000000000000000000000000000000000000000000000000000000000815260040161125f90613055565b60405180910390fd5b8461129c57827f30644e72e131a029b85045b68181585d97816a916871ca8d3c208c16d87cfd476112999190612faf565b92505b60405180604001604052808781526020018481525096505050505050505b919050565b60606000825190506000600460408360206112da9190612e0c565b6112e49190612e0c565b6112ee9190612e0c565b67ffffffffffffffff81111561130757611306612544565b5b6040519080825280601f01601f1916602001820160405280156113395781602001600182028036833780820191505090505b5090506000606067ffffffffffffffff81111561135957611358612544565b5b6040519080825280601f01601f19166020018201604052801561138b5781602001600182028036833780820191505090505b5090506060820160005b848110156113b3576020810187015181830152602081019050611395565b508381019050600081536001810190506060815360018101905060008153600181019050868152602081019050602081535060006002836040516113f791906130e6565b602060405180830381855afa158015611414573d6000803e3d6000fd5b5050506040513d601f19601f820116820180604052508101906114379190613112565b9050600060429450848452816020850152600160408501538760418501526020604160200185015360028460405161146f91906130e6565b602060405180830381855afa15801561148c573d6000803e3d6000fd5b5050506040513d601f19601f820116820180604052508101906114af9190613112565b90508060208401528082188060208601526002604086015388604186015260206041602001860153506002846040516114e891906130e6565b602060405180830381855afa158015611505573d6000803e3d6000fd5b5050506040513d601f19601f820116820180604052508101906115289190613112565b905080604084015280821880602086015260036040860153886041860152602060416020018601535060028460405161156191906130e6565b602060405180830381855afa15801561157e573d6000803e3d6000fd5b5050506040513d601f19601f820116820180604052508101906115a19190613112565b9050806060840152829550505050505092915050565b6000806115c383611612565b9150827f30644e72e131a029b85045b68181585d97816a916871ca8d3c208c16d87cfd47806115f5576115f4612f80565b5b838409149050915091565b600061160b82611d5a565b9050919050565b60007f30644e72e131a029b85045b68181585d97816a916871ca8d3c208c16d87cfd478083840991508083830981838209828283098385830984848309858484098684850997508684840987858409945087898a09985087898a09985087898a09985087898a09985087898a09985087878a09985087898a09985087898a09985087898a099850878a8a09985087898a09985087898a09985087898a09985087898a099850878a8a09985087898a09985087898a09985087898a09985087898a09985087898a09985087848a09985087898a09985087898a09985087898a09985087898a09985087898a09985087848a09985087898a09985087898a09985087898a099850878a8a09985087898a09985087898a09985087898a09985087898a09985087848a09985087898a09985087898a09985087898a09985087898a09985087898a099850878a8a09985087898a09985087898a09985087898a09985087898a09985087878a09985087898a09985087898a09985087898a09985087898a09985087898a09985087898a09985087898a09985087818a09985087898a09985087898a09985087898a09985087898a09985087898a09985087898a09985087898a09985087898a09985087898a09985087898a09985087868a09985087898a09985087898a09985087898a09985087898a09985087878a09985087898a09985087898a09985087898a09985087898a09985087848a09985087898a09985087898a09985087898a09985087898a09985087898a09985087898a09985087898a09985087868a09985087898a09985087898a09985087898a09985087898a09985087898a09985087898a099850878a8a09985087898a09985087898a09985087898a09985087898a09985087898a09985087898a09985087898a09985087828a09985087898a09985087898a09985087898a09985087898a09985087898a09985087818a09985087898a09985087898a09985087898a09985087868a09985087898a09985087898a09985087898a09985087898a09985087898a09985087898a09985087898a09985087898a09985087878a09985087898a09985087898a09985087898a09985087898a09985087898a09985087898a09985087898a09985087898a09985087898a09985087868a09985087898a09985087898a09985087898a09985087878a09985087898a09985087898a09985087898a09985087898a09985087898a09985087898a09985087898a09985087898a09985087828a09985087898a09985087898a09985087898a09985087898a09985087828a09985087898a09985087898a09985087898a09985087898a09985087898a09985087868a09985087898a09985087898a09985087898a09985087848a09985087898a09985087898a09985087898a09985087898a09985087898a09985087898a09985087898a09985087898a09985087898a09985087898a09985087828a09985087898a09985087898a09985087898a09985087898a09985087868a09985087898a09985087898a09985087898a09985087898a09985087898a09985087838a09985087898a09985087898a09985087898a09985087898a09985087898a09985087898a09985087898a09985087828a09985087898a09985087898a099850878a8a09985087898a09985087898a09985087898a09985087898a09985087898a09985087898a09985087898a09985087848a09985087898a09985087898a09985087898a09985087898a09985087898a09985087898a09985087848a09985087898a09985087898a09985087898a09985087898a09985087898a09985087868a09985087898a09985087898a099850878a8a09985087898a09985087898a09985087898a09985087898a09985087898a09985087898a09985087898a09985087818a09985087898a09985087898a09985087898a09985087898a09985087898a09985087898a09985087858a09985087898a09985087898a09985087898a09985087898a09985087898a099850878a8a09985087898a09985087898a09985087898a09985087898a09985087898a09985087898a099850878a8a09985087898a09985087898a09985087898a09985087898a09985087898a09985087878a09985087898a09985087898a09985087898a09985087898a09985087898a09985087898a09985087898a09985087898a09985087898a09985087828a09985087898a09985087898a09985087898a09985087878a09985087898a09985087898a09985087898a09985087878a09985087898a09985087898a09985087898a09985087898a09985087898a09985087898a09985087898a09985087898a09985087858a09985087898a09985087898a09985087898a09985087898a09985087838a09985087898a09985087898a09985087898a09985087898a09985087858a09985087898a09985087898a09985087898a09985087868a09985087898a09985087898a09985087898a09985087898a09985087898a09985087838a09985087898a0998505050505050505050919050565b60007f30644e72e131a029b85045b68181585d97816a916871ca8d3c208c16d87cfd478083840991508083830981838209828283098385830984848309858484098684850997508684840987858409945087898a09985087898a09985087898a09985087898a09985087898a09985087878a09985087898a09985087898a09985087898a099850878a8a09985087898a09985087898a09985087898a09985087898a099850878a8a09985087898a09985087898a09985087898a09985087898a09985087898a09985087848a09985087898a09985087898a09985087898a09985087898a09985087898a09985087848a09985087898a09985087898a09985087898a099850878a8a09985087898a09985087898a09985087898a09985087898a09985087848a09985087898a09985087898a09985087898a09985087898a09985087898a099850878a8a09985087898a09985087898a09985087898a09985087898a09985087878a09985087898a09985087898a09985087898a09985087898a09985087898a09985087898a09985087898a09985087818a09985087898a09985087898a09985087898a09985087898a09985087898a09985087898a09985087898a09985087898a09985087898a09985087898a09985087868a09985087898a09985087898a09985087898a09985087898a09985087878a09985087898a09985087898a09985087898a09985087898a09985087848a09985087898a09985087898a09985087898a09985087898a09985087898a09985087898a09985087898a09985087868a09985087898a09985087898a09985087898a09985087898a09985087898a09985087898a099850878a8a09985087898a09985087898a09985087898a09985087898a09985087898a09985087898a09985087898a09985087828a09985087898a09985087898a09985087898a09985087898a09985087898a09985087818a09985087898a09985087898a09985087898a09985087868a09985087898a09985087898a09985087898a09985087898a09985087898a09985087898a09985087898a09985087898a09985087878a09985087898a09985087898a09985087898a09985087898a09985087898a09985087898a09985087898a09985087898a09985087898a09985087868a09985087898a09985087898a09985087898a09985087878a09985087898a09985087898a09985087898a09985087898a09985087898a09985087898a09985087898a09985087898a09985087828a09985087898a09985087898a09985087898a09985087898a09985087828a09985087898a09985087898a09985087898a09985087898a09985087898a09985087868a09985087898a09985087898a09985087898a09985087848a09985087898a09985087898a09985087898a09985087898a09985087898a09985087898a09985087898a09985087898a09985087898a09985087898a09985087828a09985087898a09985087898a09985087898a09985087898a09985087868a09985087898a09985087898a09985087898a09985087898a09985087898a09985087838a09985087898a09985087898a09985087898a09985087898a09985087898a09985087898a09985087898a09985087828a09985087898a09985087898a099850878a8a09985087898a09985087898a09985087898a09985087898a09985087898a09985087898a09985087898a09985087848a09985087898a09985087898a09985087898a09985087898a09985087898a09985087898a09985087848a09985087898a09985087898a09985087898a09985087898a09985087898a09985087868a09985087898a09985087898a099850878a8a09985087898a09985087898a09985087898a09985087898a09985087898a09985087898a09985087898a09985087818a09985087898a09985087898a09985087898a09985087898a09985087898a09985087898a09985087858a09985087898a09985087898a09985087898a09985087898a09985087898a099850878a8a09985087898a09985087898a09985087898a09985087898a09985087898a09985087898a099850878a8a09985087898a09985087898a09985087898a09985087898a09985087898a09985087878a09985087898a09985087898a09985087898a09985087898a09985087898a09985087898a09985087898a09985087898a09985087898a09985087828a09985087898a09985087898a09985087898a09985087878a09985087898a09985087898a09985087898a09985087878a09985087898a09985087898a09985087898a09985087898a09985087898a09985087898a09985087898a09985087898a09985087858a09985087898a09985087898a09985087898a09985087898a09985087838a09985087898a09985087898a09985087898a09985087898a09985087858a09985087898a09985087898a09985087898a09985087868a09985087898a09985087898a099850878a8a09985087898a09985087898a09985087898a09985087898a09985087898a09985087898a09985087868a0998505050505050505050919050565b6040518060400160405280600290602082028036833780820191505090505090565b6040518060800160405280600490602082028036833780820191505090505090565b6040518060200160405280600190602082028036833780820191505090505090565b6000604051905090565b600080fd5b600080fd5b600080fd5b6000601f19601f8301169050919050565b7f4e487b7100000000000000000000000000000000000000000000000000000000600052604160045260246000fd5b61257c82612533565b810181811067ffffffffffffffff8211171561259b5761259a612544565b5b80604052505050565b60006125ae61251a565b90506125ba8282612573565b919050565b600067ffffffffffffffff8211156125da576125d9612544565b5b602082029050919050565b600080fd5b6000819050919050565b6125fd816125ea565b811461260857600080fd5b50565b60008135905061261a816125f4565b92915050565b600061263361262e846125bf565b6125a4565b9050806020840283018581111561264d5761264c6125e5565b5b835b818110156126765780612662888261260b565b84526020840193505060208101905061264f565b5050509392505050565b600082601f8301126126955761269461252e565b5b60026126a2848285612620565b91505092915050565b600067ffffffffffffffff8211156126c6576126c5612544565b5b602082029050602081019050919050565b600067ffffffffffffffff8211156126f2576126f1612544565b5b602082029050919050565b600061271061270b846126d7565b6125a4565b9050806020840283018581111561272a576127296125e5565b5b835b81811015612753578061273f888261260b565b84526020840193505060208101905061272c565b5050509392505050565b600082601f8301126127725761277161252e565b5b600461277f8482856126fd565b91505092915050565b600061279b612796846126ab565b6125a4565b905080838252602082019050608084028301858111156127be576127bd6125e5565b5b835b818110156127e757806127d3888261275d565b8452602084019350506080810190506127c0565b5050509392505050565b600082601f8301126128065761280561252e565b5b8135612816848260208601612788565b91505092915050565b600067ffffffffffffffff82111561283a57612839612544565b5b602082029050602081019050919050565b600061285e6128598461281f565b6125a4565b90508083825260208201905060408402830185811115612881576128806125e5565b5b835b818110156128aa57806128968882612680565b845260208401935050604081019050612883565b5050509392505050565b600082601f8301126128c9576128c861252e565b5b81356128d984826020860161284b565b91505092915050565b6000806000608084860312156128fb576128fa612524565b5b600061290986828701612680565b935050604084013567ffffffffffffffff81111561292a57612929612529565b5b612936868287016127f1565b925050606084013567ffffffffffffffff81111561295757612956612529565b5b612963868287016128b4565b9150509250925092565b60008115159050919050565b6129828161296d565b82525050565b600060208201905061299d6000830184612979565b92915050565b6000819050919050565b6129b6816129a3565b81146129c157600080fd5b50565b6000813590506129d3816129ad565b92915050565b600080fd5b600067ffffffffffffffff8211156129f9576129f8612544565b5b612a0282612533565b9050602081019050919050565b82818337600083830152505050565b6000612a31612a2c846129de565b6125a4565b905082815260208101848484011115612a4d57612a4c6129d9565b5b612a58848285612a0f565b509392505050565b600082601f830112612a7557612a7461252e565b5b8135612a85848260208601612a1e565b91505092915050565b60008060408385031215612aa557612aa4612524565b5b6000612ab3858286016129c4565b925050602083013567ffffffffffffffff811115612ad457612ad3612529565b5b612ae085828601612a60565b9150509250929050565b600060029050919050565b600081905092915050565b6000819050919050565b612b13816125ea565b82525050565b6000612b258383612b0a565b60208301905092915050565b6000602082019050919050565b612b4781612aea565b612b518184612af5565b9250612b5c82612b00565b8060005b83811015612b8d578151612b748782612b19565b9650612b7f83612b31565b925050600181019050612b60565b505050505050565b6000604082019050612baa6000830184612b3e565b92915050565b600060808284031215612bc657612bc5612524565b5b6000612bd48482850161275d565b91505092915050565b60008060006101008486031215612bf757612bf6612524565b5b6000612c0586828701612680565b9350506040612c168682870161275d565b92505060c0612c2786828701612680565b9150509250925092565b7f4e487b7100000000000000000000000000000000000000000000000000000000600052603260045260246000fd5b7f4e487b7100000000000000000000000000000000000000000000000000000000600052601160045260246000fd5b6000612c9a826125ea565b91507fffffffffffffffffffffffffffffffffffffffffffffffffffffffffffffffff8203612ccc57612ccb612c60565b5b600182019050919050565b600082825260208201905092915050565b7f424c533a206e756d626572206f66207075626c6963206b6579206973207a657260008201527f6f00000000000000000000000000000000000000000000000000000000000000602082015250565b6000612d44602183612cd7565b9150612d4f82612ce8565b604082019050919050565b60006020820190508181036000830152612d7381612d37565b9050919050565b7f424c533a206e756d626572206f66207075626c6963206b65797320616e64206d60008201527f65737361676573206d75737420626520657175616c0000000000000000000000602082015250565b6000612dd6603583612cd7565b9150612de182612d7a565b604082019050919050565b60006020820190508181036000830152612e0581612dc9565b9050919050565b6000612e17826125ea565b9150612e22836125ea565b9250828201905080821115612e3a57612e39612c60565b5b92915050565b6000612e4b826125ea565b9150612e56836125ea565b9250828202612e64816125ea565b91508282048414831517612e7b57612e7a612c60565b5b5092915050565b7f424c533a20626e206164642063616c6c206661696c6564000000000000000000600082015250565b6000612eb8601783612cd7565b9150612ec382612e82565b602082019050919050565b60006020820190508181036000830152612ee781612eab565b9050919050565b7f6d6170546f506f696e7446543a20696e76616c6964206669656c6420656c656d60008201527f656e740000000000000000000000000000000000000000000000000000000000602082015250565b6000612f4a602383612cd7565b9150612f5582612eee565b604082019050919050565b60006020820190508181036000830152612f7981612f3d565b9050919050565b7f4e487b7100000000000000000000000000000000000000000000000000000000600052601260045260246000fd5b6000612fba826125ea565b9150612fc5836125ea565b9250828203905081811115612fdd57612fdc612c60565b5b92915050565b7f424c533a20626164206674206d617070696e6720696d706c656d656e7461746960008201527f6f6e000000000000000000000000000000000000000000000000000000000000602082015250565b600061303f602283612cd7565b915061304a82612fe3565b604082019050919050565b6000602082019050818103600083015261306e81613032565b9050919050565b600081519050919050565b600081905092915050565b60005b838110156130a957808201518184015260208101905061308e565b60008484015250505050565b60006130c082613075565b6130ca8185613080565b93506130da81856020860161308b565b80840191505092915050565b60006130f282846130b5565b915081905092915050565b60008151905061310c816129ad565b92915050565b60006020828403121561312857613127612524565b5b6000613136848285016130fd565b9150509291505056fea26469706673582212204162515f6cfa52469831897beb89423b919753becf3dadc3e73df2289822aaaa64736f6c634300081a0033","linkReferences":{}},"methodIdentifiers":{"hashToPoint(bytes32,bytes)":"a850a909","isZeroBLSKey(uint256[4])":"c2ad5b98","verifyMultiple(uint256[2],uint256[4][],uint256[2][])":"91413763","verifySingle(uint256[2],uint256[4],uint256[2])":"ebbdac91"},"id":35}