{"abi":[{"type":"constructor","inputs":[{"name":"_entryPoint","type":"address","internalType":"contract IEntryPoint"}],"stateMutability":"nonpayable"},{"type":"function","name":"addStake","inputs":[{"name":"unstakeDelaySec","type":"uint32","internalType":"uint32"}],"outputs":[],"stateMutability":"payable"},{"type":"function","name":"deposit","inputs":[],"outputs":[],"stateMutability":"payable"},{"type":"function","name":"entryPoint","inputs":[],"outputs":[{"name":"","type":"address","internalType":"contract IEntryPoint"}],"stateMutability":"view"},{"type":"function","name":"getDeposit","inputs":[],"outputs":[{"name":"","type":"uint256","internalType":"uint256"}],"stateMutability":"view"},{"type":"function","name":"owner","inputs":[],"outputs":[{"name":"","type":"address","internalType":"address"}],"stateMutability":"view"},{"type":"function","name":"postOp","inputs":[{"name":"mode","type":"uint8","internalType":"enum IPaymaster.PostOpMode"},{"name":"context","type":"bytes","internalType":"bytes"},{"name":"actualGasCost","type":"uint256","internalType":"uint256"},{"name":"actualUserOpFeePerGas","type":"uint256","internalType":"uint256"}],"outputs":[],"stateMutability":"nonpayable"},{"type":"function","name":"renounceOwnership","inputs":[],"outputs":[],"stateMutability":"nonpayable"},{"type":"function","name":"setRevertType","inputs":[{"name":"_revertType","type":"uint8","internalType":"enum TestPaymasterRevertCustomError.RevertType"}],"outputs":[],"stateMutability":"nonpayable"},{"type":"function","name":"transferOwnership","inputs":[{"name":"newOwner","type":"address","internalType":"address"}],"outputs":[],"stateMutability":"nonpayable"},{"type":"function","name":"unlockStake","inputs":[],"outputs":[],"stateMutability":"nonpayable"},{"type":"function","name":"validatePaymasterUserOp","inputs":[{"name":"userOp","type":"tuple","internalType":"struct PackedUserOperation","components":[{"name":"sender","type":"address","internalType":"address"},{"name":"nonce","type":"uint256","internalType":"uint256"},{"name":"initCode","type":"bytes","internalType":"bytes"},{"name":"callData","type":"bytes","internalType":"bytes"},{"name":"accountGasLimits","type":"bytes32","internalType":"bytes32"},{"name":"preVerificationGas","type":"uint256","internalType":"uint256"},{"name":"gasFees","type":"bytes32","internalType":"bytes32"},{"name":"paymasterAndData","type":"bytes","internalType":"bytes"},{"name":"signature","type":"bytes","internalType":"bytes"}]},{"name":"userOpHash","type":"bytes32","internalType":"bytes32"},{"name":"maxCost","type":"uint256","internalType":"uint256"}],"outputs":[{"name":"context","type":"bytes","internalType":"bytes"},{"name":"validationData","type":"uint256","internalType":"uint256"}],"stateMutability":"nonpayable"},{"type":"function","name":"withdrawStake","inputs":[{"name":"withdrawAddress","type":"address","internalType":"address payable"}],"outputs":[],"stateMutability":"nonpayable"},{"type":"function","name":"withdrawTo","inputs":[{"name":"withdrawAddress","type":"address","internalType":"address payable"},{"name":"amount","type":"uint256","internalType":"uint256"}],"outputs":[],"stateMutability":"nonpayable"},{"type":"event","name":"OwnershipTransferred","inputs":[{"name":"previousOwner","type":"address","indexed":true,"internalType":"address"},{"name":"newOwner","type":"address","indexed":true,"internalType":"address"}],"anonymous":false},{"type":"error","name":"CustomError","inputs":[{"name":"customReason","type":"string","internalType":"string"}]},{"type":"error","name":"OwnableInvalidOwner","inputs":[{"name":"owner","type":"address","internalType":"address"}]},{"type":"error","name":"OwnableUnauthorizedAccount","inputs":[{"name":"account","type":"address","internalType":"address"}]}],"bytecode":{"object":"0x60a060405234801561001057600080fd5b5060405161179e38038061179e83398181016040528101906100329190610315565b8033600073ffffffffffffffffffffffffffffffffffffffff168173ffffffffffffffffffffffffffffffffffffffff16036100a65760006040517f1e4fbdf700000000000000000000000000000000000000000000000000000000815260040161009d9190610351565b60405180910390fd5b6100b58161010060201b60201c565b506100c5816101c460201b60201c565b8073ffffffffffffffffffffffffffffffffffffffff1660808173ffffffffffffffffffffffffffffffffffffffff168152505050506104a4565b60008060009054906101000a900473ffffffffffffffffffffffffffffffffffffffff169050816000806101000a81548173ffffffffffffffffffffffffffffffffffffffff021916908373ffffffffffffffffffffffffffffffffffffffff1602179055508173ffffffffffffffffffffffffffffffffffffffff168173ffffffffffffffffffffffffffffffffffffffff167f8be0079c531659141344cd1fd0a4f28419497f9722a3daafe3b4186f6b6457e060405160405180910390a35050565b8073ffffffffffffffffffffffffffffffffffffffff166301ffc9a77f915074d8000000000000000000000000000000000000000000000000000000006040518263ffffffff1660e01b815260040161021d91906103a7565b602060405180830381865afa15801561023a573d6000803e3d6000fd5b505050506040513d601f19601f8201168201806040525081019061025e91906103fa565b61029d576040517f08c379a000000000000000000000000000000000000000000000000000000000815260040161029490610484565b60405180910390fd5b50565b600080fd5b600073ffffffffffffffffffffffffffffffffffffffff82169050919050565b60006102d0826102a5565b9050919050565b60006102e2826102c5565b9050919050565b6102f2816102d7565b81146102fd57600080fd5b50565b60008151905061030f816102e9565b92915050565b60006020828403121561032b5761032a6102a0565b5b600061033984828501610300565b91505092915050565b61034b816102c5565b82525050565b60006020820190506103666000830184610342565b92915050565b60007fffffffff0000000000000000000000000000000000000000000000000000000082169050919050565b6103a18161036c565b82525050565b60006020820190506103bc6000830184610398565b92915050565b60008115159050919050565b6103d7816103c2565b81146103e257600080fd5b50565b6000815190506103f4816103ce565b92915050565b6000602082840312156104105761040f6102a0565b5b600061041e848285016103e5565b91505092915050565b600082825260208201905092915050565b7f49456e747279506f696e7420696e74657266616365206d69736d617463680000600082015250565b600061046e601e83610427565b915061047982610438565b602082019050919050565b6000602082019050818103600083015261049d81610461565b9050919050565b6080516112ae6104f0600039600081816102b10152818161034801528181610482015281816104ae01528181610538015281816105c801528181610667015261080201526112ae6000f3fe6080604052600436106100c25760003560e01c80638da5cb5b1161007f578063c23a5cea11610059578063c23a5cea14610220578063c399ec8814610249578063d0e30db014610274578063f2fde38b1461027e576100c2565b80638da5cb5b146101b3578063b0d691fe146101de578063bb9fe6bf14610209576100c2565b80630396cb60146100c7578063205c2878146100e35780632cd103391461010c57806352b7512c14610135578063715018a6146101735780637c627b211461018a575b600080fd5b6100e160048036038101906100dc9190610ac3565b6102a7565b005b3480156100ef57600080fd5b5061010a60048036038101906101059190610b84565b61033e565b005b34801561011857600080fd5b50610133600480360381019061012e9190610be9565b6103d7565b005b34801561014157600080fd5b5061015c60048036038101906101579190610c71565b610404565b60405161016a929190610d7f565b60405180910390f35b34801561017f57600080fd5b50610188610427565b005b34801561019657600080fd5b506101b160048036038101906101ac9190610e39565b61043b565b005b3480156101bf57600080fd5b506101c8610457565b6040516101d59190610ee2565b60405180910390f35b3480156101ea57600080fd5b506101f3610480565b6040516102009190610f5c565b60405180910390f35b34801561021557600080fd5b5061021e6104a4565b005b34801561022c57600080fd5b5061024760048036038101906102429190610f77565b61052e565b005b34801561025557600080fd5b5061025e6105c4565b60405161026b9190610fa4565b60405180910390f35b61027c610665565b005b34801561028a57600080fd5b506102a560048036038101906102a09190610feb565b6106f3565b005b6102af610779565b7f000000000000000000000000000000000000000000000000000000000000000073ffffffffffffffffffffffffffffffffffffffff16630396cb6034836040518363ffffffff1660e01b81526004016103099190611027565b6000604051808303818588803b15801561032257600080fd5b505af1158015610336573d6000803e3d6000fd5b505050505050565b610346610779565b7f000000000000000000000000000000000000000000000000000000000000000073ffffffffffffffffffffffffffffffffffffffff1663205c287883836040518363ffffffff1660e01b81526004016103a1929190611051565b600060405180830381600087803b1580156103bb57600080fd5b505af11580156103cf573d6000803e3d6000fd5b505050505050565b80600060146101000a81548160ff021916908360018111156103fc576103fb61107a565b5b021790555050565b60606000610410610800565b61041b858585610890565b91509150935093915050565b61042f610779565b61043960006108d0565b565b610443610800565b6104508585858585610994565b5050505050565b60008060009054906101000a900473ffffffffffffffffffffffffffffffffffffffff16905090565b7f000000000000000000000000000000000000000000000000000000000000000081565b6104ac610779565b7f000000000000000000000000000000000000000000000000000000000000000073ffffffffffffffffffffffffffffffffffffffff1663bb9fe6bf6040518163ffffffff1660e01b8152600401600060405180830381600087803b15801561051457600080fd5b505af1158015610528573d6000803e3d6000fd5b50505050565b610536610779565b7f000000000000000000000000000000000000000000000000000000000000000073ffffffffffffffffffffffffffffffffffffffff1663c23a5cea826040518263ffffffff1660e01b815260040161058f91906110a9565b600060405180830381600087803b1580156105a957600080fd5b505af11580156105bd573d6000803e3d6000fd5b5050505050565b60007f000000000000000000000000000000000000000000000000000000000000000073ffffffffffffffffffffffffffffffffffffffff166370a08231306040518263ffffffff1660e01b815260040161061f9190610ee2565b602060405180830381865afa15801561063c573d6000803e3d6000fd5b505050506040513d601f19601f8201168201806040525081019061066091906110d9565b905090565b7f000000000000000000000000000000000000000000000000000000000000000073ffffffffffffffffffffffffffffffffffffffff1663b760faf934306040518363ffffffff1660e01b81526004016106bf9190610ee2565b6000604051808303818588803b1580156106d857600080fd5b505af11580156106ec573d6000803e3d6000fd5b5050505050565b6106fb610779565b600073ffffffffffffffffffffffffffffffffffffffff168173ffffffffffffffffffffffffffffffffffffffff160361076d5760006040517f1e4fbdf70000000000000000000000000000000000000000000000000000000081526004016107649190610ee2565b60405180910390fd5b610776816108d0565b50565b610781610a75565b73ffffffffffffffffffffffffffffffffffffffff1661079f610457565b73ffffffffffffffffffffffffffffffffffffffff16146107fe576107c2610a75565b6040517f118cdaa70000000000000000000000000000000000000000000000000000000081526004016107f59190610ee2565b60405180910390fd5b565b7f000000000000000000000000000000000000000000000000000000000000000073ffffffffffffffffffffffffffffffffffffffff163373ffffffffffffffffffffffffffffffffffffffff161461088e576040517f08c379a000000000000000000000000000000000000000000000000000000000815260040161088590611163565b60405180910390fd5b565b606060008460000160208101906108a79190610feb565b6040516020016108b791906111cb565b6040516020818303038152906040529150935093915050565b60008060009054906101000a900473ffffffffffffffffffffffffffffffffffffffff169050816000806101000a81548173ffffffffffffffffffffffffffffffffffffffff021916908373ffffffffffffffffffffffffffffffffffffffff1602179055508173ffffffffffffffffffffffffffffffffffffffff168173ffffffffffffffffffffffffffffffffffffffff167f8be0079c531659141344cd1fd0a4f28419497f9722a3daafe3b4186f6b6457e060405160405180910390a35050565b600060018111156109a8576109a761107a565b5b600060149054906101000a900460ff1660018111156109ca576109c961107a565b5b03610a0a576040517f8d6ea8be000000000000000000000000000000000000000000000000000000008152600401610a0190611258565b60405180910390fd5b600180811115610a1d57610a1c61107a565b5b600060149054906101000a900460ff166001811115610a3f57610a3e61107a565b5b03610a6e577fdeaddead0000000000000000000000000000000000000000000000000000000060005260206000fd5b5050505050565b600033905090565b600080fd5b600080fd5b600063ffffffff82169050919050565b610aa081610a87565b8114610aab57600080fd5b50565b600081359050610abd81610a97565b92915050565b600060208284031215610ad957610ad8610a7d565b5b6000610ae784828501610aae565b91505092915050565b600073ffffffffffffffffffffffffffffffffffffffff82169050919050565b6000610b1b82610af0565b9050919050565b610b2b81610b10565b8114610b3657600080fd5b50565b600081359050610b4881610b22565b92915050565b6000819050919050565b610b6181610b4e565b8114610b6c57600080fd5b50565b600081359050610b7e81610b58565b92915050565b60008060408385031215610b9b57610b9a610a7d565b5b6000610ba985828601610b39565b9250506020610bba85828601610b6f565b9150509250929050565b60028110610bd157600080fd5b50565b600081359050610be381610bc4565b92915050565b600060208284031215610bff57610bfe610a7d565b5b6000610c0d84828501610bd4565b91505092915050565b600080fd5b60006101208284031215610c3257610c31610c16565b5b81905092915050565b6000819050919050565b610c4e81610c3b565b8114610c5957600080fd5b50565b600081359050610c6b81610c45565b92915050565b600080600060608486031215610c8a57610c89610a7d565b5b600084013567ffffffffffffffff811115610ca857610ca7610a82565b5b610cb486828701610c1b565b9350506020610cc586828701610c5c565b9250506040610cd686828701610b6f565b9150509250925092565b600081519050919050565b600082825260208201905092915050565b60005b83811015610d1a578082015181840152602081019050610cff565b60008484015250505050565b6000601f19601f8301169050919050565b6000610d4282610ce0565b610d4c8185610ceb565b9350610d5c818560208601610cfc565b610d6581610d26565b840191505092915050565b610d7981610b4e565b82525050565b60006040820190508181036000830152610d998185610d37565b9050610da86020830184610d70565b9392505050565b60038110610dbc57600080fd5b50565b600081359050610dce81610daf565b92915050565b600080fd5b600080fd5b600080fd5b60008083601f840112610df957610df8610dd4565b5b8235905067ffffffffffffffff811115610e1657610e15610dd9565b5b602083019150836001820283011115610e3257610e31610dde565b5b9250929050565b600080600080600060808688031215610e5557610e54610a7d565b5b6000610e6388828901610dbf565b955050602086013567ffffffffffffffff811115610e8457610e83610a82565b5b610e9088828901610de3565b94509450506040610ea388828901610b6f565b9250506060610eb488828901610b6f565b9150509295509295909350565b6000610ecc82610af0565b9050919050565b610edc81610ec1565b82525050565b6000602082019050610ef76000830184610ed3565b92915050565b6000819050919050565b6000610f22610f1d610f1884610af0565b610efd565b610af0565b9050919050565b6000610f3482610f07565b9050919050565b6000610f4682610f29565b9050919050565b610f5681610f3b565b82525050565b6000602082019050610f716000830184610f4d565b92915050565b600060208284031215610f8d57610f8c610a7d565b5b6000610f9b84828501610b39565b91505092915050565b6000602082019050610fb96000830184610d70565b92915050565b610fc881610ec1565b8114610fd357600080fd5b50565b600081359050610fe581610fbf565b92915050565b60006020828403121561100157611000610a7d565b5b600061100f84828501610fd6565b91505092915050565b61102181610a87565b82525050565b600060208201905061103c6000830184611018565b92915050565b61104b81610b10565b82525050565b60006040820190506110666000830185611042565b6110736020830184610d70565b9392505050565b7f4e487b7100000000000000000000000000000000000000000000000000000000600052602160045260246000fd5b60006020820190506110be6000830184611042565b92915050565b6000815190506110d381610b58565b92915050565b6000602082840312156110ef576110ee610a7d565b5b60006110fd848285016110c4565b91505092915050565b600082825260208201905092915050565b7f53656e646572206e6f7420456e747279506f696e740000000000000000000000600082015250565b600061114d601583611106565b915061115882611117565b602082019050919050565b6000602082019050818103600083015261117c81611140565b9050919050565b60008160601b9050919050565b600061119b82611183565b9050919050565b60006111ad82611190565b9050919050565b6111c56111c082610ec1565b6111a2565b82525050565b60006111d782846111b4565b60148201915081905092915050565b7f746869732069732061206c6f6e672072657665727420726561736f6e2073747260008201527f696e6720776520617265206c6f6f6b696e6720666f7200000000000000000000602082015250565b6000611242603683611106565b915061124d826111e6565b604082019050919050565b6000602082019050818103600083015261127181611235565b905091905056fea26469706673582212202056d0f6578b7fa7c9367f1137db59370e5fe822e34d3fec0774d6e7a10c1ebe64736f6c634300081a0033","linkReferences":{}},"methodIdentifiers":{"addStake(uint32)":"0396cb60","deposit()":"d0e30db0","entryPoint()":"b0d691fe","getDeposit()":"c399ec88","owner()":"8da5cb5b","postOp(uint8,bytes,uint256,uint256)":"7c627b21","renounceOwnership()":"715018a6","setRevertType(uint8)":"2cd10339","transferOwnership(address)":"f2fde38b","unlockStake()":"bb9fe6bf","validatePaymasterUserOp((address,uint256,bytes,bytes,bytes32,uint256,bytes32,bytes,bytes),bytes32,uint256)":"52b7512c","withdrawStake(address)":"c23a5cea","withdrawTo(address,uint256)":"205c2878"},"id":55}