{"abi":[{"type":"constructor","inputs":[{"name":"_entryPointAddress","type":"address","internalType":"address"}],"stateMutability":"nonpayable"},{"type":"function","name":"handleAggregatedOpsSafely","inputs":[{"name":"opsPerAggregator","type":"tuple[]","internalType":"struct IEntryPoint.UserOpsPerAggregator[]","components":[{"name":"userOps","type":"tuple[]","internalType":"struct PackedUserOperation[]","components":[{"name":"sender","type":"address","internalType":"address"},{"name":"nonce","type":"uint256","internalType":"uint256"},{"name":"initCode","type":"bytes","internalType":"bytes"},{"name":"callData","type":"bytes","internalType":"bytes"},{"name":"accountGasLimits","type":"bytes32","internalType":"bytes32"},{"name":"preVerificationGas","type":"uint256","internalType":"uint256"},{"name":"gasFees","type":"bytes32","internalType":"bytes32"},{"name":"paymasterAndData","type":"bytes","internalType":"bytes"},{"name":"signature","type":"bytes","internalType":"bytes"}]},{"name":"aggregator","type":"address","internalType":"contract IAggregator"},{"name":"signature","type":"bytes","internalType":"bytes"}]},{"name":"beneficiary","type":"address","internalType":"address payable"}],"outputs":[],"stateMutability":"nonpayable"},{"type":"event","name":"OperationFailed","inputs":[{"name":"aggregatorIndex","type":"uint256","indexed":false,"internalType":"uint256"},{"name":"operationIndex","type":"uint256","indexed":false,"internalType":"uint256"}],"anonymous":false}],"bytecode":{"object":"0x6080604052348015600f57600080fd5b5060405161074d38038061074d833981016040819052602c916050565b600080546001600160a01b0319166001600160a01b0392909216919091179055607e565b600060208284031215606157600080fd5b81516001600160a01b0381168114607757600080fd5b9392505050565b6106c08061008d6000396000f3fe608060405234801561001057600080fd5b506004361061002b5760003560e01c806394a9b37214610030575b600080fd5b61004361003e366004610229565b610045565b005b8160005b8181101561020a5736858583818110610064576100646102b2565b905060200281019061007691906102c8565b905036600061008583806102e8565b90925090508060005b818110156101f957604080516001808252818301909252600091816020015b604080516101208101825260008082526020820181905260609282018390528282018390526080820181905260a0820181905260c082015260e081018290526101008101919091528152602001906001900390816100ad57905050905084848381811061011c5761011c6102b2565b905060200281019061012e919061034f565b6101379061042f565b8160008151811061014a5761014a6102b2565b602090810291909101015260005460405163765e827f60e01b81526001600160a01b039091169063765e827f906101879084908d9060040161057b565b600060405180830381600087803b1580156101a157600080fd5b505af19250505080156101b2575060015b6101f05760408051888152602081018490527feb4b3f17194a169974c8ba2fd65a88fc5f2378fa49f2278b025c0796e943ae07910160405180910390a15b5060010161008e565b505060019093019250610049915050565b5050505050565b6001600160a01b038116811461022657600080fd5b50565b60008060006040848603121561023e57600080fd5b833567ffffffffffffffff81111561025557600080fd5b8401601f8101861361026657600080fd5b803567ffffffffffffffff81111561027d57600080fd5b8660208260051b840101111561029257600080fd5b6020918201945092508401356102a781610211565b809150509250925092565b634e487b7160e01b600052603260045260246000fd5b60008235605e198336030181126102de57600080fd5b9190910192915050565b6000808335601e198436030181126102ff57600080fd5b83018035915067ffffffffffffffff82111561031a57600080fd5b6020019150600581901b360382131561033257600080fd5b9250929050565b634e487b7160e01b600052604160045260246000fd5b6000823561011e198336030181126102de57600080fd5b604051610120810167ffffffffffffffff8111828210171561038a5761038a610339565b60405290565b803561039b81610211565b919050565b600082601f8301126103b157600080fd5b813567ffffffffffffffff8111156103cb576103cb610339565b604051601f8201601f19908116603f0116810167ffffffffffffffff811182821017156103fa576103fa610339565b60405281815283820160200185101561041257600080fd5b816020850160208301376000918101602001919091529392505050565b6000610120823603121561044257600080fd5b61044a610366565b61045383610390565b815260208381013590820152604083013567ffffffffffffffff81111561047957600080fd5b610485368286016103a0565b604083015250606083013567ffffffffffffffff8111156104a557600080fd5b6104b1368286016103a0565b6060830152506080838101359082015260a0808401359082015260c0808401359082015260e083013567ffffffffffffffff8111156104ef57600080fd5b6104fb368286016103a0565b60e08301525061010083013567ffffffffffffffff81111561051c57600080fd5b610528368286016103a0565b6101008301525092915050565b6000815180845260005b8181101561055b5760208185018101518683018201520161053f565b506000602082860101526020601f19601f83011685010191505092915050565b6000604082016040835280855180835260608501915060608160051b86010192506020870160005b8281101561066e57868503605f19018452815180516001600160a01b0316865260208101516020870152604081015161012060408801526105e8610120880182610535565b9050606082015187820360608901526106018282610535565b9150506080820151608088015260a082015160a088015260c082015160c088015260e082015187820360e08901526106398282610535565b91505061010082015191508681036101008801526106578183610535565b9650505060209384019391909101906001016105a3565b5050506001600160a01b0385166020850152509050939250505056fea2646970667358221220980ecf19e3b26722cd80101adbcf045de850dc33079bf045b0a01a5e128b4e1e64736f6c634300081a0033","linkReferences":{}},"methodIdentifiers":{"handleAggregatedOpsSafely(((address,uint256,bytes,bytes,bytes32,uint256,bytes32,bytes,bytes)[],address,bytes)[],address)":"94a9b372"},"id":0}