{"abi":[{"type":"constructor","inputs":[{"name":"_ep","type":"address","internalType":"contract IEntryPoint"}],"stateMutability":"payable"},{"type":"function","name":"validateUserOp","inputs":[{"name":"userOp","type":"tuple","internalType":"struct PackedUserOperation","components":[{"name":"sender","type":"address","internalType":"address"},{"name":"nonce","type":"uint256","internalType":"uint256"},{"name":"initCode","type":"bytes","internalType":"bytes"},{"name":"callData","type":"bytes","internalType":"bytes"},{"name":"accountGasLimits","type":"bytes32","internalType":"bytes32"},{"name":"preVerificationGas","type":"uint256","internalType":"uint256"},{"name":"gasFees","type":"bytes32","internalType":"bytes32"},{"name":"paymasterAndData","type":"bytes","internalType":"bytes"},{"name":"signature","type":"bytes","internalType":"bytes"}]},{"name":"","type":"bytes32","internalType":"bytes32"},{"name":"missingAccountFunds","type":"uint256","internalType":"uint256"}],"outputs":[{"name":"validationData","type":"uint256","internalType":"uint256"}],"stateMutability":"nonpayable"}],"bytecode":{"object":"0x6080604052604051610732380380610732833981810160405281019061002591906100e0565b806000806101000a81548173ffffffffffffffffffffffffffffffffffffffff021916908373ffffffffffffffffffffffffffffffffffffffff1602179055505061010d565b600080fd5b600073ffffffffffffffffffffffffffffffffffffffff82169050919050565b600061009b82610070565b9050919050565b60006100ad82610090565b9050919050565b6100bd816100a2565b81146100c857600080fd5b50565b6000815190506100da816100b4565b92915050565b6000602082840312156100f6576100f561006b565b5b6000610104848285016100cb565b91505092915050565b6106168061011c6000396000f3fe608060405234801561001057600080fd5b506004361061002b5760003560e01c806319822f7c14610030575b600080fd5b61004a600480360381019061004591906102d8565b610060565b6040516100579190610356565b60405180910390f35b60008060009054906101000a900473ffffffffffffffffffffffffffffffffffffffff1673ffffffffffffffffffffffffffffffffffffffff1663b760faf983306040518363ffffffff1660e01b81526004016100bd91906103b2565b6000604051808303818588803b1580156100d657600080fd5b505af11580156100ea573d6000803e3d6000fd5b505050505060008480610100019061010291906103dc565b81019061010f919061043f565b9050600061011c866101cb565b90506000610129876101e1565b905060008760a00135828461013e919061049b565b610148919061049b565b90506000818761015891906104fe565b905060006101658a6101f7565b905060008183610175919061052f565b90508681146101b9576040517f08c379a00000000000000000000000000000000000000000000000000000000081526004016101b0906105c0565b60405180910390fd5b60009750505050505050509392505050565b60006101da826080013561020d565b9050919050565b60006101f0826080013561021e565b9050919050565b60006102068260c0013561020d565b9050919050565b600060808260001c901c9050919050565b60008160001c6fffffffffffffffffffffffffffffffff169050919050565b600080fd5b600080fd5b600080fd5b6000610120828403121561026357610262610247565b5b81905092915050565b6000819050919050565b61027f8161026c565b811461028a57600080fd5b50565b60008135905061029c81610276565b92915050565b6000819050919050565b6102b5816102a2565b81146102c057600080fd5b50565b6000813590506102d2816102ac565b92915050565b6000806000606084860312156102f1576102f061023d565b5b600084013567ffffffffffffffff81111561030f5761030e610242565b5b61031b8682870161024c565b935050602061032c8682870161028d565b925050604061033d868287016102c3565b9150509250925092565b610350816102a2565b82525050565b600060208201905061036b6000830184610347565b92915050565b600073ffffffffffffffffffffffffffffffffffffffff82169050919050565b600061039c82610371565b9050919050565b6103ac81610391565b82525050565b60006020820190506103c760008301846103a3565b92915050565b600080fd5b600080fd5b600080fd5b600080833560016020038436030381126103f9576103f86103cd565b5b80840192508235915067ffffffffffffffff82111561041b5761041a6103d2565b5b602083019250600182023603831315610437576104366103d7565b5b509250929050565b6000602082840312156104555761045461023d565b5b6000610463848285016102c3565b91505092915050565b7f4e487b7100000000000000000000000000000000000000000000000000000000600052601160045260246000fd5b60006104a6826102a2565b91506104b1836102a2565b92508282019050808211156104c9576104c861046c565b5b92915050565b7f4e487b7100000000000000000000000000000000000000000000000000000000600052601260045260246000fd5b6000610509826102a2565b9150610514836102a2565b925082610524576105236104cf565b5b828204905092915050565b600061053a826102a2565b9150610545836102a2565b925082820390508181111561055d5761055c61046c565b5b92915050565b600082825260208201905092915050565b7f5265766572742061667465722066697273742076616c69646174696f6e000000600082015250565b60006105aa601d83610563565b91506105b582610574565b602082019050919050565b600060208201905081810360008301526105d98161059d565b905091905056fea26469706673582212208ffe14dcf5dee9b95d671dca5d051a6a58a0eaa7882b2d2e41fb30636346aa1364736f6c634300081a0033","linkReferences":{}},"methodIdentifiers":{"validateUserOp((address,uint256,bytes,bytes,bytes32,uint256,bytes32,bytes,bytes),bytes32,uint256)":"19822f7c"},"id":44}