{"abi":[{"type":"function","name":"secretValue","inputs":[],"outputs":[{"name":"","type":"uint256","internalType":"uint256"}],"stateMutability":"view"},{"type":"function","name":"setSecretValue","inputs":[{"name":"_value","type":"uint256","internalType":"uint256"}],"outputs":[],"stateMutability":"nonpayable"}],"bytecode":{"object":"0x6080604052348015600f57600080fd5b5060b180601d6000396000f3fe6080604052348015600f57600080fd5b506004361060325760003560e01c80634adc122e146037578063ccaa0248146049575b600080fd5b604760423660046063565b600055565b005b605160005481565b60405190815260200160405180910390f35b600060208284031215607457600080fd5b503591905056fea26469706673582212200e57d5c71361f2f6f53debca15c2870e2933d1be547df1826fb78c7dcc0df2cd64736f6c634300081a0033","linkReferences":{}},"methodIdentifiers":{"secretValue()":"ccaa0248","setSecretValue(uint256)":"4adc122e"},"id":43}