{"abi":[{"type":"function","name":"encodeUserOp","inputs":[{"name":"op","type":"tuple","internalType":"struct PackedUserOperation","components":[{"name":"sender","type":"address","internalType":"address"},{"name":"nonce","type":"uint256","internalType":"uint256"},{"name":"initCode","type":"bytes","internalType":"bytes"},{"name":"callData","type":"bytes","internalType":"bytes"},{"name":"accountGasLimits","type":"bytes32","internalType":"bytes32"},{"name":"preVerificationGas","type":"uint256","internalType":"uint256"},{"name":"gasFees","type":"bytes32","internalType":"bytes32"},{"name":"paymasterAndData","type":"bytes","internalType":"bytes"},{"name":"signature","type":"bytes","internalType":"bytes"}]}],"outputs":[{"name":"","type":"bytes","internalType":"bytes"}],"stateMutability":"pure"}],"bytecode":{"object":"0x6080604052348015600f57600080fd5b506104208061001f6000396000f3fe608060405234801561001057600080fd5b506004361061002b5760003560e01c8063a124062e14610030575b600080fd5b61004a6004803603810190610045919061018c565b610060565b6040516100579190610265565b60405180910390f35b606061006b82610072565b9050919050565b6060600061007f83610136565b905060008360200135905060006100a485806040019061009f9190610296565b610146565b905060006100c08680606001906100bb9190610296565b610146565b905060008660800135905060008760a00135905060008860c00135905060006100f78a8060e001906100f29190610296565b610146565b9050878787878787878760405160200161011898979695949392919061036c565b60405160208183030381529060405298505050505050505050919050565b6000808235905080915050919050565b600060405182808583378082209250505092915050565b600080fd5b600080fd5b600080fd5b6000610120828403121561018357610182610167565b5b81905092915050565b6000602082840312156101a2576101a161015d565b5b600082013567ffffffffffffffff8111156101c0576101bf610162565b5b6101cc8482850161016c565b91505092915050565b600081519050919050565b600082825260208201905092915050565b60005b8381101561020f5780820151818401526020810190506101f4565b60008484015250505050565b6000601f19601f8301169050919050565b6000610237826101d5565b61024181856101e0565b93506102518185602086016101f1565b61025a8161021b565b840191505092915050565b6000602082019050818103600083015261027f818461022c565b905092915050565b600080fd5b600080fd5b600080fd5b600080833560016020038436030381126102b3576102b2610287565b5b80840192508235915067ffffffffffffffff8211156102d5576102d461028c565b5b6020830192506001820236038313156102f1576102f0610291565b5b509250929050565b600073ffffffffffffffffffffffffffffffffffffffff82169050919050565b6000610324826102f9565b9050919050565b61033481610319565b82525050565b6000819050919050565b61034d8161033a565b82525050565b6000819050919050565b61036681610353565b82525050565b600061010082019050610382600083018b61032b565b61038f602083018a610344565b61039c604083018961035d565b6103a9606083018861035d565b6103b6608083018761035d565b6103c360a0830186610344565b6103d060c083018561035d565b6103dd60e083018461035d565b999850505050505050505056fea2646970667358221220a36921eaf67cce95202d67e82c37ab3dcd2bc72b6c3abd7f09e66401dc4c085964736f6c634300081a0033","linkReferences":{}},"methodIdentifiers":{"encodeUserOp((address,uint256,bytes,bytes,bytes32,uint256,bytes32,bytes,bytes))":"a124062e"},"id":61}