{"abi":[{"type":"receive","stateMutability":"payable"},{"type":"function","name":"attack","inputs":[],"outputs":[],"stateMutability":"nonpayable"}],"bytecode":{"object":"0x6080604052348015600f57600080fd5b5060a380601d6000396000f3fe60806040526004361060205760003560e01c80639e5faafc14602b57600080fd5b36602657005b600080fd5b348015603657600080fd5b50603d603f565b005b60405133904780156108fc02916000818181858888f19350505050158015606a573d6000803e3d6000fd5b5056fea26469706673582212200caaccd43e8b9698c1b086045682ea2e36a24812b15ebdc7e5bf142e9e6e7cef64736f6c634300081a0033","linkReferences":{}},"methodIdentifiers":{"attack()":"9e5faafc"},"id":42}