{"abi":[{"type":"constructor","inputs":[{"name":"_entryPoint","type":"address","internalType":"address"}],"stateMutability":"nonpayable"},{"type":"function","name":"BLS_DOMAIN","inputs":[],"outputs":[{"name":"","type":"bytes32","internalType":"bytes32"}],"stateMutability":"view"},{"type":"function","name":"N","inputs":[],"outputs":[{"name":"","type":"uint256","internalType":"uint256"}],"stateMutability":"view"},{"type":"function","name":"addStake","inputs":[{"name":"unstakeDelaySec","type":"uint32","internalType":"uint32"}],"outputs":[],"stateMutability":"payable"},{"type":"function","name":"aggregateSignatures","inputs":[{"name":"userOps","type":"tuple[]","internalType":"struct PackedUserOperation[]","components":[{"name":"sender","type":"address","internalType":"address"},{"name":"nonce","type":"uint256","internalType":"uint256"},{"name":"initCode","type":"bytes","internalType":"bytes"},{"name":"callData","type":"bytes","internalType":"bytes"},{"name":"accountGasLimits","type":"bytes32","internalType":"bytes32"},{"name":"preVerificationGas","type":"uint256","internalType":"uint256"},{"name":"gasFees","type":"bytes32","internalType":"bytes32"},{"name":"paymasterAndData","type":"bytes","internalType":"bytes"},{"name":"signature","type":"bytes","internalType":"bytes"}]}],"outputs":[{"name":"aggregatedSignature","type":"bytes","internalType":"bytes"}],"stateMutability":"pure"},{"type":"function","name":"entryPoint","inputs":[],"outputs":[{"name":"","type":"address","internalType":"address"}],"stateMutability":"view"},{"type":"function","name":"getTrailingPublicKey","inputs":[{"name":"data","type":"bytes","internalType":"bytes"}],"outputs":[{"name":"publicKey","type":"uint256[4]","internalType":"uint256[4]"}],"stateMutability":"pure"},{"type":"function","name":"getUserOpHash","inputs":[{"name":"userOp","type":"tuple","internalType":"struct PackedUserOperation","components":[{"name":"sender","type":"address","internalType":"address"},{"name":"nonce","type":"uint256","internalType":"uint256"},{"name":"initCode","type":"bytes","internalType":"bytes"},{"name":"callData","type":"bytes","internalType":"bytes"},{"name":"accountGasLimits","type":"bytes32","internalType":"bytes32"},{"name":"preVerificationGas","type":"uint256","internalType":"uint256"},{"name":"gasFees","type":"bytes32","internalType":"bytes32"},{"name":"paymasterAndData","type":"bytes","internalType":"bytes"},{"name":"signature","type":"bytes","internalType":"bytes"}]}],"outputs":[{"name":"","type":"bytes32","internalType":"bytes32"}],"stateMutability":"view"},{"type":"function","name":"getUserOpPublicKey","inputs":[{"name":"userOp","type":"tuple","internalType":"struct PackedUserOperation","components":[{"name":"sender","type":"address","internalType":"address"},{"name":"nonce","type":"uint256","internalType":"uint256"},{"name":"initCode","type":"bytes","internalType":"bytes"},{"name":"callData","type":"bytes","internalType":"bytes"},{"name":"accountGasLimits","type":"bytes32","internalType":"bytes32"},{"name":"preVerificationGas","type":"uint256","internalType":"uint256"},{"name":"gasFees","type":"bytes32","internalType":"bytes32"},{"name":"paymasterAndData","type":"bytes","internalType":"bytes"},{"name":"signature","type":"bytes","internalType":"bytes"}]}],"outputs":[{"name":"publicKey","type":"uint256[4]","internalType":"uint256[4]"}],"stateMutability":"view"},{"type":"function","name":"userOpToMessage","inputs":[{"name":"userOp","type":"tuple","internalType":"struct PackedUserOperation","components":[{"name":"sender","type":"address","internalType":"address"},{"name":"nonce","type":"uint256","internalType":"uint256"},{"name":"initCode","type":"bytes","internalType":"bytes"},{"name":"callData","type":"bytes","internalType":"bytes"},{"name":"accountGasLimits","type":"bytes32","internalType":"bytes32"},{"name":"preVerificationGas","type":"uint256","internalType":"uint256"},{"name":"gasFees","type":"bytes32","internalType":"bytes32"},{"name":"paymasterAndData","type":"bytes","internalType":"bytes"},{"name":"signature","type":"bytes","internalType":"bytes"}]}],"outputs":[{"name":"","type":"uint256[2]","internalType":"uint256[2]"}],"stateMutability":"view"},{"type":"function","name":"validateSignatures","inputs":[{"name":"userOps","type":"tuple[]","internalType":"struct PackedUserOperation[]","components":[{"name":"sender","type":"address","internalType":"address"},{"name":"nonce","type":"uint256","internalType":"uint256"},{"name":"initCode","type":"bytes","internalType":"bytes"},{"name":"callData","type":"bytes","internalType":"bytes"},{"name":"accountGasLimits","type":"bytes32","internalType":"bytes32"},{"name":"preVerificationGas","type":"uint256","internalType":"uint256"},{"name":"gasFees","type":"bytes32","internalType":"bytes32"},{"name":"paymasterAndData","type":"bytes","internalType":"bytes"},{"name":"signature","type":"bytes","internalType":"bytes"}]},{"name":"signature","type":"bytes","internalType":"bytes"}],"outputs":[],"stateMutability":"view"},{"type":"function","name":"validateUserOpSignature","inputs":[{"name":"userOp","type":"tuple","internalType":"struct PackedUserOperation","components":[{"name":"sender","type":"address","internalType":"address"},{"name":"nonce","type":"uint256","internalType":"uint256"},{"name":"initCode","type":"bytes","internalType":"bytes"},{"name":"callData","type":"bytes","internalType":"bytes"},{"name":"accountGasLimits","type":"bytes32","internalType":"bytes32"},{"name":"preVerificationGas","type":"uint256","internalType":"uint256"},{"name":"gasFees","type":"bytes32","internalType":"bytes32"},{"name":"paymasterAndData","type":"bytes","internalType":"bytes"},{"name":"signature","type":"bytes","internalType":"bytes"}]}],"outputs":[{"name":"sigForUserOp","type":"bytes","internalType":"bytes"}],"stateMutability":"view"}],"bytecode":{"object":"0x60a060405234801561001057600080fd5b50604051612ced380380612ced833981810160405281019061003291906100cf565b8073ffffffffffffffffffffffffffffffffffffffff1660808173ffffffffffffffffffffffffffffffffffffffff1681525050506100fc565b600080fd5b600073ffffffffffffffffffffffffffffffffffffffff82169050919050565b600061009c82610071565b9050919050565b6100ac81610091565b81146100b757600080fd5b50565b6000815190506100c9816100a3565b92915050565b6000602082840312156100e5576100e461006c565b5b60006100f3848285016100ba565b91505092915050565b608051612bc8610125600039600081816102fa0152818161097a0152610b860152612bc86000f3fe60806040526004361061009b5760003560e01c80639b2004b5116100645780639b2004b51461018a578063ae574a43146101c7578063b0d691fe14610204578063b7620eb41461022f578063c9e525df1461026c578063d4fedb4d146102975761009b565b80629d9250146100a05780630396cb60146100cb578063062a422b146100e757806322cdde4c146101245780632dd8113314610161575b600080fd5b3480156100ac57600080fd5b506100b56102d4565b6040516100c291906115a0565b60405180910390f35b6100e560048036038101906100e0919061160b565b6102f8565b005b3480156100f357600080fd5b5061010e6004803603810190610109919061165d565b610387565b60405161011b9190611736565b60405180910390f35b34801561013057600080fd5b5061014b60048036038101906101469190611aa7565b6104b5565b60405161015891906115a0565b60405180910390f35b34801561016d57600080fd5b5061018860048036038101906101839190611ba6565b6104dd565b005b34801561019657600080fd5b506101b160048036038101906101ac9190611aa7565b610770565b6040516101be9190611cd2565b60405180910390f35b3480156101d357600080fd5b506101ee60048036038101906101e99190611ced565b610821565b6040516101fb9190611736565b60405180910390f35b34801561021057600080fd5b50610219610978565b6040516102269190611d49565b60405180910390f35b34801561023b57600080fd5b5061025660048036038101906102519190611d64565b61099c565b6040516102639190611cd2565b60405180910390f35b34801561027857600080fd5b50610281610a1c565b60405161028e9190611dbc565b60405180910390f35b3480156102a357600080fd5b506102be60048036038101906102b99190611aa7565b610a40565b6040516102cb9190611e5b565b60405180910390f35b7fd84c4373167c517e9ccd66803f86d8a4f49e7e1315a7a73b516affea7428f82b81565b7f000000000000000000000000000000000000000000000000000000000000000073ffffffffffffffffffffffffffffffffffffffff16630396cb6034836040518363ffffffff1660e01b81526004016103529190611e85565b6000604051808303818588803b15801561036b57600080fd5b505af115801561037f573d6000803e3d6000fd5b505050505050565b606060008280610100019061039c9190611eaf565b8101906103a99190611fc3565b905060006103bf846103ba90611ff0565b610770565b905060006103de856103d090611ff0565b6103d984610a6f565b610a9f565b905073__$b745eded4b1aee1100521038d570dd85f1$__63ebbdac918484846040518463ffffffff1660e01b815260040161041b939291906120ee565b602060405180830381865af4158015610438573d6000803e3d6000fd5b505050506040513d601f19601f8201168201806040525081019061045c919061215e565b61049b576040517f08c379a0000000000000000000000000000000000000000000000000000000008152600401610492906121e8565b60405180910390fd5b604051806020016040528060008152509350505050919050565b6000806104c96104c484610770565b610a6f565b90506104d58382610b76565b915050919050565b60408282905014610523576040517f08c379a000000000000000000000000000000000000000000000000000000000815260040161051a90612254565b60405180910390fd5b600082828101906105349190611fc3565b9050600085859050905060008167ffffffffffffffff81111561055a5761055961175d565b5b60405190808252806020026020018201604052801561059357816020015b610580611529565b8152602001906001900390816105785790505b50905060008267ffffffffffffffff8111156105b2576105b161175d565b5b6040519080825280602002602001820160405280156105eb57816020015b6105d861154b565b8152602001906001900390816105d05790505b50905060005b838110156106aa57600089898381811061060e5761060d612274565b5b905060200281019061062091906122a3565b61062990611ff0565b905061063481610770565b84838151811061064757610646612274565b5b602002602001018190525061067e8161067986858151811061066c5761066b612274565b5b6020026020010151610a6f565b610a9f565b83838151811061069157610690612274565b5b60200260200101819052505080806001019150506105f1565b5073__$b745eded4b1aee1100521038d570dd85f1$__63914137638584846040518463ffffffff1660e01b81526004016106e6939291906124ee565b602060405180830381865af4158015610703573d6000803e3d6000fd5b505050506040513d601f19601f82011682018060405250810190610727919061215e565b610766576040517f08c379a000000000000000000000000000000000000000000000000000000000815260040161075d9061257f565b60405180910390fd5b5050505050505050565b610778611529565b60008260400151905060008151111561079b576107948161099c565b915061081a565b826000015173ffffffffffffffffffffffffffffffffffffffff1663e02afbae61c3506040518263ffffffff1660e01b81526004016080604051808303818786fa1580156107ed573d6000803e3d6000fd5b50505050506040513d601f19601f820116820180604052508101906108129190612665565b91505061081c565b505b919050565b606060008383905067ffffffffffffffff8111156108425761084161175d565b5b60405190808252806020026020018201604052801561087b57816020015b61086861156d565b8152602001906001900390816108605790505b50905060005b8151811015610915576000808686848181106108a05761089f612274565b5b90506020028101906108b291906122a3565b8061010001906108c29190611eaf565b8101906108cf9190612692565b915091506040518060400160405280838152602001828152508484815181106108fb576108fa612274565b5b602002602001018190525050508080600101915050610881565b506000610942827f30644e72e131a029b85045b68181585d97816a916871ca8d3c208c16d87cfd47610bd7565b90508060000151816020015160405160200161095f9291906126d2565b6040516020818303038152906040529250505092915050565b7f000000000000000000000000000000000000000000000000000000000000000081565b6109a4611529565b600082519050608081116109ed576040517f08c379a00000000000000000000000000000000000000000000000000000000081526004016109e490612747565b60405180910390fd5b606081840103805183526020810151602084015260408101516040840152606081015160608401525050919050565b7f30644e72e131a029b85045b68181585d97816a916871ca8d3c208c16d87cfd4781565b610a4861154b565b6000610a5b610a5684610770565b610a6f565b9050610a678382610a9f565b915050919050565b600081604051602001610a829190611cd2565b604051602081830303815290604052805190602001209050919050565b610aa761154b565b6000610ab38484610b76565b905073__$b745eded4b1aee1100521038d570dd85f1$__63a850a9097fd84c4373167c517e9ccd66803f86d8a4f49e7e1315a7a73b516affea7428f82b83604051602001610b019190612788565b6040516020818303038152906040526040518363ffffffff1660e01b8152600401610b2d9291906127fc565b6040805180830381865af4158015610b49573d6000803e3d6000fd5b505050506040513d601f19601f82011682018060405250810190610b6d91906128b7565b91505092915050565b6000610b8183610cd4565b8230467f0000000000000000000000000000000000000000000000000000000000000000604051602001610bb99594939291906128e4565b60405160208183030381529060405280519060200120905092915050565b610bdf61156d565b600083600081518110610bf557610bf4612274565b5b6020026020010151600001519050600084600081518110610c1957610c18612274565b5b60200260200101516020015190506000600190506000600190505b8651811015610ca257610c898484848a8581518110610c5657610c55612274565b5b6020026020010151600001518b8681518110610c7557610c74612274565b5b60200260200101516020015160018c610d47565b8094508195508296505050508080600101915050610c34565b50610caf838383886113c6565b8093508194505050828460000181815250508184602001818152505050505092915050565b60008160000151826020015183604001518051906020012084606001518051906020012085608001518660a001518760c001518860e0015180519060200120604051602001610d2a989796959493929190612937565b604051602081830303815290604052805190602001209050919050565b6000806000808a148015610d5b5750600089145b15610d6e578686869250925092506113b9565b600087148015610d7e5750600086145b15610d91578989899250925092506113b9565b610d99611529565b8480610da857610da76129b5565b5b898a0981600060048110610dbf57610dbe612274565b5b6020020181815250508480610dd757610dd66129b5565b5b81600060048110610deb57610dea612274565b5b60200201518a0981600160048110610e0657610e05612274565b5b6020020181815250508480610e1e57610e1d6129b5565b5b86870981600260048110610e3557610e34612274565b5b6020020181815250508480610e4d57610e4c6129b5565b5b81600260048110610e6157610e60612274565b5b6020020151870981600360048110610e7c57610e7b612274565b5b60200201818152505060405180608001604052808680610e9f57610e9e6129b5565b5b83600260048110610eb357610eb2612274565b5b60200201518e0981526020018680610ece57610ecd6129b5565b5b83600360048110610ee257610ee1612274565b5b60200201518d0981526020018680610efd57610efc6129b5565b5b83600060048110610f1157610f10612274565b5b60200201518b0981526020018680610f2c57610f2b6129b5565b5b83600160048110610f4057610f3f612274565b5b60200201518a09815250905080600260048110610f6057610f5f612274565b5b602002015181600060048110610f7957610f78612274565b5b6020020151141580610fbb575080600360048110610f9a57610f99612274565b5b602002015181600160048110610fb357610fb2612274565b5b602002015114155b610ffa576040517f08c379a0000000000000000000000000000000000000000000000000000000008152600401610ff190612a30565b60405180910390fd5b611002611529565b8580611011576110106129b5565b5b8260006004811061102557611024612274565b5b6020020151876110359190612a7f565b8360026004811061104957611048612274565b5b6020020151088160006004811061106357611062612274565b5b602002018181525050858061107b5761107a6129b5565b5b8260016004811061108f5761108e612274565b5b60200201518761109f9190612a7f565b836003600481106110b3576110b2612274565b5b602002015108816001600481106110cd576110cc612274565b5b60200201818152505085806110e5576110e46129b5565b5b816000600481106110f9576110f8612274565b5b60200201518260006004811061111257611111612274565b5b6020020151098160026004811061112c5761112b612274565b5b6020020181815250508580611144576111436129b5565b5b8160006004811061115857611157612274565b5b60200201518260026004811061117157611170612274565b5b6020020151098160036004811061118b5761118a612274565b5b602002018181525050600086806111a5576111a46129b5565b5b826003600481106111b9576111b8612274565b5b6020020151886111c99190612a7f565b88806111d8576111d76129b5565b5b846001600481106111ec576111eb612274565b5b60200201518560016004811061120557611204612274565b5b602002015109089050868061121d5761121c6129b5565b5b878061122c5761122b6129b5565b5b888061123b5761123a6129b5565b5b8460026004811061124f5761124e612274565b5b60200201518660006004811061126857611267612274565b5b6020020151096002098861127c9190612a7f565b8208905060008780611291576112906129b5565b5b88806112a05761129f6129b5565b5b838a6112ac9190612a7f565b8a806112bb576112ba6129b5565b5b866002600481106112cf576112ce612274565b5b6020020151886000600481106112e8576112e7612274565b5b602002015109088460016004811061130357611302612274565b5b6020020151099050878061131a576113196129b5565b5b8880611329576113286129b5565b5b8460036004811061133d5761133c612274565b5b60200201518660016004811061135657611355612274565b5b602002015109896113679190612a7f565b820890506000888061137c5761137b6129b5565b5b898061138b5761138a6129b5565b5b8b8f09856000600481106113a2576113a1612274565b5b602002015109905082828297509750975050505050505b9750975097945050505050565b60008060006113d5858561143d565b9050600084806113e8576113e76129b5565b5b8283099050600085806113fe576113fd6129b5565b5b828a09905060008680611414576114136129b5565b5b8780611423576114226129b5565b5b8486098a0990508181955095505050505094509492505050565b600080831415801561144f5750818314155b801561145c575060008214155b61149b576040517f08c379a000000000000000000000000000000000000000000000000000000000815260040161149290612aff565b60405180910390fd5b60008060019050600084905060005b6000871461151c5786826114be9190612b1f565b90508286806114d0576114cf6129b5565b5b87806114df576114de6129b5565b5b858409886114ed9190612a7f565b860880945081955050508687826115049190612b50565b8361150f9190612a7f565b80985081935050506114aa565b8394505050505092915050565b6040518060800160405280600490602082028036833780820191505090505090565b6040518060400160405280600290602082028036833780820191505090505090565b604051806040016040528060008152602001600081525090565b6000819050919050565b61159a81611587565b82525050565b60006020820190506115b56000830184611591565b92915050565b6000604051905090565b600080fd5b600080fd5b600063ffffffff82169050919050565b6115e8816115cf565b81146115f357600080fd5b50565b600081359050611605816115df565b92915050565b600060208284031215611621576116206115c5565b5b600061162f848285016115f6565b91505092915050565b600080fd5b6000610120828403121561165457611653611638565b5b81905092915050565b600060208284031215611673576116726115c5565b5b600082013567ffffffffffffffff811115611691576116906115ca565b5b61169d8482850161163d565b91505092915050565b600081519050919050565b600082825260208201905092915050565b60005b838110156116e05780820151818401526020810190506116c5565b60008484015250505050565b6000601f19601f8301169050919050565b6000611708826116a6565b61171281856116b1565b93506117228185602086016116c2565b61172b816116ec565b840191505092915050565b6000602082019050818103600083015261175081846116fd565b905092915050565b600080fd5b7f4e487b7100000000000000000000000000000000000000000000000000000000600052604160045260246000fd5b611795826116ec565b810181811067ffffffffffffffff821117156117b4576117b361175d565b5b80604052505050565b60006117c76115bb565b90506117d3828261178c565b919050565b600080fd5b600073ffffffffffffffffffffffffffffffffffffffff82169050919050565b6000611808826117dd565b9050919050565b611818816117fd565b811461182357600080fd5b50565b6000813590506118358161180f565b92915050565b6000819050919050565b61184e8161183b565b811461185957600080fd5b50565b60008135905061186b81611845565b92915050565b600080fd5b600080fd5b600067ffffffffffffffff8211156118965761189561175d565b5b61189f826116ec565b9050602081019050919050565b82818337600083830152505050565b60006118ce6118c98461187b565b6117bd565b9050828152602081018484840111156118ea576118e9611876565b5b6118f58482856118ac565b509392505050565b600082601f83011261191257611911611871565b5b81356119228482602086016118bb565b91505092915050565b61193481611587565b811461193f57600080fd5b50565b6000813590506119518161192b565b92915050565b6000610120828403121561196e5761196d611758565b5b6119796101206117bd565b9050600061198984828501611826565b600083015250602061199d8482850161185c565b602083015250604082013567ffffffffffffffff8111156119c1576119c06117d8565b5b6119cd848285016118fd565b604083015250606082013567ffffffffffffffff8111156119f1576119f06117d8565b5b6119fd848285016118fd565b6060830152506080611a1184828501611942565b60808301525060a0611a258482850161185c565b60a08301525060c0611a3984828501611942565b60c08301525060e082013567ffffffffffffffff811115611a5d57611a5c6117d8565b5b611a69848285016118fd565b60e08301525061010082013567ffffffffffffffff811115611a8e57611a8d6117d8565b5b611a9a848285016118fd565b6101008301525092915050565b600060208284031215611abd57611abc6115c5565b5b600082013567ffffffffffffffff811115611adb57611ada6115ca565b5b611ae784828501611957565b91505092915050565b600080fd5b600080fd5b60008083601f840112611b1057611b0f611871565b5b8235905067ffffffffffffffff811115611b2d57611b2c611af0565b5b602083019150836020820283011115611b4957611b48611af5565b5b9250929050565b60008083601f840112611b6657611b65611871565b5b8235905067ffffffffffffffff811115611b8357611b82611af0565b5b602083019150836001820283011115611b9f57611b9e611af5565b5b9250929050565b60008060008060408587031215611bc057611bbf6115c5565b5b600085013567ffffffffffffffff811115611bde57611bdd6115ca565b5b611bea87828801611afa565b9450945050602085013567ffffffffffffffff811115611c0d57611c0c6115ca565b5b611c1987828801611b50565b925092505092959194509250565b600060049050919050565b600081905092915050565b6000819050919050565b611c508161183b565b82525050565b6000611c628383611c47565b60208301905092915050565b6000602082019050919050565b611c8481611c27565b611c8e8184611c32565b9250611c9982611c3d565b8060005b83811015611cca578151611cb18782611c56565b9650611cbc83611c6e565b925050600181019050611c9d565b505050505050565b6000608082019050611ce76000830184611c7b565b92915050565b60008060208385031215611d0457611d036115c5565b5b600083013567ffffffffffffffff811115611d2257611d216115ca565b5b611d2e85828601611afa565b92509250509250929050565b611d43816117fd565b82525050565b6000602082019050611d5e6000830184611d3a565b92915050565b600060208284031215611d7a57611d796115c5565b5b600082013567ffffffffffffffff811115611d9857611d976115ca565b5b611da4848285016118fd565b91505092915050565b611db68161183b565b82525050565b6000602082019050611dd16000830184611dad565b92915050565b600060029050919050565b600081905092915050565b6000819050919050565b6000602082019050919050565b611e0d81611dd7565b611e178184611de2565b9250611e2282611ded565b8060005b83811015611e53578151611e3a8782611c56565b9650611e4583611df7565b925050600181019050611e26565b505050505050565b6000604082019050611e706000830184611e04565b92915050565b611e7f816115cf565b82525050565b6000602082019050611e9a6000830184611e76565b92915050565b600080fd5b600080fd5b600080fd5b60008083356001602003843603038112611ecc57611ecb611ea0565b5b80840192508235915067ffffffffffffffff821115611eee57611eed611ea5565b5b602083019250600182023603831315611f0a57611f09611eaa565b5b509250929050565b600067ffffffffffffffff821115611f2d57611f2c61175d565b5b602082029050919050565b6000611f4b611f4684611f12565b6117bd565b90508060208402830185811115611f6557611f64611af5565b5b835b81811015611f8e5780611f7a888261185c565b845260208401935050602081019050611f67565b5050509392505050565b600082601f830112611fad57611fac611871565b5b6002611fba848285611f38565b91505092915050565b600060408284031215611fd957611fd86115c5565b5b6000611fe784828501611f98565b91505092915050565b6000611ffc3683611957565b9050919050565b600081905092915050565b6120178161183b565b82525050565b6000612029838361200e565b60208301905092915050565b61203e81611dd7565b6120488184612003565b925061205382611ded565b8060005b8381101561208457815161206b878261201d565b965061207683611df7565b925050600181019050612057565b505050505050565b600081905092915050565b6120a081611c27565b6120aa818461208c565b92506120b582611c3d565b8060005b838110156120e65781516120cd878261201d565b96506120d883611c6e565b9250506001810190506120b9565b505050505050565b6000610100820190506121046000830186612035565b6121116040830185612097565b61211e60c0830184612035565b949350505050565b60008115159050919050565b61213b81612126565b811461214657600080fd5b50565b60008151905061215881612132565b92915050565b600060208284031215612174576121736115c5565b5b600061218284828501612149565b91505092915050565b600082825260208201905092915050565b7f424c533a2077726f6e6720736967000000000000000000000000000000000000600082015250565b60006121d2600e8361218b565b91506121dd8261219c565b602082019050919050565b60006020820190508181036000830152612201816121c5565b9050919050565b7f424c533a20696e76616c6964207369676e617475726500000000000000000000600082015250565b600061223e60168361218b565b915061224982612208565b602082019050919050565b6000602082019050818103600083015261226d81612231565b9050919050565b7f4e487b7100000000000000000000000000000000000000000000000000000000600052603260045260246000fd5b600082356001610120038336030381126122c0576122bf611ea0565b5b80830191505092915050565b600081519050919050565b600082825260208201905092915050565b6000819050602082019050919050565b600081905092915050565b61230c81611c27565b61231681846122f8565b925061232182611c3d565b8060005b83811015612352578151612339878261201d565b965061234483611c6e565b925050600181019050612325565b505050505050565b60006123668383612303565b60808301905092915050565b6000602082019050919050565b600061238a826122cc565b61239481856122d7565b935061239f836122e8565b8060005b838110156123d05781516123b7888261235a565b97506123c283612372565b9250506001810190506123a3565b5085935050505092915050565b600081519050919050565b600082825260208201905092915050565b6000819050602082019050919050565b600081905092915050565b61241d81611dd7565b6124278184612409565b925061243282611ded565b8060005b8381101561246357815161244a878261201d565b965061245583611df7565b925050600181019050612436565b505050505050565b60006124778383612414565b60408301905092915050565b6000602082019050919050565b600061249b826123dd565b6124a581856123e8565b93506124b0836123f9565b8060005b838110156124e15781516124c8888261246b565b97506124d383612483565b9250506001810190506124b4565b5085935050505092915050565b60006080820190506125036000830186612035565b8181036040830152612515818561237f565b905081810360608301526125298184612490565b9050949350505050565b7f424c533a2076616c69646174655369676e617475726573206661696c65640000600082015250565b6000612569601e8361218b565b915061257482612533565b602082019050919050565b600060208201905081810360008301526125988161255c565b9050919050565b600067ffffffffffffffff8211156125ba576125b961175d565b5b602082029050919050565b6000815190506125d481611845565b92915050565b60006125ed6125e88461259f565b6117bd565b9050806020840283018581111561260757612606611af5565b5b835b81811015612630578061261c88826125c5565b845260208401935050602081019050612609565b5050509392505050565b600082601f83011261264f5761264e611871565b5b600461265c8482856125da565b91505092915050565b60006080828403121561267b5761267a6115c5565b5b60006126898482850161263a565b91505092915050565b600080604083850312156126a9576126a86115c5565b5b60006126b78582860161185c565b92505060206126c88582860161185c565b9150509250929050565b60006040820190506126e76000830185611dad565b6126f46020830184611dad565b9392505050565b7f6461746120746f6f2073686f727420666f722073696700000000000000000000600082015250565b600061273160168361218b565b915061273c826126fb565b602082019050919050565b6000602082019050818103600083015261276081612724565b9050919050565b6000819050919050565b61278261277d82611587565b612767565b82525050565b60006127948284612771565b60208201915081905092915050565b6127ac81611587565b82525050565b600082825260208201905092915050565b60006127ce826116a6565b6127d881856127b2565b93506127e88185602086016116c2565b6127f1816116ec565b840191505092915050565b600060408201905061281160008301856127a3565b818103602083015261282381846127c3565b90509392505050565b600061283f61283a84611f12565b6117bd565b9050806020840283018581111561285957612858611af5565b5b835b81811015612882578061286e88826125c5565b84526020840193505060208101905061285b565b5050509392505050565b600082601f8301126128a1576128a0611871565b5b60026128ae84828561282c565b91505092915050565b6000604082840312156128cd576128cc6115c5565b5b60006128db8482850161288c565b91505092915050565b600060a0820190506128f96000830188611591565b6129066020830187611591565b6129136040830186611d3a565b6129206060830185611dad565b61292d6080830184611d3a565b9695505050505050565b60006101008201905061294d600083018b611d3a565b61295a602083018a611dad565b6129676040830189611591565b6129746060830188611591565b6129816080830187611591565b61298e60a0830186611dad565b61299b60c0830185611591565b6129a860e0830184611591565b9998505050505050505050565b7f4e487b7100000000000000000000000000000000000000000000000000000000600052601260045260246000fd5b7f557365206a6163446f75626c652066756e6374696f6e20696e73746561640000600082015250565b6000612a1a601e8361218b565b9150612a25826129e4565b602082019050919050565b60006020820190508181036000830152612a4981612a0d565b9050919050565b7f4e487b7100000000000000000000000000000000000000000000000000000000600052601160045260246000fd5b6000612a8a8261183b565b9150612a958361183b565b9250828203905081811115612aad57612aac612a50565b5b92915050565b7f496e76616c6964206e756d626572000000000000000000000000000000000000600082015250565b6000612ae9600e8361218b565b9150612af482612ab3565b602082019050919050565b60006020820190508181036000830152612b1881612adc565b9050919050565b6000612b2a8261183b565b9150612b358361183b565b925082612b4557612b446129b5565b5b828204905092915050565b6000612b5b8261183b565b9150612b668361183b565b9250828202612b748161183b565b91508282048414831517612b8b57612b8a612a50565b5b509291505056fea264697066735822122096aca44ce3a484c622ffd1acdee77009ea0cc4c682aeded6800acffda720dbd864736f6c634300081a0033","linkReferences":{"contracts/samples/bls/lib/BLSOpen.sol":{"BLSOpen":[{"start":1287,"length":20},{"start":2002,"length":20},{"start":3036,"length":20}]}}},"methodIdentifiers":{"BLS_DOMAIN()":"009d9250","N()":"c9e525df","addStake(uint32)":"0396cb60","aggregateSignatures((address,uint256,bytes,bytes,bytes32,uint256,bytes32,bytes,bytes)[])":"ae574a43","entryPoint()":"b0d691fe","getTrailingPublicKey(bytes)":"b7620eb4","getUserOpHash((address,uint256,bytes,bytes,bytes32,uint256,bytes32,bytes,bytes))":"22cdde4c","getUserOpPublicKey((address,uint256,bytes,bytes,bytes32,uint256,bytes32,bytes,bytes))":"9b2004b5","userOpToMessage((address,uint256,bytes,bytes,bytes32,uint256,bytes32,bytes,bytes))":"d4fedb4d","validateSignatures((address,uint256,bytes,bytes,bytes32,uint256,bytes32,bytes,bytes)[],bytes)":"2dd81133","validateUserOpSignature((address,uint256,bytes,bytes,bytes32,uint256,bytes32,bytes,bytes))":"062a422b"},"id":33}