{"abi":[{"type":"constructor","inputs":[{"name":"anEntryPoint","type":"address","internalType":"contract IEntryPoint"},{"name":"anAggregator","type":"address","internalType":"address"}],"stateMutability":"nonpayable"},{"type":"function","name":"accountImplementation","inputs":[],"outputs":[{"name":"","type":"address","internalType":"contract TestAggregatedAccount"}],"stateMutability":"view"},{"type":"function","name":"createAccount","inputs":[{"name":"owner","type":"address","internalType":"address"},{"name":"salt","type":"uint256","internalType":"uint256"}],"outputs":[{"name":"ret","type":"address","internalType":"contract TestAggregatedAccount"}],"stateMutability":"nonpayable"},{"type":"function","name":"getAddress","inputs":[{"name":"owner","type":"address","internalType":"address"},{"name":"salt","type":"uint256","internalType":"uint256"}],"outputs":[{"name":"","type":"address","internalType":"address"}],"stateMutability":"view"}],"bytecode":{"object":"0x60a060405234801561001057600080fd5b506040516139e63803806139e683398181016040528101906100329190610150565b8181604051610040906100a2565b61004b9291906101fe565b604051809103906000f080158015610067573d6000803e3d6000fd5b5073ffffffffffffffffffffffffffffffffffffffff1660808173ffffffffffffffffffffffffffffffffffffffff16815250505050610227565b612ab680610f3083390190565b600080fd5b600073ffffffffffffffffffffffffffffffffffffffff82169050919050565b60006100df826100b4565b9050919050565b60006100f1826100d4565b9050919050565b610101816100e6565b811461010c57600080fd5b50565b60008151905061011e816100f8565b92915050565b61012d816100d4565b811461013857600080fd5b50565b60008151905061014a81610124565b92915050565b60008060408385031215610167576101666100af565b5b60006101758582860161010f565b92505060206101868582860161013b565b9150509250929050565b6000819050919050565b60006101b56101b06101ab846100b4565b610190565b6100b4565b9050919050565b60006101c78261019a565b9050919050565b60006101d9826101bc565b9050919050565b6101e9816101ce565b82525050565b6101f8816100d4565b82525050565b600060408201905061021360008301856101e0565b61022060208301846101ef565b9392505050565b608051610ce161024f6000396000818160c60152818161012c01526102130152610ce16000f3fe608060405234801561001057600080fd5b50600436106100415760003560e01c806311464fbe146100465780635fbfb9cf146100645780638cb84e1814610094575b600080fd5b61004e6100c4565b60405161005b91906103a8565b60405180910390f35b61007e6004803603810190610079919061043c565b6100e8565b60405161008b91906103a8565b60405180910390f35b6100ae60048036038101906100a9919061043c565b6101e4565b6040516100bb919061048b565b60405180910390f35b7f000000000000000000000000000000000000000000000000000000000000000081565b6000806100f584846101e4565b905060008173ffffffffffffffffffffffffffffffffffffffff163b905060008111156101265781925050506101de565b8360001b7f00000000000000000000000000000000000000000000000000000000000000008660405160240161015c919061048b565b60405160208183030381529060405263c4d66de860e01b6020820180517bffffffffffffffffffffffffffffffffffffffffffffffffffffffff83818316178352505050506040516101ad9061031c565b6101b8929190610536565b8190604051809103906000f59050801580156101d8573d6000803e3d6000fd5b50925050505b92915050565b60006102d48260001b604051806020016101fd9061031c565b6020820181038252601f19601f820116604052507f000000000000000000000000000000000000000000000000000000000000000086604051602401610243919061048b565b60405160208183030381529060405263c4d66de860e01b6020820180517bffffffffffffffffffffffffffffffffffffffffffffffffffffffff8381831617835250505050604051602001610299929190610536565b6040516020818303038152906040526040516020016102b99291906105a2565b604051602081830303815290604052805190602001206102dc565b905092915050565b60006102e98383306102f1565b905092915050565b6000604051836040820152846020820152828152600b810160ff815360558120925050509392505050565b6106e5806105c783390190565b600073ffffffffffffffffffffffffffffffffffffffff82169050919050565b6000819050919050565b600061036e61036961036484610329565b610349565b610329565b9050919050565b600061038082610353565b9050919050565b600061039282610375565b9050919050565b6103a281610387565b82525050565b60006020820190506103bd6000830184610399565b92915050565b600080fd5b60006103d382610329565b9050919050565b6103e3816103c8565b81146103ee57600080fd5b50565b600081359050610400816103da565b92915050565b6000819050919050565b61041981610406565b811461042457600080fd5b50565b60008135905061043681610410565b92915050565b60008060408385031215610453576104526103c3565b5b6000610461858286016103f1565b925050602061047285828601610427565b9150509250929050565b610485816103c8565b82525050565b60006020820190506104a0600083018461047c565b92915050565b600081519050919050565b600082825260208201905092915050565b60005b838110156104e05780820151818401526020810190506104c5565b60008484015250505050565b6000601f19601f8301169050919050565b6000610508826104a6565b61051281856104b1565b93506105228185602086016104c2565b61052b816104ec565b840191505092915050565b600060408201905061054b600083018561047c565b818103602083015261055d81846104fd565b90509392505050565b600081905092915050565b600061057c826104a6565b6105868185610566565b93506105968185602086016104c2565b80840191505092915050565b60006105ae8285610571565b91506105ba8284610571565b9150819050939250505056fe60806040526040516106e53803806106e583398181016040528101906100259190610512565b610035828261003c60201b60201c565b50506105f6565b61004b826100c160201b60201c565b8173ffffffffffffffffffffffffffffffffffffffff167fbc7cd75a20ee27fd9adebab32041f755214dbc6bffa90cc0225b39da2e5c2d3b60405160405180910390a26000815111156100ae576100a8828261019460201b60201c565b506100bd565b6100bc61021e60201b60201c565b5b5050565b60008173ffffffffffffffffffffffffffffffffffffffff163b0361011d57806040517f4c9c8ce3000000000000000000000000000000000000000000000000000000008152600401610114919061057d565b60405180910390fd5b806101507f360894a13ba1a3210667c828492db98dca3e2076cc3735a920a3ca505d382bbc60001b61025b60201b60201c565b60000160006101000a81548173ffffffffffffffffffffffffffffffffffffffff021916908373ffffffffffffffffffffffffffffffffffffffff16021790555050565b60606000808473ffffffffffffffffffffffffffffffffffffffff16846040516101be91906105df565b600060405180830381855af49150503d80600081146101f9576040519150601f19603f3d011682016040523d82523d6000602084013e6101fe565b606091505b509150915061021485838361026560201b60201c565b9250505092915050565b6000341115610259576040517fb398979f00000000000000000000000000000000000000000000000000000000815260040160405180910390fd5b565b6000819050919050565b6060826102805761027b826102fa60201b60201c565b6102f2565b600082511480156102a8575060008473ffffffffffffffffffffffffffffffffffffffff163b145b156102ea57836040517f9996b3150000000000000000000000000000000000000000000000000000000081526004016102e1919061057d565b60405180910390fd5b8190506102f3565b5b9392505050565b60008151111561030d5780518082602001fd5b6040517f1425ea4200000000000000000000000000000000000000000000000000000000815260040160405180910390fd5b6000604051905090565b600080fd5b600080fd5b600073ffffffffffffffffffffffffffffffffffffffff82169050919050565b600061037e82610353565b9050919050565b61038e81610373565b811461039957600080fd5b50565b6000815190506103ab81610385565b92915050565b600080fd5b600080fd5b6000601f19601f8301169050919050565b7f4e487b7100000000000000000000000000000000000000000000000000000000600052604160045260246000fd5b610404826103bb565b810181811067ffffffffffffffff82111715610423576104226103cc565b5b80604052505050565b600061043661033f565b905061044282826103fb565b919050565b600067ffffffffffffffff821115610462576104616103cc565b5b61046b826103bb565b9050602081019050919050565b60005b8381101561049657808201518184015260208101905061047b565b60008484015250505050565b60006104b56104b084610447565b61042c565b9050828152602081018484840111156104d1576104d06103b6565b5b6104dc848285610478565b509392505050565b600082601f8301126104f9576104f86103b1565b5b81516105098482602086016104a2565b91505092915050565b6000806040838503121561052957610528610349565b5b60006105378582860161039c565b925050602083015167ffffffffffffffff8111156105585761055761034e565b5b610564858286016104e4565b9150509250929050565b61057781610373565b82525050565b6000602082019050610592600083018461056e565b92915050565b600081519050919050565b600081905092915050565b60006105b982610598565b6105c381856105a3565b93506105d3818560208601610478565b80840191505092915050565b60006105eb82846105ae565b915081905092915050565b60e1806106046000396000f3fe6080604052600a600c565b005b60186014601a565b6027565b565b60006022604c565b905090565b3660008037600080366000845af43d6000803e80600081146047573d6000f35b3d6000fd5b600060787f360894a13ba1a3210667c828492db98dca3e2076cc3735a920a3ca505d382bbc60001b60a1565b60000160009054906101000a900473ffffffffffffffffffffffffffffffffffffffff16905090565b600081905091905056fea26469706673582212202f87ada7637e73d8549717e39dd360bc07d7bc9c517bc2befd2d190154f2174964736f6c634300081a0033a2646970667358221220f896c5279fcd59879d9b9d73dea81e925fc4eb35fe6da9fd999657d4dc43927764736f6c634300081a003360e06040523073ffffffffffffffffffffffffffffffffffffffff1660809073ffffffffffffffffffffffffffffffffffffffff1681525034801561004357600080fd5b50604051612ab6380380612ab6833981810160405281019061006591906102b1565b818073ffffffffffffffffffffffffffffffffffffffff1660a08173ffffffffffffffffffffffffffffffffffffffff16815250506100a86100e460201b60201c565b508073ffffffffffffffffffffffffffffffffffffffff1660c08173ffffffffffffffffffffffffffffffffffffffff1681525050505061032f565b60006100f46101e860201b60201c565b90508060000160089054906101000a900460ff161561013f576040517ff92ee8a900000000000000000000000000000000000000000000000000000000815260040160405180910390fd5b67ffffffffffffffff80168160000160009054906101000a900467ffffffffffffffff1667ffffffffffffffff16146101e55767ffffffffffffffff8160000160006101000a81548167ffffffffffffffff021916908367ffffffffffffffff1602179055507fc7f505b2f371ae2175ee4913f4499e1f2633a7b5936321eed1cdaeb6115181d267ffffffffffffffff6040516101dc9190610314565b60405180910390a15b50565b60007ff0c57e16840df040f15088dc2f81fe391c3923bec73e23a9662efc9c229c6a00905090565b600080fd5b600073ffffffffffffffffffffffffffffffffffffffff82169050919050565b600061024082610215565b9050919050565b600061025282610235565b9050919050565b61026281610247565b811461026d57600080fd5b50565b60008151905061027f81610259565b92915050565b61028e81610235565b811461029957600080fd5b50565b6000815190506102ab81610285565b92915050565b600080604083850312156102c8576102c7610210565b5b60006102d685828601610270565b92505060206102e78582860161029c565b9150509250929050565b600067ffffffffffffffff82169050919050565b61030e816102f1565b82525050565b60006020820190506103296000830184610305565b92915050565b60805160a05160c05161273c61037a600039600081816105c50152610d7601526000818161099b01526113c7015260008181611091015281816110e601526112a1015261273c6000f3fe60806040526004361061010d5760003560e01c80638da5cb5b11610095578063bc197c8111610064578063bc197c8114610348578063c399ec8814610385578063c4d66de8146103b0578063d087d288146103d9578063f23a6e611461040457610114565b80638da5cb5b1461029e578063ad3cb1cc146102c9578063b0d691fe146102f4578063b61d27f61461031f57610114565b806347e1da2a116100dc57806347e1da2a146101fb5780634a58db19146102245780634d44560d1461022e5780634f1ef2861461025757806352d1902d1461027357610114565b806301ffc9a714610119578063150b7a021461015657806319822f7c14610193578063245a7bfc146101d057610114565b3661011457005b600080fd5b34801561012557600080fd5b50610140600480360381019061013b9190611815565b610441565b60405161014d919061185d565b60405180910390f35b34801561016257600080fd5b5061017d60048036038101906101789190611971565b61057b565b60405161018a9190611a08565b60405180910390f35b34801561019f57600080fd5b506101ba60048036038101906101b59190611a7e565b610590565b6040516101c79190611afc565b60405180910390f35b3480156101dc57600080fd5b506101e56105c3565b6040516101f29190611b26565b60405180910390f35b34801561020757600080fd5b50610222600480360381019061021d9190611c43565b6105e7565b005b61022c6107f3565b005b34801561023a57600080fd5b5061025560048036038101906102509190611d35565b610868565b005b610271600480360381019061026c9190611eb6565b6108e8565b005b34801561027f57600080fd5b50610288610907565b6040516102959190611f21565b60405180910390f35b3480156102aa57600080fd5b506102b361093a565b6040516102c09190611b26565b60405180910390f35b3480156102d557600080fd5b506102de61095e565b6040516102eb9190611fbb565b60405180910390f35b34801561030057600080fd5b50610309610997565b604051610316919061203c565b60405180910390f35b34801561032b57600080fd5b5061034660048036038101906103419190612057565b6109bf565b005b34801561035457600080fd5b5061036f600480360381019061036a91906120cb565b610a1c565b60405161037c9190611a08565b60405180910390f35b34801561039157600080fd5b5061039a610a34565b6040516103a79190611afc565b60405180910390f35b3480156103bc57600080fd5b506103d760048036038101906103d291906121a7565b610abc565b005b3480156103e557600080fd5b506103ee610c4c565b6040516103fb9190611afc565b60405180910390f35b34801561041057600080fd5b5061042b600480360381019061042691906121d4565b610cd7565b6040516104389190611a08565b60405180910390f35b60007f150b7a02000000000000000000000000000000000000000000000000000000007bffffffffffffffffffffffffffffffffffffffffffffffffffffffff1916827bffffffffffffffffffffffffffffffffffffffffffffffffffffffff1916148061050c57507f4e2312e0000000000000000000000000000000000000000000000000000000007bffffffffffffffffffffffffffffffffffffffffffffffffffffffff1916827bffffffffffffffffffffffffffffffffffffffffffffffffffffffff1916145b8061057457507f01ffc9a7000000000000000000000000000000000000000000000000000000007bffffffffffffffffffffffffffffffffffffffffffffffffffffffff1916827bffffffffffffffffffffffffffffffffffffffffffffffffffffffff1916145b9050919050565b600063150b7a0260e01b905095945050505050565b600061059a610ced565b6105a48484610d64565b90506105b38460200135610dd9565b6105bc82610ddc565b9392505050565b7f000000000000000000000000000000000000000000000000000000000000000081565b6105ef610e78565b81819050868690501480156106175750600084849050148061061657508181905084849050145b5b610656576040517f08c379a000000000000000000000000000000000000000000000000000000000815260040161064d906122ba565b60405180910390fd5b6000848490500361071c5760005b8686905081101561071657610709878783818110610685576106846122da565b5b905060200201602081019061069a91906121a7565b60008585858181106106af576106ae6122da565b5b90506020028101906106c19190612318565b8080601f016020809104026020016040519081016040528093929190818152602001838380828437600081840152601f19601f82011690508083019250505050505050610f45565b8080600101915050610664565b506107eb565b60005b868690508110156107e9576107dc8787838181106107405761073f6122da565b5b905060200201602081019061075591906121a7565b868684818110610768576107676122da565b5b90506020020135858585818110610782576107816122da565b5b90506020028101906107949190612318565b8080601f016020809104026020016040519081016040528093929190818152602001838380828437600081840152601f19601f82011690508083019250505050505050610f45565b808060010191505061071f565b505b505050505050565b6107fb610997565b73ffffffffffffffffffffffffffffffffffffffff1663b760faf934306040518363ffffffff1660e01b81526004016108349190611b26565b6000604051808303818588803b15801561084d57600080fd5b505af1158015610861573d6000803e3d6000fd5b5050505050565b610870610fc9565b610878610997565b73ffffffffffffffffffffffffffffffffffffffff1663205c287883836040518363ffffffff1660e01b81526004016108b292919061238a565b600060405180830381600087803b1580156108cc57600080fd5b505af11580156108e0573d6000803e3d6000fd5b505050505050565b6108f061108f565b6108f982611175565b6109038282611180565b5050565b600061091161129f565b7f360894a13ba1a3210667c828492db98dca3e2076cc3735a920a3ca505d382bbc60001b905090565b60008054906101000a900473ffffffffffffffffffffffffffffffffffffffff1681565b6040518060400160405280600581526020017f352e302e3000000000000000000000000000000000000000000000000000000081525081565b60007f0000000000000000000000000000000000000000000000000000000000000000905090565b6109c7610e78565b610a16848484848080601f016020809104026020016040519081016040528093929190818152602001838380828437600081840152601f19601f82011690508083019250505050505050610f45565b50505050565b600063bc197c8160e01b905098975050505050505050565b6000610a3e610997565b73ffffffffffffffffffffffffffffffffffffffff166370a08231306040518263ffffffff1660e01b8152600401610a769190611b26565b602060405180830381865afa158015610a93573d6000803e3d6000fd5b505050506040513d601f19601f82011682018060405250810190610ab791906123c8565b905090565b6000610ac6611326565b905060008160000160089054906101000a900460ff1615905060008260000160009054906101000a900467ffffffffffffffff1690506000808267ffffffffffffffff16148015610b145750825b9050600060018367ffffffffffffffff16148015610b49575060003073ffffffffffffffffffffffffffffffffffffffff163b145b905081158015610b57575080155b15610b8e576040517ff92ee8a900000000000000000000000000000000000000000000000000000000815260040160405180910390fd5b60018560000160006101000a81548167ffffffffffffffff021916908367ffffffffffffffff1602179055508315610bde5760018560000160086101000a81548160ff0219169083151502179055505b610be8600061134e565b8315610c445760008560000160086101000a81548160ff0219169083151502179055507fc7f505b2f371ae2175ee4913f4499e1f2633a7b5936321eed1cdaeb6115181d26001604051610c3b9190612444565b60405180910390a15b505050505050565b6000610c56610997565b73ffffffffffffffffffffffffffffffffffffffff166335567e1a3060006040518363ffffffff1660e01b8152600401610c919291906124be565b602060405180830381865afa158015610cae573d6000803e3d6000fd5b505050506040513d601f19601f82011682018060405250810190610cd291906123c8565b905090565b600063f23a6e6160e01b90509695505050505050565b610cf5610997565b73ffffffffffffffffffffffffffffffffffffffff163373ffffffffffffffffffffffffffffffffffffffff1614610d62576040517f08c379a0000000000000000000000000000000000000000000000000000000008152600401610d5990612533565b60405180910390fd5b565b6000610dd160405180606001604052807f000000000000000000000000000000000000000000000000000000000000000073ffffffffffffffffffffffffffffffffffffffff168152602001600065ffffffffffff168152602001600065ffffffffffff1681525061142b565b905092915050565b50565b60008114610e755760003373ffffffffffffffffffffffffffffffffffffffff16827fffffffffffffffffffffffffffffffffffffffffffffffffffffffffffffffff90604051610e2c90612584565b600060405180830381858888f193505050503d8060008114610e6a576040519150601f19603f3d011682016040523d82523d6000602084013e610e6f565b606091505b50509050505b50565b610e80610997565b73ffffffffffffffffffffffffffffffffffffffff163373ffffffffffffffffffffffffffffffffffffffff161480610f04575060008054906101000a900473ffffffffffffffffffffffffffffffffffffffff1673ffffffffffffffffffffffffffffffffffffffff163373ffffffffffffffffffffffffffffffffffffffff16145b610f43576040517f08c379a0000000000000000000000000000000000000000000000000000000008152600401610f3a906125e5565b60405180910390fd5b565b6000808473ffffffffffffffffffffffffffffffffffffffff168484604051610f6e9190612641565b60006040518083038185875af1925050503d8060008114610fab576040519150601f19603f3d011682016040523d82523d6000602084013e610fb0565b606091505b509150915081610fc257805160208201fd5b5050505050565b60008054906101000a900473ffffffffffffffffffffffffffffffffffffffff1673ffffffffffffffffffffffffffffffffffffffff163373ffffffffffffffffffffffffffffffffffffffff16148061104e57503073ffffffffffffffffffffffffffffffffffffffff163373ffffffffffffffffffffffffffffffffffffffff16145b61108d576040517f08c379a0000000000000000000000000000000000000000000000000000000008152600401611084906126a4565b60405180910390fd5b565b7f000000000000000000000000000000000000000000000000000000000000000073ffffffffffffffffffffffffffffffffffffffff163073ffffffffffffffffffffffffffffffffffffffff16148061113c57507f000000000000000000000000000000000000000000000000000000000000000073ffffffffffffffffffffffffffffffffffffffff16611123611473565b73ffffffffffffffffffffffffffffffffffffffff1614155b15611173576040517fe07c8dba00000000000000000000000000000000000000000000000000000000815260040160405180910390fd5b565b61117d610fc9565b50565b8173ffffffffffffffffffffffffffffffffffffffff166352d1902d6040518163ffffffff1660e01b8152600401602060405180830381865afa9250505080156111e857506040513d601f19601f820116820180604052508101906111e591906126d9565b60015b61122957816040517f4c9c8ce30000000000000000000000000000000000000000000000000000000081526004016112209190611b26565b60405180910390fd5b7f360894a13ba1a3210667c828492db98dca3e2076cc3735a920a3ca505d382bbc60001b811461129057806040517faa1d49a40000000000000000000000000000000000000000000000000000000081526004016112879190611f21565b60405180910390fd5b61129a83836114ca565b505050565b7f000000000000000000000000000000000000000000000000000000000000000073ffffffffffffffffffffffffffffffffffffffff163073ffffffffffffffffffffffffffffffffffffffff1614611324576040517fe07c8dba00000000000000000000000000000000000000000000000000000000815260040160405180910390fd5b565b60007ff0c57e16840df040f15088dc2f81fe391c3923bec73e23a9662efc9c229c6a00905090565b806000806101000a81548173ffffffffffffffffffffffffffffffffffffffff021916908373ffffffffffffffffffffffffffffffffffffffff16021790555060008054906101000a900473ffffffffffffffffffffffffffffffffffffffff1673ffffffffffffffffffffffffffffffffffffffff167f000000000000000000000000000000000000000000000000000000000000000073ffffffffffffffffffffffffffffffffffffffff167f47e55c76e7a6f1fd8996a1da8008c1ea29699cca35e7bcd057f2dec313b6e5de60405160405180910390a350565b600060d0826020015165ffffffffffff16901b60a0836040015165ffffffffffff16901b836000015173ffffffffffffffffffffffffffffffffffffffff1617179050919050565b60006114a17f360894a13ba1a3210667c828492db98dca3e2076cc3735a920a3ca505d382bbc60001b61153d565b60000160009054906101000a900473ffffffffffffffffffffffffffffffffffffffff16905090565b6114d382611547565b8173ffffffffffffffffffffffffffffffffffffffff167fbc7cd75a20ee27fd9adebab32041f755214dbc6bffa90cc0225b39da2e5c2d3b60405160405180910390a26000815111156115305761152a8282611614565b50611539565b611538611698565b5b5050565b6000819050919050565b60008173ffffffffffffffffffffffffffffffffffffffff163b036115a357806040517f4c9c8ce300000000000000000000000000000000000000000000000000000000815260040161159a9190611b26565b60405180910390fd5b806115d07f360894a13ba1a3210667c828492db98dca3e2076cc3735a920a3ca505d382bbc60001b61153d565b60000160006101000a81548173ffffffffffffffffffffffffffffffffffffffff021916908373ffffffffffffffffffffffffffffffffffffffff16021790555050565b60606000808473ffffffffffffffffffffffffffffffffffffffff168460405161163e9190612641565b600060405180830381855af49150503d8060008114611679576040519150601f19603f3d011682016040523d82523d6000602084013e61167e565b606091505b509150915061168e8583836116d5565b9250505092915050565b60003411156116d3576040517fb398979f00000000000000000000000000000000000000000000000000000000815260040160405180910390fd5b565b6060826116ea576116e582611764565b61175c565b60008251148015611712575060008473ffffffffffffffffffffffffffffffffffffffff163b145b1561175457836040517f9996b31500000000000000000000000000000000000000000000000000000000815260040161174b9190611b26565b60405180910390fd5b81905061175d565b5b9392505050565b6000815111156117775780518082602001fd5b6040517f1425ea4200000000000000000000000000000000000000000000000000000000815260040160405180910390fd5b6000604051905090565b600080fd5b600080fd5b60007fffffffff0000000000000000000000000000000000000000000000000000000082169050919050565b6117f2816117bd565b81146117fd57600080fd5b50565b60008135905061180f816117e9565b92915050565b60006020828403121561182b5761182a6117b3565b5b600061183984828501611800565b91505092915050565b60008115159050919050565b61185781611842565b82525050565b6000602082019050611872600083018461184e565b92915050565b600073ffffffffffffffffffffffffffffffffffffffff82169050919050565b60006118a382611878565b9050919050565b6118b381611898565b81146118be57600080fd5b50565b6000813590506118d0816118aa565b92915050565b6000819050919050565b6118e9816118d6565b81146118f457600080fd5b50565b600081359050611906816118e0565b92915050565b600080fd5b600080fd5b600080fd5b60008083601f8401126119315761193061190c565b5b8235905067ffffffffffffffff81111561194e5761194d611911565b5b60208301915083600182028301111561196a57611969611916565b5b9250929050565b60008060008060006080868803121561198d5761198c6117b3565b5b600061199b888289016118c1565b95505060206119ac888289016118c1565b94505060406119bd888289016118f7565b935050606086013567ffffffffffffffff8111156119de576119dd6117b8565b5b6119ea8882890161191b565b92509250509295509295909350565b611a02816117bd565b82525050565b6000602082019050611a1d60008301846119f9565b92915050565b600080fd5b60006101208284031215611a3f57611a3e611a23565b5b81905092915050565b6000819050919050565b611a5b81611a48565b8114611a6657600080fd5b50565b600081359050611a7881611a52565b92915050565b600080600060608486031215611a9757611a966117b3565b5b600084013567ffffffffffffffff811115611ab557611ab46117b8565b5b611ac186828701611a28565b9350506020611ad286828701611a69565b9250506040611ae3868287016118f7565b9150509250925092565b611af6816118d6565b82525050565b6000602082019050611b116000830184611aed565b92915050565b611b2081611898565b82525050565b6000602082019050611b3b6000830184611b17565b92915050565b60008083601f840112611b5757611b5661190c565b5b8235905067ffffffffffffffff811115611b7457611b73611911565b5b602083019150836020820283011115611b9057611b8f611916565b5b9250929050565b60008083601f840112611bad57611bac61190c565b5b8235905067ffffffffffffffff811115611bca57611bc9611911565b5b602083019150836020820283011115611be657611be5611916565b5b9250929050565b60008083601f840112611c0357611c0261190c565b5b8235905067ffffffffffffffff811115611c2057611c1f611911565b5b602083019150836020820283011115611c3c57611c3b611916565b5b9250929050565b60008060008060008060608789031215611c6057611c5f6117b3565b5b600087013567ffffffffffffffff811115611c7e57611c7d6117b8565b5b611c8a89828a01611b41565b9650965050602087013567ffffffffffffffff811115611cad57611cac6117b8565b5b611cb989828a01611b97565b9450945050604087013567ffffffffffffffff811115611cdc57611cdb6117b8565b5b611ce889828a01611bed565b92509250509295509295509295565b6000611d0282611878565b9050919050565b611d1281611cf7565b8114611d1d57600080fd5b50565b600081359050611d2f81611d09565b92915050565b60008060408385031215611d4c57611d4b6117b3565b5b6000611d5a85828601611d20565b9250506020611d6b858286016118f7565b9150509250929050565b600080fd5b6000601f19601f8301169050919050565b7f4e487b7100000000000000000000000000000000000000000000000000000000600052604160045260246000fd5b611dc382611d7a565b810181811067ffffffffffffffff82111715611de257611de1611d8b565b5b80604052505050565b6000611df56117a9565b9050611e018282611dba565b919050565b600067ffffffffffffffff821115611e2157611e20611d8b565b5b611e2a82611d7a565b9050602081019050919050565b82818337600083830152505050565b6000611e59611e5484611e06565b611deb565b905082815260208101848484011115611e7557611e74611d75565b5b611e80848285611e37565b509392505050565b600082601f830112611e9d57611e9c61190c565b5b8135611ead848260208601611e46565b91505092915050565b60008060408385031215611ecd57611ecc6117b3565b5b6000611edb858286016118c1565b925050602083013567ffffffffffffffff811115611efc57611efb6117b8565b5b611f0885828601611e88565b9150509250929050565b611f1b81611a48565b82525050565b6000602082019050611f366000830184611f12565b92915050565b600081519050919050565b600082825260208201905092915050565b60005b83811015611f76578082015181840152602081019050611f5b565b60008484015250505050565b6000611f8d82611f3c565b611f978185611f47565b9350611fa7818560208601611f58565b611fb081611d7a565b840191505092915050565b60006020820190508181036000830152611fd58184611f82565b905092915050565b6000819050919050565b6000612002611ffd611ff884611878565b611fdd565b611878565b9050919050565b600061201482611fe7565b9050919050565b600061202682612009565b9050919050565b6120368161201b565b82525050565b6000602082019050612051600083018461202d565b92915050565b60008060008060608587031215612071576120706117b3565b5b600061207f878288016118c1565b9450506020612090878288016118f7565b935050604085013567ffffffffffffffff8111156120b1576120b06117b8565b5b6120bd8782880161191b565b925092505092959194509250565b60008060008060008060008060a0898b0312156120eb576120ea6117b3565b5b60006120f98b828c016118c1565b985050602061210a8b828c016118c1565b975050604089013567ffffffffffffffff81111561212b5761212a6117b8565b5b6121378b828c01611b97565b9650965050606089013567ffffffffffffffff81111561215a576121596117b8565b5b6121668b828c01611b97565b9450945050608089013567ffffffffffffffff811115612189576121886117b8565b5b6121958b828c0161191b565b92509250509295985092959890939650565b6000602082840312156121bd576121bc6117b3565b5b60006121cb848285016118c1565b91505092915050565b60008060008060008060a087890312156121f1576121f06117b3565b5b60006121ff89828a016118c1565b965050602061221089828a016118c1565b955050604061222189828a016118f7565b945050606061223289828a016118f7565b935050608087013567ffffffffffffffff811115612253576122526117b8565b5b61225f89828a0161191b565b92509250509295509295509295565b7f77726f6e67206172726179206c656e6774687300000000000000000000000000600082015250565b60006122a4601383611f47565b91506122af8261226e565b602082019050919050565b600060208201905081810360008301526122d381612297565b9050919050565b7f4e487b7100000000000000000000000000000000000000000000000000000000600052603260045260246000fd5b600080fd5b600080fd5b600080fd5b6000808335600160200384360303811261233557612334612309565b5b80840192508235915067ffffffffffffffff8211156123575761235661230e565b5b60208301925060018202360383131561237357612372612313565b5b509250929050565b61238481611cf7565b82525050565b600060408201905061239f600083018561237b565b6123ac6020830184611aed565b9392505050565b6000815190506123c2816118e0565b92915050565b6000602082840312156123de576123dd6117b3565b5b60006123ec848285016123b3565b91505092915050565b6000819050919050565b600067ffffffffffffffff82169050919050565b600061242e612429612424846123f5565b611fdd565b6123ff565b9050919050565b61243e81612413565b82525050565b60006020820190506124596000830184612435565b92915050565b6000819050919050565b600077ffffffffffffffffffffffffffffffffffffffffffffffff82169050919050565b60006124a86124a361249e8461245f565b611fdd565b612469565b9050919050565b6124b88161248d565b82525050565b60006040820190506124d36000830185611b17565b6124e060208301846124af565b9392505050565b7f6163636f756e743a206e6f742066726f6d20456e747279506f696e7400000000600082015250565b600061251d601c83611f47565b9150612528826124e7565b602082019050919050565b6000602082019050818103600083015261254c81612510565b9050919050565b600081905092915050565b50565b600061256e600083612553565b91506125798261255e565b600082019050919050565b600061258f82612561565b9150819050919050565b7f6163636f756e743a206e6f74204f776e6572206f7220456e747279506f696e74600082015250565b60006125cf602083611f47565b91506125da82612599565b602082019050919050565b600060208201905081810360008301526125fe816125c2565b9050919050565b600081519050919050565b600061261b82612605565b6126258185612553565b9350612635818560208601611f58565b80840191505092915050565b600061264d8284612610565b915081905092915050565b7f6f6e6c79206f776e657200000000000000000000000000000000000000000000600082015250565b600061268e600a83611f47565b915061269982612658565b602082019050919050565b600060208201905081810360008301526126bd81612681565b9050919050565b6000815190506126d381611a52565b92915050565b6000602082840312156126ef576126ee6117b3565b5b60006126fd848285016126c4565b9150509291505056fea26469706673582212200f35833a7a49fa670c9fb4e2044fcbbfd106e41c890a7405685bbf1fadf11ed964736f6c634300081a0033","linkReferences":{}},"methodIdentifiers":{"accountImplementation()":"11464fbe","createAccount(address,uint256)":"5fbfb9cf","getAddress(address,uint256)":"8cb84e18"},"id":46}