{"abi":[{"type":"constructor","inputs":[{"name":"_ep","type":"address","internalType":"contract IEntryPoint"}],"stateMutability":"payable"},{"type":"function","name":"revertLong","inputs":[{"name":"length","type":"uint256","internalType":"uint256"}],"outputs":[],"stateMutability":"pure"},{"type":"function","name":"validateUserOp","inputs":[{"name":"","type":"tuple","internalType":"struct PackedUserOperation","components":[{"name":"sender","type":"address","internalType":"address"},{"name":"nonce","type":"uint256","internalType":"uint256"},{"name":"initCode","type":"bytes","internalType":"bytes"},{"name":"callData","type":"bytes","internalType":"bytes"},{"name":"accountGasLimits","type":"bytes32","internalType":"bytes32"},{"name":"preVerificationGas","type":"uint256","internalType":"uint256"},{"name":"gasFees","type":"bytes32","internalType":"bytes32"},{"name":"paymasterAndData","type":"bytes","internalType":"bytes"},{"name":"signature","type":"bytes","internalType":"bytes"}]},{"name":"","type":"bytes32","internalType":"bytes32"},{"name":"missingAccountFunds","type":"uint256","internalType":"uint256"}],"outputs":[{"name":"validationData","type":"uint256","internalType":"uint256"}],"stateMutability":"nonpayable"}],"bytecode":{"object":"0x6080604052604051610435380380610435833981810160405281019061002591906100e0565b806000806101000a81548173ffffffffffffffffffffffffffffffffffffffff021916908373ffffffffffffffffffffffffffffffffffffffff1602179055505061010d565b600080fd5b600073ffffffffffffffffffffffffffffffffffffffff82169050919050565b600061009b82610070565b9050919050565b60006100ad82610090565b9050919050565b6100bd816100a2565b81146100c857600080fd5b50565b6000815190506100da816100b4565b92915050565b6000602082840312156100f6576100f561006b565b5b6000610104848285016100cb565b91505092915050565b6103198061011c6000396000f3fe608060405234801561001057600080fd5b50600436106100365760003560e01c806319822f7c1461003b578063be76c6ef1461006b575b600080fd5b610055600480360381019061005091906101c1565b610087565b604051610062919061023f565b60405180910390f35b6100856004803603810190610080919061025a565b610121565b005b60008060009054906101000a900473ffffffffffffffffffffffffffffffffffffffff1673ffffffffffffffffffffffffffffffffffffffff1663b760faf983306040518363ffffffff1660e01b81526004016100e491906102c8565b6000604051808303818588803b1580156100fd57600080fd5b505af1158015610111573d6000803e3d6000fd5b5050505050600090509392505050565b806000fd5b600080fd5b600080fd5b600080fd5b6000610120828403121561014c5761014b610130565b5b81905092915050565b6000819050919050565b61016881610155565b811461017357600080fd5b50565b6000813590506101858161015f565b92915050565b6000819050919050565b61019e8161018b565b81146101a957600080fd5b50565b6000813590506101bb81610195565b92915050565b6000806000606084860312156101da576101d9610126565b5b600084013567ffffffffffffffff8111156101f8576101f761012b565b5b61020486828701610135565b935050602061021586828701610176565b9250506040610226868287016101ac565b9150509250925092565b6102398161018b565b82525050565b60006020820190506102546000830184610230565b92915050565b6000602082840312156102705761026f610126565b5b600061027e848285016101ac565b91505092915050565b600073ffffffffffffffffffffffffffffffffffffffff82169050919050565b60006102b282610287565b9050919050565b6102c2816102a7565b82525050565b60006020820190506102dd60008301846102b9565b9291505056fea26469706673582212201423f1e976c002820fc3d303e5ed17a9f7b600e67072485b170c8b7b3cccd77864736f6c634300081a0033","linkReferences":{}},"methodIdentifiers":{"revertLong(uint256)":"be76c6ef","validateUserOp((address,uint256,bytes,bytes,bytes32,uint256,bytes32,bytes,bytes),bytes32,uint256)":"19822f7c"},"id":57}