{"abi":[{"type":"constructor","inputs":[{"name":"anEntryPoint","type":"address","internalType":"contract IEntryPoint"}],"stateMutability":"nonpayable"},{"type":"receive","stateMutability":"payable"},{"type":"function","name":"UPGRADE_INTERFACE_VERSION","inputs":[],"outputs":[{"name":"","type":"string","internalType":"string"}],"stateMutability":"view"},{"type":"function","name":"addDeposit","inputs":[],"outputs":[],"stateMutability":"payable"},{"type":"function","name":"addTemporaryOwner","inputs":[{"name":"owner","type":"address","internalType":"address"},{"name":"_after","type":"uint48","internalType":"uint48"},{"name":"_until","type":"uint48","internalType":"uint48"}],"outputs":[],"stateMutability":"nonpayable"},{"type":"function","name":"entryPoint","inputs":[],"outputs":[{"name":"","type":"address","internalType":"contract IEntryPoint"}],"stateMutability":"view"},{"type":"function","name":"execute","inputs":[{"name":"dest","type":"address","internalType":"address"},{"name":"value","type":"uint256","internalType":"uint256"},{"name":"func","type":"bytes","internalType":"bytes"}],"outputs":[],"stateMutability":"nonpayable"},{"type":"function","name":"executeBatch","inputs":[{"name":"dest","type":"address[]","internalType":"address[]"},{"name":"value","type":"uint256[]","internalType":"uint256[]"},{"name":"func","type":"bytes[]","internalType":"bytes[]"}],"outputs":[],"stateMutability":"nonpayable"},{"type":"function","name":"getDeposit","inputs":[],"outputs":[{"name":"","type":"uint256","internalType":"uint256"}],"stateMutability":"view"},{"type":"function","name":"getNonce","inputs":[],"outputs":[{"name":"","type":"uint256","internalType":"uint256"}],"stateMutability":"view"},{"type":"function","name":"initialize","inputs":[{"name":"anOwner","type":"address","internalType":"address"}],"outputs":[],"stateMutability":"nonpayable"},{"type":"function","name":"onERC1155BatchReceived","inputs":[{"name":"","type":"address","internalType":"address"},{"name":"","type":"address","internalType":"address"},{"name":"","type":"uint256[]","internalType":"uint256[]"},{"name":"","type":"uint256[]","internalType":"uint256[]"},{"name":"","type":"bytes","internalType":"bytes"}],"outputs":[{"name":"","type":"bytes4","internalType":"bytes4"}],"stateMutability":"pure"},{"type":"function","name":"onERC1155Received","inputs":[{"name":"","type":"address","internalType":"address"},{"name":"","type":"address","internalType":"address"},{"name":"","type":"uint256","internalType":"uint256"},{"name":"","type":"uint256","internalType":"uint256"},{"name":"","type":"bytes","internalType":"bytes"}],"outputs":[{"name":"","type":"bytes4","internalType":"bytes4"}],"stateMutability":"pure"},{"type":"function","name":"onERC721Received","inputs":[{"name":"","type":"address","internalType":"address"},{"name":"","type":"address","internalType":"address"},{"name":"","type":"uint256","internalType":"uint256"},{"name":"","type":"bytes","internalType":"bytes"}],"outputs":[{"name":"","type":"bytes4","internalType":"bytes4"}],"stateMutability":"pure"},{"type":"function","name":"owner","inputs":[],"outputs":[{"name":"","type":"address","internalType":"address"}],"stateMutability":"view"},{"type":"function","name":"ownerAfter","inputs":[{"name":"","type":"address","internalType":"address"}],"outputs":[{"name":"","type":"uint48","internalType":"uint48"}],"stateMutability":"view"},{"type":"function","name":"ownerUntil","inputs":[{"name":"","type":"address","internalType":"address"}],"outputs":[{"name":"","type":"uint48","internalType":"uint48"}],"stateMutability":"view"},{"type":"function","name":"proxiableUUID","inputs":[],"outputs":[{"name":"","type":"bytes32","internalType":"bytes32"}],"stateMutability":"view"},{"type":"function","name":"supportsInterface","inputs":[{"name":"interfaceId","type":"bytes4","internalType":"bytes4"}],"outputs":[{"name":"","type":"bool","internalType":"bool"}],"stateMutability":"view"},{"type":"function","name":"upgradeToAndCall","inputs":[{"name":"newImplementation","type":"address","internalType":"address"},{"name":"data","type":"bytes","internalType":"bytes"}],"outputs":[],"stateMutability":"payable"},{"type":"function","name":"validateUserOp","inputs":[{"name":"userOp","type":"tuple","internalType":"struct PackedUserOperation","components":[{"name":"sender","type":"address","internalType":"address"},{"name":"nonce","type":"uint256","internalType":"uint256"},{"name":"initCode","type":"bytes","internalType":"bytes"},{"name":"callData","type":"bytes","internalType":"bytes"},{"name":"accountGasLimits","type":"bytes32","internalType":"bytes32"},{"name":"preVerificationGas","type":"uint256","internalType":"uint256"},{"name":"gasFees","type":"bytes32","internalType":"bytes32"},{"name":"paymasterAndData","type":"bytes","internalType":"bytes"},{"name":"signature","type":"bytes","internalType":"bytes"}]},{"name":"userOpHash","type":"bytes32","internalType":"bytes32"},{"name":"missingAccountFunds","type":"uint256","internalType":"uint256"}],"outputs":[{"name":"validationData","type":"uint256","internalType":"uint256"}],"stateMutability":"nonpayable"},{"type":"function","name":"withdrawDepositTo","inputs":[{"name":"withdrawAddress","type":"address","internalType":"address payable"},{"name":"amount","type":"uint256","internalType":"uint256"}],"outputs":[],"stateMutability":"nonpayable"},{"type":"event","name":"Initialized","inputs":[{"name":"version","type":"uint64","indexed":false,"internalType":"uint64"}],"anonymous":false},{"type":"event","name":"SimpleAccountInitialized","inputs":[{"name":"entryPoint","type":"address","indexed":true,"internalType":"contract IEntryPoint"},{"name":"owner","type":"address","indexed":true,"internalType":"address"}],"anonymous":false},{"type":"event","name":"Upgraded","inputs":[{"name":"implementation","type":"address","indexed":true,"internalType":"address"}],"anonymous":false},{"type":"error","name":"AddressEmptyCode","inputs":[{"name":"target","type":"address","internalType":"address"}]},{"type":"error","name":"ECDSAInvalidSignature","inputs":[]},{"type":"error","name":"ECDSAInvalidSignatureLength","inputs":[{"name":"length","type":"uint256","internalType":"uint256"}]},{"type":"error","name":"ECDSAInvalidSignatureS","inputs":[{"name":"s","type":"bytes32","internalType":"bytes32"}]},{"type":"error","name":"ERC1967InvalidImplementation","inputs":[{"name":"implementation","type":"address","internalType":"address"}]},{"type":"error","name":"ERC1967NonPayable","inputs":[]},{"type":"error","name":"FailedInnerCall","inputs":[]},{"type":"error","name":"InvalidInitialization","inputs":[]},{"type":"error","name":"NotInitializing","inputs":[]},{"type":"error","name":"UUPSUnauthorizedCallContext","inputs":[]},{"type":"error","name":"UUPSUnsupportedProxiableUUID","inputs":[{"name":"slot","type":"bytes32","internalType":"bytes32"}]}],"bytecode":{"object":"0x60c06040523073ffffffffffffffffffffffffffffffffffffffff1660809073ffffffffffffffffffffffffffffffffffffffff1681525034801561004357600080fd5b5060405161303c38038061303c83398181016040528101906100659190610126565b808073ffffffffffffffffffffffffffffffffffffffff1660a08173ffffffffffffffffffffffffffffffffffffffff16815250506100a86100af60201b60201c565b5050610153565b565b600080fd5b600073ffffffffffffffffffffffffffffffffffffffff82169050919050565b60006100e1826100b6565b9050919050565b60006100f3826100d6565b9050919050565b610103816100e8565b811461010e57600080fd5b50565b600081519050610120816100fa565b92915050565b60006020828403121561013c5761013b6100b1565b5b600061014a84828501610111565b91505092915050565b60805160a051612eaf61018d60003960008181610a4f015261167c0152600081816113460152818161139b01526115560152612eaf6000f3fe6080604052600436106101235760003560e01c80638da5cb5b116100a0578063c399ec8811610064578063c399ec88146103ea578063c4d66de814610415578063cf6dca551461043e578063d087d28814610467578063f23a6e61146104925761012a565b80638da5cb5b14610303578063ad3cb1cc1461032e578063b0d691fe14610359578063b61d27f614610384578063bc197c81146103ad5761012a565b806347e1da2a116100e757806347e1da2a146102605780634a58db19146102895780634d44560d146102935780634f1ef286146102bc57806352d1902d146102d85761012a565b806301ffc9a71461012f578063150b7a021461016c57806319822f7c146101a95780633e476951146101e65780633fb5a7a1146102235761012a565b3661012a57005b600080fd5b34801561013b57600080fd5b5061015660048036038101906101519190611dd1565b6104cf565b6040516101639190611e19565b60405180910390f35b34801561017857600080fd5b50610193600480360381019061018e9190611f2d565b610609565b6040516101a09190611fc4565b60405180910390f35b3480156101b557600080fd5b506101d060048036038101906101cb919061203a565b61061e565b6040516101dd91906120b8565b60405180910390f35b3480156101f257600080fd5b5061020d600480360381019061020891906120d3565b610651565b60405161021a9190612121565b60405180910390f35b34801561022f57600080fd5b5061024a600480360381019061024591906120d3565b610676565b6040516102579190612121565b60405180910390f35b34801561026c57600080fd5b506102876004803603810190610282919061223e565b61069b565b005b6102916108a7565b005b34801561029f57600080fd5b506102ba60048036038101906102b59190612330565b61091c565b005b6102d660048036038101906102d191906124b1565b61099c565b005b3480156102e457600080fd5b506102ed6109bb565b6040516102fa919061251c565b60405180910390f35b34801561030f57600080fd5b506103186109ee565b6040516103259190612546565b60405180910390f35b34801561033a57600080fd5b50610343610a12565b60405161035091906125e0565b60405180910390f35b34801561036557600080fd5b5061036e610a4b565b60405161037b9190612661565b60405180910390f35b34801561039057600080fd5b506103ab60048036038101906103a6919061267c565b610a73565b005b3480156103b957600080fd5b506103d460048036038101906103cf91906126f0565b610ad0565b6040516103e19190611fc4565b60405180910390f35b3480156103f657600080fd5b506103ff610ae8565b60405161040c91906120b8565b60405180910390f35b34801561042157600080fd5b5061043c600480360381019061043791906120d3565b610b70565b005b34801561044a57600080fd5b50610465600480360381019061046091906127f8565b610d11565b005b34801561047357600080fd5b5061047c610e34565b60405161048991906120b8565b60405180910390f35b34801561049e57600080fd5b506104b960048036038101906104b4919061284b565b610ebf565b6040516104c69190611fc4565b60405180910390f35b60007f150b7a02000000000000000000000000000000000000000000000000000000007bffffffffffffffffffffffffffffffffffffffffffffffffffffffff1916827bffffffffffffffffffffffffffffffffffffffffffffffffffffffff1916148061059a57507f4e2312e0000000000000000000000000000000000000000000000000000000007bffffffffffffffffffffffffffffffffffffffffffffffffffffffff1916827bffffffffffffffffffffffffffffffffffffffffffffffffffffffff1916145b8061060257507f01ffc9a7000000000000000000000000000000000000000000000000000000007bffffffffffffffffffffffffffffffffffffffffffffffffffffffff1916827bffffffffffffffffffffffffffffffffffffffffffffffffffffffff1916145b9050919050565b600063150b7a0260e01b905095945050505050565b6000610628610ed5565b6106328484610f4c565b9050610641846020013561108e565b61064a82611091565b9392505050565b60026020528060005260406000206000915054906101000a900465ffffffffffff1681565b60016020528060005260406000206000915054906101000a900465ffffffffffff1681565b6106a361112d565b81819050868690501480156106cb575060008484905014806106ca57508181905084849050145b5b61070a576040517f08c379a000000000000000000000000000000000000000000000000000000000815260040161070190612931565b60405180910390fd5b600084849050036107d05760005b868690508110156107ca576107bd87878381811061073957610738612951565b5b905060200201602081019061074e91906120d3565b600085858581811061076357610762612951565b5b9050602002810190610775919061298f565b8080601f016020809104026020016040519081016040528093929190818152602001838380828437600081840152601f19601f820116905080830192505050505050506111fa565b8080600101915050610718565b5061089f565b60005b8686905081101561089d576108908787838181106107f4576107f3612951565b5b905060200201602081019061080991906120d3565b86868481811061081c5761081b612951565b5b9050602002013585858581811061083657610835612951565b5b9050602002810190610848919061298f565b8080601f016020809104026020016040519081016040528093929190818152602001838380828437600081840152601f19601f820116905080830192505050505050506111fa565b80806001019150506107d3565b505b505050505050565b6108af610a4b565b73ffffffffffffffffffffffffffffffffffffffff1663b760faf934306040518363ffffffff1660e01b81526004016108e89190612546565b6000604051808303818588803b15801561090157600080fd5b505af1158015610915573d6000803e3d6000fd5b5050505050565b61092461127e565b61092c610a4b565b73ffffffffffffffffffffffffffffffffffffffff1663205c287883836040518363ffffffff1660e01b8152600401610966929190612a01565b600060405180830381600087803b15801561098057600080fd5b505af1158015610994573d6000803e3d6000fd5b505050505050565b6109a4611344565b6109ad8261142a565b6109b78282611435565b5050565b60006109c5611554565b7f360894a13ba1a3210667c828492db98dca3e2076cc3735a920a3ca505d382bbc60001b905090565b60008054906101000a900473ffffffffffffffffffffffffffffffffffffffff1681565b6040518060400160405280600581526020017f352e302e3000000000000000000000000000000000000000000000000000000081525081565b60007f0000000000000000000000000000000000000000000000000000000000000000905090565b610a7b61112d565b610aca848484848080601f016020809104026020016040519081016040528093929190818152602001838380828437600081840152601f19601f820116905080830192505050505050506111fa565b50505050565b600063bc197c8160e01b905098975050505050505050565b6000610af2610a4b565b73ffffffffffffffffffffffffffffffffffffffff166370a08231306040518263ffffffff1660e01b8152600401610b2a9190612546565b602060405180830381865afa158015610b47573d6000803e3d6000fd5b505050506040513d601f19601f82011682018060405250810190610b6b9190612a3f565b905090565b6000610b7a6115db565b905060008160000160089054906101000a900460ff1615905060008260000160009054906101000a900467ffffffffffffffff1690506000808267ffffffffffffffff16148015610bc85750825b9050600060018367ffffffffffffffff16148015610bfd575060003073ffffffffffffffffffffffffffffffffffffffff163b145b905081158015610c0b575080155b15610c42576040517ff92ee8a900000000000000000000000000000000000000000000000000000000815260040160405180910390fd5b60018560000160006101000a81548167ffffffffffffffff021916908367ffffffffffffffff1602179055508315610c925760018560000160086101000a81548160ff0219169083151502179055505b610c9b86611603565b610cad86600065ffffffffffff610d11565b8315610d095760008560000160086101000a81548160ff0219169083151502179055507fc7f505b2f371ae2175ee4913f4499e1f2633a7b5936321eed1cdaeb6115181d26001604051610d009190612abb565b60405180910390a15b505050505050565b610d1961127e565b8165ffffffffffff168165ffffffffffff1611610d6b576040517f08c379a0000000000000000000000000000000000000000000000000000000008152600401610d6290612b22565b60405180910390fd5b81600160008573ffffffffffffffffffffffffffffffffffffffff1673ffffffffffffffffffffffffffffffffffffffff16815260200190815260200160002060006101000a81548165ffffffffffff021916908365ffffffffffff16021790555080600260008573ffffffffffffffffffffffffffffffffffffffff1673ffffffffffffffffffffffffffffffffffffffff16815260200190815260200160002060006101000a81548165ffffffffffff021916908365ffffffffffff160217905550505050565b6000610e3e610a4b565b73ffffffffffffffffffffffffffffffffffffffff166335567e1a3060006040518363ffffffff1660e01b8152600401610e79929190612ba1565b602060405180830381865afa158015610e96573d6000803e3d6000fd5b505050506040513d601f19601f82011682018060405250810190610eba9190612a3f565b905090565b600063f23a6e6160e01b90509695505050505050565b610edd610a4b565b73ffffffffffffffffffffffffffffffffffffffff163373ffffffffffffffffffffffffffffffffffffffff1614610f4a576040517f08c379a0000000000000000000000000000000000000000000000000000000008152600401610f4190612c16565b60405180910390fd5b565b600080610f58836116e0565b90506000610fb98286806101000190610f71919061298f565b8080601f016020809104026020016040519081016040528093929190818152602001838380828437600081840152601f19601f82011690508083019250505050505050611716565b90506000600260008373ffffffffffffffffffffffffffffffffffffffff1673ffffffffffffffffffffffffffffffffffffffff16815260200190815260200160002060009054906101000a900465ffffffffffff1690506000600160008473ffffffffffffffffffffffffffffffffffffffff1673ffffffffffffffffffffffffffffffffffffffff16815260200190815260200160002060009054906101000a900465ffffffffffff1690506000808365ffffffffffff16149050611081818484611742565b9550505050505092915050565b50565b6000811461112a5760003373ffffffffffffffffffffffffffffffffffffffff16827fffffffffffffffffffffffffffffffffffffffffffffffffffffffffffffffff906040516110e190612c67565b600060405180830381858888f193505050503d806000811461111f576040519150601f19603f3d011682016040523d82523d6000602084013e611124565b606091505b50509050505b50565b611135610a4b565b73ffffffffffffffffffffffffffffffffffffffff163373ffffffffffffffffffffffffffffffffffffffff1614806111b9575060008054906101000a900473ffffffffffffffffffffffffffffffffffffffff1673ffffffffffffffffffffffffffffffffffffffff163373ffffffffffffffffffffffffffffffffffffffff16145b6111f8576040517f08c379a00000000000000000000000000000000000000000000000000000000081526004016111ef90612cc8565b60405180910390fd5b565b6000808473ffffffffffffffffffffffffffffffffffffffff1684846040516112239190612d24565b60006040518083038185875af1925050503d8060008114611260576040519150601f19603f3d011682016040523d82523d6000602084013e611265565b606091505b50915091508161127757805160208201fd5b5050505050565b60008054906101000a900473ffffffffffffffffffffffffffffffffffffffff1673ffffffffffffffffffffffffffffffffffffffff163373ffffffffffffffffffffffffffffffffffffffff16148061130357503073ffffffffffffffffffffffffffffffffffffffff163373ffffffffffffffffffffffffffffffffffffffff16145b611342576040517f08c379a000000000000000000000000000000000000000000000000000000000815260040161133990612d87565b60405180910390fd5b565b7f000000000000000000000000000000000000000000000000000000000000000073ffffffffffffffffffffffffffffffffffffffff163073ffffffffffffffffffffffffffffffffffffffff1614806113f157507f000000000000000000000000000000000000000000000000000000000000000073ffffffffffffffffffffffffffffffffffffffff166113d861177b565b73ffffffffffffffffffffffffffffffffffffffff1614155b15611428576040517fe07c8dba00000000000000000000000000000000000000000000000000000000815260040160405180910390fd5b565b61143261127e565b50565b8173ffffffffffffffffffffffffffffffffffffffff166352d1902d6040518163ffffffff1660e01b8152600401602060405180830381865afa92505050801561149d57506040513d601f19601f8201168201806040525081019061149a9190612dbc565b60015b6114de57816040517f4c9c8ce30000000000000000000000000000000000000000000000000000000081526004016114d59190612546565b60405180910390fd5b7f360894a13ba1a3210667c828492db98dca3e2076cc3735a920a3ca505d382bbc60001b811461154557806040517faa1d49a400000000000000000000000000000000000000000000000000000000815260040161153c919061251c565b60405180910390fd5b61154f83836117d2565b505050565b7f000000000000000000000000000000000000000000000000000000000000000073ffffffffffffffffffffffffffffffffffffffff163073ffffffffffffffffffffffffffffffffffffffff16146115d9576040517fe07c8dba00000000000000000000000000000000000000000000000000000000815260040160405180910390fd5b565b60007ff0c57e16840df040f15088dc2f81fe391c3923bec73e23a9662efc9c229c6a00905090565b806000806101000a81548173ffffffffffffffffffffffffffffffffffffffff021916908373ffffffffffffffffffffffffffffffffffffffff16021790555060008054906101000a900473ffffffffffffffffffffffffffffffffffffffff1673ffffffffffffffffffffffffffffffffffffffff167f000000000000000000000000000000000000000000000000000000000000000073ffffffffffffffffffffffffffffffffffffffff167f47e55c76e7a6f1fd8996a1da8008c1ea29699cca35e7bcd057f2dec313b6e5de60405160405180910390a350565b60007f19457468657265756d205369676e6564204d6573736167653a0a33320000000060005281601c52603c6000209050919050565b6000806000806117268686611845565b92509250925061173682826118a1565b82935050505092915050565b600060d08265ffffffffffff16901b60a08465ffffffffffff16901b8561176a57600061176d565b60015b60ff16171790509392505050565b60006117a97f360894a13ba1a3210667c828492db98dca3e2076cc3735a920a3ca505d382bbc60001b611a05565b60000160009054906101000a900473ffffffffffffffffffffffffffffffffffffffff16905090565b6117db82611a0f565b8173ffffffffffffffffffffffffffffffffffffffff167fbc7cd75a20ee27fd9adebab32041f755214dbc6bffa90cc0225b39da2e5c2d3b60405160405180910390a2600081511115611838576118328282611adc565b50611841565b611840611b60565b5b5050565b6000806000604184510361188a5760008060006020870151925060408701519150606087015160001a905061187c88828585611b9d565b95509550955050505061189a565b60006002855160001b9250925092505b9250925092565b600060038111156118b5576118b4612de9565b5b8260038111156118c8576118c7612de9565b5b0315611a0157600160038111156118e2576118e1612de9565b5b8260038111156118f5576118f4612de9565b5b0361192c576040517ff645eedf00000000000000000000000000000000000000000000000000000000815260040160405180910390fd5b600260038111156119405761193f612de9565b5b82600381111561195357611952612de9565b5b03611998578060001c6040517ffce698f700000000000000000000000000000000000000000000000000000000815260040161198f91906120b8565b60405180910390fd5b6003808111156119ab576119aa612de9565b5b8260038111156119be576119bd612de9565b5b03611a0057806040517fd78bce0c0000000000000000000000000000000000000000000000000000000081526004016119f7919061251c565b60405180910390fd5b5b5050565b6000819050919050565b60008173ffffffffffffffffffffffffffffffffffffffff163b03611a6b57806040517f4c9c8ce3000000000000000000000000000000000000000000000000000000008152600401611a629190612546565b60405180910390fd5b80611a987f360894a13ba1a3210667c828492db98dca3e2076cc3735a920a3ca505d382bbc60001b611a05565b60000160006101000a81548173ffffffffffffffffffffffffffffffffffffffff021916908373ffffffffffffffffffffffffffffffffffffffff16021790555050565b60606000808473ffffffffffffffffffffffffffffffffffffffff1684604051611b069190612d24565b600060405180830381855af49150503d8060008114611b41576040519150601f19603f3d011682016040523d82523d6000602084013e611b46565b606091505b5091509150611b56858383611c91565b9250505092915050565b6000341115611b9b576040517fb398979f00000000000000000000000000000000000000000000000000000000815260040160405180910390fd5b565b60008060007f7fffffffffffffffffffffffffffffff5d576e7357a4501ddfe92f46681b20a08460001c1115611bdd576000600385925092509250611c87565b600060018888888860405160008152602001604052604051611c029493929190612e34565b6020604051602081039080840390855afa158015611c24573d6000803e3d6000fd5b505050602060405103519050600073ffffffffffffffffffffffffffffffffffffffff168173ffffffffffffffffffffffffffffffffffffffff1603611c7857600060016000801b93509350935050611c87565b8060008060001b935093509350505b9450945094915050565b606082611ca657611ca182611d20565b611d18565b60008251148015611cce575060008473ffffffffffffffffffffffffffffffffffffffff163b145b15611d1057836040517f9996b315000000000000000000000000000000000000000000000000000000008152600401611d079190612546565b60405180910390fd5b819050611d19565b5b9392505050565b600081511115611d335780518082602001fd5b6040517f1425ea4200000000000000000000000000000000000000000000000000000000815260040160405180910390fd5b6000604051905090565b600080fd5b600080fd5b60007fffffffff0000000000000000000000000000000000000000000000000000000082169050919050565b611dae81611d79565b8114611db957600080fd5b50565b600081359050611dcb81611da5565b92915050565b600060208284031215611de757611de6611d6f565b5b6000611df584828501611dbc565b91505092915050565b60008115159050919050565b611e1381611dfe565b82525050565b6000602082019050611e2e6000830184611e0a565b92915050565b600073ffffffffffffffffffffffffffffffffffffffff82169050919050565b6000611e5f82611e34565b9050919050565b611e6f81611e54565b8114611e7a57600080fd5b50565b600081359050611e8c81611e66565b92915050565b6000819050919050565b611ea581611e92565b8114611eb057600080fd5b50565b600081359050611ec281611e9c565b92915050565b600080fd5b600080fd5b600080fd5b60008083601f840112611eed57611eec611ec8565b5b8235905067ffffffffffffffff811115611f0a57611f09611ecd565b5b602083019150836001820283011115611f2657611f25611ed2565b5b9250929050565b600080600080600060808688031215611f4957611f48611d6f565b5b6000611f5788828901611e7d565b9550506020611f6888828901611e7d565b9450506040611f7988828901611eb3565b935050606086013567ffffffffffffffff811115611f9a57611f99611d74565b5b611fa688828901611ed7565b92509250509295509295909350565b611fbe81611d79565b82525050565b6000602082019050611fd96000830184611fb5565b92915050565b600080fd5b60006101208284031215611ffb57611ffa611fdf565b5b81905092915050565b6000819050919050565b61201781612004565b811461202257600080fd5b50565b6000813590506120348161200e565b92915050565b60008060006060848603121561205357612052611d6f565b5b600084013567ffffffffffffffff81111561207157612070611d74565b5b61207d86828701611fe4565b935050602061208e86828701612025565b925050604061209f86828701611eb3565b9150509250925092565b6120b281611e92565b82525050565b60006020820190506120cd60008301846120a9565b92915050565b6000602082840312156120e9576120e8611d6f565b5b60006120f784828501611e7d565b91505092915050565b600065ffffffffffff82169050919050565b61211b81612100565b82525050565b60006020820190506121366000830184612112565b92915050565b60008083601f84011261215257612151611ec8565b5b8235905067ffffffffffffffff81111561216f5761216e611ecd565b5b60208301915083602082028301111561218b5761218a611ed2565b5b9250929050565b60008083601f8401126121a8576121a7611ec8565b5b8235905067ffffffffffffffff8111156121c5576121c4611ecd565b5b6020830191508360208202830111156121e1576121e0611ed2565b5b9250929050565b60008083601f8401126121fe576121fd611ec8565b5b8235905067ffffffffffffffff81111561221b5761221a611ecd565b5b60208301915083602082028301111561223757612236611ed2565b5b9250929050565b6000806000806000806060878903121561225b5761225a611d6f565b5b600087013567ffffffffffffffff81111561227957612278611d74565b5b61228589828a0161213c565b9650965050602087013567ffffffffffffffff8111156122a8576122a7611d74565b5b6122b489828a01612192565b9450945050604087013567ffffffffffffffff8111156122d7576122d6611d74565b5b6122e389828a016121e8565b92509250509295509295509295565b60006122fd82611e34565b9050919050565b61230d816122f2565b811461231857600080fd5b50565b60008135905061232a81612304565b92915050565b6000806040838503121561234757612346611d6f565b5b60006123558582860161231b565b925050602061236685828601611eb3565b9150509250929050565b600080fd5b6000601f19601f8301169050919050565b7f4e487b7100000000000000000000000000000000000000000000000000000000600052604160045260246000fd5b6123be82612375565b810181811067ffffffffffffffff821117156123dd576123dc612386565b5b80604052505050565b60006123f0611d65565b90506123fc82826123b5565b919050565b600067ffffffffffffffff82111561241c5761241b612386565b5b61242582612375565b9050602081019050919050565b82818337600083830152505050565b600061245461244f84612401565b6123e6565b9050828152602081018484840111156124705761246f612370565b5b61247b848285612432565b509392505050565b600082601f83011261249857612497611ec8565b5b81356124a8848260208601612441565b91505092915050565b600080604083850312156124c8576124c7611d6f565b5b60006124d685828601611e7d565b925050602083013567ffffffffffffffff8111156124f7576124f6611d74565b5b61250385828601612483565b9150509250929050565b61251681612004565b82525050565b6000602082019050612531600083018461250d565b92915050565b61254081611e54565b82525050565b600060208201905061255b6000830184612537565b92915050565b600081519050919050565b600082825260208201905092915050565b60005b8381101561259b578082015181840152602081019050612580565b60008484015250505050565b60006125b282612561565b6125bc818561256c565b93506125cc81856020860161257d565b6125d581612375565b840191505092915050565b600060208201905081810360008301526125fa81846125a7565b905092915050565b6000819050919050565b600061262761262261261d84611e34565b612602565b611e34565b9050919050565b60006126398261260c565b9050919050565b600061264b8261262e565b9050919050565b61265b81612640565b82525050565b60006020820190506126766000830184612652565b92915050565b6000806000806060858703121561269657612695611d6f565b5b60006126a487828801611e7d565b94505060206126b587828801611eb3565b935050604085013567ffffffffffffffff8111156126d6576126d5611d74565b5b6126e287828801611ed7565b925092505092959194509250565b60008060008060008060008060a0898b0312156127105761270f611d6f565b5b600061271e8b828c01611e7d565b985050602061272f8b828c01611e7d565b975050604089013567ffffffffffffffff8111156127505761274f611d74565b5b61275c8b828c01612192565b9650965050606089013567ffffffffffffffff81111561277f5761277e611d74565b5b61278b8b828c01612192565b9450945050608089013567ffffffffffffffff8111156127ae576127ad611d74565b5b6127ba8b828c01611ed7565b92509250509295985092959890939650565b6127d581612100565b81146127e057600080fd5b50565b6000813590506127f2816127cc565b92915050565b60008060006060848603121561281157612810611d6f565b5b600061281f86828701611e7d565b9350506020612830868287016127e3565b9250506040612841868287016127e3565b9150509250925092565b60008060008060008060a0878903121561286857612867611d6f565b5b600061287689828a01611e7d565b965050602061288789828a01611e7d565b955050604061289889828a01611eb3565b94505060606128a989828a01611eb3565b935050608087013567ffffffffffffffff8111156128ca576128c9611d74565b5b6128d689828a01611ed7565b92509250509295509295509295565b7f77726f6e67206172726179206c656e6774687300000000000000000000000000600082015250565b600061291b60138361256c565b9150612926826128e5565b602082019050919050565b6000602082019050818103600083015261294a8161290e565b9050919050565b7f4e487b7100000000000000000000000000000000000000000000000000000000600052603260045260246000fd5b600080fd5b600080fd5b600080fd5b600080833560016020038436030381126129ac576129ab612980565b5b80840192508235915067ffffffffffffffff8211156129ce576129cd612985565b5b6020830192506001820236038313156129ea576129e961298a565b5b509250929050565b6129fb816122f2565b82525050565b6000604082019050612a1660008301856129f2565b612a2360208301846120a9565b9392505050565b600081519050612a3981611e9c565b92915050565b600060208284031215612a5557612a54611d6f565b5b6000612a6384828501612a2a565b91505092915050565b6000819050919050565b600067ffffffffffffffff82169050919050565b6000612aa5612aa0612a9b84612a6c565b612602565b612a76565b9050919050565b612ab581612a8a565b82525050565b6000602082019050612ad06000830184612aac565b92915050565b7f77726f6e6720756e74696c2f6166746572000000000000000000000000000000600082015250565b6000612b0c60118361256c565b9150612b1782612ad6565b602082019050919050565b60006020820190508181036000830152612b3b81612aff565b9050919050565b6000819050919050565b600077ffffffffffffffffffffffffffffffffffffffffffffffff82169050919050565b6000612b8b612b86612b8184612b42565b612602565b612b4c565b9050919050565b612b9b81612b70565b82525050565b6000604082019050612bb66000830185612537565b612bc36020830184612b92565b9392505050565b7f6163636f756e743a206e6f742066726f6d20456e747279506f696e7400000000600082015250565b6000612c00601c8361256c565b9150612c0b82612bca565b602082019050919050565b60006020820190508181036000830152612c2f81612bf3565b9050919050565b600081905092915050565b50565b6000612c51600083612c36565b9150612c5c82612c41565b600082019050919050565b6000612c7282612c44565b9150819050919050565b7f6163636f756e743a206e6f74204f776e6572206f7220456e747279506f696e74600082015250565b6000612cb260208361256c565b9150612cbd82612c7c565b602082019050919050565b60006020820190508181036000830152612ce181612ca5565b9050919050565b600081519050919050565b6000612cfe82612ce8565b612d088185612c36565b9350612d1881856020860161257d565b80840191505092915050565b6000612d308284612cf3565b915081905092915050565b7f6f6e6c79206f776e657200000000000000000000000000000000000000000000600082015250565b6000612d71600a8361256c565b9150612d7c82612d3b565b602082019050919050565b60006020820190508181036000830152612da081612d64565b9050919050565b600081519050612db68161200e565b92915050565b600060208284031215612dd257612dd1611d6f565b5b6000612de084828501612da7565b91505092915050565b7f4e487b7100000000000000000000000000000000000000000000000000000000600052602160045260246000fd5b600060ff82169050919050565b612e2e81612e18565b82525050565b6000608082019050612e49600083018761250d565b612e566020830186612e25565b612e63604083018561250d565b612e70606083018461250d565b9594505050505056fea2646970667358221220e559644cbbde55131a4fd98a188b4c306030d292ff9e7d3851cf3da3f6fe544264736f6c634300081a0033","linkReferences":{}},"methodIdentifiers":{"UPGRADE_INTERFACE_VERSION()":"ad3cb1cc","addDeposit()":"4a58db19","addTemporaryOwner(address,uint48,uint48)":"cf6dca55","entryPoint()":"b0d691fe","execute(address,uint256,bytes)":"b61d27f6","executeBatch(address[],uint256[],bytes[])":"47e1da2a","getDeposit()":"c399ec88","getNonce()":"d087d288","initialize(address)":"c4d66de8","onERC1155BatchReceived(address,address,uint256[],uint256[],bytes)":"bc197c81","onERC1155Received(address,address,uint256,uint256,bytes)":"f23a6e61","onERC721Received(address,address,uint256,bytes)":"150b7a02","owner()":"8da5cb5b","ownerAfter(address)":"3fb5a7a1","ownerUntil(address)":"3e476951","proxiableUUID()":"52d1902d","supportsInterface(bytes4)":"01ffc9a7","upgradeToAndCall(address,bytes)":"4f1ef286","validateUserOp((address,uint256,bytes,bytes,bytes32,uint256,bytes32,bytes,bytes),bytes32,uint256)":"19822f7c","withdrawDepositTo(address,uint256)":"4d44560d"},"id":51}