{"abi":[{"type":"constructor","inputs":[{"name":"_decimals","type":"uint8","internalType":"uint8"}],"stateMutability":"nonpayable"},{"type":"function","name":"allowance","inputs":[{"name":"owner","type":"address","internalType":"address"},{"name":"spender","type":"address","internalType":"address"}],"outputs":[{"name":"","type":"uint256","internalType":"uint256"}],"stateMutability":"view"},{"type":"function","name":"approve","inputs":[{"name":"spender","type":"address","internalType":"address"},{"name":"value","type":"uint256","internalType":"uint256"}],"outputs":[{"name":"","type":"bool","internalType":"bool"}],"stateMutability":"nonpayable"},{"type":"function","name":"balanceOf","inputs":[{"name":"account","type":"address","internalType":"address"}],"outputs":[{"name":"","type":"uint256","internalType":"uint256"}],"stateMutability":"view"},{"type":"function","name":"decimals","inputs":[],"outputs":[{"name":"","type":"uint8","internalType":"uint8"}],"stateMutability":"view"},{"type":"function","name":"name","inputs":[],"outputs":[{"name":"","type":"string","internalType":"string"}],"stateMutability":"view"},{"type":"function","name":"sudoApprove","inputs":[{"name":"_from","type":"address","internalType":"address"},{"name":"_to","type":"address","internalType":"address"},{"name":"_amount","type":"uint256","internalType":"uint256"}],"outputs":[],"stateMutability":"nonpayable"},{"type":"function","name":"sudoMint","inputs":[{"name":"_to","type":"address","internalType":"address"},{"name":"_amount","type":"uint256","internalType":"uint256"}],"outputs":[],"stateMutability":"nonpayable"},{"type":"function","name":"sudoTransfer","inputs":[{"name":"_from","type":"address","internalType":"address"},{"name":"_to","type":"address","internalType":"address"}],"outputs":[],"stateMutability":"nonpayable"},{"type":"function","name":"symbol","inputs":[],"outputs":[{"name":"","type":"string","internalType":"string"}],"stateMutability":"view"},{"type":"function","name":"totalSupply","inputs":[],"outputs":[{"name":"","type":"uint256","internalType":"uint256"}],"stateMutability":"view"},{"type":"function","name":"transfer","inputs":[{"name":"to","type":"address","internalType":"address"},{"name":"value","type":"uint256","internalType":"uint256"}],"outputs":[{"name":"","type":"bool","internalType":"bool"}],"stateMutability":"nonpayable"},{"type":"function","name":"transferFrom","inputs":[{"name":"from","type":"address","internalType":"address"},{"name":"to","type":"address","internalType":"address"},{"name":"value","type":"uint256","internalType":"uint256"}],"outputs":[{"name":"","type":"bool","internalType":"bool"}],"stateMutability":"nonpayable"},{"type":"event","name":"Approval","inputs":[{"name":"owner","type":"address","indexed":true,"internalType":"address"},{"name":"spender","type":"address","indexed":true,"internalType":"address"},{"name":"value","type":"uint256","indexed":false,"internalType":"uint256"}],"anonymous":false},{"type":"event","name":"Transfer","inputs":[{"name":"from","type":"address","indexed":true,"internalType":"address"},{"name":"to","type":"address","indexed":true,"internalType":"address"},{"name":"value","type":"uint256","indexed":false,"internalType":"uint256"}],"anonymous":false},{"type":"error","name":"ERC20InsufficientAllowance","inputs":[{"name":"spender","type":"address","internalType":"address"},{"name":"allowance","type":"uint256","internalType":"uint256"},{"name":"needed","type":"uint256","internalType":"uint256"}]},{"type":"error","name":"ERC20InsufficientBalance","inputs":[{"name":"sender","type":"address","internalType":"address"},{"name":"balance","type":"uint256","internalType":"uint256"},{"name":"needed","type":"uint256","internalType":"uint256"}]},{"type":"error","name":"ERC20InvalidApprover","inputs":[{"name":"approver","type":"address","internalType":"address"}]},{"type":"error","name":"ERC20InvalidReceiver","inputs":[{"name":"receiver","type":"address","internalType":"address"}]},{"type":"error","name":"ERC20InvalidSender","inputs":[{"name":"sender","type":"address","internalType":"address"}]},{"type":"error","name":"ERC20InvalidSpender","inputs":[{"name":"spender","type":"address","internalType":"address"}]}],"bytecode":{"object":"0x60a060405234801561001057600080fd5b50604051611803380380611803833981810160405281019061003291906103d9565b6040518060400160405280600981526020017f54657374455243323000000000000000000000000000000000000000000000008152506040518060400160405280600381526020017f543230000000000000000000000000000000000000000000000000000000000081525081600390816100ad9190610656565b5080600490816100bd9190610656565b5050506100da3369d3c21bcecceda10000006100ee60201b60201c565b8060ff1660808160ff168152505050610848565b600073ffffffffffffffffffffffffffffffffffffffff168273ffffffffffffffffffffffffffffffffffffffff16036101605760006040517fec442f050000000000000000000000000000000000000000000000000000000081526004016101579190610769565b60405180910390fd5b6101726000838361017660201b60201c565b5050565b600073ffffffffffffffffffffffffffffffffffffffff168373ffffffffffffffffffffffffffffffffffffffff16036101c85780600260008282546101bc91906107b3565b9250508190555061029b565b60008060008573ffffffffffffffffffffffffffffffffffffffff1673ffffffffffffffffffffffffffffffffffffffff16815260200190815260200160002054905081811015610254578381836040517fe450d38c00000000000000000000000000000000000000000000000000000000815260040161024b939291906107f6565b60405180910390fd5b8181036000808673ffffffffffffffffffffffffffffffffffffffff1673ffffffffffffffffffffffffffffffffffffffff16815260200190815260200160002081905550505b600073ffffffffffffffffffffffffffffffffffffffff168273ffffffffffffffffffffffffffffffffffffffff16036102e45780600260008282540392505081905550610331565b806000808473ffffffffffffffffffffffffffffffffffffffff1673ffffffffffffffffffffffffffffffffffffffff168152602001908152602001600020600082825401925050819055505b8173ffffffffffffffffffffffffffffffffffffffff168373ffffffffffffffffffffffffffffffffffffffff167fddf252ad1be2c89b69c2b068fc378daa952ba7f163c4a11628f55a4df523b3ef8360405161038e919061082d565b60405180910390a3505050565b600080fd5b600060ff82169050919050565b6103b6816103a0565b81146103c157600080fd5b50565b6000815190506103d3816103ad565b92915050565b6000602082840312156103ef576103ee61039b565b5b60006103fd848285016103c4565b91505092915050565b600081519050919050565b7f4e487b7100000000000000000000000000000000000000000000000000000000600052604160045260246000fd5b7f4e487b7100000000000000000000000000000000000000000000000000000000600052602260045260246000fd5b6000600282049050600182168061048757607f821691505b60208210810361049a57610499610440565b5b50919050565b60008190508160005260206000209050919050565b60006020601f8301049050919050565b600082821b905092915050565b6000600883026105027fffffffffffffffffffffffffffffffffffffffffffffffffffffffffffffffff826104c5565b61050c86836104c5565b95508019841693508086168417925050509392505050565b6000819050919050565b6000819050919050565b600061055361054e61054984610524565b61052e565b610524565b9050919050565b6000819050919050565b61056d83610538565b6105816105798261055a565b8484546104d2565b825550505050565b600090565b610596610589565b6105a1818484610564565b505050565b5b818110156105c5576105ba60008261058e565b6001810190506105a7565b5050565b601f82111561060a576105db816104a0565b6105e4846104b5565b810160208510156105f3578190505b6106076105ff856104b5565b8301826105a6565b50505b505050565b600082821c905092915050565b600061062d6000198460080261060f565b1980831691505092915050565b6000610646838361061c565b9150826002028217905092915050565b61065f82610406565b67ffffffffffffffff81111561067857610677610411565b5b610682825461046f565b61068d8282856105c9565b600060209050601f8311600181146106c057600084156106ae578287015190505b6106b8858261063a565b865550610720565b601f1984166106ce866104a0565b60005b828110156106f6578489015182556001820191506020850194506020810190506106d1565b86831015610713578489015161070f601f89168261061c565b8355505b6001600288020188555050505b505050505050565b600073ffffffffffffffffffffffffffffffffffffffff82169050919050565b600061075382610728565b9050919050565b61076381610748565b82525050565b600060208201905061077e600083018461075a565b92915050565b7f4e487b7100000000000000000000000000000000000000000000000000000000600052601160045260246000fd5b60006107be82610524565b91506107c983610524565b92508282019050808211156107e1576107e0610784565b5b92915050565b6107f081610524565b82525050565b600060608201905061080b600083018661075a565b61081860208301856107e7565b61082560408301846107e7565b949350505050565b600060208201905061084260008301846107e7565b92915050565b608051610fa061086360003960006103850152610fa06000f3fe608060405234801561001057600080fd5b50600436106100b45760003560e01c8063313ce56711610071578063313ce5671461018d57806370a08231146101ab57806395d89b41146101db578063a9059cbb146101f9578063dd62ed3e14610229578063fb4dcefa14610259576100b4565b806305ea5c22146100b957806306fdde03146100d5578063095ea7b3146100f357806318160ddd1461012357806323b872dd146101415780632d688ca814610171575b600080fd5b6100d360048036038101906100ce9190610bfd565b610275565b005b6100dd610285565b6040516100ea9190610ce0565b60405180910390f35b61010d60048036038101906101089190610d02565b610317565b60405161011a9190610d5d565b60405180910390f35b61012b61033a565b6040516101389190610d87565b60405180910390f35b61015b60048036038101906101569190610bfd565b610344565b6040516101689190610d5d565b60405180910390f35b61018b60048036038101906101869190610d02565b610373565b005b610195610381565b6040516101a29190610dbe565b60405180910390f35b6101c560048036038101906101c09190610dd9565b6103a9565b6040516101d29190610d87565b60405180910390f35b6101e36103f1565b6040516101f09190610ce0565b60405180910390f35b610213600480360381019061020e9190610d02565b610483565b6040516102209190610d5d565b60405180910390f35b610243600480360381019061023e9190610e06565b6104a6565b6040516102509190610d87565b60405180910390f35b610273600480360381019061026e9190610e06565b61052d565b005b610280838383610544565b505050565b60606003805461029490610e75565b80601f01602080910402602001604051908101604052809291908181526020018280546102c090610e75565b801561030d5780601f106102e25761010080835404028352916020019161030d565b820191906000526020600020905b8154815290600101906020018083116102f057829003601f168201915b5050505050905090565b600080610322610556565b905061032f818585610544565b600191505092915050565b6000600254905090565b60008061034f610556565b905061035c85828561055e565b6103678585856105f2565b60019150509392505050565b61037d82826106e6565b5050565b60007f0000000000000000000000000000000000000000000000000000000000000000905090565b60008060008373ffffffffffffffffffffffffffffffffffffffff1673ffffffffffffffffffffffffffffffffffffffff168152602001908152602001600020549050919050565b60606004805461040090610e75565b80601f016020809104026020016040519081016040528092919081815260200182805461042c90610e75565b80156104795780601f1061044e57610100808354040283529160200191610479565b820191906000526020600020905b81548152906001019060200180831161045c57829003601f168201915b5050505050905090565b60008061048e610556565b905061049b8185856105f2565b600191505092915050565b6000600160008473ffffffffffffffffffffffffffffffffffffffff1673ffffffffffffffffffffffffffffffffffffffff16815260200190815260200160002060008373ffffffffffffffffffffffffffffffffffffffff1673ffffffffffffffffffffffffffffffffffffffff16815260200190815260200160002054905092915050565b610540828261053b856103a9565b6105f2565b5050565b6105518383836001610768565b505050565b600033905090565b600061056a84846104a6565b90507fffffffffffffffffffffffffffffffffffffffffffffffffffffffffffffffff81146105ec57818110156105dc578281836040517ffb8f41b20000000000000000000000000000000000000000000000000000000081526004016105d393929190610eb5565b60405180910390fd5b6105eb84848484036000610768565b5b50505050565b600073ffffffffffffffffffffffffffffffffffffffff168373ffffffffffffffffffffffffffffffffffffffff16036106645760006040517f96c6fd1e00000000000000000000000000000000000000000000000000000000815260040161065b9190610eec565b60405180910390fd5b600073ffffffffffffffffffffffffffffffffffffffff168273ffffffffffffffffffffffffffffffffffffffff16036106d65760006040517fec442f050000000000000000000000000000000000000000000000000000000081526004016106cd9190610eec565b60405180910390fd5b6106e183838361093f565b505050565b600073ffffffffffffffffffffffffffffffffffffffff168273ffffffffffffffffffffffffffffffffffffffff16036107585760006040517fec442f0500000000000000000000000000000000000000000000000000000000815260040161074f9190610eec565b60405180910390fd5b6107646000838361093f565b5050565b600073ffffffffffffffffffffffffffffffffffffffff168473ffffffffffffffffffffffffffffffffffffffff16036107da5760006040517fe602df050000000000000000000000000000000000000000000000000000000081526004016107d19190610eec565b60405180910390fd5b600073ffffffffffffffffffffffffffffffffffffffff168373ffffffffffffffffffffffffffffffffffffffff160361084c5760006040517f94280d620000000000000000000000000000000000000000000000000000000081526004016108439190610eec565b60405180910390fd5b81600160008673ffffffffffffffffffffffffffffffffffffffff1673ffffffffffffffffffffffffffffffffffffffff16815260200190815260200160002060008573ffffffffffffffffffffffffffffffffffffffff1673ffffffffffffffffffffffffffffffffffffffff168152602001908152602001600020819055508015610939578273ffffffffffffffffffffffffffffffffffffffff168473ffffffffffffffffffffffffffffffffffffffff167f8c5be1e5ebec7d5bd14f71427d1e84f3dd0314c0f7b2291e5b200ac8c7c3b925846040516109309190610d87565b60405180910390a35b50505050565b600073ffffffffffffffffffffffffffffffffffffffff168373ffffffffffffffffffffffffffffffffffffffff16036109915780600260008282546109859190610f36565b92505081905550610a64565b60008060008573ffffffffffffffffffffffffffffffffffffffff1673ffffffffffffffffffffffffffffffffffffffff16815260200190815260200160002054905081811015610a1d578381836040517fe450d38c000000000000000000000000000000000000000000000000000000008152600401610a1493929190610eb5565b60405180910390fd5b8181036000808673ffffffffffffffffffffffffffffffffffffffff1673ffffffffffffffffffffffffffffffffffffffff16815260200190815260200160002081905550505b600073ffffffffffffffffffffffffffffffffffffffff168273ffffffffffffffffffffffffffffffffffffffff1603610aad5780600260008282540392505081905550610afa565b806000808473ffffffffffffffffffffffffffffffffffffffff1673ffffffffffffffffffffffffffffffffffffffff168152602001908152602001600020600082825401925050819055505b8173ffffffffffffffffffffffffffffffffffffffff168373ffffffffffffffffffffffffffffffffffffffff167fddf252ad1be2c89b69c2b068fc378daa952ba7f163c4a11628f55a4df523b3ef83604051610b579190610d87565b60405180910390a3505050565b600080fd5b600073ffffffffffffffffffffffffffffffffffffffff82169050919050565b6000610b9482610b69565b9050919050565b610ba481610b89565b8114610baf57600080fd5b50565b600081359050610bc181610b9b565b92915050565b6000819050919050565b610bda81610bc7565b8114610be557600080fd5b50565b600081359050610bf781610bd1565b92915050565b600080600060608486031215610c1657610c15610b64565b5b6000610c2486828701610bb2565b9350506020610c3586828701610bb2565b9250506040610c4686828701610be8565b9150509250925092565b600081519050919050565b600082825260208201905092915050565b60005b83811015610c8a578082015181840152602081019050610c6f565b60008484015250505050565b6000601f19601f8301169050919050565b6000610cb282610c50565b610cbc8185610c5b565b9350610ccc818560208601610c6c565b610cd581610c96565b840191505092915050565b60006020820190508181036000830152610cfa8184610ca7565b905092915050565b60008060408385031215610d1957610d18610b64565b5b6000610d2785828601610bb2565b9250506020610d3885828601610be8565b9150509250929050565b60008115159050919050565b610d5781610d42565b82525050565b6000602082019050610d726000830184610d4e565b92915050565b610d8181610bc7565b82525050565b6000602082019050610d9c6000830184610d78565b92915050565b600060ff82169050919050565b610db881610da2565b82525050565b6000602082019050610dd36000830184610daf565b92915050565b600060208284031215610def57610dee610b64565b5b6000610dfd84828501610bb2565b91505092915050565b60008060408385031215610e1d57610e1c610b64565b5b6000610e2b85828601610bb2565b9250506020610e3c85828601610bb2565b9150509250929050565b7f4e487b7100000000000000000000000000000000000000000000000000000000600052602260045260246000fd5b60006002820490506001821680610e8d57607f821691505b602082108103610ea057610e9f610e46565b5b50919050565b610eaf81610b89565b82525050565b6000606082019050610eca6000830186610ea6565b610ed76020830185610d78565b610ee46040830184610d78565b949350505050565b6000602082019050610f016000830184610ea6565b92915050565b7f4e487b7100000000000000000000000000000000000000000000000000000000600052601160045260246000fd5b6000610f4182610bc7565b9150610f4c83610bc7565b9250828201905080821115610f6457610f63610f07565b5b9291505056fea2646970667358221220e79daac4befc818f8e37c2c888701e2fa928d37b9c88fcbce626eed0a555882164736f6c634300081a0033","linkReferences":{}},"methodIdentifiers":{"allowance(address,address)":"dd62ed3e","approve(address,uint256)":"095ea7b3","balanceOf(address)":"70a08231","decimals()":"313ce567","name()":"06fdde03","sudoApprove(address,address,uint256)":"05ea5c22","sudoMint(address,uint256)":"2d688ca8","sudoTransfer(address,address)":"fb4dcefa","symbol()":"95d89b41","totalSupply()":"18160ddd","transfer(address,uint256)":"a9059cbb","transferFrom(address,address,uint256)":"23b872dd"},"id":48}