{"abi":[{"type":"constructor","inputs":[{"name":"anEntryPoint","type":"address","internalType":"contract IEntryPoint"},{"name":"anAggregator","type":"address","internalType":"address"}],"stateMutability":"nonpayable"},{"type":"receive","stateMutability":"payable"},{"type":"function","name":"UPGRADE_INTERFACE_VERSION","inputs":[],"outputs":[{"name":"","type":"string","internalType":"string"}],"stateMutability":"view"},{"type":"function","name":"addDeposit","inputs":[],"outputs":[],"stateMutability":"payable"},{"type":"function","name":"aggregator","inputs":[],"outputs":[{"name":"","type":"address","internalType":"address"}],"stateMutability":"view"},{"type":"function","name":"entryPoint","inputs":[],"outputs":[{"name":"","type":"address","internalType":"contract IEntryPoint"}],"stateMutability":"view"},{"type":"function","name":"execute","inputs":[{"name":"dest","type":"address","internalType":"address"},{"name":"value","type":"uint256","internalType":"uint256"},{"name":"func","type":"bytes","internalType":"bytes"}],"outputs":[],"stateMutability":"nonpayable"},{"type":"function","name":"executeBatch","inputs":[{"name":"dest","type":"address[]","internalType":"address[]"},{"name":"value","type":"uint256[]","internalType":"uint256[]"},{"name":"func","type":"bytes[]","internalType":"bytes[]"}],"outputs":[],"stateMutability":"nonpayable"},{"type":"function","name":"getBlsPublicKey","inputs":[],"outputs":[{"name":"","type":"uint256[4]","internalType":"uint256[4]"}],"stateMutability":"view"},{"type":"function","name":"getDeposit","inputs":[],"outputs":[{"name":"","type":"uint256","internalType":"uint256"}],"stateMutability":"view"},{"type":"function","name":"getNonce","inputs":[],"outputs":[{"name":"","type":"uint256","internalType":"uint256"}],"stateMutability":"view"},{"type":"function","name":"initialize","inputs":[{"name":"anOwner","type":"address","internalType":"address"}],"outputs":[],"stateMutability":"nonpayable"},{"type":"function","name":"initialize","inputs":[{"name":"aPublicKey","type":"uint256[4]","internalType":"uint256[4]"}],"outputs":[],"stateMutability":"nonpayable"},{"type":"function","name":"onERC1155BatchReceived","inputs":[{"name":"","type":"address","internalType":"address"},{"name":"","type":"address","internalType":"address"},{"name":"","type":"uint256[]","internalType":"uint256[]"},{"name":"","type":"uint256[]","internalType":"uint256[]"},{"name":"","type":"bytes","internalType":"bytes"}],"outputs":[{"name":"","type":"bytes4","internalType":"bytes4"}],"stateMutability":"pure"},{"type":"function","name":"onERC1155Received","inputs":[{"name":"","type":"address","internalType":"address"},{"name":"","type":"address","internalType":"address"},{"name":"","type":"uint256","internalType":"uint256"},{"name":"","type":"uint256","internalType":"uint256"},{"name":"","type":"bytes","internalType":"bytes"}],"outputs":[{"name":"","type":"bytes4","internalType":"bytes4"}],"stateMutability":"pure"},{"type":"function","name":"onERC721Received","inputs":[{"name":"","type":"address","internalType":"address"},{"name":"","type":"address","internalType":"address"},{"name":"","type":"uint256","internalType":"uint256"},{"name":"","type":"bytes","internalType":"bytes"}],"outputs":[{"name":"","type":"bytes4","internalType":"bytes4"}],"stateMutability":"pure"},{"type":"function","name":"owner","inputs":[],"outputs":[{"name":"","type":"address","internalType":"address"}],"stateMutability":"view"},{"type":"function","name":"proxiableUUID","inputs":[],"outputs":[{"name":"","type":"bytes32","internalType":"bytes32"}],"stateMutability":"view"},{"type":"function","name":"setBlsPublicKey","inputs":[{"name":"newPublicKey","type":"uint256[4]","internalType":"uint256[4]"}],"outputs":[],"stateMutability":"nonpayable"},{"type":"function","name":"supportsInterface","inputs":[{"name":"interfaceId","type":"bytes4","internalType":"bytes4"}],"outputs":[{"name":"","type":"bool","internalType":"bool"}],"stateMutability":"view"},{"type":"function","name":"upgradeToAndCall","inputs":[{"name":"newImplementation","type":"address","internalType":"address"},{"name":"data","type":"bytes","internalType":"bytes"}],"outputs":[],"stateMutability":"payable"},{"type":"function","name":"validateUserOp","inputs":[{"name":"userOp","type":"tuple","internalType":"struct PackedUserOperation","components":[{"name":"sender","type":"address","internalType":"address"},{"name":"nonce","type":"uint256","internalType":"uint256"},{"name":"initCode","type":"bytes","internalType":"bytes"},{"name":"callData","type":"bytes","internalType":"bytes"},{"name":"accountGasLimits","type":"bytes32","internalType":"bytes32"},{"name":"preVerificationGas","type":"uint256","internalType":"uint256"},{"name":"gasFees","type":"bytes32","internalType":"bytes32"},{"name":"paymasterAndData","type":"bytes","internalType":"bytes"},{"name":"signature","type":"bytes","internalType":"bytes"}]},{"name":"userOpHash","type":"bytes32","internalType":"bytes32"},{"name":"missingAccountFunds","type":"uint256","internalType":"uint256"}],"outputs":[{"name":"validationData","type":"uint256","internalType":"uint256"}],"stateMutability":"nonpayable"},{"type":"function","name":"withdrawDepositTo","inputs":[{"name":"withdrawAddress","type":"address","internalType":"address payable"},{"name":"amount","type":"uint256","internalType":"uint256"}],"outputs":[],"stateMutability":"nonpayable"},{"type":"event","name":"Initialized","inputs":[{"name":"version","type":"uint64","indexed":false,"internalType":"uint64"}],"anonymous":false},{"type":"event","name":"PublicKeyChanged","inputs":[{"name":"oldPublicKey","type":"uint256[4]","indexed":false,"internalType":"uint256[4]"},{"name":"newPublicKey","type":"uint256[4]","indexed":false,"internalType":"uint256[4]"}],"anonymous":false},{"type":"event","name":"SimpleAccountInitialized","inputs":[{"name":"entryPoint","type":"address","indexed":true,"internalType":"contract IEntryPoint"},{"name":"owner","type":"address","indexed":true,"internalType":"address"}],"anonymous":false},{"type":"event","name":"Upgraded","inputs":[{"name":"implementation","type":"address","indexed":true,"internalType":"address"}],"anonymous":false},{"type":"error","name":"AddressEmptyCode","inputs":[{"name":"target","type":"address","internalType":"address"}]},{"type":"error","name":"ERC1967InvalidImplementation","inputs":[{"name":"implementation","type":"address","internalType":"address"}]},{"type":"error","name":"ERC1967NonPayable","inputs":[]},{"type":"error","name":"FailedInnerCall","inputs":[]},{"type":"error","name":"InvalidInitialization","inputs":[]},{"type":"error","name":"NotInitializing","inputs":[]},{"type":"error","name":"UUPSUnauthorizedCallContext","inputs":[]},{"type":"error","name":"UUPSUnsupportedProxiableUUID","inputs":[{"name":"slot","type":"bytes32","internalType":"bytes32"}]}],"bytecode":{"object":"0x60e06040523073ffffffffffffffffffffffffffffffffffffffff1660809073ffffffffffffffffffffffffffffffffffffffff1681525034801561004357600080fd5b506040516132dd3803806132dd833981810160405281019061006591906102b1565b818073ffffffffffffffffffffffffffffffffffffffff1660a08173ffffffffffffffffffffffffffffffffffffffff16815250506100a86100e460201b60201c565b508073ffffffffffffffffffffffffffffffffffffffff1660c08173ffffffffffffffffffffffffffffffffffffffff1681525050505061032f565b60006100f46101e860201b60201c565b90508060000160089054906101000a900460ff161561013f576040517ff92ee8a900000000000000000000000000000000000000000000000000000000815260040160405180910390fd5b67ffffffffffffffff80168160000160009054906101000a900467ffffffffffffffff1667ffffffffffffffff16146101e55767ffffffffffffffff8160000160006101000a81548167ffffffffffffffff021916908367ffffffffffffffff1602179055507fc7f505b2f371ae2175ee4913f4499e1f2633a7b5936321eed1cdaeb6115181d267ffffffffffffffff6040516101dc9190610314565b60405180910390a15b50565b60007ff0c57e16840df040f15088dc2f81fe391c3923bec73e23a9662efc9c229c6a00905090565b600080fd5b600073ffffffffffffffffffffffffffffffffffffffff82169050919050565b600061024082610215565b9050919050565b600061025282610235565b9050919050565b61026281610247565b811461026d57600080fd5b50565b60008151905061027f81610259565b92915050565b61028e81610235565b811461029957600080fd5b50565b6000815190506102ab81610285565b92915050565b600080604083850312156102c8576102c7610210565b5b60006102d685828601610270565b92505060206102e78582860161029c565b9150509250929050565b600067ffffffffffffffff82169050919050565b61030e816102f1565b82525050565b60006020820190506103296000830184610305565b92915050565b60805160a05160c051612f6361037a600039600081816106770152611200015260008181610a4d015261178b015260008181611455015281816114aa01526116650152612f636000f3fe60806040526004361061012e5760003560e01c80638da5cb5b116100ab578063c399ec881161006f578063c399ec88146103cf578063c4d66de8146103fa578063d087d28814610423578063e02afbae1461044e578063ee472f3614610479578063f23a6e61146104a257610135565b80638da5cb5b146102e8578063ad3cb1cc14610313578063b0d691fe1461033e578063b61d27f614610369578063bc197c811461039257610135565b806347e1da2a116100f257806347e1da2a146102455780634a58db191461026e5780634d44560d146102785780634f1ef286146102a157806352d1902d146102bd57610135565b806301ffc9a71461013a578063150b7a021461017757806318fc5c44146101b457806319822f7c146101dd578063245a7bfc1461021a57610135565b3661013557005b600080fd5b34801561014657600080fd5b50610161600480360381019061015c9190611c58565b6104df565b60405161016e9190611ca0565b60405180910390f35b34801561018357600080fd5b5061019e60048036038101906101999190611db4565b610619565b6040516101ab9190611e4b565b60405180910390f35b3480156101c057600080fd5b506101db60048036038101906101d69190611fa3565b61062e565b005b3480156101e957600080fd5b5061020460048036038101906101ff919061202b565b610642565b60405161021191906120a9565b60405180910390f35b34801561022657600080fd5b5061022f610675565b60405161023c91906120d3565b60405180910390f35b34801561025157600080fd5b5061026c600480360381019061026791906121f0565b610699565b005b6102766108a5565b005b34801561028457600080fd5b5061029f600480360381019061029a91906122e2565b61091a565b005b6102bb60048036038101906102b691906123d7565b61099a565b005b3480156102c957600080fd5b506102d26109b9565b6040516102df9190612442565b60405180910390f35b3480156102f457600080fd5b506102fd6109ec565b60405161030a91906120d3565b60405180910390f35b34801561031f57600080fd5b50610328610a10565b60405161033591906124dc565b60405180910390f35b34801561034a57600080fd5b50610353610a49565b604051610360919061255d565b60405180910390f35b34801561037557600080fd5b50610390600480360381019061038b9190612578565b610a71565b005b34801561039e57600080fd5b506103b960048036038101906103b491906125ec565b610ace565b6040516103c69190611e4b565b60405180910390f35b3480156103db57600080fd5b506103e4610ae6565b6040516103f191906120a9565b60405180910390f35b34801561040657600080fd5b50610421600480360381019061041c91906126c8565b610b6e565b005b34801561042f57600080fd5b50610438610cfd565b60405161044591906120a9565b60405180910390f35b34801561045a57600080fd5b50610463610d88565b60405161047091906127a0565b60405180910390f35b34801561048557600080fd5b506104a0600480360381019061049b9190611fa3565b610dd3565b005b3480156104ae57600080fd5b506104c960048036038101906104c491906127bb565b610f6c565b6040516104d69190611e4b565b60405180910390f35b60007f150b7a02000000000000000000000000000000000000000000000000000000007bffffffffffffffffffffffffffffffffffffffffffffffffffffffff1916827bffffffffffffffffffffffffffffffffffffffffffffffffffffffff191614806105aa57507f4e2312e0000000000000000000000000000000000000000000000000000000007bffffffffffffffffffffffffffffffffffffffffffffffffffffffff1916827bffffffffffffffffffffffffffffffffffffffffffffffffffffffff1916145b8061061257507f01ffc9a7000000000000000000000000000000000000000000000000000000007bffffffffffffffffffffffffffffffffffffffffffffffffffffffff1916827bffffffffffffffffffffffffffffffffffffffffffffffffffffffff1916145b9050919050565b600063150b7a0260e01b905095945050505050565b610636610f82565b61063f81611048565b50565b600061064c611097565b610656848461110e565b90506106658460200135611263565b61066e82611266565b9392505050565b7f000000000000000000000000000000000000000000000000000000000000000081565b6106a1611302565b81819050868690501480156106c9575060008484905014806106c857508181905084849050145b5b610708576040517f08c379a00000000000000000000000000000000000000000000000000000000081526004016106ff906128a1565b60405180910390fd5b600084849050036107ce5760005b868690508110156107c8576107bb878783818110610737576107366128c1565b5b905060200201602081019061074c91906126c8565b6000858585818110610761576107606128c1565b5b905060200281019061077391906128ff565b8080601f016020809104026020016040519081016040528093929190818152602001838380828437600081840152601f19601f820116905080830192505050505050506113cf565b8080600101915050610716565b5061089d565b60005b8686905081101561089b5761088e8787838181106107f2576107f16128c1565b5b905060200201602081019061080791906126c8565b86868481811061081a576108196128c1565b5b90506020020135858585818110610834576108336128c1565b5b905060200281019061084691906128ff565b8080601f016020809104026020016040519081016040528093929190818152602001838380828437600081840152601f19601f820116905080830192505050505050506113cf565b80806001019150506107d1565b505b505050505050565b6108ad610a49565b73ffffffffffffffffffffffffffffffffffffffff1663b760faf934306040518363ffffffff1660e01b81526004016108e691906120d3565b6000604051808303818588803b1580156108ff57600080fd5b505af1158015610913573d6000803e3d6000fd5b5050505050565b610922610f82565b61092a610a49565b73ffffffffffffffffffffffffffffffffffffffff1663205c287883836040518363ffffffff1660e01b8152600401610964929190612971565b600060405180830381600087803b15801561097e57600080fd5b505af1158015610992573d6000803e3d6000fd5b505050505050565b6109a2611453565b6109ab82611539565b6109b58282611544565b5050565b60006109c3611663565b7f360894a13ba1a3210667c828492db98dca3e2076cc3735a920a3ca505d382bbc60001b905090565b60008054906101000a900473ffffffffffffffffffffffffffffffffffffffff1681565b6040518060400160405280600581526020017f352e302e3000000000000000000000000000000000000000000000000000000081525081565b60007f0000000000000000000000000000000000000000000000000000000000000000905090565b610a79611302565b610ac8848484848080601f016020809104026020016040519081016040528093929190818152602001838380828437600081840152601f19601f820116905080830192505050505050506113cf565b50505050565b600063bc197c8160e01b905098975050505050505050565b6000610af0610a49565b73ffffffffffffffffffffffffffffffffffffffff166370a08231306040518263ffffffff1660e01b8152600401610b2891906120d3565b602060405180830381865afa158015610b45573d6000803e3d6000fd5b505050506040513d601f19601f82011682018060405250810190610b6991906129af565b905090565b6000610b786116ea565b905060008160000160089054906101000a900460ff1615905060008260000160009054906101000a900467ffffffffffffffff1690506000808267ffffffffffffffff16148015610bc65750825b9050600060018367ffffffffffffffff16148015610bfb575060003073ffffffffffffffffffffffffffffffffffffffff163b145b905081158015610c09575080155b15610c40576040517ff92ee8a900000000000000000000000000000000000000000000000000000000815260040160405180910390fd5b60018560000160006101000a81548167ffffffffffffffff021916908367ffffffffffffffff1602179055508315610c905760018560000160086101000a81548160ff0219169083151502179055505b610c9986611712565b8315610cf55760008560000160086101000a81548160ff0219169083151502179055507fc7f505b2f371ae2175ee4913f4499e1f2633a7b5936321eed1cdaeb6115181d26001604051610cec9190612a2b565b60405180910390a15b505050505050565b6000610d07610a49565b73ffffffffffffffffffffffffffffffffffffffff166335567e1a3060006040518363ffffffff1660e01b8152600401610d42929190612aa5565b602060405180830381865afa158015610d5f573d6000803e3d6000fd5b505050506040513d601f19601f82011682018060405250810190610d8391906129af565b905090565b610d90611b6d565b6001600480602002604051908101604052809291908260048015610dc9576020028201915b815481526020019060010190808311610db5575b5050505050905090565b6000610ddd6116ea565b905060008160000160089054906101000a900460ff1615905060008260000160009054906101000a900467ffffffffffffffff1690506000808267ffffffffffffffff16148015610e2b5750825b9050600060018367ffffffffffffffff16148015610e60575060003073ffffffffffffffffffffffffffffffffffffffff163b145b905081158015610e6e575080155b15610ea5576040517ff92ee8a900000000000000000000000000000000000000000000000000000000815260040160405180910390fd5b60018560000160006101000a81548167ffffffffffffffff021916908367ffffffffffffffff1602179055508315610ef55760018560000160086101000a81548160ff0219169083151502179055505b610eff6000611712565b610f0886611048565b8315610f645760008560000160086101000a81548160ff0219169083151502179055507fc7f505b2f371ae2175ee4913f4499e1f2633a7b5936321eed1cdaeb6115181d26001604051610f5b9190612a2b565b60405180910390a15b505050505050565b600063f23a6e6160e01b90509695505050505050565b60008054906101000a900473ffffffffffffffffffffffffffffffffffffffff1673ffffffffffffffffffffffffffffffffffffffff163373ffffffffffffffffffffffffffffffffffffffff16148061100757503073ffffffffffffffffffffffffffffffffffffffff163373ffffffffffffffffffffffffffffffffffffffff16145b611046576040517f08c379a000000000000000000000000000000000000000000000000000000000815260040161103d90612b1a565b60405180910390fd5b565b7f42e4c4ce1432650f17e41c4ea77ed12c0ab20b229d3ffd84a2ebc9f8abb25a8360018260405161107a929190612bfe565b60405180910390a1806001906004611093929190611b8f565b5050565b61109f610a49565b73ffffffffffffffffffffffffffffffffffffffff163373ffffffffffffffffffffffffffffffffffffffff161461110c576040517f08c379a000000000000000000000000000000000000000000000000000000000815260040161110390612c74565b60405180910390fd5b565b60008083806040019061112191906128ff565b9050146111f0576000611132610d88565b60405160200161114291906127a0565b6040516020818303038152906040528051906020012090508084806040019061116b91906128ff565b608087806040019061117d91906128ff565b90506111899190612cc3565b90809261119893929190612d01565b6040516111a6929190612d6c565b6040518091039020146111ee576040517f08c379a00000000000000000000000000000000000000000000000000000000081526004016111e590612dd1565b60405180910390fd5b505b61125b60405180606001604052807f000000000000000000000000000000000000000000000000000000000000000073ffffffffffffffffffffffffffffffffffffffff168152602001600065ffffffffffff168152602001600065ffffffffffff168152506117ef565b905092915050565b50565b600081146112ff5760003373ffffffffffffffffffffffffffffffffffffffff16827fffffffffffffffffffffffffffffffffffffffffffffffffffffffffffffffff906040516112b690612e17565b600060405180830381858888f193505050503d80600081146112f4576040519150601f19603f3d011682016040523d82523d6000602084013e6112f9565b606091505b50509050505b50565b61130a610a49565b73ffffffffffffffffffffffffffffffffffffffff163373ffffffffffffffffffffffffffffffffffffffff16148061138e575060008054906101000a900473ffffffffffffffffffffffffffffffffffffffff1673ffffffffffffffffffffffffffffffffffffffff163373ffffffffffffffffffffffffffffffffffffffff16145b6113cd576040517f08c379a00000000000000000000000000000000000000000000000000000000081526004016113c490612e78565b60405180910390fd5b565b6000808473ffffffffffffffffffffffffffffffffffffffff1684846040516113f89190612ed4565b60006040518083038185875af1925050503d8060008114611435576040519150601f19603f3d011682016040523d82523d6000602084013e61143a565b606091505b50915091508161144c57805160208201fd5b5050505050565b7f000000000000000000000000000000000000000000000000000000000000000073ffffffffffffffffffffffffffffffffffffffff163073ffffffffffffffffffffffffffffffffffffffff16148061150057507f000000000000000000000000000000000000000000000000000000000000000073ffffffffffffffffffffffffffffffffffffffff166114e7611837565b73ffffffffffffffffffffffffffffffffffffffff1614155b15611537576040517fe07c8dba00000000000000000000000000000000000000000000000000000000815260040160405180910390fd5b565b611541610f82565b50565b8173ffffffffffffffffffffffffffffffffffffffff166352d1902d6040518163ffffffff1660e01b8152600401602060405180830381865afa9250505080156115ac57506040513d601f19601f820116820180604052508101906115a99190612f00565b60015b6115ed57816040517f4c9c8ce30000000000000000000000000000000000000000000000000000000081526004016115e491906120d3565b60405180910390fd5b7f360894a13ba1a3210667c828492db98dca3e2076cc3735a920a3ca505d382bbc60001b811461165457806040517faa1d49a400000000000000000000000000000000000000000000000000000000815260040161164b9190612442565b60405180910390fd5b61165e838361188e565b505050565b7f000000000000000000000000000000000000000000000000000000000000000073ffffffffffffffffffffffffffffffffffffffff163073ffffffffffffffffffffffffffffffffffffffff16146116e8576040517fe07c8dba00000000000000000000000000000000000000000000000000000000815260040160405180910390fd5b565b60007ff0c57e16840df040f15088dc2f81fe391c3923bec73e23a9662efc9c229c6a00905090565b806000806101000a81548173ffffffffffffffffffffffffffffffffffffffff021916908373ffffffffffffffffffffffffffffffffffffffff16021790555060008054906101000a900473ffffffffffffffffffffffffffffffffffffffff1673ffffffffffffffffffffffffffffffffffffffff167f000000000000000000000000000000000000000000000000000000000000000073ffffffffffffffffffffffffffffffffffffffff167f47e55c76e7a6f1fd8996a1da8008c1ea29699cca35e7bcd057f2dec313b6e5de60405160405180910390a350565b600060d0826020015165ffffffffffff16901b60a0836040015165ffffffffffff16901b836000015173ffffffffffffffffffffffffffffffffffffffff1617179050919050565b60006118657f360894a13ba1a3210667c828492db98dca3e2076cc3735a920a3ca505d382bbc60001b611901565b60000160009054906101000a900473ffffffffffffffffffffffffffffffffffffffff16905090565b6118978261190b565b8173ffffffffffffffffffffffffffffffffffffffff167fbc7cd75a20ee27fd9adebab32041f755214dbc6bffa90cc0225b39da2e5c2d3b60405160405180910390a26000815111156118f4576118ee82826119d8565b506118fd565b6118fc611a5c565b5b5050565b6000819050919050565b60008173ffffffffffffffffffffffffffffffffffffffff163b0361196757806040517f4c9c8ce300000000000000000000000000000000000000000000000000000000815260040161195e91906120d3565b60405180910390fd5b806119947f360894a13ba1a3210667c828492db98dca3e2076cc3735a920a3ca505d382bbc60001b611901565b60000160006101000a81548173ffffffffffffffffffffffffffffffffffffffff021916908373ffffffffffffffffffffffffffffffffffffffff16021790555050565b60606000808473ffffffffffffffffffffffffffffffffffffffff1684604051611a029190612ed4565b600060405180830381855af49150503d8060008114611a3d576040519150601f19603f3d011682016040523d82523d6000602084013e611a42565b606091505b5091509150611a52858383611a99565b9250505092915050565b6000341115611a97576040517fb398979f00000000000000000000000000000000000000000000000000000000815260040160405180910390fd5b565b606082611aae57611aa982611b28565b611b20565b60008251148015611ad6575060008473ffffffffffffffffffffffffffffffffffffffff163b145b15611b1857836040517f9996b315000000000000000000000000000000000000000000000000000000008152600401611b0f91906120d3565b60405180910390fd5b819050611b21565b5b9392505050565b600081511115611b3b5780518082602001fd5b6040517f1425ea4200000000000000000000000000000000000000000000000000000000815260040160405180910390fd5b6040518060800160405280600490602082028036833780820191505090505090565b8260048101928215611bbe579160200282015b82811115611bbd578251825591602001919060010190611ba2565b5b509050611bcb9190611bcf565b5090565b5b80821115611be8576000816000905550600101611bd0565b5090565b6000604051905090565b600080fd5b600080fd5b60007fffffffff0000000000000000000000000000000000000000000000000000000082169050919050565b611c3581611c00565b8114611c4057600080fd5b50565b600081359050611c5281611c2c565b92915050565b600060208284031215611c6e57611c6d611bf6565b5b6000611c7c84828501611c43565b91505092915050565b60008115159050919050565b611c9a81611c85565b82525050565b6000602082019050611cb56000830184611c91565b92915050565b600073ffffffffffffffffffffffffffffffffffffffff82169050919050565b6000611ce682611cbb565b9050919050565b611cf681611cdb565b8114611d0157600080fd5b50565b600081359050611d1381611ced565b92915050565b6000819050919050565b611d2c81611d19565b8114611d3757600080fd5b50565b600081359050611d4981611d23565b92915050565b600080fd5b600080fd5b600080fd5b60008083601f840112611d7457611d73611d4f565b5b8235905067ffffffffffffffff811115611d9157611d90611d54565b5b602083019150836001820283011115611dad57611dac611d59565b5b9250929050565b600080600080600060808688031215611dd057611dcf611bf6565b5b6000611dde88828901611d04565b9550506020611def88828901611d04565b9450506040611e0088828901611d3a565b935050606086013567ffffffffffffffff811115611e2157611e20611bfb565b5b611e2d88828901611d5e565b92509250509295509295909350565b611e4581611c00565b82525050565b6000602082019050611e606000830184611e3c565b92915050565b6000601f19601f8301169050919050565b7f4e487b7100000000000000000000000000000000000000000000000000000000600052604160045260246000fd5b611eaf82611e66565b810181811067ffffffffffffffff82111715611ece57611ecd611e77565b5b80604052505050565b6000611ee1611bec565b9050611eed8282611ea6565b919050565b600067ffffffffffffffff821115611f0d57611f0c611e77565b5b602082029050919050565b6000611f2b611f2684611ef2565b611ed7565b90508060208402830185811115611f4557611f44611d59565b5b835b81811015611f6e5780611f5a8882611d3a565b845260208401935050602081019050611f47565b5050509392505050565b600082601f830112611f8d57611f8c611d4f565b5b6004611f9a848285611f18565b91505092915050565b600060808284031215611fb957611fb8611bf6565b5b6000611fc784828501611f78565b91505092915050565b600080fd5b60006101208284031215611fec57611feb611fd0565b5b81905092915050565b6000819050919050565b61200881611ff5565b811461201357600080fd5b50565b60008135905061202581611fff565b92915050565b60008060006060848603121561204457612043611bf6565b5b600084013567ffffffffffffffff81111561206257612061611bfb565b5b61206e86828701611fd5565b935050602061207f86828701612016565b925050604061209086828701611d3a565b9150509250925092565b6120a381611d19565b82525050565b60006020820190506120be600083018461209a565b92915050565b6120cd81611cdb565b82525050565b60006020820190506120e860008301846120c4565b92915050565b60008083601f84011261210457612103611d4f565b5b8235905067ffffffffffffffff81111561212157612120611d54565b5b60208301915083602082028301111561213d5761213c611d59565b5b9250929050565b60008083601f84011261215a57612159611d4f565b5b8235905067ffffffffffffffff81111561217757612176611d54565b5b60208301915083602082028301111561219357612192611d59565b5b9250929050565b60008083601f8401126121b0576121af611d4f565b5b8235905067ffffffffffffffff8111156121cd576121cc611d54565b5b6020830191508360208202830111156121e9576121e8611d59565b5b9250929050565b6000806000806000806060878903121561220d5761220c611bf6565b5b600087013567ffffffffffffffff81111561222b5761222a611bfb565b5b61223789828a016120ee565b9650965050602087013567ffffffffffffffff81111561225a57612259611bfb565b5b61226689828a01612144565b9450945050604087013567ffffffffffffffff81111561228957612288611bfb565b5b61229589828a0161219a565b92509250509295509295509295565b60006122af82611cbb565b9050919050565b6122bf816122a4565b81146122ca57600080fd5b50565b6000813590506122dc816122b6565b92915050565b600080604083850312156122f9576122f8611bf6565b5b6000612307858286016122cd565b925050602061231885828601611d3a565b9150509250929050565b600080fd5b600067ffffffffffffffff82111561234257612341611e77565b5b61234b82611e66565b9050602081019050919050565b82818337600083830152505050565b600061237a61237584612327565b611ed7565b90508281526020810184848401111561239657612395612322565b5b6123a1848285612358565b509392505050565b600082601f8301126123be576123bd611d4f565b5b81356123ce848260208601612367565b91505092915050565b600080604083850312156123ee576123ed611bf6565b5b60006123fc85828601611d04565b925050602083013567ffffffffffffffff81111561241d5761241c611bfb565b5b612429858286016123a9565b9150509250929050565b61243c81611ff5565b82525050565b60006020820190506124576000830184612433565b92915050565b600081519050919050565b600082825260208201905092915050565b60005b8381101561249757808201518184015260208101905061247c565b60008484015250505050565b60006124ae8261245d565b6124b88185612468565b93506124c8818560208601612479565b6124d181611e66565b840191505092915050565b600060208201905081810360008301526124f681846124a3565b905092915050565b6000819050919050565b600061252361251e61251984611cbb565b6124fe565b611cbb565b9050919050565b600061253582612508565b9050919050565b60006125478261252a565b9050919050565b6125578161253c565b82525050565b6000602082019050612572600083018461254e565b92915050565b6000806000806060858703121561259257612591611bf6565b5b60006125a087828801611d04565b94505060206125b187828801611d3a565b935050604085013567ffffffffffffffff8111156125d2576125d1611bfb565b5b6125de87828801611d5e565b925092505092959194509250565b60008060008060008060008060a0898b03121561260c5761260b611bf6565b5b600061261a8b828c01611d04565b985050602061262b8b828c01611d04565b975050604089013567ffffffffffffffff81111561264c5761264b611bfb565b5b6126588b828c01612144565b9650965050606089013567ffffffffffffffff81111561267b5761267a611bfb565b5b6126878b828c01612144565b9450945050608089013567ffffffffffffffff8111156126aa576126a9611bfb565b5b6126b68b828c01611d5e565b92509250509295985092959890939650565b6000602082840312156126de576126dd611bf6565b5b60006126ec84828501611d04565b91505092915050565b600060049050919050565b600081905092915050565b6000819050919050565b61271e81611d19565b82525050565b60006127308383612715565b60208301905092915050565b6000602082019050919050565b612752816126f5565b61275c8184612700565b92506127678261270b565b8060005b8381101561279857815161277f8782612724565b965061278a8361273c565b92505060018101905061276b565b505050505050565b60006080820190506127b56000830184612749565b92915050565b60008060008060008060a087890312156127d8576127d7611bf6565b5b60006127e689828a01611d04565b96505060206127f789828a01611d04565b955050604061280889828a01611d3a565b945050606061281989828a01611d3a565b935050608087013567ffffffffffffffff81111561283a57612839611bfb565b5b61284689828a01611d5e565b92509250509295509295509295565b7f77726f6e67206172726179206c656e6774687300000000000000000000000000600082015250565b600061288b601383612468565b915061289682612855565b602082019050919050565b600060208201905081810360008301526128ba8161287e565b9050919050565b7f4e487b7100000000000000000000000000000000000000000000000000000000600052603260045260246000fd5b600080fd5b600080fd5b600080fd5b6000808335600160200384360303811261291c5761291b6128f0565b5b80840192508235915067ffffffffffffffff82111561293e5761293d6128f5565b5b60208301925060018202360383131561295a576129596128fa565b5b509250929050565b61296b816122a4565b82525050565b60006040820190506129866000830185612962565b612993602083018461209a565b9392505050565b6000815190506129a981611d23565b92915050565b6000602082840312156129c5576129c4611bf6565b5b60006129d38482850161299a565b91505092915050565b6000819050919050565b600067ffffffffffffffff82169050919050565b6000612a15612a10612a0b846129dc565b6124fe565b6129e6565b9050919050565b612a25816129fa565b82525050565b6000602082019050612a406000830184612a1c565b92915050565b6000819050919050565b600077ffffffffffffffffffffffffffffffffffffffffffffffff82169050919050565b6000612a8f612a8a612a8584612a46565b6124fe565b612a50565b9050919050565b612a9f81612a74565b82525050565b6000604082019050612aba60008301856120c4565b612ac76020830184612a96565b9392505050565b7f6f6e6c79206f776e657200000000000000000000000000000000000000000000600082015250565b6000612b04600a83612468565b9150612b0f82612ace565b602082019050919050565b60006020820190508181036000830152612b3381612af7565b9050919050565b600060049050919050565b6000819050919050565b60008160001c9050919050565b6000819050919050565b6000612b79612b7483612b4f565b612b5c565b9050919050565b6000612b8c8254612b66565b9050919050565b6000600182019050919050565b612ba981612b3a565b612bb38184612700565b9250612bbe82612b45565b8060005b83811015612bf657612bd382612b80565b612bdd8782612724565b9650612be883612b93565b925050600181019050612bc2565b505050505050565b600061010082019050612c146000830185612ba0565b612c216080830184612749565b9392505050565b7f6163636f756e743a206e6f742066726f6d20456e747279506f696e7400000000600082015250565b6000612c5e601c83612468565b9150612c6982612c28565b602082019050919050565b60006020820190508181036000830152612c8d81612c51565b9050919050565b7f4e487b7100000000000000000000000000000000000000000000000000000000600052601160045260246000fd5b6000612cce82611d19565b9150612cd983611d19565b9250828203905081811115612cf157612cf0612c94565b5b92915050565b600080fd5b600080fd5b60008085851115612d1557612d14612cf7565b5b83861115612d2657612d25612cfc565b5b6001850283019150848603905094509492505050565b600081905092915050565b6000612d538385612d3c565b9350612d60838584612358565b82840190509392505050565b6000612d79828486612d47565b91508190509392505050565b7f77726f6e67207075626b65790000000000000000000000000000000000000000600082015250565b6000612dbb600c83612468565b9150612dc682612d85565b602082019050919050565b60006020820190508181036000830152612dea81612dae565b9050919050565b50565b6000612e01600083612d3c565b9150612e0c82612df1565b600082019050919050565b6000612e2282612df4565b9150819050919050565b7f6163636f756e743a206e6f74204f776e6572206f7220456e747279506f696e74600082015250565b6000612e62602083612468565b9150612e6d82612e2c565b602082019050919050565b60006020820190508181036000830152612e9181612e55565b9050919050565b600081519050919050565b6000612eae82612e98565b612eb88185612d3c565b9350612ec8818560208601612479565b80840191505092915050565b6000612ee08284612ea3565b915081905092915050565b600081519050612efa81611fff565b92915050565b600060208284031215612f1657612f15611bf6565b5b6000612f2484828501612eeb565b9150509291505056fea2646970667358221220c653d7a240fe03278f65c368d90b185130496dd5167fd96106f2f78e077db9ac64736f6c634300081a0033","linkReferences":{}},"methodIdentifiers":{"UPGRADE_INTERFACE_VERSION()":"ad3cb1cc","addDeposit()":"4a58db19","aggregator()":"245a7bfc","entryPoint()":"b0d691fe","execute(address,uint256,bytes)":"b61d27f6","executeBatch(address[],uint256[],bytes[])":"47e1da2a","getBlsPublicKey()":"e02afbae","getDeposit()":"c399ec88","getNonce()":"d087d288","initialize(address)":"c4d66de8","initialize(uint256[4])":"ee472f36","onERC1155BatchReceived(address,address,uint256[],uint256[],bytes)":"bc197c81","onERC1155Received(address,address,uint256,uint256,bytes)":"f23a6e61","onERC721Received(address,address,uint256,bytes)":"150b7a02","owner()":"8da5cb5b","proxiableUUID()":"52d1902d","setBlsPublicKey(uint256[4])":"18fc5c44","supportsInterface(bytes4)":"01ffc9a7","upgradeToAndCall(address,bytes)":"4f1ef286","validateUserOp((address,uint256,bytes,bytes,bytes32,uint256,bytes32,bytes,bytes),bytes32,uint256)":"19822f7c","withdrawDepositTo(address,uint256)":"4d44560d"},"id":30}