{"abi":[{"type":"receive","stateMutability":"payable"},{"type":"function","name":"addStake","inputs":[{"name":"unstakeDelaySec","type":"uint32","internalType":"uint32"}],"outputs":[],"stateMutability":"payable"},{"type":"function","name":"balanceOf","inputs":[{"name":"account","type":"address","internalType":"address"}],"outputs":[{"name":"","type":"uint256","internalType":"uint256"}],"stateMutability":"view"},{"type":"function","name":"depositTo","inputs":[{"name":"account","type":"address","internalType":"address"}],"outputs":[],"stateMutability":"payable"},{"type":"function","name":"deposits","inputs":[{"name":"","type":"address","internalType":"address"}],"outputs":[{"name":"deposit","type":"uint256","internalType":"uint256"},{"name":"staked","type":"bool","internalType":"bool"},{"name":"stake","type":"uint112","internalType":"uint112"},{"name":"unstakeDelaySec","type":"uint32","internalType":"uint32"},{"name":"withdrawTime","type":"uint48","internalType":"uint48"}],"stateMutability":"view"},{"type":"function","name":"getDepositInfo","inputs":[{"name":"account","type":"address","internalType":"address"}],"outputs":[{"name":"info","type":"tuple","internalType":"struct IStakeManager.DepositInfo","components":[{"name":"deposit","type":"uint256","internalType":"uint256"},{"name":"staked","type":"bool","internalType":"bool"},{"name":"stake","type":"uint112","internalType":"uint112"},{"name":"unstakeDelaySec","type":"uint32","internalType":"uint32"},{"name":"withdrawTime","type":"uint48","internalType":"uint48"}]}],"stateMutability":"view"},{"type":"function","name":"unlockStake","inputs":[],"outputs":[],"stateMutability":"nonpayable"},{"type":"function","name":"withdrawStake","inputs":[{"name":"withdrawAddress","type":"address","internalType":"address payable"}],"outputs":[],"stateMutability":"nonpayable"},{"type":"function","name":"withdrawTo","inputs":[{"name":"withdrawAddress","type":"address","internalType":"address payable"},{"name":"withdrawAmount","type":"uint256","internalType":"uint256"}],"outputs":[],"stateMutability":"nonpayable"},{"type":"event","name":"Deposited","inputs":[{"name":"account","type":"address","indexed":true,"internalType":"address"},{"name":"totalDeposit","type":"uint256","indexed":false,"internalType":"uint256"}],"anonymous":false},{"type":"event","name":"StakeLocked","inputs":[{"name":"account","type":"address","indexed":true,"internalType":"address"},{"name":"totalStaked","type":"uint256","indexed":false,"internalType":"uint256"},{"name":"unstakeDelaySec","type":"uint256","indexed":false,"internalType":"uint256"}],"anonymous":false},{"type":"event","name":"StakeUnlocked","inputs":[{"name":"account","type":"address","indexed":true,"internalType":"address"},{"name":"withdrawTime","type":"uint256","indexed":false,"internalType":"uint256"}],"anonymous":false},{"type":"event","name":"StakeWithdrawn","inputs":[{"name":"account","type":"address","indexed":true,"internalType":"address"},{"name":"withdrawAddress","type":"address","indexed":false,"internalType":"address"},{"name":"amount","type":"uint256","indexed":false,"internalType":"uint256"}],"anonymous":false},{"type":"event","name":"Withdrawn","inputs":[{"name":"account","type":"address","indexed":true,"internalType":"address"},{"name":"withdrawAddress","type":"address","indexed":false,"internalType":"address"},{"name":"amount","type":"uint256","indexed":false,"internalType":"uint256"}],"anonymous":false}],"bytecode":{"object":"0x6080604052348015600f57600080fd5b50610bf98061001f6000396000f3fe60806040526004361061007f5760003560e01c8063b760faf91161004e578063b760faf91461022c578063bb9fe6bf1461023f578063c23a5cea14610254578063fc7e286d1461027457600080fd5b80630396cb6014610094578063205c2878146100a75780635287ce12146100c757806370a08231146101e857600080fd5b3661008f5761008d3361031c565b005b600080fd5b61008d6100a2366004610adb565b610371565b3480156100b357600080fd5b5061008d6100c2366004610b20565b610605565b3480156100d357600080fd5b506101846100e2366004610b4c565b6040805160a081018252600080825260208201819052918101829052606081018290526080810191909152506001600160a01b031660009081526020818152604091829020825160a0810184528154815260019091015460ff811615159282019290925261010082046001600160701b031692810192909252600160781b810463ffffffff166060830152600160981b900465ffffffffffff16608082015290565b6040516101df9190600060a082019050825182526020830151151560208301526001600160701b03604084015116604083015263ffffffff606084015116606083015265ffffffffffff608084015116608083015292915050565b60405180910390f35b3480156101f457600080fd5b5061021e610203366004610b4c565b6001600160a01b031660009081526020819052604090205490565b6040519081526020016101df565b61008d61023a366004610b4c565b61031c565b34801561024b57600080fd5b5061008d610756565b34801561026057600080fd5b5061008d61026f366004610b4c565b610882565b34801561028057600080fd5b506102d961028f366004610b4c565b6000602081905290815260409020805460019091015460ff81169061010081046001600160701b031690600160781b810463ffffffff1690600160981b900465ffffffffffff1685565b6040805195865293151560208601526001600160701b039092169284019290925263ffffffff909116606083015265ffffffffffff16608082015260a0016101df565b60006103288234610aa6565b9050816001600160a01b03167f2da466a7b24304f47e87fa2e1e5a81b9831ce54fec19055ce277ca2f39ba42c48260405161036591815260200190565b60405180910390a25050565b33600090815260208190526040902063ffffffff82166103d85760405162461bcd60e51b815260206004820152601a60248201527f6d757374207370656369667920756e7374616b652064656c617900000000000060448201526064015b60405180910390fd5b600181015463ffffffff600160781b9091048116908316101561043d5760405162461bcd60e51b815260206004820152601c60248201527f63616e6e6f7420646563726561736520756e7374616b652074696d650000000060448201526064016103cf565b600181015460009061045e90349061010090046001600160701b0316610b7f565b9050600081116104a55760405162461bcd60e51b81526020600482015260126024820152711b9bc81cdd185ad9481cdc1958da599a595960721b60448201526064016103cf565b6001600160701b038111156104ed5760405162461bcd60e51b815260206004820152600e60248201526d7374616b65206f766572666c6f7760901b60448201526064016103cf565b6040805160a08101825283548152600160208083018281526001600160701b0386811685870190815263ffffffff8a811660608801818152600060808a0181815233808352828a52918c90209a518b55965199909801805494519151965165ffffffffffff16600160981b0265ffffffffffff60981b1997909416600160781b029690961669ffffffffffffffffffff60781b1991909516610100026effffffffffffffffffffffffffff0019991515999099166effffffffffffffffffffffffffffff1990941693909317979097179190911691909117179055835185815290810192909252917fa5ae833d0bb1dcd632d98a8b70973e8516812898e19bf27b70071ebc8dc52c01910160405180910390a2505050565b33600090815260208190526040902080548211156106655760405162461bcd60e51b815260206004820152601960248201527f576974686472617720616d6f756e7420746f6f206c617267650000000000000060448201526064016103cf565b8054610672908390610b92565b8155604080516001600160a01b03851681526020810184905233917fd1c19fbcd4551a5edfb66d43d2e337c04837afda3482b42bdf569a8fccdae5fb910160405180910390a26000836001600160a01b03168360405160006040518083038185875af1925050503d8060008114610705576040519150601f19603f3d011682016040523d82523d6000602084013e61070a565b606091505b50509050806107505760405162461bcd60e51b81526020600482015260126024820152716661696c656420746f20776974686472617760701b60448201526064016103cf565b50505050565b33600090815260208190526040812060018101549091600160781b90910463ffffffff1690036107b55760405162461bcd60e51b815260206004820152600a6024820152691b9bdd081cdd185ad95960b21b60448201526064016103cf565b600181015460ff166107fd5760405162461bcd60e51b8152602060048201526011602482015270616c726561647920756e7374616b696e6760781b60448201526064016103cf565b600181015460009061081c90600160781b900463ffffffff1642610ba5565b60018301805460ff65ffffffffffff60981b011916600160981b65ffffffffffff841690810260ff19169190911790915560405190815290915033907ffa9b3c14cc825c412c9ed81b3ba365a5b459439403f18829e572ed53a4180f0a90602001610365565b336000908152602081905260409020600181015461010090046001600160701b0316806108e85760405162461bcd60e51b81526020600482015260146024820152734e6f207374616b6520746f20776974686472617760601b60448201526064016103cf565b6001820154600160981b900465ffffffffffff166109485760405162461bcd60e51b815260206004820152601d60248201527f6d7573742063616c6c20756e6c6f636b5374616b65282920666972737400000060448201526064016103cf565b600182015442600160981b90910465ffffffffffff1611156109ac5760405162461bcd60e51b815260206004820152601b60248201527f5374616b65207769746864726177616c206973206e6f7420647565000000000060448201526064016103cf565b600182018054610100600160c81b0319169055604080516001600160a01b03851681526020810183905233917fb7c918e0e249f999e965cafeb6c664271b3f4317d296461500e71da39f0cbda3910160405180910390a26000836001600160a01b03168260405160006040518083038185875af1925050503d8060008114610a50576040519150601f19603f3d011682016040523d82523d6000602084013e610a55565b606091505b50509050806107505760405162461bcd60e51b815260206004820152601860248201527f6661696c656420746f207769746864726177207374616b65000000000000000060448201526064016103cf565b6001600160a01b038216600090815260208190526040812080548290610acd908590610b7f565b918290555090505b92915050565b600060208284031215610aed57600080fd5b813563ffffffff81168114610b0157600080fd5b9392505050565b6001600160a01b0381168114610b1d57600080fd5b50565b60008060408385031215610b3357600080fd5b8235610b3e81610b08565b946020939093013593505050565b600060208284031215610b5e57600080fd5b8135610b0181610b08565b634e487b7160e01b600052601160045260246000fd5b80820180821115610ad557610ad5610b69565b81810381811115610ad557610ad5610b69565b65ffffffffffff8181168382160190811115610ad557610ad5610b6956fea2646970667358221220145fb9648c1deb18cc79ff38e26ad57eccdf17f16678ffb2a6042355f86f90e564736f6c634300081a0033","linkReferences":{}},"methodIdentifiers":{"addStake(uint32)":"0396cb60","balanceOf(address)":"70a08231","depositTo(address)":"b760faf9","deposits(address)":"fc7e286d","getDepositInfo(address)":"5287ce12","unlockStake()":"bb9fe6bf","withdrawStake(address)":"c23a5cea","withdrawTo(address,uint256)":"205c2878"},"id":41}