{"abi":[{"type":"function","name":"baseCost","inputs":[],"outputs":[{"name":"","type":"uint256","internalType":"uint256"}],"stateMutability":"view"},{"type":"function","name":"getGasCost","inputs":[{"name":"pairCount","type":"uint256","internalType":"uint256"}],"outputs":[{"name":"","type":"uint256","internalType":"uint256"}],"stateMutability":"view"},{"type":"function","name":"perPairCost","inputs":[],"outputs":[{"name":"","type":"uint256","internalType":"uint256"}],"stateMutability":"view"},{"type":"function","name":"run","inputs":[],"outputs":[],"stateMutability":"nonpayable"}],"bytecode":{"object":"0x6080604052348015600f57600080fd5b50610b5b8061001f6000396000f3fe608060405234801561001057600080fd5b506004361061004c5760003560e01c80634e79f8ca146100515780639382255714610081578063c04062261461009f578063ebfd94b2146100a9575b600080fd5b61006b600480360381019061006691906105fd565b6100c7565b6040516100789190610639565b60405180910390f35b6100896100ea565b6040516100969190610639565b60405180910390f35b6100a76100f0565b005b6100b16100fa565b6040516100be9190610639565b60405180910390f35b60008054600154836100d99190610683565b6100e391906106c5565b9050919050565b60005481565b6100f8610100565b565b60015481565b600061010a610142565b9050600061011661031d565b9050818161012491906106f9565b6001819055506001548261013891906106f9565b6000819055505050565b6000806040518060c0016040528060018152602001600281526020017f198e9393920d483a7260bfb731fb5d25f1aa493335a9e71297e485b7aef312c281526020017f1800deef121f1e76426a00665e5c4479674322d4f75edadd46debd5cd992f6ed81526020017f090689d0585ff075ec9e99ad690c3395bc4b313370b38ef355acdadcd122975b81526020017f12c85ea5db8c6deb4aab71808dcb408fe3d1e7690c43d37b4ce6cc0166fa7daa81525090506101fe6105a0565b6000806107d05a61020f91906106f9565b90506107d05a11610255576040517f08c379a000000000000000000000000000000000000000000000000000000000815260040161024c906107b0565b60405180910390fd5b60005a905060208460c087600886fa925060005a8261027491906106f9565b9050836102b6576040517f08c379a00000000000000000000000000000000000000000000000000000000081526004016102ad90610842565b60405180910390fd5b6000856000600181106102cc576102cb610862565b5b602002015114610311576040517f08c379a000000000000000000000000000000000000000000000000000000000815260040161030890610929565b60405180910390fd5b80965050505050505090565b60008060405180610180016040528060018152602001600281526020017f198e9393920d483a7260bfb731fb5d25f1aa493335a9e71297e485b7aef312c281526020017f1800deef121f1e76426a00665e5c4479674322d4f75edadd46debd5cd992f6ed81526020017f090689d0585ff075ec9e99ad690c3395bc4b313370b38ef355acdadcd122975b81526020017f12c85ea5db8c6deb4aab71808dcb408fe3d1e7690c43d37b4ce6cc0166fa7daa815260200160018152602001600281526020017f198e9393920d483a7260bfb731fb5d25f1aa493335a9e71297e485b7aef312c281526020017f1800deef121f1e76426a00665e5c4479674322d4f75edadd46debd5cd992f6ed81526020017f275dc4a288d1afb3cbb1ac09187524c7db36395df7be3b99e673b13a075a65ec81526020017f1d9befcd05a5323e6da4d435f3b617cdb3af83285c2df711ef39c01571827f9d81525090506104806105a0565b6000806107d05a61049191906106f9565b90506107d05a116104d7576040517f08c379a00000000000000000000000000000000000000000000000000000000081526004016104ce906109bb565b60405180910390fd5b60005a905060208461018087600886fa925060005a826104f791906106f9565b905083610539576040517f08c379a000000000000000000000000000000000000000000000000000000000815260040161053090610a4d565b60405180910390fd5b60018560006001811061054f5761054e610862565b5b602002015114610594576040517f08c379a000000000000000000000000000000000000000000000000000000000815260040161058b90610b05565b60405180910390fd5b80965050505050505090565b6040518060200160405280600190602082028036833780820191505090505090565b600080fd5b6000819050919050565b6105da816105c7565b81146105e557600080fd5b50565b6000813590506105f7816105d1565b92915050565b600060208284031215610613576106126105c2565b5b6000610621848285016105e8565b91505092915050565b610633816105c7565b82525050565b600060208201905061064e600083018461062a565b92915050565b7f4e487b7100000000000000000000000000000000000000000000000000000000600052601160045260246000fd5b600061068e826105c7565b9150610699836105c7565b92508282026106a7816105c7565b915082820484148315176106be576106bd610654565b5b5092915050565b60006106d0826105c7565b91506106db836105c7565b92508282019050808211156106f3576106f2610654565b5b92915050565b6000610704826105c7565b915061070f836105c7565b925082820390508181111561072757610726610654565b5b92915050565b600082825260208201905092915050565b7f424e50616972696e67507265636f6d70696c65436f7374457374696d61746f7260008201527f3a206e6f7420656e6f756768206761732c2073696e676c652070616972000000602082015250565b600061079a603d8361072d565b91506107a58261073e565b604082019050919050565b600060208201905081810360008301526107c98161078d565b9050919050565b7f424e50616972696e67507265636f6d70696c65436f7374457374696d61746f7260008201527f3a2073696e676c6520706169722063616c6c206973206661696c656400000000602082015250565b600061082c603c8361072d565b9150610837826107d0565b604082019050919050565b6000602082019050818103600083015261085b8161081f565b9050919050565b7f4e487b7100000000000000000000000000000000000000000000000000000000600052603260045260246000fd5b7f424e50616972696e67507265636f6d70696c65436f7374457374696d61746f7260008201527f3a2073696e676c6520706169722063616c6c20726573756c74206d757374206260208201527f6520300000000000000000000000000000000000000000000000000000000000604082015250565b600061091360438361072d565b915061091e82610891565b606082019050919050565b6000602082019050818103600083015261094281610906565b9050919050565b7f424e50616972696e67507265636f6d70696c65436f7374457374696d61746f7260008201527f3a206e6f7420656e6f756768206761732c20636f75706c652070616972000000602082015250565b60006109a5603d8361072d565b91506109b082610949565b604082019050919050565b600060208201905081810360008301526109d481610998565b9050919050565b7f424e50616972696e67507265636f6d70696c65436f7374457374696d61746f7260008201527f3a20636f75706c6520706169722063616c6c206973206661696c656400000000602082015250565b6000610a37603c8361072d565b9150610a42826109db565b604082019050919050565b60006020820190508181036000830152610a6681610a2a565b9050919050565b7f424e50616972696e67507265636f6d70696c65436f7374457374696d61746f7260008201527f3a20636f75706c6520706169722063616c6c20726573756c74206d757374206260208201527f6520310000000000000000000000000000000000000000000000000000000000604082015250565b6000610aef60438361072d565b9150610afa82610a6d565b606082019050919050565b60006020820190508181036000830152610b1e81610ae2565b905091905056fea264697066735822122068fb68e35ace97c150994ba080d42beb72d4dba20042ce3d6eb7a340ecc8393464736f6c634300081a0033","linkReferences":{}},"methodIdentifiers":{"baseCost()":"93822557","getGasCost(uint256)":"4e79f8ca","perPairCost()":"ebfd94b2","run()":"c0406226"},"id":37}