{"abi":[{"type":"function","name":"addStake","inputs":[{"name":"entryPoint","type":"address","internalType":"contract IEntryPoint"},{"name":"delay","type":"uint32","internalType":"uint32"}],"outputs":[],"stateMutability":"payable"},{"type":"function","name":"aggregateSignatures","inputs":[{"name":"userOps","type":"tuple[]","internalType":"struct PackedUserOperation[]","components":[{"name":"sender","type":"address","internalType":"address"},{"name":"nonce","type":"uint256","internalType":"uint256"},{"name":"initCode","type":"bytes","internalType":"bytes"},{"name":"callData","type":"bytes","internalType":"bytes"},{"name":"accountGasLimits","type":"bytes32","internalType":"bytes32"},{"name":"preVerificationGas","type":"uint256","internalType":"uint256"},{"name":"gasFees","type":"bytes32","internalType":"bytes32"},{"name":"paymasterAndData","type":"bytes","internalType":"bytes"},{"name":"signature","type":"bytes","internalType":"bytes"}]}],"outputs":[{"name":"aggregatedSignature","type":"bytes","internalType":"bytes"}],"stateMutability":"pure"},{"type":"function","name":"validateSignatures","inputs":[{"name":"userOps","type":"tuple[]","internalType":"struct PackedUserOperation[]","components":[{"name":"sender","type":"address","internalType":"address"},{"name":"nonce","type":"uint256","internalType":"uint256"},{"name":"initCode","type":"bytes","internalType":"bytes"},{"name":"callData","type":"bytes","internalType":"bytes"},{"name":"accountGasLimits","type":"bytes32","internalType":"bytes32"},{"name":"preVerificationGas","type":"uint256","internalType":"uint256"},{"name":"gasFees","type":"bytes32","internalType":"bytes32"},{"name":"paymasterAndData","type":"bytes","internalType":"bytes"},{"name":"signature","type":"bytes","internalType":"bytes"}]},{"name":"signature","type":"bytes","internalType":"bytes"}],"outputs":[],"stateMutability":"pure"},{"type":"function","name":"validateUserOpSignature","inputs":[{"name":"","type":"tuple","internalType":"struct PackedUserOperation","components":[{"name":"sender","type":"address","internalType":"address"},{"name":"nonce","type":"uint256","internalType":"uint256"},{"name":"initCode","type":"bytes","internalType":"bytes"},{"name":"callData","type":"bytes","internalType":"bytes"},{"name":"accountGasLimits","type":"bytes32","internalType":"bytes32"},{"name":"preVerificationGas","type":"uint256","internalType":"uint256"},{"name":"gasFees","type":"bytes32","internalType":"bytes32"},{"name":"paymasterAndData","type":"bytes","internalType":"bytes"},{"name":"signature","type":"bytes","internalType":"bytes"}]}],"outputs":[{"name":"","type":"bytes","internalType":"bytes"}],"stateMutability":"pure"}],"bytecode":{"object":"0x6080604052348015600f57600080fd5b506109ad8061001f6000396000f3fe60806040526004361061003f5760003560e01c8063062a422b146100445780632dd811331461008157806345171159146100aa578063ae574a43146100c6575b600080fd5b34801561005057600080fd5b5061006b60048036038101906100669190610335565b610103565b604051610078919061040e565b60405180910390f35b34801561008d57600080fd5b506100a860048036038101906100a391906104eb565b61011c565b005b6100c460048036038101906100bf9190610618565b610218565b005b3480156100d257600080fd5b506100ed60048036038101906100e89190610658565b610288565b6040516100fa919061040e565b60405180910390f35b6060604051806020016040528060008152509050919050565b6000805b858590508110156101745760008686838181106101405761013f6106a5565b5b905060200281019061015291906106d9565b6020013590508083610164919061073b565b9250508080600101915050610120565b50602083839050146101bb576040517f08c379a00000000000000000000000000000000000000000000000000000000081526004016101b2906107f2565b60405180910390fd5b600083838101906101cc919061083e565b9050818114610210576040517f08c379a000000000000000000000000000000000000000000000000000000000815260040161020790610903565b60405180910390fd5b505050505050565b8173ffffffffffffffffffffffffffffffffffffffff16630396cb6034836040518363ffffffff1660e01b81526004016102529190610932565b6000604051808303818588803b15801561026b57600080fd5b505af115801561027f573d6000803e3d6000fd5b50505050505050565b60606000805b848490508110156102dc578484828181106102ac576102ab6106a5565b5b90506020028101906102be91906106d9565b60200135826102cd919061073b565b9150808060010191505061028e565b50806040516020016102ee919061095c565b60405160208183030381529060405291505092915050565b600080fd5b600080fd5b600080fd5b6000610120828403121561032c5761032b610310565b5b81905092915050565b60006020828403121561034b5761034a610306565b5b600082013567ffffffffffffffff8111156103695761036861030b565b5b61037584828501610315565b91505092915050565b600081519050919050565b600082825260208201905092915050565b60005b838110156103b857808201518184015260208101905061039d565b60008484015250505050565b6000601f19601f8301169050919050565b60006103e08261037e565b6103ea8185610389565b93506103fa81856020860161039a565b610403816103c4565b840191505092915050565b6000602082019050818103600083015261042881846103d5565b905092915050565b600080fd5b600080fd5b600080fd5b60008083601f84011261045557610454610430565b5b8235905067ffffffffffffffff81111561047257610471610435565b5b60208301915083602082028301111561048e5761048d61043a565b5b9250929050565b60008083601f8401126104ab576104aa610430565b5b8235905067ffffffffffffffff8111156104c8576104c7610435565b5b6020830191508360018202830111156104e4576104e361043a565b5b9250929050565b6000806000806040858703121561050557610504610306565b5b600085013567ffffffffffffffff8111156105235761052261030b565b5b61052f8782880161043f565b9450945050602085013567ffffffffffffffff8111156105525761055161030b565b5b61055e87828801610495565b925092505092959194509250565b600073ffffffffffffffffffffffffffffffffffffffff82169050919050565b60006105978261056c565b9050919050565b60006105a98261058c565b9050919050565b6105b98161059e565b81146105c457600080fd5b50565b6000813590506105d6816105b0565b92915050565b600063ffffffff82169050919050565b6105f5816105dc565b811461060057600080fd5b50565b600081359050610612816105ec565b92915050565b6000806040838503121561062f5761062e610306565b5b600061063d858286016105c7565b925050602061064e85828601610603565b9150509250929050565b6000806020838503121561066f5761066e610306565b5b600083013567ffffffffffffffff81111561068d5761068c61030b565b5b6106998582860161043f565b92509250509250929050565b7f4e487b7100000000000000000000000000000000000000000000000000000000600052603260045260246000fd5b600080fd5b600082356001610120038336030381126106f6576106f56106d4565b5b80830191505092915050565b6000819050919050565b7f4e487b7100000000000000000000000000000000000000000000000000000000600052601160045260246000fd5b600061074682610702565b915061075183610702565b92508282019050808211156107695761076861070c565b5b92915050565b600082825260208201905092915050565b7f546573745369676e617475726556616c696461746f723a20736967206d75737460008201527f2062652075696e74323536000000000000000000000000000000000000000000602082015250565b60006107dc602b8361076f565b91506107e782610780565b604082019050919050565b6000602082019050818103600083015261080b816107cf565b9050919050565b61081b81610702565b811461082657600080fd5b50565b60008135905061083881610812565b92915050565b60006020828403121561085457610853610306565b5b600061086284828501610829565b91505092915050565b7f546573745369676e617475726556616c696461746f723a20616767726567617460008201527f6564207369676e6174757265206d69736d6174636820286e6f6e63652073756d60208201527f2900000000000000000000000000000000000000000000000000000000000000604082015250565b60006108ed60418361076f565b91506108f88261086b565b606082019050919050565b6000602082019050818103600083015261091c816108e0565b9050919050565b61092c816105dc565b82525050565b60006020820190506109476000830184610923565b92915050565b61095681610702565b82525050565b6000602082019050610971600083018461094d565b9291505056fea26469706673582212205f015ccf64afa3f5599a48ea76ce5635fbaadc614b266a3de6eeb798f3db1b2964736f6c634300081a0033","linkReferences":{}},"methodIdentifiers":{"addStake(address,uint32)":"45171159","aggregateSignatures((address,uint256,bytes,bytes,bytes32,uint256,bytes32,bytes,bytes)[])":"ae574a43","validateSignatures((address,uint256,bytes,bytes,bytes32,uint256,bytes32,bytes,bytes)[],bytes)":"2dd81133","validateUserOpSignature((address,uint256,bytes,bytes,bytes32,uint256,bytes32,bytes,bytes))":"062a422b"},"id":58}