{"abi":[{"type":"constructor","inputs":[{"name":"_entryPoint","type":"address","internalType":"contract IEntryPoint"}],"stateMutability":"nonpayable"},{"type":"function","name":"accountImplementation","inputs":[],"outputs":[{"name":"","type":"address","internalType":"contract TestExecAccount"}],"stateMutability":"view"},{"type":"function","name":"createAccount","inputs":[{"name":"owner","type":"address","internalType":"address"},{"name":"salt","type":"uint256","internalType":"uint256"}],"outputs":[{"name":"ret","type":"address","internalType":"address"}],"stateMutability":"nonpayable"},{"type":"function","name":"getAddress","inputs":[{"name":"owner","type":"address","internalType":"address"},{"name":"salt","type":"uint256","internalType":"uint256"}],"outputs":[{"name":"","type":"address","internalType":"address"}],"stateMutability":"view"}],"bytecode":{"object":"0x60a060405234801561001057600080fd5b5060405161421738038061421783398181016040528101906100329190610121565b8060405161003f9061009f565b61004991906101ad565b604051809103906000f080158015610065573d6000803e3d6000fd5b5073ffffffffffffffffffffffffffffffffffffffff1660808173ffffffffffffffffffffffffffffffffffffffff1681525050506101c8565b61334680610ed183390190565b600080fd5b600073ffffffffffffffffffffffffffffffffffffffff82169050919050565b60006100dc826100b1565b9050919050565b60006100ee826100d1565b9050919050565b6100fe816100e3565b811461010957600080fd5b50565b60008151905061011b816100f5565b92915050565b600060208284031215610137576101366100ac565b5b60006101458482850161010c565b91505092915050565b6000819050919050565b600061017361016e610169846100b1565b61014e565b6100b1565b9050919050565b600061018582610158565b9050919050565b60006101978261017a565b9050919050565b6101a78161018c565b82525050565b60006020820190506101c2600083018461019e565b92915050565b608051610ce16101f06000396000818160c60152818161012c01526102130152610ce16000f3fe608060405234801561001057600080fd5b50600436106100415760003560e01c806311464fbe146100465780635fbfb9cf146100645780638cb84e1814610094575b600080fd5b61004e6100c4565b60405161005b91906103a8565b60405180910390f35b61007e6004803603810190610079919061043c565b6100e8565b60405161008b919061048b565b60405180910390f35b6100ae60048036038101906100a9919061043c565b6101e4565b6040516100bb919061048b565b60405180910390f35b7f000000000000000000000000000000000000000000000000000000000000000081565b6000806100f584846101e4565b905060008173ffffffffffffffffffffffffffffffffffffffff163b905060008111156101265781925050506101de565b8360001b7f00000000000000000000000000000000000000000000000000000000000000008660405160240161015c919061048b565b60405160208183030381529060405263c4d66de860e01b6020820180517bffffffffffffffffffffffffffffffffffffffffffffffffffffffff83818316178352505050506040516101ad9061031c565b6101b8929190610536565b8190604051809103906000f59050801580156101d8573d6000803e3d6000fd5b50925050505b92915050565b60006102d48260001b604051806020016101fd9061031c565b6020820181038252601f19601f820116604052507f000000000000000000000000000000000000000000000000000000000000000086604051602401610243919061048b565b60405160208183030381529060405263c4d66de860e01b6020820180517bffffffffffffffffffffffffffffffffffffffffffffffffffffffff8381831617835250505050604051602001610299929190610536565b6040516020818303038152906040526040516020016102b99291906105a2565b604051602081830303815290604052805190602001206102dc565b905092915050565b60006102e98383306102f1565b905092915050565b6000604051836040820152846020820152828152600b810160ff815360558120925050509392505050565b6106e5806105c783390190565b600073ffffffffffffffffffffffffffffffffffffffff82169050919050565b6000819050919050565b600061036e61036961036484610329565b610349565b610329565b9050919050565b600061038082610353565b9050919050565b600061039282610375565b9050919050565b6103a281610387565b82525050565b60006020820190506103bd6000830184610399565b92915050565b600080fd5b60006103d382610329565b9050919050565b6103e3816103c8565b81146103ee57600080fd5b50565b600081359050610400816103da565b92915050565b6000819050919050565b61041981610406565b811461042457600080fd5b50565b60008135905061043681610410565b92915050565b60008060408385031215610453576104526103c3565b5b6000610461858286016103f1565b925050602061047285828601610427565b9150509250929050565b610485816103c8565b82525050565b60006020820190506104a0600083018461047c565b92915050565b600081519050919050565b600082825260208201905092915050565b60005b838110156104e05780820151818401526020810190506104c5565b60008484015250505050565b6000601f19601f8301169050919050565b6000610508826104a6565b61051281856104b1565b93506105228185602086016104c2565b61052b816104ec565b840191505092915050565b600060408201905061054b600083018561047c565b818103602083015261055d81846104fd565b90509392505050565b600081905092915050565b600061057c826104a6565b6105868185610566565b93506105968185602086016104c2565b80840191505092915050565b60006105ae8285610571565b91506105ba8284610571565b9150819050939250505056fe60806040526040516106e53803806106e583398181016040528101906100259190610512565b610035828261003c60201b60201c565b50506105f6565b61004b826100c160201b60201c565b8173ffffffffffffffffffffffffffffffffffffffff167fbc7cd75a20ee27fd9adebab32041f755214dbc6bffa90cc0225b39da2e5c2d3b60405160405180910390a26000815111156100ae576100a8828261019460201b60201c565b506100bd565b6100bc61021e60201b60201c565b5b5050565b60008173ffffffffffffffffffffffffffffffffffffffff163b0361011d57806040517f4c9c8ce3000000000000000000000000000000000000000000000000000000008152600401610114919061057d565b60405180910390fd5b806101507f360894a13ba1a3210667c828492db98dca3e2076cc3735a920a3ca505d382bbc60001b61025b60201b60201c565b60000160006101000a81548173ffffffffffffffffffffffffffffffffffffffff021916908373ffffffffffffffffffffffffffffffffffffffff16021790555050565b60606000808473ffffffffffffffffffffffffffffffffffffffff16846040516101be91906105df565b600060405180830381855af49150503d80600081146101f9576040519150601f19603f3d011682016040523d82523d6000602084013e6101fe565b606091505b509150915061021485838361026560201b60201c565b9250505092915050565b6000341115610259576040517fb398979f00000000000000000000000000000000000000000000000000000000815260040160405180910390fd5b565b6000819050919050565b6060826102805761027b826102fa60201b60201c565b6102f2565b600082511480156102a8575060008473ffffffffffffffffffffffffffffffffffffffff163b145b156102ea57836040517f9996b3150000000000000000000000000000000000000000000000000000000081526004016102e1919061057d565b60405180910390fd5b8190506102f3565b5b9392505050565b60008151111561030d5780518082602001fd5b6040517f1425ea4200000000000000000000000000000000000000000000000000000000815260040160405180910390fd5b6000604051905090565b600080fd5b600080fd5b600073ffffffffffffffffffffffffffffffffffffffff82169050919050565b600061037e82610353565b9050919050565b61038e81610373565b811461039957600080fd5b50565b6000815190506103ab81610385565b92915050565b600080fd5b600080fd5b6000601f19601f8301169050919050565b7f4e487b7100000000000000000000000000000000000000000000000000000000600052604160045260246000fd5b610404826103bb565b810181811067ffffffffffffffff82111715610423576104226103cc565b5b80604052505050565b600061043661033f565b905061044282826103fb565b919050565b600067ffffffffffffffff821115610462576104616103cc565b5b61046b826103bb565b9050602081019050919050565b60005b8381101561049657808201518184015260208101905061047b565b60008484015250505050565b60006104b56104b084610447565b61042c565b9050828152602081018484840111156104d1576104d06103b6565b5b6104dc848285610478565b509392505050565b600082601f8301126104f9576104f86103b1565b5b81516105098482602086016104a2565b91505092915050565b6000806040838503121561052957610528610349565b5b60006105378582860161039c565b925050602083015167ffffffffffffffff8111156105585761055761034e565b5b610564858286016104e4565b9150509250929050565b61057781610373565b82525050565b6000602082019050610592600083018461056e565b92915050565b600081519050919050565b600081905092915050565b60006105b982610598565b6105c381856105a3565b93506105d3818560208601610478565b80840191505092915050565b60006105eb82846105ae565b915081905092915050565b60e1806106046000396000f3fe6080604052600a600c565b005b60186014601a565b6027565b565b60006022604c565b905090565b3660008037600080366000845af43d6000803e80600081146047573d6000f35b3d6000fd5b600060787f360894a13ba1a3210667c828492db98dca3e2076cc3735a920a3ca505d382bbc60001b60a1565b60000160009054906101000a900473ffffffffffffffffffffffffffffffffffffffff16905090565b600081905091905056fea26469706673582212202f87ada7637e73d8549717e39dd360bc07d7bc9c517bc2befd2d190154f2174964736f6c634300081a0033a264697066735822122072b4ee88f8fa6eb1945c4923fd2aab08d481faa70caf4a4ad98661d6fef3361d64736f6c634300081a003360c06040523073ffffffffffffffffffffffffffffffffffffffff1660809073ffffffffffffffffffffffffffffffffffffffff1681525034801561004357600080fd5b5060405161334638038061334683398181016040528101906100659190610250565b808073ffffffffffffffffffffffffffffffffffffffff1660a08173ffffffffffffffffffffffffffffffffffffffff16815250506100a86100af60201b60201c565b50506102bb565b60006100bf6101b360201b60201c565b90508060000160089054906101000a900460ff161561010a576040517ff92ee8a900000000000000000000000000000000000000000000000000000000815260040160405180910390fd5b67ffffffffffffffff80168160000160009054906101000a900467ffffffffffffffff1667ffffffffffffffff16146101b05767ffffffffffffffff8160000160006101000a81548167ffffffffffffffff021916908367ffffffffffffffff1602179055507fc7f505b2f371ae2175ee4913f4499e1f2633a7b5936321eed1cdaeb6115181d267ffffffffffffffff6040516101a791906102a0565b60405180910390a15b50565b60007ff0c57e16840df040f15088dc2f81fe391c3923bec73e23a9662efc9c229c6a00905090565b600080fd5b600073ffffffffffffffffffffffffffffffffffffffff82169050919050565b600061020b826101e0565b9050919050565b600061021d82610200565b9050919050565b61022d81610212565b811461023857600080fd5b50565b60008151905061024a81610224565b92915050565b600060208284031215610266576102656101db565b5b60006102748482850161023b565b91505092915050565b600067ffffffffffffffff82169050919050565b61029a8161027d565b82525050565b60006020820190506102b56000830184610291565b92915050565b60805160a0516130516102f560003960008181610abf015261154801526000818161121201528181611267015261142201526130516000f3fe60806040526004361061010d5760003560e01c80638dd7712f11610095578063bc197c8111610064578063bc197c8114610346578063c399ec8814610383578063c4d66de8146103ae578063d087d288146103d7578063f23a6e611461040257610114565b80638dd7712f1461029e578063ad3cb1cc146102c7578063b0d691fe146102f2578063b61d27f61461031d57610114565b80634a58db19116100dc5780634a58db19146101f95780634d44560d146102035780634f1ef2861461022c57806352d1902d146102485780638da5cb5b1461027357610114565b806301ffc9a714610119578063150b7a021461015657806319822f7c1461019357806347e1da2a146101d057610114565b3661011457005b600080fd5b34801561012557600080fd5b50610140600480360381019061013b9190611c64565b61043f565b60405161014d9190611cac565b60405180910390f35b34801561016257600080fd5b5061017d60048036038101906101789190611dc0565b610579565b60405161018a9190611e57565b60405180910390f35b34801561019f57600080fd5b506101ba60048036038101906101b59190611ecd565b61058e565b6040516101c79190611f4b565b60405180910390f35b3480156101dc57600080fd5b506101f760048036038101906101f29190612068565b6105c1565b005b6102016107cd565b005b34801561020f57600080fd5b5061022a6004803603810190610225919061215a565b610842565b005b610246600480360381019061024191906122db565b6108c2565b005b34801561025457600080fd5b5061025d6108e1565b60405161026a9190612346565b60405180910390f35b34801561027f57600080fd5b50610288610914565b6040516102959190612370565b60405180910390f35b3480156102aa57600080fd5b506102c560048036038101906102c0919061238b565b610938565b005b3480156102d357600080fd5b506102dc610a82565b6040516102e99190612466565b60405180910390f35b3480156102fe57600080fd5b50610307610abb565b60405161031491906124e7565b60405180910390f35b34801561032957600080fd5b50610344600480360381019061033f9190612502565b610ae3565b005b34801561035257600080fd5b5061036d60048036038101906103689190612576565b610b40565b60405161037a9190611e57565b60405180910390f35b34801561038f57600080fd5b50610398610b58565b6040516103a59190611f4b565b60405180910390f35b3480156103ba57600080fd5b506103d560048036038101906103d09190612652565b610be0565b005b3480156103e357600080fd5b506103ec610d6f565b6040516103f99190611f4b565b60405180910390f35b34801561040e57600080fd5b506104296004803603810190610424919061267f565b610dfa565b6040516104369190611e57565b60405180910390f35b60007f150b7a02000000000000000000000000000000000000000000000000000000007bffffffffffffffffffffffffffffffffffffffffffffffffffffffff1916827bffffffffffffffffffffffffffffffffffffffffffffffffffffffff1916148061050a57507f4e2312e0000000000000000000000000000000000000000000000000000000007bffffffffffffffffffffffffffffffffffffffffffffffffffffffff1916827bffffffffffffffffffffffffffffffffffffffffffffffffffffffff1916145b8061057257507f01ffc9a7000000000000000000000000000000000000000000000000000000007bffffffffffffffffffffffffffffffffffffffffffffffffffffffff1916827bffffffffffffffffffffffffffffffffffffffffffffffffffffffff1916145b9050919050565b600063150b7a0260e01b905095945050505050565b6000610598610e10565b6105a28484610e87565b90506105b18460200135610f5a565b6105ba82610f5d565b9392505050565b6105c9610ff9565b81819050868690501480156105f1575060008484905014806105f057508181905084849050145b5b610630576040517f08c379a000000000000000000000000000000000000000000000000000000000815260040161062790612765565b60405180910390fd5b600084849050036106f65760005b868690508110156106f0576106e387878381811061065f5761065e612785565b5b90506020020160208101906106749190612652565b600085858581811061068957610688612785565b5b905060200281019061069b91906127c3565b8080601f016020809104026020016040519081016040528093929190818152602001838380828437600081840152601f19601f820116905080830192505050505050506110c6565b808060010191505061063e565b506107c5565b60005b868690508110156107c3576107b687878381811061071a57610719612785565b5b905060200201602081019061072f9190612652565b86868481811061074257610741612785565b5b9050602002013585858581811061075c5761075b612785565b5b905060200281019061076e91906127c3565b8080601f016020809104026020016040519081016040528093929190818152602001838380828437600081840152601f19601f820116905080830192505050505050506110c6565b80806001019150506106f9565b505b505050505050565b6107d5610abb565b73ffffffffffffffffffffffffffffffffffffffff1663b760faf934306040518363ffffffff1660e01b815260040161080e9190612370565b6000604051808303818588803b15801561082757600080fd5b505af115801561083b573d6000803e3d6000fd5b5050505050565b61084a61114a565b610852610abb565b73ffffffffffffffffffffffffffffffffffffffff1663205c287883836040518363ffffffff1660e01b815260040161088c929190612835565b600060405180830381600087803b1580156108a657600080fd5b505af11580156108ba573d6000803e3d6000fd5b505050505050565b6108ca611210565b6108d3826112f6565b6108dd8282611301565b5050565b60006108eb611420565b7f360894a13ba1a3210667c828492db98dca3e2076cc3735a920a3ca505d382bbc60001b905090565b60008054906101000a900473ffffffffffffffffffffffffffffffffffffffff1681565b610940610ff9565b36600083806060019061095391906127c3565b600490809261096493929190612868565b9150915060606000838390501115610a4257600080848481019061098891906128a3565b9150915060008273ffffffffffffffffffffffffffffffffffffffff16826040516109b39190612946565b6000604051808303816000865af19150503d80600081146109f0576040519150601f19603f3d011682016040523d82523d6000602084013e6109f5565b606091505b50809550819250505080610a3e576040517f08c379a0000000000000000000000000000000000000000000000000000000008152600401610a35906129a9565b60405180910390fd5b5050505b7fd3fddfd1276d1cc278f10907710a44474a32f917b2fcfa198f46ca7689215e2f8582604051610a73929190612c5f565b60405180910390a15050505050565b6040518060400160405280600581526020017f352e302e3000000000000000000000000000000000000000000000000000000081525081565b60007f0000000000000000000000000000000000000000000000000000000000000000905090565b610aeb610ff9565b610b3a848484848080601f016020809104026020016040519081016040528093929190818152602001838380828437600081840152601f19601f820116905080830192505050505050506110c6565b50505050565b600063bc197c8160e01b905098975050505050505050565b6000610b62610abb565b73ffffffffffffffffffffffffffffffffffffffff166370a08231306040518263ffffffff1660e01b8152600401610b9a9190612370565b602060405180830381865afa158015610bb7573d6000803e3d6000fd5b505050506040513d601f19601f82011682018060405250810190610bdb9190612cab565b905090565b6000610bea6114a7565b905060008160000160089054906101000a900460ff1615905060008260000160009054906101000a900467ffffffffffffffff1690506000808267ffffffffffffffff16148015610c385750825b9050600060018367ffffffffffffffff16148015610c6d575060003073ffffffffffffffffffffffffffffffffffffffff163b145b905081158015610c7b575080155b15610cb2576040517ff92ee8a900000000000000000000000000000000000000000000000000000000815260040160405180910390fd5b60018560000160006101000a81548167ffffffffffffffff021916908367ffffffffffffffff1602179055508315610d025760018560000160086101000a81548160ff0219169083151502179055505b610d0b866114cf565b8315610d675760008560000160086101000a81548160ff0219169083151502179055507fc7f505b2f371ae2175ee4913f4499e1f2633a7b5936321eed1cdaeb6115181d26001604051610d5e9190612d27565b60405180910390a15b505050505050565b6000610d79610abb565b73ffffffffffffffffffffffffffffffffffffffff166335567e1a3060006040518363ffffffff1660e01b8152600401610db4929190612da1565b602060405180830381865afa158015610dd1573d6000803e3d6000fd5b505050506040513d601f19601f82011682018060405250810190610df59190612cab565b905090565b600063f23a6e6160e01b90509695505050505050565b610e18610abb565b73ffffffffffffffffffffffffffffffffffffffff163373ffffffffffffffffffffffffffffffffffffffff1614610e85576040517f08c379a0000000000000000000000000000000000000000000000000000000008152600401610e7c90612e16565b60405180910390fd5b565b600080610e93836115ac565b9050610ef28185806101000190610eaa91906127c3565b8080601f016020809104026020016040519081016040528093929190818152602001838380828437600081840152601f19601f820116905080830192505050505050506115e2565b73ffffffffffffffffffffffffffffffffffffffff1660008054906101000a900473ffffffffffffffffffffffffffffffffffffffff1673ffffffffffffffffffffffffffffffffffffffff1614610f4e576001915050610f54565b60009150505b92915050565b50565b60008114610ff65760003373ffffffffffffffffffffffffffffffffffffffff16827fffffffffffffffffffffffffffffffffffffffffffffffffffffffffffffffff90604051610fad90612e5c565b600060405180830381858888f193505050503d8060008114610feb576040519150601f19603f3d011682016040523d82523d6000602084013e610ff0565b606091505b50509050505b50565b611001610abb565b73ffffffffffffffffffffffffffffffffffffffff163373ffffffffffffffffffffffffffffffffffffffff161480611085575060008054906101000a900473ffffffffffffffffffffffffffffffffffffffff1673ffffffffffffffffffffffffffffffffffffffff163373ffffffffffffffffffffffffffffffffffffffff16145b6110c4576040517f08c379a00000000000000000000000000000000000000000000000000000000081526004016110bb90612ebd565b60405180910390fd5b565b6000808473ffffffffffffffffffffffffffffffffffffffff1684846040516110ef9190612946565b60006040518083038185875af1925050503d806000811461112c576040519150601f19603f3d011682016040523d82523d6000602084013e611131565b606091505b50915091508161114357805160208201fd5b5050505050565b60008054906101000a900473ffffffffffffffffffffffffffffffffffffffff1673ffffffffffffffffffffffffffffffffffffffff163373ffffffffffffffffffffffffffffffffffffffff1614806111cf57503073ffffffffffffffffffffffffffffffffffffffff163373ffffffffffffffffffffffffffffffffffffffff16145b61120e576040517f08c379a000000000000000000000000000000000000000000000000000000000815260040161120590612f29565b60405180910390fd5b565b7f000000000000000000000000000000000000000000000000000000000000000073ffffffffffffffffffffffffffffffffffffffff163073ffffffffffffffffffffffffffffffffffffffff1614806112bd57507f000000000000000000000000000000000000000000000000000000000000000073ffffffffffffffffffffffffffffffffffffffff166112a461160e565b73ffffffffffffffffffffffffffffffffffffffff1614155b156112f4576040517fe07c8dba00000000000000000000000000000000000000000000000000000000815260040160405180910390fd5b565b6112fe61114a565b50565b8173ffffffffffffffffffffffffffffffffffffffff166352d1902d6040518163ffffffff1660e01b8152600401602060405180830381865afa92505050801561136957506040513d601f19601f820116820180604052508101906113669190612f5e565b60015b6113aa57816040517f4c9c8ce30000000000000000000000000000000000000000000000000000000081526004016113a19190612370565b60405180910390fd5b7f360894a13ba1a3210667c828492db98dca3e2076cc3735a920a3ca505d382bbc60001b811461141157806040517faa1d49a40000000000000000000000000000000000000000000000000000000081526004016114089190612346565b60405180910390fd5b61141b8383611665565b505050565b7f000000000000000000000000000000000000000000000000000000000000000073ffffffffffffffffffffffffffffffffffffffff163073ffffffffffffffffffffffffffffffffffffffff16146114a5576040517fe07c8dba00000000000000000000000000000000000000000000000000000000815260040160405180910390fd5b565b60007ff0c57e16840df040f15088dc2f81fe391c3923bec73e23a9662efc9c229c6a00905090565b806000806101000a81548173ffffffffffffffffffffffffffffffffffffffff021916908373ffffffffffffffffffffffffffffffffffffffff16021790555060008054906101000a900473ffffffffffffffffffffffffffffffffffffffff1673ffffffffffffffffffffffffffffffffffffffff167f000000000000000000000000000000000000000000000000000000000000000073ffffffffffffffffffffffffffffffffffffffff167f47e55c76e7a6f1fd8996a1da8008c1ea29699cca35e7bcd057f2dec313b6e5de60405160405180910390a350565b60007f19457468657265756d205369676e6564204d6573736167653a0a33320000000060005281601c52603c6000209050919050565b6000806000806115f286866116d8565b9250925092506116028282611734565b82935050505092915050565b600061163c7f360894a13ba1a3210667c828492db98dca3e2076cc3735a920a3ca505d382bbc60001b611898565b60000160009054906101000a900473ffffffffffffffffffffffffffffffffffffffff16905090565b61166e826118a2565b8173ffffffffffffffffffffffffffffffffffffffff167fbc7cd75a20ee27fd9adebab32041f755214dbc6bffa90cc0225b39da2e5c2d3b60405160405180910390a26000815111156116cb576116c5828261196f565b506116d4565b6116d36119f3565b5b5050565b6000806000604184510361171d5760008060006020870151925060408701519150606087015160001a905061170f88828585611a30565b95509550955050505061172d565b60006002855160001b9250925092505b9250925092565b6000600381111561174857611747612f8b565b5b82600381111561175b5761175a612f8b565b5b0315611894576001600381111561177557611774612f8b565b5b82600381111561178857611787612f8b565b5b036117bf576040517ff645eedf00000000000000000000000000000000000000000000000000000000815260040160405180910390fd5b600260038111156117d3576117d2612f8b565b5b8260038111156117e6576117e5612f8b565b5b0361182b578060001c6040517ffce698f70000000000000000000000000000000000000000000000000000000081526004016118229190611f4b565b60405180910390fd5b60038081111561183e5761183d612f8b565b5b82600381111561185157611850612f8b565b5b0361189357806040517fd78bce0c00000000000000000000000000000000000000000000000000000000815260040161188a9190612346565b60405180910390fd5b5b5050565b6000819050919050565b60008173ffffffffffffffffffffffffffffffffffffffff163b036118fe57806040517f4c9c8ce30000000000000000000000000000000000000000000000000000000081526004016118f59190612370565b60405180910390fd5b8061192b7f360894a13ba1a3210667c828492db98dca3e2076cc3735a920a3ca505d382bbc60001b611898565b60000160006101000a81548173ffffffffffffffffffffffffffffffffffffffff021916908373ffffffffffffffffffffffffffffffffffffffff16021790555050565b60606000808473ffffffffffffffffffffffffffffffffffffffff16846040516119999190612946565b600060405180830381855af49150503d80600081146119d4576040519150601f19603f3d011682016040523d82523d6000602084013e6119d9565b606091505b50915091506119e9858383611b24565b9250505092915050565b6000341115611a2e576040517fb398979f00000000000000000000000000000000000000000000000000000000815260040160405180910390fd5b565b60008060007f7fffffffffffffffffffffffffffffff5d576e7357a4501ddfe92f46681b20a08460001c1115611a70576000600385925092509250611b1a565b600060018888888860405160008152602001604052604051611a959493929190612fd6565b6020604051602081039080840390855afa158015611ab7573d6000803e3d6000fd5b505050602060405103519050600073ffffffffffffffffffffffffffffffffffffffff168173ffffffffffffffffffffffffffffffffffffffff1603611b0b57600060016000801b93509350935050611b1a565b8060008060001b935093509350505b9450945094915050565b606082611b3957611b3482611bb3565b611bab565b60008251148015611b61575060008473ffffffffffffffffffffffffffffffffffffffff163b145b15611ba357836040517f9996b315000000000000000000000000000000000000000000000000000000008152600401611b9a9190612370565b60405180910390fd5b819050611bac565b5b9392505050565b600081511115611bc65780518082602001fd5b6040517f1425ea4200000000000000000000000000000000000000000000000000000000815260040160405180910390fd5b6000604051905090565b600080fd5b600080fd5b60007fffffffff0000000000000000000000000000000000000000000000000000000082169050919050565b611c4181611c0c565b8114611c4c57600080fd5b50565b600081359050611c5e81611c38565b92915050565b600060208284031215611c7a57611c79611c02565b5b6000611c8884828501611c4f565b91505092915050565b60008115159050919050565b611ca681611c91565b82525050565b6000602082019050611cc16000830184611c9d565b92915050565b600073ffffffffffffffffffffffffffffffffffffffff82169050919050565b6000611cf282611cc7565b9050919050565b611d0281611ce7565b8114611d0d57600080fd5b50565b600081359050611d1f81611cf9565b92915050565b6000819050919050565b611d3881611d25565b8114611d4357600080fd5b50565b600081359050611d5581611d2f565b92915050565b600080fd5b600080fd5b600080fd5b60008083601f840112611d8057611d7f611d5b565b5b8235905067ffffffffffffffff811115611d9d57611d9c611d60565b5b602083019150836001820283011115611db957611db8611d65565b5b9250929050565b600080600080600060808688031215611ddc57611ddb611c02565b5b6000611dea88828901611d10565b9550506020611dfb88828901611d10565b9450506040611e0c88828901611d46565b935050606086013567ffffffffffffffff811115611e2d57611e2c611c07565b5b611e3988828901611d6a565b92509250509295509295909350565b611e5181611c0c565b82525050565b6000602082019050611e6c6000830184611e48565b92915050565b600080fd5b60006101208284031215611e8e57611e8d611e72565b5b81905092915050565b6000819050919050565b611eaa81611e97565b8114611eb557600080fd5b50565b600081359050611ec781611ea1565b92915050565b600080600060608486031215611ee657611ee5611c02565b5b600084013567ffffffffffffffff811115611f0457611f03611c07565b5b611f1086828701611e77565b9350506020611f2186828701611eb8565b9250506040611f3286828701611d46565b9150509250925092565b611f4581611d25565b82525050565b6000602082019050611f606000830184611f3c565b92915050565b60008083601f840112611f7c57611f7b611d5b565b5b8235905067ffffffffffffffff811115611f9957611f98611d60565b5b602083019150836020820283011115611fb557611fb4611d65565b5b9250929050565b60008083601f840112611fd257611fd1611d5b565b5b8235905067ffffffffffffffff811115611fef57611fee611d60565b5b60208301915083602082028301111561200b5761200a611d65565b5b9250929050565b60008083601f84011261202857612027611d5b565b5b8235905067ffffffffffffffff81111561204557612044611d60565b5b60208301915083602082028301111561206157612060611d65565b5b9250929050565b6000806000806000806060878903121561208557612084611c02565b5b600087013567ffffffffffffffff8111156120a3576120a2611c07565b5b6120af89828a01611f66565b9650965050602087013567ffffffffffffffff8111156120d2576120d1611c07565b5b6120de89828a01611fbc565b9450945050604087013567ffffffffffffffff81111561210157612100611c07565b5b61210d89828a01612012565b92509250509295509295509295565b600061212782611cc7565b9050919050565b6121378161211c565b811461214257600080fd5b50565b6000813590506121548161212e565b92915050565b6000806040838503121561217157612170611c02565b5b600061217f85828601612145565b925050602061219085828601611d46565b9150509250929050565b600080fd5b6000601f19601f8301169050919050565b7f4e487b7100000000000000000000000000000000000000000000000000000000600052604160045260246000fd5b6121e88261219f565b810181811067ffffffffffffffff82111715612207576122066121b0565b5b80604052505050565b600061221a611bf8565b905061222682826121df565b919050565b600067ffffffffffffffff821115612246576122456121b0565b5b61224f8261219f565b9050602081019050919050565b82818337600083830152505050565b600061227e6122798461222b565b612210565b90508281526020810184848401111561229a5761229961219a565b5b6122a584828561225c565b509392505050565b600082601f8301126122c2576122c1611d5b565b5b81356122d284826020860161226b565b91505092915050565b600080604083850312156122f2576122f1611c02565b5b600061230085828601611d10565b925050602083013567ffffffffffffffff81111561232157612320611c07565b5b61232d858286016122ad565b9150509250929050565b61234081611e97565b82525050565b600060208201905061235b6000830184612337565b92915050565b61236a81611ce7565b82525050565b60006020820190506123856000830184612361565b92915050565b600080604083850312156123a2576123a1611c02565b5b600083013567ffffffffffffffff8111156123c0576123bf611c07565b5b6123cc85828601611e77565b92505060206123dd85828601611eb8565b9150509250929050565b600081519050919050565b600082825260208201905092915050565b60005b83811015612421578082015181840152602081019050612406565b60008484015250505050565b6000612438826123e7565b61244281856123f2565b9350612452818560208601612403565b61245b8161219f565b840191505092915050565b60006020820190508181036000830152612480818461242d565b905092915050565b6000819050919050565b60006124ad6124a86124a384611cc7565b612488565b611cc7565b9050919050565b60006124bf82612492565b9050919050565b60006124d1826124b4565b9050919050565b6124e1816124c6565b82525050565b60006020820190506124fc60008301846124d8565b92915050565b6000806000806060858703121561251c5761251b611c02565b5b600061252a87828801611d10565b945050602061253b87828801611d46565b935050604085013567ffffffffffffffff81111561255c5761255b611c07565b5b61256887828801611d6a565b925092505092959194509250565b60008060008060008060008060a0898b03121561259657612595611c02565b5b60006125a48b828c01611d10565b98505060206125b58b828c01611d10565b975050604089013567ffffffffffffffff8111156125d6576125d5611c07565b5b6125e28b828c01611fbc565b9650965050606089013567ffffffffffffffff81111561260557612604611c07565b5b6126118b828c01611fbc565b9450945050608089013567ffffffffffffffff81111561263457612633611c07565b5b6126408b828c01611d6a565b92509250509295985092959890939650565b60006020828403121561266857612667611c02565b5b600061267684828501611d10565b91505092915050565b60008060008060008060a0878903121561269c5761269b611c02565b5b60006126aa89828a01611d10565b96505060206126bb89828a01611d10565b95505060406126cc89828a01611d46565b94505060606126dd89828a01611d46565b935050608087013567ffffffffffffffff8111156126fe576126fd611c07565b5b61270a89828a01611d6a565b92509250509295509295509295565b7f77726f6e67206172726179206c656e6774687300000000000000000000000000600082015250565b600061274f6013836123f2565b915061275a82612719565b602082019050919050565b6000602082019050818103600083015261277e81612742565b9050919050565b7f4e487b7100000000000000000000000000000000000000000000000000000000600052603260045260246000fd5b600080fd5b600080fd5b600080fd5b600080833560016020038436030381126127e0576127df6127b4565b5b80840192508235915067ffffffffffffffff821115612802576128016127b9565b5b60208301925060018202360383131561281e5761281d6127be565b5b509250929050565b61282f8161211c565b82525050565b600060408201905061284a6000830185612826565b6128576020830184611f3c565b9392505050565b600080fd5b600080fd5b6000808585111561287c5761287b61285e565b5b8386111561288d5761288c612863565b5b6001850283019150848603905094509492505050565b600080604083850312156128ba576128b9611c02565b5b60006128c885828601612145565b925050602083013567ffffffffffffffff8111156128e9576128e8611c07565b5b6128f5858286016122ad565b9150509250929050565b600081519050919050565b600081905092915050565b6000612920826128ff565b61292a818561290a565b935061293a818560208601612403565b80840191505092915050565b60006129528284612915565b915081905092915050565b7f696e6e65722063616c6c206661696c6564000000000000000000000000000000600082015250565b60006129936011836123f2565b915061299e8261295d565b602082019050919050565b600060208201905081810360008301526129c281612986565b9050919050565b60006129d86020840184611d10565b905092915050565b6129e981611ce7565b82525050565b60006129fe6020840184611d46565b905092915050565b612a0f81611d25565b82525050565b600080fd5b600080fd5b600080fd5b60008083356001602003843603038112612a4157612a40612a1f565b5b83810192508235915060208301925067ffffffffffffffff821115612a6957612a68612a15565b5b600182023603831315612a7f57612a7e612a1a565b5b509250929050565b600082825260208201905092915050565b6000612aa48385612a87565b9350612ab183858461225c565b612aba8361219f565b840190509392505050565b6000612ad46020840184611eb8565b905092915050565b612ae581611e97565b82525050565b60006101208301612aff60008401846129c9565b612b0c60008601826129e0565b50612b1a60208401846129ef565b612b276020860182612a06565b50612b356040840184612a24565b8583036040870152612b48838284612a98565b92505050612b596060840184612a24565b8583036060870152612b6c838284612a98565b92505050612b7d6080840184612ac5565b612b8a6080860182612adc565b50612b9860a08401846129ef565b612ba560a0860182612a06565b50612bb360c0840184612ac5565b612bc060c0860182612adc565b50612bce60e0840184612a24565b85830360e0870152612be1838284612a98565b92505050612bf3610100840184612a24565b858303610100870152612c07838284612a98565b925050508091505092915050565b600082825260208201905092915050565b6000612c31826128ff565b612c3b8185612c15565b9350612c4b818560208601612403565b612c548161219f565b840191505092915050565b60006040820190508181036000830152612c798185612aeb565b90508181036020830152612c8d8184612c26565b90509392505050565b600081519050612ca581611d2f565b92915050565b600060208284031215612cc157612cc0611c02565b5b6000612ccf84828501612c96565b91505092915050565b6000819050919050565b600067ffffffffffffffff82169050919050565b6000612d11612d0c612d0784612cd8565b612488565b612ce2565b9050919050565b612d2181612cf6565b82525050565b6000602082019050612d3c6000830184612d18565b92915050565b6000819050919050565b600077ffffffffffffffffffffffffffffffffffffffffffffffff82169050919050565b6000612d8b612d86612d8184612d42565b612488565b612d4c565b9050919050565b612d9b81612d70565b82525050565b6000604082019050612db66000830185612361565b612dc36020830184612d92565b9392505050565b7f6163636f756e743a206e6f742066726f6d20456e747279506f696e7400000000600082015250565b6000612e00601c836123f2565b9150612e0b82612dca565b602082019050919050565b60006020820190508181036000830152612e2f81612df3565b9050919050565b50565b6000612e4660008361290a565b9150612e5182612e36565b600082019050919050565b6000612e6782612e39565b9150819050919050565b7f6163636f756e743a206e6f74204f776e6572206f7220456e747279506f696e74600082015250565b6000612ea76020836123f2565b9150612eb282612e71565b602082019050919050565b60006020820190508181036000830152612ed681612e9a565b9050919050565b7f6f6e6c79206f776e657200000000000000000000000000000000000000000000600082015250565b6000612f13600a836123f2565b9150612f1e82612edd565b602082019050919050565b60006020820190508181036000830152612f4281612f06565b9050919050565b600081519050612f5881611ea1565b92915050565b600060208284031215612f7457612f73611c02565b5b6000612f8284828501612f49565b91505092915050565b7f4e487b7100000000000000000000000000000000000000000000000000000000600052602160045260246000fd5b600060ff82169050919050565b612fd081612fba565b82525050565b6000608082019050612feb6000830187612337565b612ff86020830186612fc7565b6130056040830185612337565b6130126060830184612337565b9594505050505056fea2646970667358221220b8d98f7bf2c56ba2118634bd63a94afef9670f208f4c16f2996a1ea167494cbf64736f6c634300081a0033","linkReferences":{}},"methodIdentifiers":{"accountImplementation()":"11464fbe","createAccount(address,uint256)":"5fbfb9cf","getAddress(address,uint256)":"8cb84e18"},"id":49}