{"abi":[{"type":"function","name":"packValidationData","inputs":[{"name":"sigFailed","type":"bool","internalType":"bool"},{"name":"validUntil","type":"uint48","internalType":"uint48"},{"name":"validAfter","type":"uint48","internalType":"uint48"}],"outputs":[{"name":"","type":"uint256","internalType":"uint256"}],"stateMutability":"pure"},{"type":"function","name":"packValidationDataStruct","inputs":[{"name":"data","type":"tuple","internalType":"struct ValidationData","components":[{"name":"aggregator","type":"address","internalType":"address"},{"name":"validAfter","type":"uint48","internalType":"uint48"},{"name":"validUntil","type":"uint48","internalType":"uint48"}]}],"outputs":[{"name":"","type":"uint256","internalType":"uint256"}],"stateMutability":"pure"},{"type":"function","name":"parseValidationData","inputs":[{"name":"validationData","type":"uint256","internalType":"uint256"}],"outputs":[{"name":"","type":"tuple","internalType":"struct ValidationData","components":[{"name":"aggregator","type":"address","internalType":"address"},{"name":"validAfter","type":"uint48","internalType":"uint48"},{"name":"validUntil","type":"uint48","internalType":"uint48"}]}],"stateMutability":"pure"}],"bytecode":{"object":"0x6080604052348015600f57600080fd5b506105f88061001f6000396000f3fe608060405234801561001057600080fd5b50600436106100415760003560e01c806324d3cde614610046578063a4b2282e14610076578063b059e2fa146100a6575b600080fd5b610060600480360381019061005b9190610402565b6100d6565b60405161006d9190610448565b60405180910390f35b610090600480360381019061008b919061048f565b6100e8565b60405161009d919061051c565b60405180910390f35b6100c060048036038101906100bb919061056f565b610100565b6040516100cd9190610448565b60405180910390f35b60006100e182610116565b9050919050565b6100f061021b565b6100f98261015e565b9050919050565b600061010d8484846101e2565b90509392505050565b600060d0826020015165ffffffffffff16901b60a0836040015165ffffffffffff16901b836000015173ffffffffffffffffffffffffffffffffffffffff1617179050919050565b61016661021b565b6000829050600060a084901c905060008165ffffffffffff160361018e5765ffffffffffff90505b600060d085901c905060405180606001604052808473ffffffffffffffffffffffffffffffffffffffff1681526020018265ffffffffffff1681526020018365ffffffffffff168152509350505050919050565b600060d08265ffffffffffff16901b60a08465ffffffffffff16901b8561020a57600061020d565b60015b60ff16171790509392505050565b6040518060600160405280600073ffffffffffffffffffffffffffffffffffffffff168152602001600065ffffffffffff168152602001600065ffffffffffff1681525090565b6000604051905090565b600080fd5b600080fd5b6000601f19601f8301169050919050565b7f4e487b7100000000000000000000000000000000000000000000000000000000600052604160045260246000fd5b6102bf82610276565b810181811067ffffffffffffffff821117156102de576102dd610287565b5b80604052505050565b60006102f1610262565b90506102fd82826102b6565b919050565b600073ffffffffffffffffffffffffffffffffffffffff82169050919050565b600061032d82610302565b9050919050565b61033d81610322565b811461034857600080fd5b50565b60008135905061035a81610334565b92915050565b600065ffffffffffff82169050919050565b61037b81610360565b811461038657600080fd5b50565b60008135905061039881610372565b92915050565b6000606082840312156103b4576103b3610271565b5b6103be60606102e7565b905060006103ce8482850161034b565b60008301525060206103e284828501610389565b60208301525060406103f684828501610389565b60408301525092915050565b6000606082840312156104185761041761026c565b5b60006104268482850161039e565b91505092915050565b6000819050919050565b6104428161042f565b82525050565b600060208201905061045d6000830184610439565b92915050565b61046c8161042f565b811461047757600080fd5b50565b60008135905061048981610463565b92915050565b6000602082840312156104a5576104a461026c565b5b60006104b38482850161047a565b91505092915050565b6104c581610322565b82525050565b6104d481610360565b82525050565b6060820160008201516104f060008501826104bc565b50602082015161050360208501826104cb565b50604082015161051660408501826104cb565b50505050565b600060608201905061053160008301846104da565b92915050565b60008115159050919050565b61054c81610537565b811461055757600080fd5b50565b60008135905061056981610543565b92915050565b6000806000606084860312156105885761058761026c565b5b60006105968682870161055a565b93505060206105a786828701610389565b92505060406105b886828701610389565b915050925092509256fea2646970667358221220155b87a1dd30e500ce6bc0430ebbab90cef5cf00a3a03780c361cea5b455c16964736f6c634300081a0033","linkReferences":{}},"methodIdentifiers":{"packValidationData(bool,uint48,uint48)":"b059e2fa","packValidationDataStruct((address,uint48,uint48))":"24d3cde6","parseValidationData(uint256)":"a4b2282e"},"id":52}