{"abi":[{"type":"constructor","inputs":[{"name":"_token","type":"address","internalType":"contract IERC20Metadata"},{"name":"_entryPoint","type":"address","internalType":"contract IEntryPoint"},{"name":"_wrappedNative","type":"address","internalType":"contract IERC20"},{"name":"_uniswap","type":"address","internalType":"contract ISwapRouter"},{"name":"_tokenPaymasterConfig","type":"tuple","internalType":"struct TokenPaymaster.TokenPaymasterConfig","components":[{"name":"priceMarkup","type":"uint256","internalType":"uint256"},{"name":"minEntryPointBalance","type":"uint128","internalType":"uint128"},{"name":"refundPostopCost","type":"uint48","internalType":"uint48"},{"name":"priceMaxAge","type":"uint48","internalType":"uint48"}]},{"name":"_oracleHelperConfig","type":"tuple","internalType":"struct OracleHelper.OracleHelperConfig","components":[{"name":"cacheTimeToLive","type":"uint48","internalType":"uint48"},{"name":"maxOracleRoundAge","type":"uint48","internalType":"uint48"},{"name":"tokenOracle","type":"address","internalType":"contract IOracle"},{"name":"nativeOracle","type":"address","internalType":"contract IOracle"},{"name":"tokenToNativeOracle","type":"bool","internalType":"bool"},{"name":"tokenOracleReverse","type":"bool","internalType":"bool"},{"name":"nativeOracleReverse","type":"bool","internalType":"bool"},{"name":"priceUpdateThreshold","type":"uint256","internalType":"uint256"}]},{"name":"_uniswapHelperConfig","type":"tuple","internalType":"struct UniswapHelper.UniswapHelperConfig","components":[{"name":"minSwapAmount","type":"uint256","internalType":"uint256"},{"name":"uniswapPoolFee","type":"uint24","internalType":"uint24"},{"name":"slippage","type":"uint8","internalType":"uint8"}]},{"name":"_owner","type":"address","internalType":"address"}],"stateMutability":"nonpayable"},{"type":"receive","stateMutability":"payable"},{"type":"function","name":"addStake","inputs":[{"name":"unstakeDelaySec","type":"uint32","internalType":"uint32"}],"outputs":[],"stateMutability":"payable"},{"type":"function","name":"cachedPrice","inputs":[],"outputs":[{"name":"","type":"uint256","internalType":"uint256"}],"stateMutability":"view"},{"type":"function","name":"cachedPriceTimestamp","inputs":[],"outputs":[{"name":"","type":"uint48","internalType":"uint48"}],"stateMutability":"view"},{"type":"function","name":"deposit","inputs":[],"outputs":[],"stateMutability":"payable"},{"type":"function","name":"entryPoint","inputs":[],"outputs":[{"name":"","type":"address","internalType":"contract IEntryPoint"}],"stateMutability":"view"},{"type":"function","name":"getDeposit","inputs":[],"outputs":[{"name":"","type":"uint256","internalType":"uint256"}],"stateMutability":"view"},{"type":"function","name":"owner","inputs":[],"outputs":[{"name":"","type":"address","internalType":"address"}],"stateMutability":"view"},{"type":"function","name":"postOp","inputs":[{"name":"mode","type":"uint8","internalType":"enum IPaymaster.PostOpMode"},{"name":"context","type":"bytes","internalType":"bytes"},{"name":"actualGasCost","type":"uint256","internalType":"uint256"},{"name":"actualUserOpFeePerGas","type":"uint256","internalType":"uint256"}],"outputs":[],"stateMutability":"nonpayable"},{"type":"function","name":"renounceOwnership","inputs":[],"outputs":[],"stateMutability":"nonpayable"},{"type":"function","name":"setTokenPaymasterConfig","inputs":[{"name":"_tokenPaymasterConfig","type":"tuple","internalType":"struct TokenPaymaster.TokenPaymasterConfig","components":[{"name":"priceMarkup","type":"uint256","internalType":"uint256"},{"name":"minEntryPointBalance","type":"uint128","internalType":"uint128"},{"name":"refundPostopCost","type":"uint48","internalType":"uint48"},{"name":"priceMaxAge","type":"uint48","internalType":"uint48"}]}],"outputs":[],"stateMutability":"nonpayable"},{"type":"function","name":"setUniswapConfiguration","inputs":[{"name":"_uniswapHelperConfig","type":"tuple","internalType":"struct UniswapHelper.UniswapHelperConfig","components":[{"name":"minSwapAmount","type":"uint256","internalType":"uint256"},{"name":"uniswapPoolFee","type":"uint24","internalType":"uint24"},{"name":"slippage","type":"uint8","internalType":"uint8"}]}],"outputs":[],"stateMutability":"nonpayable"},{"type":"function","name":"token","inputs":[],"outputs":[{"name":"","type":"address","internalType":"contract IERC20"}],"stateMutability":"view"},{"type":"function","name":"tokenPaymasterConfig","inputs":[],"outputs":[{"name":"priceMarkup","type":"uint256","internalType":"uint256"},{"name":"minEntryPointBalance","type":"uint128","internalType":"uint128"},{"name":"refundPostopCost","type":"uint48","internalType":"uint48"},{"name":"priceMaxAge","type":"uint48","internalType":"uint48"}],"stateMutability":"view"},{"type":"function","name":"tokenToWei","inputs":[{"name":"amount","type":"uint256","internalType":"uint256"},{"name":"price","type":"uint256","internalType":"uint256"}],"outputs":[{"name":"","type":"uint256","internalType":"uint256"}],"stateMutability":"pure"},{"type":"function","name":"transferOwnership","inputs":[{"name":"newOwner","type":"address","internalType":"address"}],"outputs":[],"stateMutability":"nonpayable"},{"type":"function","name":"uniswap","inputs":[],"outputs":[{"name":"","type":"address","internalType":"contract ISwapRouter"}],"stateMutability":"view"},{"type":"function","name":"unlockStake","inputs":[],"outputs":[],"stateMutability":"nonpayable"},{"type":"function","name":"updateCachedPrice","inputs":[{"name":"force","type":"bool","internalType":"bool"}],"outputs":[{"name":"","type":"uint256","internalType":"uint256"}],"stateMutability":"nonpayable"},{"type":"function","name":"validatePaymasterUserOp","inputs":[{"name":"userOp","type":"tuple","internalType":"struct PackedUserOperation","components":[{"name":"sender","type":"address","internalType":"address"},{"name":"nonce","type":"uint256","internalType":"uint256"},{"name":"initCode","type":"bytes","internalType":"bytes"},{"name":"callData","type":"bytes","internalType":"bytes"},{"name":"accountGasLimits","type":"bytes32","internalType":"bytes32"},{"name":"preVerificationGas","type":"uint256","internalType":"uint256"},{"name":"gasFees","type":"bytes32","internalType":"bytes32"},{"name":"paymasterAndData","type":"bytes","internalType":"bytes"},{"name":"signature","type":"bytes","internalType":"bytes"}]},{"name":"userOpHash","type":"bytes32","internalType":"bytes32"},{"name":"maxCost","type":"uint256","internalType":"uint256"}],"outputs":[{"name":"context","type":"bytes","internalType":"bytes"},{"name":"validationData","type":"uint256","internalType":"uint256"}],"stateMutability":"nonpayable"},{"type":"function","name":"weiToToken","inputs":[{"name":"amount","type":"uint256","internalType":"uint256"},{"name":"price","type":"uint256","internalType":"uint256"}],"outputs":[{"name":"","type":"uint256","internalType":"uint256"}],"stateMutability":"pure"},{"type":"function","name":"withdrawEth","inputs":[{"name":"recipient","type":"address","internalType":"address payable"},{"name":"amount","type":"uint256","internalType":"uint256"}],"outputs":[],"stateMutability":"nonpayable"},{"type":"function","name":"withdrawStake","inputs":[{"name":"withdrawAddress","type":"address","internalType":"address payable"}],"outputs":[],"stateMutability":"nonpayable"},{"type":"function","name":"withdrawTo","inputs":[{"name":"withdrawAddress","type":"address","internalType":"address payable"},{"name":"amount","type":"uint256","internalType":"uint256"}],"outputs":[],"stateMutability":"nonpayable"},{"type":"function","name":"withdrawToken","inputs":[{"name":"to","type":"address","internalType":"address"},{"name":"amount","type":"uint256","internalType":"uint256"}],"outputs":[],"stateMutability":"nonpayable"},{"type":"function","name":"wrappedNative","inputs":[],"outputs":[{"name":"","type":"address","internalType":"contract IERC20"}],"stateMutability":"view"},{"type":"event","name":"ConfigUpdated","inputs":[{"name":"tokenPaymasterConfig","type":"tuple","indexed":false,"internalType":"struct TokenPaymaster.TokenPaymasterConfig","components":[{"name":"priceMarkup","type":"uint256","internalType":"uint256"},{"name":"minEntryPointBalance","type":"uint128","internalType":"uint128"},{"name":"refundPostopCost","type":"uint48","internalType":"uint48"},{"name":"priceMaxAge","type":"uint48","internalType":"uint48"}]}],"anonymous":false},{"type":"event","name":"OwnershipTransferred","inputs":[{"name":"previousOwner","type":"address","indexed":true,"internalType":"address"},{"name":"newOwner","type":"address","indexed":true,"internalType":"address"}],"anonymous":false},{"type":"event","name":"Received","inputs":[{"name":"sender","type":"address","indexed":true,"internalType":"address"},{"name":"value","type":"uint256","indexed":false,"internalType":"uint256"}],"anonymous":false},{"type":"event","name":"TokenPriceUpdated","inputs":[{"name":"currentPrice","type":"uint256","indexed":false,"internalType":"uint256"},{"name":"previousPrice","type":"uint256","indexed":false,"internalType":"uint256"},{"name":"cachedPriceTimestamp","type":"uint256","indexed":false,"internalType":"uint256"}],"anonymous":false},{"type":"event","name":"UniswapReverted","inputs":[{"name":"tokenIn","type":"address","indexed":false,"internalType":"address"},{"name":"tokenOut","type":"address","indexed":false,"internalType":"address"},{"name":"amountIn","type":"uint256","indexed":false,"internalType":"uint256"},{"name":"amountOutMin","type":"uint256","indexed":false,"internalType":"uint256"}],"anonymous":false},{"type":"event","name":"UserOperationSponsored","inputs":[{"name":"user","type":"address","indexed":true,"internalType":"address"},{"name":"actualTokenCharge","type":"uint256","indexed":false,"internalType":"uint256"},{"name":"actualGasCost","type":"uint256","indexed":false,"internalType":"uint256"},{"name":"actualTokenPriceWithMarkup","type":"uint256","indexed":false,"internalType":"uint256"}],"anonymous":false},{"type":"error","name":"AddressEmptyCode","inputs":[{"name":"target","type":"address","internalType":"address"}]},{"type":"error","name":"AddressInsufficientBalance","inputs":[{"name":"account","type":"address","internalType":"address"}]},{"type":"error","name":"FailedInnerCall","inputs":[]},{"type":"error","name":"OwnableInvalidOwner","inputs":[{"name":"owner","type":"address","internalType":"address"}]},{"type":"error","name":"OwnableUnauthorizedAccount","inputs":[{"name":"account","type":"address","internalType":"address"}]},{"type":"error","name":"SafeERC20FailedOperation","inputs":[{"name":"token","type":"address","internalType":"address"}]}],"bytecode":{"object":"0x61010060405234801561001157600080fd5b506040516151d93803806151d983398181016040528101906100339190611129565b82888787858b33600073ffffffffffffffffffffffffffffffffffffffff168173ffffffffffffffffffffffffffffffffffffffff16036100ac5760006040517f1e4fbdf70000000000000000000000000000000000000000000000000000000081526004016100a391906111f1565b60405180910390fd5b6100bb816102b060201b60201c565b506100cb8161037460201b60201c565b8073ffffffffffffffffffffffffffffffffffffffff1660808173ffffffffffffffffffffffffffffffffffffffff1681525050508373ffffffffffffffffffffffffffffffffffffffff1663095ea7b3837fffffffffffffffffffffffffffffffffffffffffffffffffffffffffffffffff6040518363ffffffff1660e01b815260040161015b92919061121b565b6020604051808303816000875af115801561017a573d6000803e3d6000fd5b505050506040513d601f19601f8201168201806040525081019061019e9190611244565b508373ffffffffffffffffffffffffffffffffffffffff1660c08173ffffffffffffffffffffffffffffffffffffffff16815250508273ffffffffffffffffffffffffffffffffffffffff1660e08173ffffffffffffffffffffffffffffffffffffffff16815250508173ffffffffffffffffffffffffffffffffffffffff1660a08173ffffffffffffffffffffffffffffffffffffffff168152505061024a8161045060201b60201c565b505050507fffffffffffffffffffffffffffffffffffffffffffffffffffffffffffffffff600381905550610284816104a960201b60201c565b50610294846108ee60201b60201c565b6102a381610a8b60201b60201c565b50505050505050506117ad565b60008060009054906101000a900473ffffffffffffffffffffffffffffffffffffffff169050816000806101000a81548173ffffffffffffffffffffffffffffffffffffffff021916908373ffffffffffffffffffffffffffffffffffffffff1602179055508173ffffffffffffffffffffffffffffffffffffffff168173ffffffffffffffffffffffffffffffffffffffff167f8be0079c531659141344cd1fd0a4f28419497f9722a3daafe3b4186f6b6457e060405160405180910390a35050565b8073ffffffffffffffffffffffffffffffffffffffff166301ffc9a77f915074d8000000000000000000000000000000000000000000000000000000006040518263ffffffff1660e01b81526004016103cd91906112ac565b602060405180830381865afa1580156103ea573d6000803e3d6000fd5b505050506040513d601f19601f8201168201806040525081019061040e9190611244565b61044d576040517f08c379a000000000000000000000000000000000000000000000000000000000815260040161044490611324565b60405180910390fd5b50565b8060016000820151816000015560208201518160010160006101000a81548162ffffff021916908362ffffff16021790555060408201518160010160036101000a81548160ff021916908360ff16021790555090505050565b80600560008201518160000160006101000a81548165ffffffffffff021916908365ffffffffffff16021790555060208201518160000160066101000a81548165ffffffffffff021916908365ffffffffffff160217905550604082015181600001600c6101000a81548173ffffffffffffffffffffffffffffffffffffffff021916908373ffffffffffffffffffffffffffffffffffffffff16021790555060608201518160010160006101000a81548173ffffffffffffffffffffffffffffffffffffffff021916908373ffffffffffffffffffffffffffffffffffffffff16021790555060808201518160010160146101000a81548160ff02191690831515021790555060a08201518160010160156101000a81548160ff02191690831515021790555060c08201518160010160166101000a81548160ff02191690831515021790555060e082015181600201559050506a52b7d2dcc80cd2e40000008160e00151111561064f576040517f08c379a000000000000000000000000000000000000000000000000000000000815260040161064690611390565b60405180910390fd5b6005600001600c9054906101000a900473ffffffffffffffffffffffffffffffffffffffff1673ffffffffffffffffffffffffffffffffffffffff1663313ce5676040518163ffffffff1660e01b8152600401602060405180830381865afa1580156106bf573d6000803e3d6000fd5b505050506040513d601f19601f820116820180604052508101906106e391906113b0565b600a6106ef919061153f565b600860006101000a8154816fffffffffffffffffffffffffffffffff02191690836fffffffffffffffffffffffffffffffff160217905550600560010160149054906101000a900460ff161561081257600073ffffffffffffffffffffffffffffffffffffffff16600560010160009054906101000a900473ffffffffffffffffffffffffffffffffffffffff1673ffffffffffffffffffffffffffffffffffffffff16146107d3576040517f08c379a00000000000000000000000000000000000000000000000000000000081526004016107ca906115d6565b60405180910390fd5b6001600860106101000a8154816fffffffffffffffffffffffffffffffff02191690836fffffffffffffffffffffffffffffffff1602179055506108eb565b600560010160009054906101000a900473ffffffffffffffffffffffffffffffffffffffff1673ffffffffffffffffffffffffffffffffffffffff1663313ce5676040518163ffffffff1660e01b8152600401602060405180830381865afa158015610882573d6000803e3d6000fd5b505050506040513d601f19601f820116820180604052508101906108a691906113b0565b600a6108b2919061153f565b600860106101000a8154816fffffffffffffffffffffffffffffffff02191690836fffffffffffffffffffffffffffffffff1602179055505b50565b6108fc610b1d60201b60201c565b6a52b7d2dcc80cd2e4000000600261091491906115f6565b8160000151111561095a576040517f08c379a000000000000000000000000000000000000000000000000000000000815260040161095190611684565b60405180910390fd5b6a52b7d2dcc80cd2e4000000816000015110156109ac576040517f08c379a00000000000000000000000000000000000000000000000000000000081526004016109a3906116f0565b60405180910390fd5b8060096000820151816000015560208201518160010160006101000a8154816fffffffffffffffffffffffffffffffff02191690836fffffffffffffffffffffffffffffffff16021790555060408201518160010160106101000a81548165ffffffffffff021916908365ffffffffffff16021790555060608201518160010160166101000a81548165ffffffffffff021916908365ffffffffffff1602179055509050507fcd938817f1c47094d43be3d07e8c67e11766db2e11a2b4376e7ee937b15793a281604051610a809190611792565b60405180910390a150565b610a99610b1d60201b60201c565b600073ffffffffffffffffffffffffffffffffffffffff168173ffffffffffffffffffffffffffffffffffffffff1603610b0b5760006040517f1e4fbdf7000000000000000000000000000000000000000000000000000000008152600401610b0291906111f1565b60405180910390fd5b610b1a816102b060201b60201c565b50565b610b2b610bb660201b60201c565b73ffffffffffffffffffffffffffffffffffffffff16610b4f610bbe60201b60201c565b73ffffffffffffffffffffffffffffffffffffffff1614610bb457610b78610bb660201b60201c565b6040517f118cdaa7000000000000000000000000000000000000000000000000000000008152600401610bab91906111f1565b60405180910390fd5b565b600033905090565b60008060009054906101000a900473ffffffffffffffffffffffffffffffffffffffff16905090565b6000604051905090565b600080fd5b600073ffffffffffffffffffffffffffffffffffffffff82169050919050565b6000610c2182610bf6565b9050919050565b6000610c3382610c16565b9050919050565b610c4381610c28565b8114610c4e57600080fd5b50565b600081519050610c6081610c3a565b92915050565b6000610c7182610c16565b9050919050565b610c8181610c66565b8114610c8c57600080fd5b50565b600081519050610c9e81610c78565b92915050565b6000610caf82610c16565b9050919050565b610cbf81610ca4565b8114610cca57600080fd5b50565b600081519050610cdc81610cb6565b92915050565b6000610ced82610c16565b9050919050565b610cfd81610ce2565b8114610d0857600080fd5b50565b600081519050610d1a81610cf4565b92915050565b600080fd5b6000601f19601f8301169050919050565b7f4e487b7100000000000000000000000000000000000000000000000000000000600052604160045260246000fd5b610d6e82610d25565b810181811067ffffffffffffffff82111715610d8d57610d8c610d36565b5b80604052505050565b6000610da0610be7565b9050610dac8282610d65565b919050565b6000819050919050565b610dc481610db1565b8114610dcf57600080fd5b50565b600081519050610de181610dbb565b92915050565b60006fffffffffffffffffffffffffffffffff82169050919050565b610e0c81610de7565b8114610e1757600080fd5b50565b600081519050610e2981610e03565b92915050565b600065ffffffffffff82169050919050565b610e4a81610e2f565b8114610e5557600080fd5b50565b600081519050610e6781610e41565b92915050565b600060808284031215610e8357610e82610d20565b5b610e8d6080610d96565b90506000610e9d84828501610dd2565b6000830152506020610eb184828501610e1a565b6020830152506040610ec584828501610e58565b6040830152506060610ed984828501610e58565b60608301525092915050565b6000610ef082610c16565b9050919050565b610f0081610ee5565b8114610f0b57600080fd5b50565b600081519050610f1d81610ef7565b92915050565b60008115159050919050565b610f3881610f23565b8114610f4357600080fd5b50565b600081519050610f5581610f2f565b92915050565b60006101008284031215610f7257610f71610d20565b5b610f7d610100610d96565b90506000610f8d84828501610e58565b6000830152506020610fa184828501610e58565b6020830152506040610fb584828501610f0e565b6040830152506060610fc984828501610f0e565b6060830152506080610fdd84828501610f46565b60808301525060a0610ff184828501610f46565b60a08301525060c061100584828501610f46565b60c08301525060e061101984828501610dd2565b60e08301525092915050565b600062ffffff82169050919050565b61103d81611025565b811461104857600080fd5b50565b60008151905061105a81611034565b92915050565b600060ff82169050919050565b61107681611060565b811461108157600080fd5b50565b6000815190506110938161106d565b92915050565b6000606082840312156110af576110ae610d20565b5b6110b96060610d96565b905060006110c984828501610dd2565b60008301525060206110dd8482850161104b565b60208301525060406110f184828501611084565b60408301525092915050565b61110681610c16565b811461111157600080fd5b50565b600081519050611123816110fd565b92915050565b600080600080600080600080610280898b03121561114a57611149610bf1565b5b60006111588b828c01610c51565b98505060206111698b828c01610c8f565b975050604061117a8b828c01610ccd565b965050606061118b8b828c01610d0b565b955050608061119c8b828c01610e6d565b9450506101006111ae8b828c01610f5b565b9350506102006111c08b828c01611099565b9250506102606111d28b828c01611114565b9150509295985092959890939650565b6111eb81610c16565b82525050565b600060208201905061120660008301846111e2565b92915050565b61121581610db1565b82525050565b600060408201905061123060008301856111e2565b61123d602083018461120c565b9392505050565b60006020828403121561125a57611259610bf1565b5b600061126884828501610f46565b91505092915050565b60007fffffffff0000000000000000000000000000000000000000000000000000000082169050919050565b6112a681611271565b82525050565b60006020820190506112c1600083018461129d565b92915050565b600082825260208201905092915050565b7f49456e747279506f696e7420696e74657266616365206d69736d617463680000600082015250565b600061130e601e836112c7565b9150611319826112d8565b602082019050919050565b6000602082019050818103600083015261133d81611301565b9050919050565b7f54504d3a20757064617465207468726573686f6c6420746f6f20686967680000600082015250565b600061137a601e836112c7565b915061138582611344565b602082019050919050565b600060208201905081810360008301526113a98161136d565b9050919050565b6000602082840312156113c6576113c5610bf1565b5b60006113d484828501611084565b91505092915050565b7f4e487b7100000000000000000000000000000000000000000000000000000000600052601160045260246000fd5b60008160011c9050919050565b6000808291508390505b60018511156114635780860481111561143f5761143e6113dd565b5b600185161561144e5780820291505b808102905061145c8561140c565b9450611423565b94509492505050565b60008261147c5760019050611538565b8161148a5760009050611538565b81600181146114a057600281146114aa576114d9565b6001915050611538565b60ff8411156114bc576114bb6113dd565b5b8360020a9150848211156114d3576114d26113dd565b5b50611538565b5060208310610133831016604e8410600b841016171561150e5782820a905083811115611509576115086113dd565b5b611538565b61151b8484846001611419565b92509050818404811115611532576115316113dd565b5b81810290505b9392505050565b600061154a82610db1565b915061155583611060565b92506115827fffffffffffffffffffffffffffffffffffffffffffffffffffffffffffffffff848461146c565b905092915050565b7f54504d3a206e6174697665206f7261636c65206d757374206265207a65726f00600082015250565b60006115c0601f836112c7565b91506115cb8261158a565b602082019050919050565b600060208201905081810360008301526115ef816115b3565b9050919050565b600061160182610db1565b915061160c83610db1565b925082820261161a81610db1565b91508282048414831517611631576116306113dd565b5b5092915050565b7f54504d3a207072696365206d61726b757020746f6f2068696768000000000000600082015250565b600061166e601a836112c7565b915061167982611638565b602082019050919050565b6000602082019050818103600083015261169d81611661565b9050919050565b7f54504d3a207072696365206d61726b757020746f6f206c6f7700000000000000600082015250565b60006116da6019836112c7565b91506116e5826116a4565b602082019050919050565b60006020820190508181036000830152611709816116cd565b9050919050565b61171981610db1565b82525050565b61172881610de7565b82525050565b61173781610e2f565b82525050565b6080820160008201516117536000850182611710565b506020820151611766602085018261171f565b506040820151611779604085018261172e565b50606082015161178c606085018261172e565b50505050565b60006080820190506117a7600083018461173d565b92915050565b60805160a05160c05160e05161397561186460003960008181610e420152611e29015260008181610aed0152818161108901528181611631015281816118420152818161187c0152611bec0152600081816107c601528181611e7001528181611f9f015261200a0152600081816105e50152818161073501528181610b2d01528181610b5901528181610be301528181610c7301528181610d700152818161142701528181611b100152611c1e01526139756000f3fe60806040526004361061016a5760003560e01c8063b0d691fe116100d1578063d7a23b3c1161008a578063f14d64ed11610064578063f14d64ed14610533578063f2fde38b1461055c578063f60fdcb314610585578063fc0c546a146105b0576101bf565b8063d7a23b3c146104a0578063e1d8153c146104dd578063eb6d3a1114610508576101bf565b8063b0d691fe146103d2578063bb9fe6bf146103fd578063c23a5cea14610414578063c399ec881461043d578063cb721cfd14610468578063d0e30db014610496576101bf565b8063715018a611610123578063715018a6146102d85780637c627b21146102ef5780637c986aac146103185780638da5cb5b146103555780639e281a9814610380578063a0840fa7146103a9576101bf565b80630396cb60146101c45780631b9a91a4146101e0578063205c2878146102095780632681f7e4146102325780633ba9290f1461025d57806352b7512c1461029a576101bf565b366101bf573373ffffffffffffffffffffffffffffffffffffffff167f88a5966d370b9919b20f3e2c13ff65706f196a4e32cc2c12bf57088f88525874346040516101b591906122b0565b60405180910390a2005b600080fd5b6101de60048036038101906101d9919061231b565b6105db565b005b3480156101ec57600080fd5b50610207600480360381019061020291906123d2565b610672565b005b34801561021557600080fd5b50610230600480360381019061022b91906123d2565b61072b565b005b34801561023e57600080fd5b506102476107c4565b6040516102549190612471565b60405180910390f35b34801561026957600080fd5b50610284600480360381019061027f91906124c4565b6107e8565b60405161029191906122b0565b60405180910390f35b3480156102a657600080fd5b506102c160048036038101906102bc919061254c565b610a38565b6040516102cf92919061264b565b60405180910390f35b3480156102e457600080fd5b506102ed610a5b565b005b3480156102fb57600080fd5b5061031660048036038101906103119190612705565b610a6f565b005b34801561032457600080fd5b5061033f600480360381019061033a919061278d565b610a8b565b60405161034c91906122b0565b60405180910390f35b34801561036157600080fd5b5061036a610ab7565b60405161037791906127ee565b60405180910390f35b34801561038c57600080fd5b506103a760048036038101906103a29190612835565b610ae0565b005b3480156103b557600080fd5b506103d060048036038101906103cb91906129cd565b610b17565b005b3480156103de57600080fd5b506103e7610b2b565b6040516103f49190612a1b565b60405180910390f35b34801561040957600080fd5b50610412610b4f565b005b34801561042057600080fd5b5061043b60048036038101906104369190612a36565b610bd9565b005b34801561044957600080fd5b50610452610c6f565b60405161045f91906122b0565b60405180910390f35b34801561047457600080fd5b5061047d610d10565b60405161048d9493929190612aaf565b60405180910390f35b61049e610d6e565b005b3480156104ac57600080fd5b506104c760048036038101906104c2919061278d565b610dfc565b6040516104d491906122b0565b60405180910390f35b3480156104e957600080fd5b506104f2610e28565b6040516104ff9190612af4565b60405180910390f35b34801561051457600080fd5b5061051d610e40565b60405161052a9190612b30565b60405180910390f35b34801561053f57600080fd5b5061055a60048036038101906105559190612c1b565b610e64565b005b34801561056857600080fd5b50610583600480360381019061057e9190612c48565b610ffb565b005b34801561059157600080fd5b5061059a611081565b6040516105a791906122b0565b60405180910390f35b3480156105bc57600080fd5b506105c5611087565b6040516105d29190612b30565b60405180910390f35b6105e36110ab565b7f000000000000000000000000000000000000000000000000000000000000000073ffffffffffffffffffffffffffffffffffffffff16630396cb6034836040518363ffffffff1660e01b815260040161063d9190612c84565b6000604051808303818588803b15801561065657600080fd5b505af115801561066a573d6000803e3d6000fd5b505050505050565b61067a6110ab565b60008273ffffffffffffffffffffffffffffffffffffffff16826040516106a090612cd0565b60006040518083038185875af1925050503d80600081146106dd576040519150601f19603f3d011682016040523d82523d6000602084013e6106e2565b606091505b5050905080610726576040517f08c379a000000000000000000000000000000000000000000000000000000000815260040161071d90612d42565b60405180910390fd5b505050565b6107336110ab565b7f000000000000000000000000000000000000000000000000000000000000000073ffffffffffffffffffffffffffffffffffffffff1663205c287883836040518363ffffffff1660e01b815260040161078e929190612d71565b600060405180830381600087803b1580156107a857600080fd5b505af11580156107bc573d6000803e3d6000fd5b505050505050565b7f000000000000000000000000000000000000000000000000000000000000000081565b600080600560000160009054906101000a900465ffffffffffff1665ffffffffffff1690506000600460009054906101000a900465ffffffffffff1665ffffffffffff16426108379190612dc9565b9050831580156108475750818111155b156108585760035492505050610a33565b6000600560020154905060006005600001600c9054906101000a900473ffffffffffffffffffffffffffffffffffffffff1690506000600560010160009054906101000a900473ffffffffffffffffffffffffffffffffffffffff1690506000600354905060006108c884611132565b9050600060019050600560010160149054906101000a900460ff166108f3576108f084611132565b90505b60006109258383600560010160159054906101000a900460ff16600560010160169054906101000a900460ff166112c9565b9050600084826a52b7d2dcc80cd2e40000006109419190612dfd565b61094b9190612e6e565b905060008c806109705750886a52b7d2dcc80cd2e400000061096d9190612e9f565b82115b806109905750886a52b7d2dcc80cd2e400000061098d9190612dc9565b82105b9050806109aa57859b505050505050505050505050610a33565b8260038190555042600460006101000a81548165ffffffffffff021916908365ffffffffffff1602179055507ed4fe314618b73a96886b87817a53a5ed51433b0234c85a5e9dafe2cb7b88428387600460009054906101000a900465ffffffffffff16604051610a1c93929190612f04565b60405180910390a1829b5050505050505050505050505b919050565b60606000610a44611425565b610a4f8585856114b5565b91509150935093915050565b610a636110ab565b610a6d60006116eb565b565b610a77611425565b610a8485858585856117af565b5050505050565b6000816a52b7d2dcc80cd2e400000084610aa59190612dfd565b610aaf9190612e6e565b905092915050565b60008060009054906101000a900473ffffffffffffffffffffffffffffffffffffffff16905090565b610ae86110ab565b610b137f00000000000000000000000000000000000000000000000000000000000000008383611910565b5050565b610b1f6110ab565b610b288161198f565b50565b7f000000000000000000000000000000000000000000000000000000000000000081565b610b576110ab565b7f000000000000000000000000000000000000000000000000000000000000000073ffffffffffffffffffffffffffffffffffffffff1663bb9fe6bf6040518163ffffffff1660e01b8152600401600060405180830381600087803b158015610bbf57600080fd5b505af1158015610bd3573d6000803e3d6000fd5b50505050565b610be16110ab565b7f000000000000000000000000000000000000000000000000000000000000000073ffffffffffffffffffffffffffffffffffffffff1663c23a5cea826040518263ffffffff1660e01b8152600401610c3a9190612f3b565b600060405180830381600087803b158015610c5457600080fd5b505af1158015610c68573d6000803e3d6000fd5b5050505050565b60007f000000000000000000000000000000000000000000000000000000000000000073ffffffffffffffffffffffffffffffffffffffff166370a08231306040518263ffffffff1660e01b8152600401610cca91906127ee565b602060405180830381865afa158015610ce7573d6000803e3d6000fd5b505050506040513d601f19601f82011682018060405250810190610d0b9190612f6b565b905090565b60098060000154908060010160009054906101000a90046fffffffffffffffffffffffffffffffff16908060010160109054906101000a900465ffffffffffff16908060010160169054906101000a900465ffffffffffff16905084565b7f000000000000000000000000000000000000000000000000000000000000000073ffffffffffffffffffffffffffffffffffffffff1663b760faf934306040518363ffffffff1660e01b8152600401610dc891906127ee565b6000604051808303818588803b158015610de157600080fd5b505af1158015610df5573d6000803e3d6000fd5b5050505050565b60006a52b7d2dcc80cd2e40000008284610e169190612dfd565b610e209190612e6e565b905092915050565b600460009054906101000a900465ffffffffffff1681565b7f000000000000000000000000000000000000000000000000000000000000000081565b610e6c6110ab565b6a52b7d2dcc80cd2e40000006002610e849190612dfd565b81600001511115610eca576040517f08c379a0000000000000000000000000000000000000000000000000000000008152600401610ec190612fe4565b60405180910390fd5b6a52b7d2dcc80cd2e400000081600001511015610f1c576040517f08c379a0000000000000000000000000000000000000000000000000000000008152600401610f1390613050565b60405180910390fd5b8060096000820151816000015560208201518160010160006101000a8154816fffffffffffffffffffffffffffffffff02191690836fffffffffffffffffffffffffffffffff16021790555060408201518160010160106101000a81548165ffffffffffff021916908365ffffffffffff16021790555060608201518160010160166101000a81548165ffffffffffff021916908365ffffffffffff1602179055509050507fcd938817f1c47094d43be3d07e8c67e11766db2e11a2b4376e7ee937b15793a281604051610ff091906130f2565b60405180910390a150565b6110036110ab565b600073ffffffffffffffffffffffffffffffffffffffff168173ffffffffffffffffffffffffffffffffffffffff16036110755760006040517f1e4fbdf700000000000000000000000000000000000000000000000000000000815260040161106c91906127ee565b60405180910390fd5b61107e816116eb565b50565b60035481565b7f000000000000000000000000000000000000000000000000000000000000000081565b6110b36119e8565b73ffffffffffffffffffffffffffffffffffffffff166110d1610ab7565b73ffffffffffffffffffffffffffffffffffffffff1614611130576110f46119e8565b6040517f118cdaa700000000000000000000000000000000000000000000000000000000815260040161112791906127ee565b60405180910390fd5b565b60008060008060008573ffffffffffffffffffffffffffffffffffffffff1663feaf968c6040518163ffffffff1660e01b815260040160a060405180830381865afa158015611185573d6000803e3d6000fd5b505050506040513d601f19601f820116820180604052508101906111a99190613185565b945094505093509350600083136111f5576040517f08c379a00000000000000000000000000000000000000000000000000000000081526004016111ec9061324c565b60405180910390fd5b600560000160069054906101000a900465ffffffffffff1665ffffffffffff16426112209190612dc9565b821015611262576040517f08c379a0000000000000000000000000000000000000000000000000000000008152600401611259906132b8565b60405180910390fd5b8369ffffffffffffffffffff168169ffffffffffffffffffff1610156112bd576040517f08c379a00000000000000000000000000000000000000000000000000000000081526004016112b490613324565b60405180910390fd5b82945050505050919050565b6000821561132a5784600860009054906101000a90046fffffffffffffffffffffffffffffffff166fffffffffffffffffffffffffffffffff166a52b7d2dcc80cd2e40000006113199190612dfd565b6113239190612e6e565b945061137f565b600860009054906101000a90046fffffffffffffffffffffffffffffffff166fffffffffffffffffffffffffffffffff16856a52b7d2dcc80cd2e40000006113729190612dfd565b61137c9190612e6e565b94505b81156113d357600860109054906101000a90046fffffffffffffffffffffffffffffffff166fffffffffffffffffffffffffffffffff1685856113c29190612dfd565b6113cc9190612e6e565b905061141d565b83600860109054906101000a90046fffffffffffffffffffffffffffffffff166fffffffffffffffffffffffffffffffff16866114109190612dfd565b61141a9190612e6e565b90505b949350505050565b7f000000000000000000000000000000000000000000000000000000000000000073ffffffffffffffffffffffffffffffffffffffff163373ffffffffffffffffffffffffffffffffffffffff16146114b3576040517f08c379a00000000000000000000000000000000000000000000000000000000081526004016114aa90613390565b60405180910390fd5b565b6060600080600960000154905060006034878060e001906114d691906133bf565b905003905060008114806114ea5750602081145b611529576040517f08c379a00000000000000000000000000000000000000000000000000000000081526004016115209061346e565b60405180910390fd5b6000611534886119f0565b90506000600960010160109054906101000a900465ffffffffffff1665ffffffffffff16905061156389611a06565b81106115a4576040517f08c379a000000000000000000000000000000000000000000000000000000000815260040161159b906134da565b60405180910390fd5b6000828202880190506000856a52b7d2dcc80cd2e400000060035402816115ce576115cd612e3f565b5b0490506020850361161e5760008b8060e001906115eb91906133bf565b60349060206034019261160093929190613504565b9061160b9190613557565b60001c90508181101561161c578091505b505b600061162a8383610a8b565b905061166a7f00000000000000000000000000000000000000000000000000000000000000008d60000160208101906116639190612c48565b3084611a51565b808c600001602081019061167e9190612c48565b60405160200161168f9291906135b6565b60405160208183030381529060405298506116da6000600960010160169054906101000a900465ffffffffffff16600460009054906101000a900465ffffffffffff16016000611ad3565b975050505050505050935093915050565b60008060009054906101000a900473ffffffffffffffffffffffffffffffffffffffff169050816000806101000a81548173ffffffffffffffffffffffffffffffffffffffff021916908373ffffffffffffffffffffffffffffffffffffffff1602179055508173ffffffffffffffffffffffffffffffffffffffff168173ffffffffffffffffffffffffffffffffffffffff167f8be0079c531659141344cd1fd0a4f28419497f9722a3daafe3b4186f6b6457e060405160405180910390a35050565b6000600960000154905060008086868101906117cb91906135df565b9150915060006117db60006107e8565b90506000846a52b7d2dcc80cd2e40000008302816117fc576117fb612e3f565b5b049050600086600960010160109054906101000a900465ffffffffffff1665ffffffffffff16028801905060006118338284610a8b565b90508086111561186f5761186a7f000000000000000000000000000000000000000000000000000000000000000086838903611910565b6118a7565b808610156118a6576118a57f00000000000000000000000000000000000000000000000000000000000000008630898503611a51565b5b5b8473ffffffffffffffffffffffffffffffffffffffff167f46caa0511cf037f06f57a0bf273a2ff04229f5b12fb04675234a6cbe2e7f1a89828b866040516118f19392919061361f565b60405180910390a261190284611b0c565b505050505050505050505050565b61198a838473ffffffffffffffffffffffffffffffffffffffff1663a9059cbb8585604051602401611943929190613656565b604051602081830303815290604052915060e01b6020820180517bffffffffffffffffffffffffffffffffffffffffffffffffffffffff8381831617835250505050611cae565b505050565b8060016000820151816000015560208201518160010160006101000a81548162ffffff021916908362ffffff16021790555060408201518160010160036101000a81548160ff021916908360ff16021790555090505050565b600033905090565b60006119ff8260c00135611d45565b9050919050565b6000818060e00190611a1891906133bf565b602490603492611a2a93929190613504565b90611a3591906136ab565b60801c6fffffffffffffffffffffffffffffffff169050919050565b611acd848573ffffffffffffffffffffffffffffffffffffffff166323b872dd868686604051602401611a869392919061370a565b604051602081830303815290604052915060e01b6020820180517bffffffffffffffffffffffffffffffffffffffffffffffffffffffff8381831617835250505050611cae565b50505050565b600060d08265ffffffffffff16901b60a08465ffffffffffff16901b85611afb576000611afe565b60015b60ff16171790509392505050565b60007f000000000000000000000000000000000000000000000000000000000000000073ffffffffffffffffffffffffffffffffffffffff166370a08231306040518263ffffffff1660e01b8152600401611b6791906127ee565b602060405180830381865afa158015611b84573d6000803e3d6000fd5b505050506040513d601f19601f82011682018060405250810190611ba89190612f6b565b9050600960010160009054906101000a90046fffffffffffffffffffffffffffffffff166fffffffffffffffffffffffffffffffff16811015611caa576000611c117f000000000000000000000000000000000000000000000000000000000000000084611d64565b9050611c1c81611e6e565b7f000000000000000000000000000000000000000000000000000000000000000073ffffffffffffffffffffffffffffffffffffffff1663b760faf947306040518363ffffffff1660e01b8152600401611c7691906127ee565b6000604051808303818588803b158015611c8f57600080fd5b505af1158015611ca3573d6000803e3d6000fd5b5050505050505b5050565b6000611cd9828473ffffffffffffffffffffffffffffffffffffffff16611efe90919063ffffffff16565b90506000815114158015611cfe575080806020019051810190611cfc9190613756565b155b15611d4057826040517f5274afe7000000000000000000000000000000000000000000000000000000008152600401611d3791906127ee565b60405180910390fd5b505050565b60008160001c6fffffffffffffffffffffffffffffffff169050919050565b6000808373ffffffffffffffffffffffffffffffffffffffff166370a08231306040518263ffffffff1660e01b8152600401611da091906127ee565b602060405180830381865afa158015611dbd573d6000803e3d6000fd5b505050506040513d601f19601f82011682018060405250810190611de19190612f6b565b90506000611e09611df28386610dfc565b6001800160039054906101000a900460ff16611f14565b9050600160000154811015611e2357600092505050611e68565b611e63857f000000000000000000000000000000000000000000000000000000000000000084846001800160009054906101000a900462ffffff16611f4b565b925050505b92915050565b7f000000000000000000000000000000000000000000000000000000000000000073ffffffffffffffffffffffffffffffffffffffff166349404b7c82306040518363ffffffff1660e01b8152600401611ec99291906135b6565b600060405180830381600087803b158015611ee357600080fd5b505af1158015611ef7573d6000803e3d6000fd5b5050505050565b6060611f0c838360006120f6565b905092915050565b60006103e88260ff166103e8611f2a9190613791565b61ffff1684611f399190612dfd565b611f439190612e6e565b905092915050565b6000806040518061010001604052808873ffffffffffffffffffffffffffffffffffffffff1681526020018773ffffffffffffffffffffffffffffffffffffffff1681526020018462ffffff1681526020017f000000000000000000000000000000000000000000000000000000000000000073ffffffffffffffffffffffffffffffffffffffff168152602001428152602001868152602001858152602001600073ffffffffffffffffffffffffffffffffffffffff1681525090507f000000000000000000000000000000000000000000000000000000000000000073ffffffffffffffffffffffffffffffffffffffff1663414bf389826040518263ffffffff1660e01b81526004016120619190613896565b6020604051808303816000875af192505050801561209d57506040513d601f19601f8201168201806040525081019061209a9190612f6b565b60015b6120e7577ff7edd4c6ec425decf715a8b8eaa3b65d3d86e31ad0ff750aa60fa834190f515f878787876040516120d694939291906138b2565b60405180910390a1600091506120ec565b809250505b5095945050505050565b60608147101561213d57306040517fcd78605900000000000000000000000000000000000000000000000000000000815260040161213491906127ee565b60405180910390fd5b6000808573ffffffffffffffffffffffffffffffffffffffff1684866040516121669190613928565b60006040518083038185875af1925050503d80600081146121a3576040519150601f19603f3d011682016040523d82523d6000602084013e6121a8565b606091505b50915091506121b88683836121c3565b925050509392505050565b6060826121d8576121d382612252565b61224a565b60008251148015612200575060008473ffffffffffffffffffffffffffffffffffffffff163b145b1561224257836040517f9996b31500000000000000000000000000000000000000000000000000000000815260040161223991906127ee565b60405180910390fd5b81905061224b565b5b9392505050565b6000815111156122655780518082602001fd5b6040517f1425ea4200000000000000000000000000000000000000000000000000000000815260040160405180910390fd5b6000819050919050565b6122aa81612297565b82525050565b60006020820190506122c560008301846122a1565b92915050565b6000604051905090565b600080fd5b600080fd5b600063ffffffff82169050919050565b6122f8816122df565b811461230357600080fd5b50565b600081359050612315816122ef565b92915050565b600060208284031215612331576123306122d5565b5b600061233f84828501612306565b91505092915050565b600073ffffffffffffffffffffffffffffffffffffffff82169050919050565b600061237382612348565b9050919050565b61238381612368565b811461238e57600080fd5b50565b6000813590506123a08161237a565b92915050565b6123af81612297565b81146123ba57600080fd5b50565b6000813590506123cc816123a6565b92915050565b600080604083850312156123e9576123e86122d5565b5b60006123f785828601612391565b9250506020612408858286016123bd565b9150509250929050565b6000819050919050565b600061243761243261242d84612348565b612412565b612348565b9050919050565b60006124498261241c565b9050919050565b600061245b8261243e565b9050919050565b61246b81612450565b82525050565b60006020820190506124866000830184612462565b92915050565b60008115159050919050565b6124a18161248c565b81146124ac57600080fd5b50565b6000813590506124be81612498565b92915050565b6000602082840312156124da576124d96122d5565b5b60006124e8848285016124af565b91505092915050565b600080fd5b6000610120828403121561250d5761250c6124f1565b5b81905092915050565b6000819050919050565b61252981612516565b811461253457600080fd5b50565b60008135905061254681612520565b92915050565b600080600060608486031215612565576125646122d5565b5b600084013567ffffffffffffffff811115612583576125826122da565b5b61258f868287016124f6565b93505060206125a086828701612537565b92505060406125b1868287016123bd565b9150509250925092565b600081519050919050565b600082825260208201905092915050565b60005b838110156125f55780820151818401526020810190506125da565b60008484015250505050565b6000601f19601f8301169050919050565b600061261d826125bb565b61262781856125c6565b93506126378185602086016125d7565b61264081612601565b840191505092915050565b600060408201905081810360008301526126658185612612565b905061267460208301846122a1565b9392505050565b6003811061268857600080fd5b50565b60008135905061269a8161267b565b92915050565b600080fd5b600080fd5b600080fd5b60008083601f8401126126c5576126c46126a0565b5b8235905067ffffffffffffffff8111156126e2576126e16126a5565b5b6020830191508360018202830111156126fe576126fd6126aa565b5b9250929050565b600080600080600060808688031215612721576127206122d5565b5b600061272f8882890161268b565b955050602086013567ffffffffffffffff8111156127505761274f6122da565b5b61275c888289016126af565b9450945050604061276f888289016123bd565b9250506060612780888289016123bd565b9150509295509295909350565b600080604083850312156127a4576127a36122d5565b5b60006127b2858286016123bd565b92505060206127c3858286016123bd565b9150509250929050565b60006127d882612348565b9050919050565b6127e8816127cd565b82525050565b600060208201905061280360008301846127df565b92915050565b612812816127cd565b811461281d57600080fd5b50565b60008135905061282f81612809565b92915050565b6000806040838503121561284c5761284b6122d5565b5b600061285a85828601612820565b925050602061286b858286016123bd565b9150509250929050565b600080fd5b7f4e487b7100000000000000000000000000000000000000000000000000000000600052604160045260246000fd5b6128b282612601565b810181811067ffffffffffffffff821117156128d1576128d061287a565b5b80604052505050565b60006128e46122cb565b90506128f082826128a9565b919050565b600062ffffff82169050919050565b61290d816128f5565b811461291857600080fd5b50565b60008135905061292a81612904565b92915050565b600060ff82169050919050565b61294681612930565b811461295157600080fd5b50565b6000813590506129638161293d565b92915050565b60006060828403121561297f5761297e612875565b5b61298960606128da565b90506000612999848285016123bd565b60008301525060206129ad8482850161291b565b60208301525060406129c184828501612954565b60408301525092915050565b6000606082840312156129e3576129e26122d5565b5b60006129f184828501612969565b91505092915050565b6000612a058261243e565b9050919050565b612a15816129fa565b82525050565b6000602082019050612a306000830184612a0c565b92915050565b600060208284031215612a4c57612a4b6122d5565b5b6000612a5a84828501612391565b91505092915050565b60006fffffffffffffffffffffffffffffffff82169050919050565b612a8881612a63565b82525050565b600065ffffffffffff82169050919050565b612aa981612a8e565b82525050565b6000608082019050612ac460008301876122a1565b612ad16020830186612a7f565b612ade6040830185612aa0565b612aeb6060830184612aa0565b95945050505050565b6000602082019050612b096000830184612aa0565b92915050565b6000612b1a8261243e565b9050919050565b612b2a81612b0f565b82525050565b6000602082019050612b456000830184612b21565b92915050565b612b5481612a63565b8114612b5f57600080fd5b50565b600081359050612b7181612b4b565b92915050565b612b8081612a8e565b8114612b8b57600080fd5b50565b600081359050612b9d81612b77565b92915050565b600060808284031215612bb957612bb8612875565b5b612bc360806128da565b90506000612bd3848285016123bd565b6000830152506020612be784828501612b62565b6020830152506040612bfb84828501612b8e565b6040830152506060612c0f84828501612b8e565b60608301525092915050565b600060808284031215612c3157612c306122d5565b5b6000612c3f84828501612ba3565b91505092915050565b600060208284031215612c5e57612c5d6122d5565b5b6000612c6c84828501612820565b91505092915050565b612c7e816122df565b82525050565b6000602082019050612c996000830184612c75565b92915050565b600081905092915050565b50565b6000612cba600083612c9f565b9150612cc582612caa565b600082019050919050565b6000612cdb82612cad565b9150819050919050565b600082825260208201905092915050565b7f7769746864726177206661696c65640000000000000000000000000000000000600082015250565b6000612d2c600f83612ce5565b9150612d3782612cf6565b602082019050919050565b60006020820190508181036000830152612d5b81612d1f565b9050919050565b612d6b81612368565b82525050565b6000604082019050612d866000830185612d62565b612d9360208301846122a1565b9392505050565b7f4e487b7100000000000000000000000000000000000000000000000000000000600052601160045260246000fd5b6000612dd482612297565b9150612ddf83612297565b9250828203905081811115612df757612df6612d9a565b5b92915050565b6000612e0882612297565b9150612e1383612297565b9250828202612e2181612297565b91508282048414831517612e3857612e37612d9a565b5b5092915050565b7f4e487b7100000000000000000000000000000000000000000000000000000000600052601260045260246000fd5b6000612e7982612297565b9150612e8483612297565b925082612e9457612e93612e3f565b5b828204905092915050565b6000612eaa82612297565b9150612eb583612297565b9250828201905080821115612ecd57612ecc612d9a565b5b92915050565b6000612eee612ee9612ee484612a8e565b612412565b612297565b9050919050565b612efe81612ed3565b82525050565b6000606082019050612f1960008301866122a1565b612f2660208301856122a1565b612f336040830184612ef5565b949350505050565b6000602082019050612f506000830184612d62565b92915050565b600081519050612f65816123a6565b92915050565b600060208284031215612f8157612f806122d5565b5b6000612f8f84828501612f56565b91505092915050565b7f54504d3a207072696365206d61726b757020746f6f2068696768000000000000600082015250565b6000612fce601a83612ce5565b9150612fd982612f98565b602082019050919050565b60006020820190508181036000830152612ffd81612fc1565b9050919050565b7f54504d3a207072696365206d61726b757020746f6f206c6f7700000000000000600082015250565b600061303a601983612ce5565b915061304582613004565b602082019050919050565b600060208201905081810360008301526130698161302d565b9050919050565b61307981612297565b82525050565b61308881612a63565b82525050565b61309781612a8e565b82525050565b6080820160008201516130b36000850182613070565b5060208201516130c6602085018261307f565b5060408201516130d9604085018261308e565b5060608201516130ec606085018261308e565b50505050565b6000608082019050613107600083018461309d565b92915050565b600069ffffffffffffffffffff82169050919050565b61312c8161310d565b811461313757600080fd5b50565b60008151905061314981613123565b92915050565b6000819050919050565b6131628161314f565b811461316d57600080fd5b50565b60008151905061317f81613159565b92915050565b600080600080600060a086880312156131a1576131a06122d5565b5b60006131af8882890161313a565b95505060206131c088828901613170565b94505060406131d188828901612f56565b93505060606131e288828901612f56565b92505060806131f38882890161313a565b9150509295509295909350565b7f54504d3a20436861696e6c696e6b207072696365203c3d203000000000000000600082015250565b6000613236601983612ce5565b915061324182613200565b602082019050919050565b6000602082019050818103600083015261326581613229565b9050919050565b7f54504d3a20496e636f6d706c65746520726f756e640000000000000000000000600082015250565b60006132a2601583612ce5565b91506132ad8261326c565b602082019050919050565b600060208201905081810360008301526132d181613295565b9050919050565b7f54504d3a205374616c6520707269636500000000000000000000000000000000600082015250565b600061330e601083612ce5565b9150613319826132d8565b602082019050919050565b6000602082019050818103600083015261333d81613301565b9050919050565b7f53656e646572206e6f7420456e747279506f696e740000000000000000000000600082015250565b600061337a601583612ce5565b915061338582613344565b602082019050919050565b600060208201905081810360008301526133a98161336d565b9050919050565b600080fd5b600080fd5b600080fd5b600080833560016020038436030381126133dc576133db6133b0565b5b80840192508235915067ffffffffffffffff8211156133fe576133fd6133b5565b5b60208301925060018202360383131561341a576134196133ba565b5b509250929050565b7f54504d3a20696e76616c69642064617461206c656e6774680000000000000000600082015250565b6000613458601883612ce5565b915061346382613422565b602082019050919050565b600060208201905081810360008301526134878161344b565b9050919050565b7f54504d3a20706f73744f704761734c696d697420746f6f206c6f770000000000600082015250565b60006134c4601b83612ce5565b91506134cf8261348e565b602082019050919050565b600060208201905081810360008301526134f3816134b7565b9050919050565b600080fd5b600080fd5b60008085851115613518576135176134fa565b5b83861115613529576135286134ff565b5b6001850283019150848603905094509492505050565b600082905092915050565b600082821b905092915050565b6000613563838361353f565b8261356e8135612516565b925060208210156135ae576135a97fffffffffffffffffffffffffffffffffffffffffffffffffffffffffffffffff8360200360080261354a565b831692505b505092915050565b60006040820190506135cb60008301856122a1565b6135d860208301846127df565b9392505050565b600080604083850312156135f6576135f56122d5565b5b6000613604858286016123bd565b925050602061361585828601612391565b9150509250929050565b600060608201905061363460008301866122a1565b61364160208301856122a1565b61364e60408301846122a1565b949350505050565b600060408201905061366b60008301856127df565b61367860208301846122a1565b9392505050565b60007fffffffffffffffffffffffffffffffff0000000000000000000000000000000082169050919050565b60006136b7838361353f565b826136c2813561367f565b92506010821015613702576136fd7fffffffffffffffffffffffffffffffff000000000000000000000000000000008360100360080261354a565b831692505b505092915050565b600060608201905061371f60008301866127df565b61372c60208301856127df565b61373960408301846122a1565b949350505050565b60008151905061375081612498565b92915050565b60006020828403121561376c5761376b6122d5565b5b600061377a84828501613741565b91505092915050565b600061ffff82169050919050565b600061379c82613783565b91506137a783613783565b9250828203905061ffff8111156137c1576137c0612d9a565b5b92915050565b6137d0816127cd565b82525050565b6137df816128f5565b82525050565b6137ee81612348565b82525050565b6101008201600082015161380b60008501826137c7565b50602082015161381e60208501826137c7565b50604082015161383160408501826137d6565b50606082015161384460608501826137c7565b5060808201516138576080850182613070565b5060a082015161386a60a0850182613070565b5060c082015161387d60c0850182613070565b5060e082015161389060e08501826137e5565b50505050565b6000610100820190506138ac60008301846137f4565b92915050565b60006080820190506138c760008301876127df565b6138d460208301866127df565b6138e160408301856122a1565b6138ee60608301846122a1565b95945050505050565b6000613902826125bb565b61390c8185612c9f565b935061391c8185602086016125d7565b80840191505092915050565b600061393482846138f7565b91508190509291505056fea2646970667358221220216a8ea9b2828c4e0fa6a438c0e9edf3f0c064dca18745a1051f7e81d3df0b8c64736f6c634300081a0033","linkReferences":{}},"methodIdentifiers":{"addStake(uint32)":"0396cb60","cachedPrice()":"f60fdcb3","cachedPriceTimestamp()":"e1d8153c","deposit()":"d0e30db0","entryPoint()":"b0d691fe","getDeposit()":"c399ec88","owner()":"8da5cb5b","postOp(uint8,bytes,uint256,uint256)":"7c627b21","renounceOwnership()":"715018a6","setTokenPaymasterConfig((uint256,uint128,uint48,uint48))":"f14d64ed","setUniswapConfiguration((uint256,uint24,uint8))":"a0840fa7","token()":"fc0c546a","tokenPaymasterConfig()":"cb721cfd","tokenToWei(uint256,uint256)":"d7a23b3c","transferOwnership(address)":"f2fde38b","uniswap()":"2681f7e4","unlockStake()":"bb9fe6bf","updateCachedPrice(bool)":"3ba9290f","validatePaymasterUserOp((address,uint256,bytes,bytes,bytes32,uint256,bytes32,bytes,bytes),bytes32,uint256)":"52b7512c","weiToToken(uint256,uint256)":"7c986aac","withdrawEth(address,uint256)":"1b9a91a4","withdrawStake(address)":"c23a5cea","withdrawTo(address,uint256)":"205c2878","withdrawToken(address,uint256)":"9e281a98","wrappedNative()":"eb6d3a11"},"id":28}