{"abi":[{"type":"constructor","inputs":[{"name":"anEntryPoint","type":"address","internalType":"contract IEntryPoint"},{"name":"anAggregator","type":"address","internalType":"address"}],"stateMutability":"nonpayable"},{"type":"receive","stateMutability":"payable"},{"type":"function","name":"UPGRADE_INTERFACE_VERSION","inputs":[],"outputs":[{"name":"","type":"string","internalType":"string"}],"stateMutability":"view"},{"type":"function","name":"addDeposit","inputs":[],"outputs":[],"stateMutability":"payable"},{"type":"function","name":"aggregator","inputs":[],"outputs":[{"name":"","type":"address","internalType":"address"}],"stateMutability":"view"},{"type":"function","name":"entryPoint","inputs":[],"outputs":[{"name":"","type":"address","internalType":"contract IEntryPoint"}],"stateMutability":"view"},{"type":"function","name":"execute","inputs":[{"name":"dest","type":"address","internalType":"address"},{"name":"value","type":"uint256","internalType":"uint256"},{"name":"func","type":"bytes","internalType":"bytes"}],"outputs":[],"stateMutability":"nonpayable"},{"type":"function","name":"executeBatch","inputs":[{"name":"dest","type":"address[]","internalType":"address[]"},{"name":"value","type":"uint256[]","internalType":"uint256[]"},{"name":"func","type":"bytes[]","internalType":"bytes[]"}],"outputs":[],"stateMutability":"nonpayable"},{"type":"function","name":"getBlsPublicKey","inputs":[],"outputs":[{"name":"","type":"uint256[4]","internalType":"uint256[4]"}],"stateMutability":"pure"},{"type":"function","name":"getDeposit","inputs":[],"outputs":[{"name":"","type":"uint256","internalType":"uint256"}],"stateMutability":"view"},{"type":"function","name":"getNonce","inputs":[],"outputs":[{"name":"","type":"uint256","internalType":"uint256"}],"stateMutability":"view"},{"type":"function","name":"initialize","inputs":[{"name":"anOwner","type":"address","internalType":"address"}],"outputs":[],"stateMutability":"nonpayable"},{"type":"function","name":"initialize","inputs":[{"name":"aPublicKey","type":"uint256[4]","internalType":"uint256[4]"}],"outputs":[],"stateMutability":"nonpayable"},{"type":"function","name":"onERC1155BatchReceived","inputs":[{"name":"","type":"address","internalType":"address"},{"name":"","type":"address","internalType":"address"},{"name":"","type":"uint256[]","internalType":"uint256[]"},{"name":"","type":"uint256[]","internalType":"uint256[]"},{"name":"","type":"bytes","internalType":"bytes"}],"outputs":[{"name":"","type":"bytes4","internalType":"bytes4"}],"stateMutability":"pure"},{"type":"function","name":"onERC1155Received","inputs":[{"name":"","type":"address","internalType":"address"},{"name":"","type":"address","internalType":"address"},{"name":"","type":"uint256","internalType":"uint256"},{"name":"","type":"uint256","internalType":"uint256"},{"name":"","type":"bytes","internalType":"bytes"}],"outputs":[{"name":"","type":"bytes4","internalType":"bytes4"}],"stateMutability":"pure"},{"type":"function","name":"onERC721Received","inputs":[{"name":"","type":"address","internalType":"address"},{"name":"","type":"address","internalType":"address"},{"name":"","type":"uint256","internalType":"uint256"},{"name":"","type":"bytes","internalType":"bytes"}],"outputs":[{"name":"","type":"bytes4","internalType":"bytes4"}],"stateMutability":"pure"},{"type":"function","name":"owner","inputs":[],"outputs":[{"name":"","type":"address","internalType":"address"}],"stateMutability":"view"},{"type":"function","name":"proxiableUUID","inputs":[],"outputs":[{"name":"","type":"bytes32","internalType":"bytes32"}],"stateMutability":"view"},{"type":"function","name":"supportsInterface","inputs":[{"name":"interfaceId","type":"bytes4","internalType":"bytes4"}],"outputs":[{"name":"","type":"bool","internalType":"bool"}],"stateMutability":"view"},{"type":"function","name":"upgradeToAndCall","inputs":[{"name":"newImplementation","type":"address","internalType":"address"},{"name":"data","type":"bytes","internalType":"bytes"}],"outputs":[],"stateMutability":"payable"},{"type":"function","name":"validateUserOp","inputs":[{"name":"userOp","type":"tuple","internalType":"struct PackedUserOperation","components":[{"name":"sender","type":"address","internalType":"address"},{"name":"nonce","type":"uint256","internalType":"uint256"},{"name":"initCode","type":"bytes","internalType":"bytes"},{"name":"callData","type":"bytes","internalType":"bytes"},{"name":"accountGasLimits","type":"bytes32","internalType":"bytes32"},{"name":"preVerificationGas","type":"uint256","internalType":"uint256"},{"name":"gasFees","type":"bytes32","internalType":"bytes32"},{"name":"paymasterAndData","type":"bytes","internalType":"bytes"},{"name":"signature","type":"bytes","internalType":"bytes"}]},{"name":"userOpHash","type":"bytes32","internalType":"bytes32"},{"name":"missingAccountFunds","type":"uint256","internalType":"uint256"}],"outputs":[{"name":"validationData","type":"uint256","internalType":"uint256"}],"stateMutability":"nonpayable"},{"type":"function","name":"withdrawDepositTo","inputs":[{"name":"withdrawAddress","type":"address","internalType":"address payable"},{"name":"amount","type":"uint256","internalType":"uint256"}],"outputs":[],"stateMutability":"nonpayable"},{"type":"event","name":"Initialized","inputs":[{"name":"version","type":"uint64","indexed":false,"internalType":"uint64"}],"anonymous":false},{"type":"event","name":"PublicKeyChanged","inputs":[{"name":"oldPublicKey","type":"uint256[4]","indexed":false,"internalType":"uint256[4]"},{"name":"newPublicKey","type":"uint256[4]","indexed":false,"internalType":"uint256[4]"}],"anonymous":false},{"type":"event","name":"SimpleAccountInitialized","inputs":[{"name":"entryPoint","type":"address","indexed":true,"internalType":"contract IEntryPoint"},{"name":"owner","type":"address","indexed":true,"internalType":"address"}],"anonymous":false},{"type":"event","name":"Upgraded","inputs":[{"name":"implementation","type":"address","indexed":true,"internalType":"address"}],"anonymous":false},{"type":"error","name":"AddressEmptyCode","inputs":[{"name":"target","type":"address","internalType":"address"}]},{"type":"error","name":"ERC1967InvalidImplementation","inputs":[{"name":"implementation","type":"address","internalType":"address"}]},{"type":"error","name":"ERC1967NonPayable","inputs":[]},{"type":"error","name":"FailedInnerCall","inputs":[]},{"type":"error","name":"InvalidInitialization","inputs":[]},{"type":"error","name":"NotInitializing","inputs":[]},{"type":"error","name":"UUPSUnauthorizedCallContext","inputs":[]},{"type":"error","name":"UUPSUnsupportedProxiableUUID","inputs":[{"name":"slot","type":"bytes32","internalType":"bytes32"}]}],"bytecode":{"object":"0x60e06040523073ffffffffffffffffffffffffffffffffffffffff1660809073ffffffffffffffffffffffffffffffffffffffff1681525034801561004357600080fd5b50604051612e8c380380612e8c833981810160405281019061006591906102b1565b818073ffffffffffffffffffffffffffffffffffffffff1660a08173ffffffffffffffffffffffffffffffffffffffff16815250506100a86100e460201b60201c565b508073ffffffffffffffffffffffffffffffffffffffff1660c08173ffffffffffffffffffffffffffffffffffffffff1681525050505061032f565b60006100f46101e860201b60201c565b90508060000160089054906101000a900460ff161561013f576040517ff92ee8a900000000000000000000000000000000000000000000000000000000815260040160405180910390fd5b67ffffffffffffffff80168160000160009054906101000a900467ffffffffffffffff1667ffffffffffffffff16146101e55767ffffffffffffffff8160000160006101000a81548167ffffffffffffffff021916908367ffffffffffffffff1602179055507fc7f505b2f371ae2175ee4913f4499e1f2633a7b5936321eed1cdaeb6115181d267ffffffffffffffff6040516101dc9190610314565b60405180910390a15b50565b60007ff0c57e16840df040f15088dc2f81fe391c3923bec73e23a9662efc9c229c6a00905090565b600080fd5b600073ffffffffffffffffffffffffffffffffffffffff82169050919050565b600061024082610215565b9050919050565b600061025282610235565b9050919050565b61026281610247565b811461026d57600080fd5b50565b60008151905061027f81610259565b92915050565b61028e81610235565b811461029957600080fd5b50565b6000815190506102ab81610285565b92915050565b600080604083850312156102c8576102c7610210565b5b60006102d685828601610270565b92505060206102e78582860161029c565b9150509250929050565b600067ffffffffffffffff82169050919050565b61030e816102f1565b82525050565b60006020820190506103296000830184610305565b92915050565b60805160a05160c051612b1261037a6000396000818161062f0152610f86015260008181610a0501526115d70152600081816112a1015281816112f601526114b10152612b126000f3fe6080604052600436106101235760003560e01c8063ad3cb1cc116100a0578063c4d66de811610064578063c4d66de8146103c6578063d087d288146103ef578063e02afbae1461041a578063ee472f3614610445578063f23a6e611461046e5761012a565b8063ad3cb1cc146102df578063b0d691fe1461030a578063b61d27f614610335578063bc197c811461035e578063c399ec881461039b5761012a565b80634a58db19116100e75780634a58db191461023a5780634d44560d146102445780634f1ef2861461026d57806352d1902d146102895780638da5cb5b146102b45761012a565b806301ffc9a71461012f578063150b7a021461016c57806319822f7c146101a9578063245a7bfc146101e657806347e1da2a146102115761012a565b3661012a57005b600080fd5b34801561013b57600080fd5b5061015660048036038101906101519190611a47565b6104ab565b6040516101639190611a8f565b60405180910390f35b34801561017857600080fd5b50610193600480360381019061018e9190611ba3565b6105e5565b6040516101a09190611c3a565b60405180910390f35b3480156101b557600080fd5b506101d060048036038101906101cb9190611cb0565b6105fa565b6040516101dd9190611d2e565b60405180910390f35b3480156101f257600080fd5b506101fb61062d565b6040516102089190611d58565b60405180910390f35b34801561021d57600080fd5b5061023860048036038101906102339190611e75565b610651565b005b61024261085d565b005b34801561025057600080fd5b5061026b60048036038101906102669190611f67565b6108d2565b005b610287600480360381019061028291906120e8565b610952565b005b34801561029557600080fd5b5061029e610971565b6040516102ab9190612153565b60405180910390f35b3480156102c057600080fd5b506102c96109a4565b6040516102d69190611d58565b60405180910390f35b3480156102eb57600080fd5b506102f46109c8565b60405161030191906121ed565b60405180910390f35b34801561031657600080fd5b5061031f610a01565b60405161032c919061226e565b60405180910390f35b34801561034157600080fd5b5061035c60048036038101906103579190612289565b610a29565b005b34801561036a57600080fd5b50610385600480360381019061038091906122fd565b610a86565b6040516103929190611c3a565b60405180910390f35b3480156103a757600080fd5b506103b0610a9e565b6040516103bd9190611d2e565b60405180910390f35b3480156103d257600080fd5b506103ed60048036038101906103e891906123d9565b610b26565b005b3480156103fb57600080fd5b50610404610cb5565b6040516104119190611d2e565b60405180910390f35b34801561042657600080fd5b5061042f610d40565b60405161043c91906124b1565b60405180910390f35b34801561045157600080fd5b5061046c6004803603810190610467919061257d565b610d57565b005b34801561047a57600080fd5b50610495600480360381019061049091906125aa565b610ee7565b6040516104a29190611c3a565b60405180910390f35b60007f150b7a02000000000000000000000000000000000000000000000000000000007bffffffffffffffffffffffffffffffffffffffffffffffffffffffff1916827bffffffffffffffffffffffffffffffffffffffffffffffffffffffff1916148061057657507f4e2312e0000000000000000000000000000000000000000000000000000000007bffffffffffffffffffffffffffffffffffffffffffffffffffffffff1916827bffffffffffffffffffffffffffffffffffffffffffffffffffffffff1916145b806105de57507f01ffc9a7000000000000000000000000000000000000000000000000000000007bffffffffffffffffffffffffffffffffffffffffffffffffffffffff1916827bffffffffffffffffffffffffffffffffffffffffffffffffffffffff1916145b9050919050565b600063150b7a0260e01b905095945050505050565b6000610604610efd565b61060e8484610f74565b905061061d8460200135610fe9565b61062682610fec565b9392505050565b7f000000000000000000000000000000000000000000000000000000000000000081565b610659611088565b81819050868690501480156106815750600084849050148061068057508181905084849050145b5b6106c0576040517f08c379a00000000000000000000000000000000000000000000000000000000081526004016106b790612690565b60405180910390fd5b600084849050036107865760005b86869050811015610780576107738787838181106106ef576106ee6126b0565b5b905060200201602081019061070491906123d9565b6000858585818110610719576107186126b0565b5b905060200281019061072b91906126ee565b8080601f016020809104026020016040519081016040528093929190818152602001838380828437600081840152601f19601f82011690508083019250505050505050611155565b80806001019150506106ce565b50610855565b60005b86869050811015610853576108468787838181106107aa576107a96126b0565b5b90506020020160208101906107bf91906123d9565b8686848181106107d2576107d16126b0565b5b905060200201358585858181106107ec576107eb6126b0565b5b90506020028101906107fe91906126ee565b8080601f016020809104026020016040519081016040528093929190818152602001838380828437600081840152601f19601f82011690508083019250505050505050611155565b8080600101915050610789565b505b505050505050565b610865610a01565b73ffffffffffffffffffffffffffffffffffffffff1663b760faf934306040518363ffffffff1660e01b815260040161089e9190611d58565b6000604051808303818588803b1580156108b757600080fd5b505af11580156108cb573d6000803e3d6000fd5b5050505050565b6108da6111d9565b6108e2610a01565b73ffffffffffffffffffffffffffffffffffffffff1663205c287883836040518363ffffffff1660e01b815260040161091c929190612760565b600060405180830381600087803b15801561093657600080fd5b505af115801561094a573d6000803e3d6000fd5b505050505050565b61095a61129f565b61096382611385565b61096d8282611390565b5050565b600061097b6114af565b7f360894a13ba1a3210667c828492db98dca3e2076cc3735a920a3ca505d382bbc60001b905090565b60008054906101000a900473ffffffffffffffffffffffffffffffffffffffff1681565b6040518060400160405280600581526020017f352e302e3000000000000000000000000000000000000000000000000000000081525081565b60007f0000000000000000000000000000000000000000000000000000000000000000905090565b610a31611088565b610a80848484848080601f016020809104026020016040519081016040528093929190818152602001838380828437600081840152601f19601f82011690508083019250505050505050611155565b50505050565b600063bc197c8160e01b905098975050505050505050565b6000610aa8610a01565b73ffffffffffffffffffffffffffffffffffffffff166370a08231306040518263ffffffff1660e01b8152600401610ae09190611d58565b602060405180830381865afa158015610afd573d6000803e3d6000fd5b505050506040513d601f19601f82011682018060405250810190610b21919061279e565b905090565b6000610b30611536565b905060008160000160089054906101000a900460ff1615905060008260000160009054906101000a900467ffffffffffffffff1690506000808267ffffffffffffffff16148015610b7e5750825b9050600060018367ffffffffffffffff16148015610bb3575060003073ffffffffffffffffffffffffffffffffffffffff163b145b905081158015610bc1575080155b15610bf8576040517ff92ee8a900000000000000000000000000000000000000000000000000000000815260040160405180910390fd5b60018560000160006101000a81548167ffffffffffffffff021916908367ffffffffffffffff1602179055508315610c485760018560000160086101000a81548160ff0219169083151502179055505b610c518661155e565b8315610cad5760008560000160086101000a81548160ff0219169083151502179055507fc7f505b2f371ae2175ee4913f4499e1f2633a7b5936321eed1cdaeb6115181d26001604051610ca4919061281a565b60405180910390a15b505050505050565b6000610cbf610a01565b73ffffffffffffffffffffffffffffffffffffffff166335567e1a3060006040518363ffffffff1660e01b8152600401610cfa929190612894565b602060405180830381865afa158015610d17573d6000803e3d6000fd5b505050506040513d601f19601f82011682018060405250810190610d3b919061279e565b905090565b610d486119b9565b610d506119b9565b8091505090565b6000610d61611536565b905060008160000160089054906101000a900460ff1615905060008260000160009054906101000a900467ffffffffffffffff1690506000808267ffffffffffffffff16148015610daf5750825b9050600060018367ffffffffffffffff16148015610de4575060003073ffffffffffffffffffffffffffffffffffffffff163b145b905081158015610df2575080155b15610e29576040517ff92ee8a900000000000000000000000000000000000000000000000000000000815260040160405180910390fd5b60018560000160006101000a81548167ffffffffffffffff021916908367ffffffffffffffff1602179055508315610e795760018560000160086101000a81548160ff0219169083151502179055505b610e83600061155e565b8315610edf5760008560000160086101000a81548160ff0219169083151502179055507fc7f505b2f371ae2175ee4913f4499e1f2633a7b5936321eed1cdaeb6115181d26001604051610ed6919061281a565b60405180910390a15b505050505050565b600063f23a6e6160e01b90509695505050505050565b610f05610a01565b73ffffffffffffffffffffffffffffffffffffffff163373ffffffffffffffffffffffffffffffffffffffff1614610f72576040517f08c379a0000000000000000000000000000000000000000000000000000000008152600401610f6990612909565b60405180910390fd5b565b6000610fe160405180606001604052807f000000000000000000000000000000000000000000000000000000000000000073ffffffffffffffffffffffffffffffffffffffff168152602001600065ffffffffffff168152602001600065ffffffffffff1681525061163b565b905092915050565b50565b600081146110855760003373ffffffffffffffffffffffffffffffffffffffff16827fffffffffffffffffffffffffffffffffffffffffffffffffffffffffffffffff9060405161103c9061295a565b600060405180830381858888f193505050503d806000811461107a576040519150601f19603f3d011682016040523d82523d6000602084013e61107f565b606091505b50509050505b50565b611090610a01565b73ffffffffffffffffffffffffffffffffffffffff163373ffffffffffffffffffffffffffffffffffffffff161480611114575060008054906101000a900473ffffffffffffffffffffffffffffffffffffffff1673ffffffffffffffffffffffffffffffffffffffff163373ffffffffffffffffffffffffffffffffffffffff16145b611153576040517f08c379a000000000000000000000000000000000000000000000000000000000815260040161114a906129bb565b60405180910390fd5b565b6000808473ffffffffffffffffffffffffffffffffffffffff16848460405161117e9190612a17565b60006040518083038185875af1925050503d80600081146111bb576040519150601f19603f3d011682016040523d82523d6000602084013e6111c0565b606091505b5091509150816111d257805160208201fd5b5050505050565b60008054906101000a900473ffffffffffffffffffffffffffffffffffffffff1673ffffffffffffffffffffffffffffffffffffffff163373ffffffffffffffffffffffffffffffffffffffff16148061125e57503073ffffffffffffffffffffffffffffffffffffffff163373ffffffffffffffffffffffffffffffffffffffff16145b61129d576040517f08c379a000000000000000000000000000000000000000000000000000000000815260040161129490612a7a565b60405180910390fd5b565b7f000000000000000000000000000000000000000000000000000000000000000073ffffffffffffffffffffffffffffffffffffffff163073ffffffffffffffffffffffffffffffffffffffff16148061134c57507f000000000000000000000000000000000000000000000000000000000000000073ffffffffffffffffffffffffffffffffffffffff16611333611683565b73ffffffffffffffffffffffffffffffffffffffff1614155b15611383576040517fe07c8dba00000000000000000000000000000000000000000000000000000000815260040160405180910390fd5b565b61138d6111d9565b50565b8173ffffffffffffffffffffffffffffffffffffffff166352d1902d6040518163ffffffff1660e01b8152600401602060405180830381865afa9250505080156113f857506040513d601f19601f820116820180604052508101906113f59190612aaf565b60015b61143957816040517f4c9c8ce30000000000000000000000000000000000000000000000000000000081526004016114309190611d58565b60405180910390fd5b7f360894a13ba1a3210667c828492db98dca3e2076cc3735a920a3ca505d382bbc60001b81146114a057806040517faa1d49a40000000000000000000000000000000000000000000000000000000081526004016114979190612153565b60405180910390fd5b6114aa83836116da565b505050565b7f000000000000000000000000000000000000000000000000000000000000000073ffffffffffffffffffffffffffffffffffffffff163073ffffffffffffffffffffffffffffffffffffffff1614611534576040517fe07c8dba00000000000000000000000000000000000000000000000000000000815260040160405180910390fd5b565b60007ff0c57e16840df040f15088dc2f81fe391c3923bec73e23a9662efc9c229c6a00905090565b806000806101000a81548173ffffffffffffffffffffffffffffffffffffffff021916908373ffffffffffffffffffffffffffffffffffffffff16021790555060008054906101000a900473ffffffffffffffffffffffffffffffffffffffff1673ffffffffffffffffffffffffffffffffffffffff167f000000000000000000000000000000000000000000000000000000000000000073ffffffffffffffffffffffffffffffffffffffff167f47e55c76e7a6f1fd8996a1da8008c1ea29699cca35e7bcd057f2dec313b6e5de60405160405180910390a350565b600060d0826020015165ffffffffffff16901b60a0836040015165ffffffffffff16901b836000015173ffffffffffffffffffffffffffffffffffffffff1617179050919050565b60006116b17f360894a13ba1a3210667c828492db98dca3e2076cc3735a920a3ca505d382bbc60001b61174d565b60000160009054906101000a900473ffffffffffffffffffffffffffffffffffffffff16905090565b6116e382611757565b8173ffffffffffffffffffffffffffffffffffffffff167fbc7cd75a20ee27fd9adebab32041f755214dbc6bffa90cc0225b39da2e5c2d3b60405160405180910390a26000815111156117405761173a8282611824565b50611749565b6117486118a8565b5b5050565b6000819050919050565b60008173ffffffffffffffffffffffffffffffffffffffff163b036117b357806040517f4c9c8ce30000000000000000000000000000000000000000000000000000000081526004016117aa9190611d58565b60405180910390fd5b806117e07f360894a13ba1a3210667c828492db98dca3e2076cc3735a920a3ca505d382bbc60001b61174d565b60000160006101000a81548173ffffffffffffffffffffffffffffffffffffffff021916908373ffffffffffffffffffffffffffffffffffffffff16021790555050565b60606000808473ffffffffffffffffffffffffffffffffffffffff168460405161184e9190612a17565b600060405180830381855af49150503d8060008114611889576040519150601f19603f3d011682016040523d82523d6000602084013e61188e565b606091505b509150915061189e8583836118e5565b9250505092915050565b60003411156118e3576040517fb398979f00000000000000000000000000000000000000000000000000000000815260040160405180910390fd5b565b6060826118fa576118f582611974565b61196c565b60008251148015611922575060008473ffffffffffffffffffffffffffffffffffffffff163b145b1561196457836040517f9996b31500000000000000000000000000000000000000000000000000000000815260040161195b9190611d58565b60405180910390fd5b81905061196d565b5b9392505050565b6000815111156119875780518082602001fd5b6040517f1425ea4200000000000000000000000000000000000000000000000000000000815260040160405180910390fd5b6040518060800160405280600490602082028036833780820191505090505090565b6000604051905090565b600080fd5b600080fd5b60007fffffffff0000000000000000000000000000000000000000000000000000000082169050919050565b611a24816119ef565b8114611a2f57600080fd5b50565b600081359050611a4181611a1b565b92915050565b600060208284031215611a5d57611a5c6119e5565b5b6000611a6b84828501611a32565b91505092915050565b60008115159050919050565b611a8981611a74565b82525050565b6000602082019050611aa46000830184611a80565b92915050565b600073ffffffffffffffffffffffffffffffffffffffff82169050919050565b6000611ad582611aaa565b9050919050565b611ae581611aca565b8114611af057600080fd5b50565b600081359050611b0281611adc565b92915050565b6000819050919050565b611b1b81611b08565b8114611b2657600080fd5b50565b600081359050611b3881611b12565b92915050565b600080fd5b600080fd5b600080fd5b60008083601f840112611b6357611b62611b3e565b5b8235905067ffffffffffffffff811115611b8057611b7f611b43565b5b602083019150836001820283011115611b9c57611b9b611b48565b5b9250929050565b600080600080600060808688031215611bbf57611bbe6119e5565b5b6000611bcd88828901611af3565b9550506020611bde88828901611af3565b9450506040611bef88828901611b29565b935050606086013567ffffffffffffffff811115611c1057611c0f6119ea565b5b611c1c88828901611b4d565b92509250509295509295909350565b611c34816119ef565b82525050565b6000602082019050611c4f6000830184611c2b565b92915050565b600080fd5b60006101208284031215611c7157611c70611c55565b5b81905092915050565b6000819050919050565b611c8d81611c7a565b8114611c9857600080fd5b50565b600081359050611caa81611c84565b92915050565b600080600060608486031215611cc957611cc86119e5565b5b600084013567ffffffffffffffff811115611ce757611ce66119ea565b5b611cf386828701611c5a565b9350506020611d0486828701611c9b565b9250506040611d1586828701611b29565b9150509250925092565b611d2881611b08565b82525050565b6000602082019050611d436000830184611d1f565b92915050565b611d5281611aca565b82525050565b6000602082019050611d6d6000830184611d49565b92915050565b60008083601f840112611d8957611d88611b3e565b5b8235905067ffffffffffffffff811115611da657611da5611b43565b5b602083019150836020820283011115611dc257611dc1611b48565b5b9250929050565b60008083601f840112611ddf57611dde611b3e565b5b8235905067ffffffffffffffff811115611dfc57611dfb611b43565b5b602083019150836020820283011115611e1857611e17611b48565b5b9250929050565b60008083601f840112611e3557611e34611b3e565b5b8235905067ffffffffffffffff811115611e5257611e51611b43565b5b602083019150836020820283011115611e6e57611e6d611b48565b5b9250929050565b60008060008060008060608789031215611e9257611e916119e5565b5b600087013567ffffffffffffffff811115611eb057611eaf6119ea565b5b611ebc89828a01611d73565b9650965050602087013567ffffffffffffffff811115611edf57611ede6119ea565b5b611eeb89828a01611dc9565b9450945050604087013567ffffffffffffffff811115611f0e57611f0d6119ea565b5b611f1a89828a01611e1f565b92509250509295509295509295565b6000611f3482611aaa565b9050919050565b611f4481611f29565b8114611f4f57600080fd5b50565b600081359050611f6181611f3b565b92915050565b60008060408385031215611f7e57611f7d6119e5565b5b6000611f8c85828601611f52565b9250506020611f9d85828601611b29565b9150509250929050565b600080fd5b6000601f19601f8301169050919050565b7f4e487b7100000000000000000000000000000000000000000000000000000000600052604160045260246000fd5b611ff582611fac565b810181811067ffffffffffffffff8211171561201457612013611fbd565b5b80604052505050565b60006120276119db565b90506120338282611fec565b919050565b600067ffffffffffffffff82111561205357612052611fbd565b5b61205c82611fac565b9050602081019050919050565b82818337600083830152505050565b600061208b61208684612038565b61201d565b9050828152602081018484840111156120a7576120a6611fa7565b5b6120b2848285612069565b509392505050565b600082601f8301126120cf576120ce611b3e565b5b81356120df848260208601612078565b91505092915050565b600080604083850312156120ff576120fe6119e5565b5b600061210d85828601611af3565b925050602083013567ffffffffffffffff81111561212e5761212d6119ea565b5b61213a858286016120ba565b9150509250929050565b61214d81611c7a565b82525050565b60006020820190506121686000830184612144565b92915050565b600081519050919050565b600082825260208201905092915050565b60005b838110156121a857808201518184015260208101905061218d565b60008484015250505050565b60006121bf8261216e565b6121c98185612179565b93506121d981856020860161218a565b6121e281611fac565b840191505092915050565b6000602082019050818103600083015261220781846121b4565b905092915050565b6000819050919050565b600061223461222f61222a84611aaa565b61220f565b611aaa565b9050919050565b600061224682612219565b9050919050565b60006122588261223b565b9050919050565b6122688161224d565b82525050565b6000602082019050612283600083018461225f565b92915050565b600080600080606085870312156122a3576122a26119e5565b5b60006122b187828801611af3565b94505060206122c287828801611b29565b935050604085013567ffffffffffffffff8111156122e3576122e26119ea565b5b6122ef87828801611b4d565b925092505092959194509250565b60008060008060008060008060a0898b03121561231d5761231c6119e5565b5b600061232b8b828c01611af3565b985050602061233c8b828c01611af3565b975050604089013567ffffffffffffffff81111561235d5761235c6119ea565b5b6123698b828c01611dc9565b9650965050606089013567ffffffffffffffff81111561238c5761238b6119ea565b5b6123988b828c01611dc9565b9450945050608089013567ffffffffffffffff8111156123bb576123ba6119ea565b5b6123c78b828c01611b4d565b92509250509295985092959890939650565b6000602082840312156123ef576123ee6119e5565b5b60006123fd84828501611af3565b91505092915050565b600060049050919050565b600081905092915050565b6000819050919050565b61242f81611b08565b82525050565b60006124418383612426565b60208301905092915050565b6000602082019050919050565b61246381612406565b61246d8184612411565b92506124788261241c565b8060005b838110156124a95781516124908782612435565b965061249b8361244d565b92505060018101905061247c565b505050505050565b60006080820190506124c6600083018461245a565b92915050565b600067ffffffffffffffff8211156124e7576124e6611fbd565b5b602082029050919050565b6000612505612500846124cc565b61201d565b9050806020840283018581111561251f5761251e611b48565b5b835b8181101561254857806125348882611b29565b845260208401935050602081019050612521565b5050509392505050565b600082601f83011261256757612566611b3e565b5b60046125748482856124f2565b91505092915050565b600060808284031215612593576125926119e5565b5b60006125a184828501612552565b91505092915050565b60008060008060008060a087890312156125c7576125c66119e5565b5b60006125d589828a01611af3565b96505060206125e689828a01611af3565b95505060406125f789828a01611b29565b945050606061260889828a01611b29565b935050608087013567ffffffffffffffff811115612629576126286119ea565b5b61263589828a01611b4d565b92509250509295509295509295565b7f77726f6e67206172726179206c656e6774687300000000000000000000000000600082015250565b600061267a601383612179565b915061268582612644565b602082019050919050565b600060208201905081810360008301526126a98161266d565b9050919050565b7f4e487b7100000000000000000000000000000000000000000000000000000000600052603260045260246000fd5b600080fd5b600080fd5b600080fd5b6000808335600160200384360303811261270b5761270a6126df565b5b80840192508235915067ffffffffffffffff82111561272d5761272c6126e4565b5b602083019250600182023603831315612749576127486126e9565b5b509250929050565b61275a81611f29565b82525050565b60006040820190506127756000830185612751565b6127826020830184611d1f565b9392505050565b60008151905061279881611b12565b92915050565b6000602082840312156127b4576127b36119e5565b5b60006127c284828501612789565b91505092915050565b6000819050919050565b600067ffffffffffffffff82169050919050565b60006128046127ff6127fa846127cb565b61220f565b6127d5565b9050919050565b612814816127e9565b82525050565b600060208201905061282f600083018461280b565b92915050565b6000819050919050565b600077ffffffffffffffffffffffffffffffffffffffffffffffff82169050919050565b600061287e61287961287484612835565b61220f565b61283f565b9050919050565b61288e81612863565b82525050565b60006040820190506128a96000830185611d49565b6128b66020830184612885565b9392505050565b7f6163636f756e743a206e6f742066726f6d20456e747279506f696e7400000000600082015250565b60006128f3601c83612179565b91506128fe826128bd565b602082019050919050565b60006020820190508181036000830152612922816128e6565b9050919050565b600081905092915050565b50565b6000612944600083612929565b915061294f82612934565b600082019050919050565b600061296582612937565b9150819050919050565b7f6163636f756e743a206e6f74204f776e6572206f7220456e747279506f696e74600082015250565b60006129a5602083612179565b91506129b08261296f565b602082019050919050565b600060208201905081810360008301526129d481612998565b9050919050565b600081519050919050565b60006129f1826129db565b6129fb8185612929565b9350612a0b81856020860161218a565b80840191505092915050565b6000612a2382846129e6565b915081905092915050565b7f6f6e6c79206f776e657200000000000000000000000000000000000000000000600082015250565b6000612a64600a83612179565b9150612a6f82612a2e565b602082019050919050565b60006020820190508181036000830152612a9381612a57565b9050919050565b600081519050612aa981611c84565b92915050565b600060208284031215612ac557612ac46119e5565b5b6000612ad384828501612a9a565b9150509291505056fea26469706673582212207ee8fb9d8651c318b0d846efc10a2dbe916592a01ea2bbc9df0ab2ad039f337d64736f6c634300081a0033","linkReferences":{}},"methodIdentifiers":{"UPGRADE_INTERFACE_VERSION()":"ad3cb1cc","addDeposit()":"4a58db19","aggregator()":"245a7bfc","entryPoint()":"b0d691fe","execute(address,uint256,bytes)":"b61d27f6","executeBatch(address[],uint256[],bytes[])":"47e1da2a","getBlsPublicKey()":"e02afbae","getDeposit()":"c399ec88","getNonce()":"d087d288","initialize(address)":"c4d66de8","initialize(uint256[4])":"ee472f36","onERC1155BatchReceived(address,address,uint256[],uint256[],bytes)":"bc197c81","onERC1155Received(address,address,uint256,uint256,bytes)":"f23a6e61","onERC721Received(address,address,uint256,bytes)":"150b7a02","owner()":"8da5cb5b","proxiableUUID()":"52d1902d","supportsInterface(bytes4)":"01ffc9a7","upgradeToAndCall(address,bytes)":"4f1ef286","validateUserOp((address,uint256,bytes,bytes,bytes32,uint256,bytes32,bytes,bytes),bytes32,uint256)":"19822f7c","withdrawDepositTo(address,uint256)":"4d44560d"},"id":43}