{"abi":[{"type":"constructor","inputs":[{"name":"_entryPoint","type":"address","internalType":"contract IEntryPoint"}],"stateMutability":"nonpayable"},{"type":"function","name":"addStake","inputs":[{"name":"unstakeDelaySec","type":"uint32","internalType":"uint32"}],"outputs":[],"stateMutability":"payable"},{"type":"function","name":"deposit","inputs":[],"outputs":[],"stateMutability":"payable"},{"type":"function","name":"entryPoint","inputs":[],"outputs":[{"name":"","type":"address","internalType":"contract IEntryPoint"}],"stateMutability":"view"},{"type":"function","name":"getDeposit","inputs":[],"outputs":[{"name":"","type":"uint256","internalType":"uint256"}],"stateMutability":"view"},{"type":"function","name":"owner","inputs":[],"outputs":[{"name":"","type":"address","internalType":"address"}],"stateMutability":"view"},{"type":"function","name":"postOp","inputs":[{"name":"mode","type":"uint8","internalType":"enum IPaymaster.PostOpMode"},{"name":"context","type":"bytes","internalType":"bytes"},{"name":"actualGasCost","type":"uint256","internalType":"uint256"},{"name":"actualUserOpFeePerGas","type":"uint256","internalType":"uint256"}],"outputs":[],"stateMutability":"nonpayable"},{"type":"function","name":"renounceOwnership","inputs":[],"outputs":[],"stateMutability":"nonpayable"},{"type":"function","name":"transferOwnership","inputs":[{"name":"newOwner","type":"address","internalType":"address"}],"outputs":[],"stateMutability":"nonpayable"},{"type":"function","name":"unlockStake","inputs":[],"outputs":[],"stateMutability":"nonpayable"},{"type":"function","name":"validatePaymasterUserOp","inputs":[{"name":"userOp","type":"tuple","internalType":"struct PackedUserOperation","components":[{"name":"sender","type":"address","internalType":"address"},{"name":"nonce","type":"uint256","internalType":"uint256"},{"name":"initCode","type":"bytes","internalType":"bytes"},{"name":"callData","type":"bytes","internalType":"bytes"},{"name":"accountGasLimits","type":"bytes32","internalType":"bytes32"},{"name":"preVerificationGas","type":"uint256","internalType":"uint256"},{"name":"gasFees","type":"bytes32","internalType":"bytes32"},{"name":"paymasterAndData","type":"bytes","internalType":"bytes"},{"name":"signature","type":"bytes","internalType":"bytes"}]},{"name":"userOpHash","type":"bytes32","internalType":"bytes32"},{"name":"maxCost","type":"uint256","internalType":"uint256"}],"outputs":[{"name":"context","type":"bytes","internalType":"bytes"},{"name":"validationData","type":"uint256","internalType":"uint256"}],"stateMutability":"nonpayable"},{"type":"function","name":"withdrawStake","inputs":[{"name":"withdrawAddress","type":"address","internalType":"address payable"}],"outputs":[],"stateMutability":"nonpayable"},{"type":"function","name":"withdrawTo","inputs":[{"name":"withdrawAddress","type":"address","internalType":"address payable"},{"name":"amount","type":"uint256","internalType":"uint256"}],"outputs":[],"stateMutability":"nonpayable"},{"type":"event","name":"OwnershipTransferred","inputs":[{"name":"previousOwner","type":"address","indexed":true,"internalType":"address"},{"name":"newOwner","type":"address","indexed":true,"internalType":"address"}],"anonymous":false},{"type":"error","name":"OwnableInvalidOwner","inputs":[{"name":"owner","type":"address","internalType":"address"}]},{"type":"error","name":"OwnableUnauthorizedAccount","inputs":[{"name":"account","type":"address","internalType":"address"}]}],"bytecode":{"object":"0x60a060405234801561001057600080fd5b506040516115a23803806115a283398181016040528101906100329190610358565b8033600073ffffffffffffffffffffffffffffffffffffffff168173ffffffffffffffffffffffffffffffffffffffff16036100a65760006040517f1e4fbdf700000000000000000000000000000000000000000000000000000000815260040161009d9190610394565b60405180910390fd5b6100b58161014360201b60201c565b506100c58161020760201b60201c565b8073ffffffffffffffffffffffffffffffffffffffff1660808173ffffffffffffffffffffffffffffffffffffffff1681525050503373ffffffffffffffffffffffffffffffffffffffff163273ffffffffffffffffffffffffffffffffffffffff161461013d5761013c3261014360201b60201c565b5b506104e7565b60008060009054906101000a900473ffffffffffffffffffffffffffffffffffffffff169050816000806101000a81548173ffffffffffffffffffffffffffffffffffffffff021916908373ffffffffffffffffffffffffffffffffffffffff1602179055508173ffffffffffffffffffffffffffffffffffffffff168173ffffffffffffffffffffffffffffffffffffffff167f8be0079c531659141344cd1fd0a4f28419497f9722a3daafe3b4186f6b6457e060405160405180910390a35050565b8073ffffffffffffffffffffffffffffffffffffffff166301ffc9a77f915074d8000000000000000000000000000000000000000000000000000000006040518263ffffffff1660e01b815260040161026091906103ea565b602060405180830381865afa15801561027d573d6000803e3d6000fd5b505050506040513d601f19601f820116820180604052508101906102a1919061043d565b6102e0576040517f08c379a00000000000000000000000000000000000000000000000000000000081526004016102d7906104c7565b60405180910390fd5b50565b600080fd5b600073ffffffffffffffffffffffffffffffffffffffff82169050919050565b6000610313826102e8565b9050919050565b600061032582610308565b9050919050565b6103358161031a565b811461034057600080fd5b50565b6000815190506103528161032c565b92915050565b60006020828403121561036e5761036d6102e3565b5b600061037c84828501610343565b91505092915050565b61038e81610308565b82525050565b60006020820190506103a96000830184610385565b92915050565b60007fffffffff0000000000000000000000000000000000000000000000000000000082169050919050565b6103e4816103af565b82525050565b60006020820190506103ff60008301846103db565b92915050565b60008115159050919050565b61041a81610405565b811461042557600080fd5b50565b60008151905061043781610411565b92915050565b600060208284031215610453576104526102e3565b5b600061046184828501610428565b91505092915050565b600082825260208201905092915050565b7f49456e747279506f696e7420696e74657266616365206d69736d617463680000600082015250565b60006104b1601e8361046a565b91506104bc8261047b565b602082019050919050565b600060208201905081810360008301526104e0816104a4565b9050919050565b60805161106f6105336000396000818161026d01528181610304015281816104110152818161043d015281816104c701528181610557015281816105f60152610791015261106f6000f3fe6080604052600436106100a75760003560e01c8063b0d691fe11610064578063b0d691fe1461019a578063bb9fe6bf146101c5578063c23a5cea146101dc578063c399ec8814610205578063d0e30db014610230578063f2fde38b1461023a576100a7565b80630396cb60146100ac578063205c2878146100c857806352b7512c146100f1578063715018a61461012f5780637c627b21146101465780638da5cb5b1461016f575b600080fd5b6100c660048036038101906100c1919061098e565b610263565b005b3480156100d457600080fd5b506100ef60048036038101906100ea9190610a4f565b6102fa565b005b3480156100fd57600080fd5b5061011860048036038101906101139190610aea565b610393565b604051610126929190610bf8565b60405180910390f35b34801561013b57600080fd5b506101446103b6565b005b34801561015257600080fd5b5061016d60048036038101906101689190610cb2565b6103ca565b005b34801561017b57600080fd5b506101846103e6565b6040516101919190610d5b565b60405180910390f35b3480156101a657600080fd5b506101af61040f565b6040516101bc9190610dd5565b60405180910390f35b3480156101d157600080fd5b506101da610433565b005b3480156101e857600080fd5b5061020360048036038101906101fe9190610df0565b6104bd565b005b34801561021157600080fd5b5061021a610553565b6040516102279190610e1d565b60405180910390f35b6102386105f4565b005b34801561024657600080fd5b50610261600480360381019061025c9190610e64565b610682565b005b61026b610708565b7f000000000000000000000000000000000000000000000000000000000000000073ffffffffffffffffffffffffffffffffffffffff16630396cb6034836040518363ffffffff1660e01b81526004016102c59190610ea0565b6000604051808303818588803b1580156102de57600080fd5b505af11580156102f2573d6000803e3d6000fd5b505050505050565b610302610708565b7f000000000000000000000000000000000000000000000000000000000000000073ffffffffffffffffffffffffffffffffffffffff1663205c287883836040518363ffffffff1660e01b815260040161035d929190610eca565b600060405180830381600087803b15801561037757600080fd5b505af115801561038b573d6000803e3d6000fd5b505050505050565b6060600061039f61078f565b6103aa85858561081f565b91509150935093915050565b6103be610708565b6103c86000610841565b565b6103d261078f565b6103df8585858585610905565b5050505050565b60008060009054906101000a900473ffffffffffffffffffffffffffffffffffffffff16905090565b7f000000000000000000000000000000000000000000000000000000000000000081565b61043b610708565b7f000000000000000000000000000000000000000000000000000000000000000073ffffffffffffffffffffffffffffffffffffffff1663bb9fe6bf6040518163ffffffff1660e01b8152600401600060405180830381600087803b1580156104a357600080fd5b505af11580156104b7573d6000803e3d6000fd5b50505050565b6104c5610708565b7f000000000000000000000000000000000000000000000000000000000000000073ffffffffffffffffffffffffffffffffffffffff1663c23a5cea826040518263ffffffff1660e01b815260040161051e9190610ef3565b600060405180830381600087803b15801561053857600080fd5b505af115801561054c573d6000803e3d6000fd5b5050505050565b60007f000000000000000000000000000000000000000000000000000000000000000073ffffffffffffffffffffffffffffffffffffffff166370a08231306040518263ffffffff1660e01b81526004016105ae9190610d5b565b602060405180830381865afa1580156105cb573d6000803e3d6000fd5b505050506040513d601f19601f820116820180604052508101906105ef9190610f23565b905090565b7f000000000000000000000000000000000000000000000000000000000000000073ffffffffffffffffffffffffffffffffffffffff1663b760faf934306040518363ffffffff1660e01b815260040161064e9190610d5b565b6000604051808303818588803b15801561066757600080fd5b505af115801561067b573d6000803e3d6000fd5b5050505050565b61068a610708565b600073ffffffffffffffffffffffffffffffffffffffff168173ffffffffffffffffffffffffffffffffffffffff16036106fc5760006040517f1e4fbdf70000000000000000000000000000000000000000000000000000000081526004016106f39190610d5b565b60405180910390fd5b61070581610841565b50565b610710610940565b73ffffffffffffffffffffffffffffffffffffffff1661072e6103e6565b73ffffffffffffffffffffffffffffffffffffffff161461078d57610751610940565b6040517f118cdaa70000000000000000000000000000000000000000000000000000000081526004016107849190610d5b565b60405180910390fd5b565b7f000000000000000000000000000000000000000000000000000000000000000073ffffffffffffffffffffffffffffffffffffffff163373ffffffffffffffffffffffffffffffffffffffff161461081d576040517f08c379a000000000000000000000000000000000000000000000000000000000815260040161081490610fad565b60405180910390fd5b565b6060600080604051806020016040528060008152509091509150935093915050565b60008060009054906101000a900473ffffffffffffffffffffffffffffffffffffffff169050816000806101000a81548173ffffffffffffffffffffffffffffffffffffffff021916908373ffffffffffffffffffffffffffffffffffffffff1602179055508173ffffffffffffffffffffffffffffffffffffffff168173ffffffffffffffffffffffffffffffffffffffff167f8be0079c531659141344cd1fd0a4f28419497f9722a3daafe3b4186f6b6457e060405160405180910390a35050565b6040517f08c379a000000000000000000000000000000000000000000000000000000000815260040161093790611019565b60405180910390fd5b600033905090565b600080fd5b600080fd5b600063ffffffff82169050919050565b61096b81610952565b811461097657600080fd5b50565b60008135905061098881610962565b92915050565b6000602082840312156109a4576109a3610948565b5b60006109b284828501610979565b91505092915050565b600073ffffffffffffffffffffffffffffffffffffffff82169050919050565b60006109e6826109bb565b9050919050565b6109f6816109db565b8114610a0157600080fd5b50565b600081359050610a13816109ed565b92915050565b6000819050919050565b610a2c81610a19565b8114610a3757600080fd5b50565b600081359050610a4981610a23565b92915050565b60008060408385031215610a6657610a65610948565b5b6000610a7485828601610a04565b9250506020610a8585828601610a3a565b9150509250929050565b600080fd5b60006101208284031215610aab57610aaa610a8f565b5b81905092915050565b6000819050919050565b610ac781610ab4565b8114610ad257600080fd5b50565b600081359050610ae481610abe565b92915050565b600080600060608486031215610b0357610b02610948565b5b600084013567ffffffffffffffff811115610b2157610b2061094d565b5b610b2d86828701610a94565b9350506020610b3e86828701610ad5565b9250506040610b4f86828701610a3a565b9150509250925092565b600081519050919050565b600082825260208201905092915050565b60005b83811015610b93578082015181840152602081019050610b78565b60008484015250505050565b6000601f19601f8301169050919050565b6000610bbb82610b59565b610bc58185610b64565b9350610bd5818560208601610b75565b610bde81610b9f565b840191505092915050565b610bf281610a19565b82525050565b60006040820190508181036000830152610c128185610bb0565b9050610c216020830184610be9565b9392505050565b60038110610c3557600080fd5b50565b600081359050610c4781610c28565b92915050565b600080fd5b600080fd5b600080fd5b60008083601f840112610c7257610c71610c4d565b5b8235905067ffffffffffffffff811115610c8f57610c8e610c52565b5b602083019150836001820283011115610cab57610caa610c57565b5b9250929050565b600080600080600060808688031215610cce57610ccd610948565b5b6000610cdc88828901610c38565b955050602086013567ffffffffffffffff811115610cfd57610cfc61094d565b5b610d0988828901610c5c565b94509450506040610d1c88828901610a3a565b9250506060610d2d88828901610a3a565b9150509295509295909350565b6000610d45826109bb565b9050919050565b610d5581610d3a565b82525050565b6000602082019050610d706000830184610d4c565b92915050565b6000819050919050565b6000610d9b610d96610d91846109bb565b610d76565b6109bb565b9050919050565b6000610dad82610d80565b9050919050565b6000610dbf82610da2565b9050919050565b610dcf81610db4565b82525050565b6000602082019050610dea6000830184610dc6565b92915050565b600060208284031215610e0657610e05610948565b5b6000610e1484828501610a04565b91505092915050565b6000602082019050610e326000830184610be9565b92915050565b610e4181610d3a565b8114610e4c57600080fd5b50565b600081359050610e5e81610e38565b92915050565b600060208284031215610e7a57610e79610948565b5b6000610e8884828501610e4f565b91505092915050565b610e9a81610952565b82525050565b6000602082019050610eb56000830184610e91565b92915050565b610ec4816109db565b82525050565b6000604082019050610edf6000830185610ebb565b610eec6020830184610be9565b9392505050565b6000602082019050610f086000830184610ebb565b92915050565b600081519050610f1d81610a23565b92915050565b600060208284031215610f3957610f38610948565b5b6000610f4784828501610f0e565b91505092915050565b600082825260208201905092915050565b7f53656e646572206e6f7420456e747279506f696e740000000000000000000000600082015250565b6000610f97601583610f50565b9150610fa282610f61565b602082019050919050565b60006020820190508181036000830152610fc681610f8a565b9050919050565b7f6d757374206f7665727269646500000000000000000000000000000000000000600082015250565b6000611003600d83610f50565b915061100e82610fcd565b602082019050919050565b6000602082019050818103600083015261103281610ff6565b905091905056fea26469706673582212200b0cd26b4e8515cf8059316bfaaa967e85387adfadf82e0655ac60c37589d19064736f6c634300081a0033","linkReferences":{}},"methodIdentifiers":{"addStake(uint32)":"0396cb60","deposit()":"d0e30db0","entryPoint()":"b0d691fe","getDeposit()":"c399ec88","owner()":"8da5cb5b","postOp(uint8,bytes,uint256,uint256)":"7c627b21","renounceOwnership()":"715018a6","transferOwnership(address)":"f2fde38b","unlockStake()":"bb9fe6bf","validatePaymasterUserOp((address,uint256,bytes,bytes,bytes32,uint256,bytes32,bytes,bytes),bytes32,uint256)":"52b7512c","withdrawStake(address)":"c23a5cea","withdrawTo(address,uint256)":"205c2878"},"id":54}