{"abi":[{"type":"constructor","inputs":[{"name":"accountFactory","type":"address","internalType":"address"},{"name":"_symbol","type":"string","internalType":"string"},{"name":"_entryPoint","type":"address","internalType":"contract IEntryPoint"}],"stateMutability":"nonpayable"},{"type":"function","name":"COST_OF_POST","inputs":[],"outputs":[{"name":"","type":"uint256","internalType":"uint256"}],"stateMutability":"view"},{"type":"function","name":"addStake","inputs":[{"name":"unstakeDelaySec","type":"uint32","internalType":"uint32"}],"outputs":[],"stateMutability":"payable"},{"type":"function","name":"allowance","inputs":[{"name":"owner","type":"address","internalType":"address"},{"name":"spender","type":"address","internalType":"address"}],"outputs":[{"name":"","type":"uint256","internalType":"uint256"}],"stateMutability":"view"},{"type":"function","name":"approve","inputs":[{"name":"spender","type":"address","internalType":"address"},{"name":"value","type":"uint256","internalType":"uint256"}],"outputs":[{"name":"","type":"bool","internalType":"bool"}],"stateMutability":"nonpayable"},{"type":"function","name":"balanceOf","inputs":[{"name":"account","type":"address","internalType":"address"}],"outputs":[{"name":"","type":"uint256","internalType":"uint256"}],"stateMutability":"view"},{"type":"function","name":"decimals","inputs":[],"outputs":[{"name":"","type":"uint8","internalType":"uint8"}],"stateMutability":"view"},{"type":"function","name":"deposit","inputs":[],"outputs":[],"stateMutability":"payable"},{"type":"function","name":"entryPoint","inputs":[],"outputs":[{"name":"","type":"address","internalType":"contract IEntryPoint"}],"stateMutability":"view"},{"type":"function","name":"getDeposit","inputs":[],"outputs":[{"name":"","type":"uint256","internalType":"uint256"}],"stateMutability":"view"},{"type":"function","name":"mintTokens","inputs":[{"name":"recipient","type":"address","internalType":"address"},{"name":"amount","type":"uint256","internalType":"uint256"}],"outputs":[],"stateMutability":"nonpayable"},{"type":"function","name":"name","inputs":[],"outputs":[{"name":"","type":"string","internalType":"string"}],"stateMutability":"view"},{"type":"function","name":"owner","inputs":[],"outputs":[{"name":"","type":"address","internalType":"address"}],"stateMutability":"view"},{"type":"function","name":"postOp","inputs":[{"name":"mode","type":"uint8","internalType":"enum IPaymaster.PostOpMode"},{"name":"context","type":"bytes","internalType":"bytes"},{"name":"actualGasCost","type":"uint256","internalType":"uint256"},{"name":"actualUserOpFeePerGas","type":"uint256","internalType":"uint256"}],"outputs":[],"stateMutability":"nonpayable"},{"type":"function","name":"renounceOwnership","inputs":[],"outputs":[],"stateMutability":"nonpayable"},{"type":"function","name":"symbol","inputs":[],"outputs":[{"name":"","type":"string","internalType":"string"}],"stateMutability":"view"},{"type":"function","name":"theFactory","inputs":[],"outputs":[{"name":"","type":"address","internalType":"address"}],"stateMutability":"view"},{"type":"function","name":"totalSupply","inputs":[],"outputs":[{"name":"","type":"uint256","internalType":"uint256"}],"stateMutability":"view"},{"type":"function","name":"transfer","inputs":[{"name":"to","type":"address","internalType":"address"},{"name":"value","type":"uint256","internalType":"uint256"}],"outputs":[{"name":"","type":"bool","internalType":"bool"}],"stateMutability":"nonpayable"},{"type":"function","name":"transferFrom","inputs":[{"name":"from","type":"address","internalType":"address"},{"name":"to","type":"address","internalType":"address"},{"name":"value","type":"uint256","internalType":"uint256"}],"outputs":[{"name":"","type":"bool","internalType":"bool"}],"stateMutability":"nonpayable"},{"type":"function","name":"transferOwnership","inputs":[{"name":"newOwner","type":"address","internalType":"address"}],"outputs":[],"stateMutability":"nonpayable"},{"type":"function","name":"unlockStake","inputs":[],"outputs":[],"stateMutability":"nonpayable"},{"type":"function","name":"validatePaymasterUserOp","inputs":[{"name":"userOp","type":"tuple","internalType":"struct PackedUserOperation","components":[{"name":"sender","type":"address","internalType":"address"},{"name":"nonce","type":"uint256","internalType":"uint256"},{"name":"initCode","type":"bytes","internalType":"bytes"},{"name":"callData","type":"bytes","internalType":"bytes"},{"name":"accountGasLimits","type":"bytes32","internalType":"bytes32"},{"name":"preVerificationGas","type":"uint256","internalType":"uint256"},{"name":"gasFees","type":"bytes32","internalType":"bytes32"},{"name":"paymasterAndData","type":"bytes","internalType":"bytes"},{"name":"signature","type":"bytes","internalType":"bytes"}]},{"name":"userOpHash","type":"bytes32","internalType":"bytes32"},{"name":"maxCost","type":"uint256","internalType":"uint256"}],"outputs":[{"name":"context","type":"bytes","internalType":"bytes"},{"name":"validationData","type":"uint256","internalType":"uint256"}],"stateMutability":"nonpayable"},{"type":"function","name":"withdrawStake","inputs":[{"name":"withdrawAddress","type":"address","internalType":"address payable"}],"outputs":[],"stateMutability":"nonpayable"},{"type":"function","name":"withdrawTo","inputs":[{"name":"withdrawAddress","type":"address","internalType":"address payable"},{"name":"amount","type":"uint256","internalType":"uint256"}],"outputs":[],"stateMutability":"nonpayable"},{"type":"event","name":"Approval","inputs":[{"name":"owner","type":"address","indexed":true,"internalType":"address"},{"name":"spender","type":"address","indexed":true,"internalType":"address"},{"name":"value","type":"uint256","indexed":false,"internalType":"uint256"}],"anonymous":false},{"type":"event","name":"OwnershipTransferred","inputs":[{"name":"previousOwner","type":"address","indexed":true,"internalType":"address"},{"name":"newOwner","type":"address","indexed":true,"internalType":"address"}],"anonymous":false},{"type":"event","name":"Transfer","inputs":[{"name":"from","type":"address","indexed":true,"internalType":"address"},{"name":"to","type":"address","indexed":true,"internalType":"address"},{"name":"value","type":"uint256","indexed":false,"internalType":"uint256"}],"anonymous":false},{"type":"error","name":"ERC20InsufficientAllowance","inputs":[{"name":"spender","type":"address","internalType":"address"},{"name":"allowance","type":"uint256","internalType":"uint256"},{"name":"needed","type":"uint256","internalType":"uint256"}]},{"type":"error","name":"ERC20InsufficientBalance","inputs":[{"name":"sender","type":"address","internalType":"address"},{"name":"balance","type":"uint256","internalType":"uint256"},{"name":"needed","type":"uint256","internalType":"uint256"}]},{"type":"error","name":"ERC20InvalidApprover","inputs":[{"name":"approver","type":"address","internalType":"address"}]},{"type":"error","name":"ERC20InvalidReceiver","inputs":[{"name":"receiver","type":"address","internalType":"address"}]},{"type":"error","name":"ERC20InvalidSender","inputs":[{"name":"sender","type":"address","internalType":"address"}]},{"type":"error","name":"ERC20InvalidSpender","inputs":[{"name":"spender","type":"address","internalType":"address"}]},{"type":"error","name":"OwnableInvalidOwner","inputs":[{"name":"owner","type":"address","internalType":"address"}]},{"type":"error","name":"OwnableUnauthorizedAccount","inputs":[{"name":"account","type":"address","internalType":"address"}]}],"bytecode":{"object":"0x60c060405234801561001057600080fd5b506040516135e13803806135e1833981810160405281019061003291906109ec565b81828233600073ffffffffffffffffffffffffffffffffffffffff168173ffffffffffffffffffffffffffffffffffffffff16036100a85760006040517f1e4fbdf700000000000000000000000000000000000000000000000000000000815260040161009f9190610a6a565b60405180910390fd5b6100b78161019c60201b60201c565b506100c78161026060201b60201c565b8073ffffffffffffffffffffffffffffffffffffffff1660808173ffffffffffffffffffffffffffffffffffffffff168152505050816004908161010b9190610ca6565b50806005908161011b9190610ca6565b5050508273ffffffffffffffffffffffffffffffffffffffff1660a08173ffffffffffffffffffffffffffffffffffffffff168152505061016330600161033c60201b60201c565b61019430337fffffffffffffffffffffffffffffffffffffffffffffffffffffffffffffffff6103c460201b60201c565b505050610f74565b60008060009054906101000a900473ffffffffffffffffffffffffffffffffffffffff169050816000806101000a81548173ffffffffffffffffffffffffffffffffffffffff021916908373ffffffffffffffffffffffffffffffffffffffff1602179055508173ffffffffffffffffffffffffffffffffffffffff168173ffffffffffffffffffffffffffffffffffffffff167f8be0079c531659141344cd1fd0a4f28419497f9722a3daafe3b4186f6b6457e060405160405180910390a35050565b8073ffffffffffffffffffffffffffffffffffffffff166301ffc9a77f915074d8000000000000000000000000000000000000000000000000000000006040518263ffffffff1660e01b81526004016102b99190610db3565b602060405180830381865afa1580156102d6573d6000803e3d6000fd5b505050506040513d601f19601f820116820180604052508101906102fa9190610e06565b610339576040517f08c379a000000000000000000000000000000000000000000000000000000000815260040161033090610e90565b60405180910390fd5b50565b600073ffffffffffffffffffffffffffffffffffffffff168273ffffffffffffffffffffffffffffffffffffffff16036103ae5760006040517fec442f050000000000000000000000000000000000000000000000000000000081526004016103a59190610a6a565b60405180910390fd5b6103c0600083836103dc60201b60201c565b5050565b6103d7838383600161060460201b60201c565b505050565b600073ffffffffffffffffffffffffffffffffffffffff168373ffffffffffffffffffffffffffffffffffffffff160361042e5780600360008282546104229190610edf565b92505081905550610503565b6000600160008573ffffffffffffffffffffffffffffffffffffffff1673ffffffffffffffffffffffffffffffffffffffff168152602001908152602001600020549050818110156104bb578381836040517fe450d38c0000000000000000000000000000000000000000000000000000000081526004016104b293929190610f22565b60405180910390fd5b818103600160008673ffffffffffffffffffffffffffffffffffffffff1673ffffffffffffffffffffffffffffffffffffffff16815260200190815260200160002081905550505b600073ffffffffffffffffffffffffffffffffffffffff168273ffffffffffffffffffffffffffffffffffffffff160361054c578060036000828254039250508190555061059a565b80600160008473ffffffffffffffffffffffffffffffffffffffff1673ffffffffffffffffffffffffffffffffffffffff168152602001908152602001600020600082825401925050819055505b8173ffffffffffffffffffffffffffffffffffffffff168373ffffffffffffffffffffffffffffffffffffffff167fddf252ad1be2c89b69c2b068fc378daa952ba7f163c4a11628f55a4df523b3ef836040516105f79190610f59565b60405180910390a3505050565b600073ffffffffffffffffffffffffffffffffffffffff168473ffffffffffffffffffffffffffffffffffffffff16036106765760006040517fe602df0500000000000000000000000000000000000000000000000000000000815260040161066d9190610a6a565b60405180910390fd5b600073ffffffffffffffffffffffffffffffffffffffff168373ffffffffffffffffffffffffffffffffffffffff16036106e85760006040517f94280d620000000000000000000000000000000000000000000000000000000081526004016106df9190610a6a565b60405180910390fd5b81600260008673ffffffffffffffffffffffffffffffffffffffff1673ffffffffffffffffffffffffffffffffffffffff16815260200190815260200160002060008573ffffffffffffffffffffffffffffffffffffffff1673ffffffffffffffffffffffffffffffffffffffff1681526020019081526020016000208190555080156107d5578273ffffffffffffffffffffffffffffffffffffffff168473ffffffffffffffffffffffffffffffffffffffff167f8c5be1e5ebec7d5bd14f71427d1e84f3dd0314c0f7b2291e5b200ac8c7c3b925846040516107cc9190610f59565b60405180910390a35b50505050565b6000604051905090565b600080fd5b600080fd5b600073ffffffffffffffffffffffffffffffffffffffff82169050919050565b600061081a826107ef565b9050919050565b61082a8161080f565b811461083557600080fd5b50565b60008151905061084781610821565b92915050565b600080fd5b600080fd5b6000601f19601f8301169050919050565b7f4e487b7100000000000000000000000000000000000000000000000000000000600052604160045260246000fd5b6108a082610857565b810181811067ffffffffffffffff821117156108bf576108be610868565b5b80604052505050565b60006108d26107db565b90506108de8282610897565b919050565b600067ffffffffffffffff8211156108fe576108fd610868565b5b61090782610857565b9050602081019050919050565b60005b83811015610932578082015181840152602081019050610917565b60008484015250505050565b600061095161094c846108e3565b6108c8565b90508281526020810184848401111561096d5761096c610852565b5b610978848285610914565b509392505050565b600082601f8301126109955761099461084d565b5b81516109a584826020860161093e565b91505092915050565b60006109b98261080f565b9050919050565b6109c9816109ae565b81146109d457600080fd5b50565b6000815190506109e6816109c0565b92915050565b600080600060608486031215610a0557610a046107e5565b5b6000610a1386828701610838565b935050602084015167ffffffffffffffff811115610a3457610a336107ea565b5b610a4086828701610980565b9250506040610a51868287016109d7565b9150509250925092565b610a648161080f565b82525050565b6000602082019050610a7f6000830184610a5b565b92915050565b600081519050919050565b7f4e487b7100000000000000000000000000000000000000000000000000000000600052602260045260246000fd5b60006002820490506001821680610ad757607f821691505b602082108103610aea57610ae9610a90565b5b50919050565b60008190508160005260206000209050919050565b60006020601f8301049050919050565b600082821b905092915050565b600060088302610b527fffffffffffffffffffffffffffffffffffffffffffffffffffffffffffffffff82610b15565b610b5c8683610b15565b95508019841693508086168417925050509392505050565b6000819050919050565b6000819050919050565b6000610ba3610b9e610b9984610b74565b610b7e565b610b74565b9050919050565b6000819050919050565b610bbd83610b88565b610bd1610bc982610baa565b848454610b22565b825550505050565b600090565b610be6610bd9565b610bf1818484610bb4565b505050565b5b81811015610c1557610c0a600082610bde565b600181019050610bf7565b5050565b601f821115610c5a57610c2b81610af0565b610c3484610b05565b81016020851015610c43578190505b610c57610c4f85610b05565b830182610bf6565b50505b505050565b600082821c905092915050565b6000610c7d60001984600802610c5f565b1980831691505092915050565b6000610c968383610c6c565b9150826002028217905092915050565b610caf82610a85565b67ffffffffffffffff811115610cc857610cc7610868565b5b610cd28254610abf565b610cdd828285610c19565b600060209050601f831160018114610d105760008415610cfe578287015190505b610d088582610c8a565b865550610d70565b601f198416610d1e86610af0565b60005b82811015610d4657848901518255600182019150602085019450602081019050610d21565b86831015610d635784890151610d5f601f891682610c6c565b8355505b6001600288020188555050505b505050505050565b60007fffffffff0000000000000000000000000000000000000000000000000000000082169050919050565b610dad81610d78565b82525050565b6000602082019050610dc86000830184610da4565b92915050565b60008115159050919050565b610de381610dce565b8114610dee57600080fd5b50565b600081519050610e0081610dda565b92915050565b600060208284031215610e1c57610e1b6107e5565b5b6000610e2a84828501610df1565b91505092915050565b600082825260208201905092915050565b7f49456e747279506f696e7420696e74657266616365206d69736d617463680000600082015250565b6000610e7a601e83610e33565b9150610e8582610e44565b602082019050919050565b60006020820190508181036000830152610ea981610e6d565b9050919050565b7f4e487b7100000000000000000000000000000000000000000000000000000000600052601160045260246000fd5b6000610eea82610b74565b9150610ef583610b74565b9250828201905080821115610f0d57610f0c610eb0565b5b92915050565b610f1c81610b74565b82525050565b6000606082019050610f376000830186610a5b565b610f446020830185610f13565b610f516040830184610f13565b949350505050565b6000602082019050610f6e6000830184610f13565b92915050565b60805160a051612610610fd1600039600081816108e9015261177c01526000818161056d015281816106c3015281816109300152818161095c015281816109e601528181610a7601528181610b150152610ebb01526126106000f3fe60806040526004361061014b5760003560e01c80638da5cb5b116100b6578063c23a5cea1161006f578063c23a5cea14610476578063c399ec881461049f578063d0e30db0146104ca578063dd62ed3e146104d4578063f0dda65c14610511578063f2fde38b1461053a5761014b565b80638da5cb5b1461037657806395d89b41146103a15780639f5ca221146103cc578063a9059cbb146103f7578063b0d691fe14610434578063bb9fe6bf1461045f5761014b565b8063313ce56711610108578063313ce5671461026557806352b7512c1461029057806370a08231146102ce578063715018a61461030b578063796d4371146103225780637c627b211461034d5761014b565b80630396cb601461015057806306fdde031461016c578063095ea7b31461019757806318160ddd146101d4578063205c2878146101ff57806323b872dd14610228575b600080fd5b61016a60048036038101906101659190611852565b610563565b005b34801561017857600080fd5b506101816105fa565b60405161018e919061190f565b60405180910390f35b3480156101a357600080fd5b506101be60048036038101906101b991906119c5565b61068c565b6040516101cb9190611a20565b60405180910390f35b3480156101e057600080fd5b506101e96106af565b6040516101f69190611a4a565b60405180910390f35b34801561020b57600080fd5b5061022660048036038101906102219190611aa3565b6106b9565b005b34801561023457600080fd5b5061024f600480360381019061024a9190611ae3565b610752565b60405161025c9190611a20565b60405180910390f35b34801561027157600080fd5b5061027a610781565b6040516102879190611b52565b60405180910390f35b34801561029c57600080fd5b506102b760048036038101906102b29190611bc8565b61078a565b6040516102c5929190611c8c565b60405180910390f35b3480156102da57600080fd5b506102f560048036038101906102f09190611cbc565b6107ad565b6040516103029190611a4a565b60405180910390f35b34801561031757600080fd5b506103206107f6565b005b34801561032e57600080fd5b5061033761080a565b6040516103449190611a4a565b60405180910390f35b34801561035957600080fd5b50610374600480360381019061036f9190611d73565b610810565b005b34801561038257600080fd5b5061038b61082c565b6040516103989190611e0a565b60405180910390f35b3480156103ad57600080fd5b506103b6610855565b6040516103c3919061190f565b60405180910390f35b3480156103d857600080fd5b506103e16108e7565b6040516103ee9190611e0a565b60405180910390f35b34801561040357600080fd5b5061041e600480360381019061041991906119c5565b61090b565b60405161042b9190611a20565b60405180910390f35b34801561044057600080fd5b5061044961092e565b6040516104569190611e84565b60405180910390f35b34801561046b57600080fd5b50610474610952565b005b34801561048257600080fd5b5061049d60048036038101906104989190611e9f565b6109dc565b005b3480156104ab57600080fd5b506104b4610a72565b6040516104c19190611a4a565b60405180910390f35b6104d2610b13565b005b3480156104e057600080fd5b506104fb60048036038101906104f69190611ecc565b610ba1565b6040516105089190611a4a565b60405180910390f35b34801561051d57600080fd5b50610538600480360381019061053391906119c5565b610c28565b005b34801561054657600080fd5b50610561600480360381019061055c9190611cbc565b610c3e565b005b61056b610c90565b7f000000000000000000000000000000000000000000000000000000000000000073ffffffffffffffffffffffffffffffffffffffff16630396cb6034836040518363ffffffff1660e01b81526004016105c59190611f1b565b6000604051808303818588803b1580156105de57600080fd5b505af11580156105f2573d6000803e3d6000fd5b505050505050565b60606004805461060990611f65565b80601f016020809104026020016040519081016040528092919081815260200182805461063590611f65565b80156106825780601f1061065757610100808354040283529160200191610682565b820191906000526020600020905b81548152906001019060200180831161066557829003601f168201915b5050505050905090565b600080610697610d17565b90506106a4818585610d1f565b600191505092915050565b6000600354905090565b6106c1610c90565b7f000000000000000000000000000000000000000000000000000000000000000073ffffffffffffffffffffffffffffffffffffffff1663205c287883836040518363ffffffff1660e01b815260040161071c929190611fa5565b600060405180830381600087803b15801561073657600080fd5b505af115801561074a573d6000803e3d6000fd5b505050505050565b60008061075d610d17565b905061076a858285610d31565b610775858585610dc5565b60019150509392505050565b60006012905090565b60606000610796610eb9565b6107a1858585610f49565b91509150935093915050565b6000600160008373ffffffffffffffffffffffffffffffffffffffff1673ffffffffffffffffffffffffffffffffffffffff168152602001908152602001600020549050919050565b6107fe610c90565b61080860006110ce565b565b613a9881565b610818610eb9565b6108258585858585611192565b5050505050565b60008060009054906101000a900473ffffffffffffffffffffffffffffffffffffffff16905090565b60606005805461086490611f65565b80601f016020809104026020016040519081016040528092919081815260200182805461089090611f65565b80156108dd5780601f106108b2576101008083540402835291602001916108dd565b820191906000526020600020905b8154815290600101906020018083116108c057829003601f168201915b5050505050905090565b7f000000000000000000000000000000000000000000000000000000000000000081565b600080610916610d17565b9050610923818585610dc5565b600191505092915050565b7f000000000000000000000000000000000000000000000000000000000000000081565b61095a610c90565b7f000000000000000000000000000000000000000000000000000000000000000073ffffffffffffffffffffffffffffffffffffffff1663bb9fe6bf6040518163ffffffff1660e01b8152600401600060405180830381600087803b1580156109c257600080fd5b505af11580156109d6573d6000803e3d6000fd5b50505050565b6109e4610c90565b7f000000000000000000000000000000000000000000000000000000000000000073ffffffffffffffffffffffffffffffffffffffff1663c23a5cea826040518263ffffffff1660e01b8152600401610a3d9190611fce565b600060405180830381600087803b158015610a5757600080fd5b505af1158015610a6b573d6000803e3d6000fd5b5050505050565b60007f000000000000000000000000000000000000000000000000000000000000000073ffffffffffffffffffffffffffffffffffffffff166370a08231306040518263ffffffff1660e01b8152600401610acd9190611e0a565b602060405180830381865afa158015610aea573d6000803e3d6000fd5b505050506040513d601f19601f82011682018060405250810190610b0e9190611ffe565b905090565b7f000000000000000000000000000000000000000000000000000000000000000073ffffffffffffffffffffffffffffffffffffffff1663b760faf934306040518363ffffffff1660e01b8152600401610b6d9190611e0a565b6000604051808303818588803b158015610b8657600080fd5b505af1158015610b9a573d6000803e3d6000fd5b5050505050565b6000600260008473ffffffffffffffffffffffffffffffffffffffff1673ffffffffffffffffffffffffffffffffffffffff16815260200190815260200160002060008373ffffffffffffffffffffffffffffffffffffffff1673ffffffffffffffffffffffffffffffffffffffff16815260200190815260200160002054905092915050565b610c30610c90565b610c3a82826111de565b5050565b610c46610c90565b610c5930610c5261082c565b6000610d1f565b610c6281611260565b610c8d30827fffffffffffffffffffffffffffffffffffffffffffffffffffffffffffffffff610d1f565b50565b610c98610d17565b73ffffffffffffffffffffffffffffffffffffffff16610cb661082c565b73ffffffffffffffffffffffffffffffffffffffff1614610d1557610cd9610d17565b6040517f118cdaa7000000000000000000000000000000000000000000000000000000008152600401610d0c9190611e0a565b60405180910390fd5b565b600033905090565b610d2c83838360016112e6565b505050565b6000610d3d8484610ba1565b90507fffffffffffffffffffffffffffffffffffffffffffffffffffffffffffffffff8114610dbf5781811015610daf578281836040517ffb8f41b2000000000000000000000000000000000000000000000000000000008152600401610da69392919061202b565b60405180910390fd5b610dbe848484840360006112e6565b5b50505050565b600073ffffffffffffffffffffffffffffffffffffffff168373ffffffffffffffffffffffffffffffffffffffff1603610e375760006040517f96c6fd1e000000000000000000000000000000000000000000000000000000008152600401610e2e9190611e0a565b60405180910390fd5b600073ffffffffffffffffffffffffffffffffffffffff168273ffffffffffffffffffffffffffffffffffffffff1603610ea95760006040517fec442f05000000000000000000000000000000000000000000000000000000008152600401610ea09190611e0a565b60405180910390fd5b610eb48383836114bd565b505050565b7f000000000000000000000000000000000000000000000000000000000000000073ffffffffffffffffffffffffffffffffffffffff163373ffffffffffffffffffffffffffffffffffffffff1614610f47576040517f08c379a0000000000000000000000000000000000000000000000000000000008152600401610f3e906120ae565b60405180910390fd5b565b6060600080610f57846116e5565b90506000610f64876116fb565b9050613a988111610faa576040517f08c379a0000000000000000000000000000000000000000000000000000000008152600401610fa190612140565b60405180910390fd5b6000878060400190610fbc919061216f565b90501461102e57610fcc87611746565b81610fe8886000016020810190610fe39190611cbc565b6107ad565b1015611029576040517f08c379a000000000000000000000000000000000000000000000000000000000815260040161102090612244565b60405180910390fd5b61108c565b8161104a8860000160208101906110459190611cbc565b6107ad565b101561108b576040517f08c379a0000000000000000000000000000000000000000000000000000000008152600401611082906122b0565b60405180910390fd5b5b86600001602081019061109f9190611cbc565b6040516020016110af9190611e0a565b6040516020818303038152906040526000935093505050935093915050565b60008060009054906101000a900473ffffffffffffffffffffffffffffffffffffffff169050816000806101000a81548173ffffffffffffffffffffffffffffffffffffffff021916908373ffffffffffffffffffffffffffffffffffffffff1602179055508173ffffffffffffffffffffffffffffffffffffffff168173ffffffffffffffffffffffffffffffffffffffff167f8be0079c531659141344cd1fd0a4f28419497f9722a3daafe3b4186f6b6457e060405160405180910390a35050565b600084848101906111a39190611e9f565b905060006111c883613a986111b891906122ff565b856111c39190612341565b6116e5565b90506111d5823083610dc5565b50505050505050565b600073ffffffffffffffffffffffffffffffffffffffff168273ffffffffffffffffffffffffffffffffffffffff16036112505760006040517fec442f050000000000000000000000000000000000000000000000000000000081526004016112479190611e0a565b60405180910390fd5b61125c600083836114bd565b5050565b611268610c90565b600073ffffffffffffffffffffffffffffffffffffffff168173ffffffffffffffffffffffffffffffffffffffff16036112da5760006040517f1e4fbdf70000000000000000000000000000000000000000000000000000000081526004016112d19190611e0a565b60405180910390fd5b6112e3816110ce565b50565b600073ffffffffffffffffffffffffffffffffffffffff168473ffffffffffffffffffffffffffffffffffffffff16036113585760006040517fe602df0500000000000000000000000000000000000000000000000000000000815260040161134f9190611e0a565b60405180910390fd5b600073ffffffffffffffffffffffffffffffffffffffff168373ffffffffffffffffffffffffffffffffffffffff16036113ca5760006040517f94280d620000000000000000000000000000000000000000000000000000000081526004016113c19190611e0a565b60405180910390fd5b81600260008673ffffffffffffffffffffffffffffffffffffffff1673ffffffffffffffffffffffffffffffffffffffff16815260200190815260200160002060008573ffffffffffffffffffffffffffffffffffffffff1673ffffffffffffffffffffffffffffffffffffffff1681526020019081526020016000208190555080156114b7578273ffffffffffffffffffffffffffffffffffffffff168473ffffffffffffffffffffffffffffffffffffffff167f8c5be1e5ebec7d5bd14f71427d1e84f3dd0314c0f7b2291e5b200ac8c7c3b925846040516114ae9190611a4a565b60405180910390a35b50505050565b600073ffffffffffffffffffffffffffffffffffffffff168373ffffffffffffffffffffffffffffffffffffffff160361150f5780600360008282546115039190612341565b925050819055506115e4565b6000600160008573ffffffffffffffffffffffffffffffffffffffff1673ffffffffffffffffffffffffffffffffffffffff1681526020019081526020016000205490508181101561159c578381836040517fe450d38c0000000000000000000000000000000000000000000000000000000081526004016115939392919061202b565b60405180910390fd5b818103600160008673ffffffffffffffffffffffffffffffffffffffff1673ffffffffffffffffffffffffffffffffffffffff16815260200190815260200160002081905550505b600073ffffffffffffffffffffffffffffffffffffffff168273ffffffffffffffffffffffffffffffffffffffff160361162d578060036000828254039250508190555061167b565b80600160008473ffffffffffffffffffffffffffffffffffffffff1673ffffffffffffffffffffffffffffffffffffffff168152602001908152602001600020600082825401925050819055505b8173ffffffffffffffffffffffffffffffffffffffff168373ffffffffffffffffffffffffffffffffffffffff167fddf252ad1be2c89b69c2b068fc378daa952ba7f163c4a11628f55a4df523b3ef836040516116d89190611a4a565b60405180910390a3505050565b60006064826116f491906123a4565b9050919050565b6000818060e0019061170d919061216f565b60249060349261171f939291906123df565b9061172a919061245e565b60801c6fffffffffffffffffffffffffffffffff169050919050565b6000818060400190611758919061216f565b60009060149261176a939291906123df565b9061177591906124e9565b60601c90507f000000000000000000000000000000000000000000000000000000000000000073ffffffffffffffffffffffffffffffffffffffff168173ffffffffffffffffffffffffffffffffffffffff1614611808576040517f08c379a00000000000000000000000000000000000000000000000000000000081526004016117ff906125ba565b60405180910390fd5b5050565b600080fd5b600080fd5b600063ffffffff82169050919050565b61182f81611816565b811461183a57600080fd5b50565b60008135905061184c81611826565b92915050565b6000602082840312156118685761186761180c565b5b60006118768482850161183d565b91505092915050565b600081519050919050565b600082825260208201905092915050565b60005b838110156118b957808201518184015260208101905061189e565b60008484015250505050565b6000601f19601f8301169050919050565b60006118e18261187f565b6118eb818561188a565b93506118fb81856020860161189b565b611904816118c5565b840191505092915050565b6000602082019050818103600083015261192981846118d6565b905092915050565b600073ffffffffffffffffffffffffffffffffffffffff82169050919050565b600061195c82611931565b9050919050565b61196c81611951565b811461197757600080fd5b50565b60008135905061198981611963565b92915050565b6000819050919050565b6119a28161198f565b81146119ad57600080fd5b50565b6000813590506119bf81611999565b92915050565b600080604083850312156119dc576119db61180c565b5b60006119ea8582860161197a565b92505060206119fb858286016119b0565b9150509250929050565b60008115159050919050565b611a1a81611a05565b82525050565b6000602082019050611a356000830184611a11565b92915050565b611a448161198f565b82525050565b6000602082019050611a5f6000830184611a3b565b92915050565b6000611a7082611931565b9050919050565b611a8081611a65565b8114611a8b57600080fd5b50565b600081359050611a9d81611a77565b92915050565b60008060408385031215611aba57611ab961180c565b5b6000611ac885828601611a8e565b9250506020611ad9858286016119b0565b9150509250929050565b600080600060608486031215611afc57611afb61180c565b5b6000611b0a8682870161197a565b9350506020611b1b8682870161197a565b9250506040611b2c868287016119b0565b9150509250925092565b600060ff82169050919050565b611b4c81611b36565b82525050565b6000602082019050611b676000830184611b43565b92915050565b600080fd5b60006101208284031215611b8957611b88611b6d565b5b81905092915050565b6000819050919050565b611ba581611b92565b8114611bb057600080fd5b50565b600081359050611bc281611b9c565b92915050565b600080600060608486031215611be157611be061180c565b5b600084013567ffffffffffffffff811115611bff57611bfe611811565b5b611c0b86828701611b72565b9350506020611c1c86828701611bb3565b9250506040611c2d868287016119b0565b9150509250925092565b600081519050919050565b600082825260208201905092915050565b6000611c5e82611c37565b611c688185611c42565b9350611c7881856020860161189b565b611c81816118c5565b840191505092915050565b60006040820190508181036000830152611ca68185611c53565b9050611cb56020830184611a3b565b9392505050565b600060208284031215611cd257611cd161180c565b5b6000611ce08482850161197a565b91505092915050565b60038110611cf657600080fd5b50565b600081359050611d0881611ce9565b92915050565b600080fd5b600080fd5b600080fd5b60008083601f840112611d3357611d32611d0e565b5b8235905067ffffffffffffffff811115611d5057611d4f611d13565b5b602083019150836001820283011115611d6c57611d6b611d18565b5b9250929050565b600080600080600060808688031215611d8f57611d8e61180c565b5b6000611d9d88828901611cf9565b955050602086013567ffffffffffffffff811115611dbe57611dbd611811565b5b611dca88828901611d1d565b94509450506040611ddd888289016119b0565b9250506060611dee888289016119b0565b9150509295509295909350565b611e0481611951565b82525050565b6000602082019050611e1f6000830184611dfb565b92915050565b6000819050919050565b6000611e4a611e45611e4084611931565b611e25565b611931565b9050919050565b6000611e5c82611e2f565b9050919050565b6000611e6e82611e51565b9050919050565b611e7e81611e63565b82525050565b6000602082019050611e996000830184611e75565b92915050565b600060208284031215611eb557611eb461180c565b5b6000611ec384828501611a8e565b91505092915050565b60008060408385031215611ee357611ee261180c565b5b6000611ef18582860161197a565b9250506020611f028582860161197a565b9150509250929050565b611f1581611816565b82525050565b6000602082019050611f306000830184611f0c565b92915050565b7f4e487b7100000000000000000000000000000000000000000000000000000000600052602260045260246000fd5b60006002820490506001821680611f7d57607f821691505b602082108103611f9057611f8f611f36565b5b50919050565b611f9f81611a65565b82525050565b6000604082019050611fba6000830185611f96565b611fc76020830184611a3b565b9392505050565b6000602082019050611fe36000830184611f96565b92915050565b600081519050611ff881611999565b92915050565b6000602082840312156120145761201361180c565b5b600061202284828501611fe9565b91505092915050565b60006060820190506120406000830186611dfb565b61204d6020830185611a3b565b61205a6040830184611a3b565b949350505050565b7f53656e646572206e6f7420456e747279506f696e740000000000000000000000600082015250565b600061209860158361188a565b91506120a382612062565b602082019050919050565b600060208201905081810360008301526120c78161208b565b9050919050565b7f546f6b656e5061796d61737465723a2067617320746f6f206c6f7720666f722060008201527f706f73744f700000000000000000000000000000000000000000000000000000602082015250565b600061212a60268361188a565b9150612135826120ce565b604082019050919050565b600060208201905081810360008301526121598161211d565b9050919050565b600080fd5b600080fd5b600080fd5b6000808335600160200384360303811261218c5761218b612160565b5b80840192508235915067ffffffffffffffff8211156121ae576121ad612165565b5b6020830192506001820236038313156121ca576121c961216a565b5b509250929050565b7f546f6b656e5061796d61737465723a206e6f2062616c616e636520287072652d60008201527f6372656174652900000000000000000000000000000000000000000000000000602082015250565b600061222e60278361188a565b9150612239826121d2565b604082019050919050565b6000602082019050818103600083015261225d81612221565b9050919050565b7f546f6b656e5061796d61737465723a206e6f2062616c616e6365000000000000600082015250565b600061229a601a8361188a565b91506122a582612264565b602082019050919050565b600060208201905081810360008301526122c98161228d565b9050919050565b7f4e487b7100000000000000000000000000000000000000000000000000000000600052601160045260246000fd5b600061230a8261198f565b91506123158361198f565b92508282026123238161198f565b9150828204841483151761233a576123396122d0565b5b5092915050565b600061234c8261198f565b91506123578361198f565b925082820190508082111561236f5761236e6122d0565b5b92915050565b7f4e487b7100000000000000000000000000000000000000000000000000000000600052601260045260246000fd5b60006123af8261198f565b91506123ba8361198f565b9250826123ca576123c9612375565b5b828204905092915050565b600080fd5b600080fd5b600080858511156123f3576123f26123d5565b5b83861115612404576124036123da565b5b6001850283019150848603905094509492505050565b600082905092915050565b60007fffffffffffffffffffffffffffffffff0000000000000000000000000000000082169050919050565b600082821b905092915050565b600061246a838361241a565b826124758135612425565b925060108210156124b5576124b07fffffffffffffffffffffffffffffffff0000000000000000000000000000000083601003600802612451565b831692505b505092915050565b60007fffffffffffffffffffffffffffffffffffffffff00000000000000000000000082169050919050565b60006124f5838361241a565b8261250081356124bd565b925060148210156125405761253b7fffffffffffffffffffffffffffffffffffffffff00000000000000000000000083601403600802612451565b831692505b505092915050565b7f546f6b656e5061796d61737465723a2077726f6e67206163636f756e7420666160008201527f63746f7279000000000000000000000000000000000000000000000000000000602082015250565b60006125a460258361188a565b91506125af82612548565b604082019050919050565b600060208201905081810360008301526125d381612597565b905091905056fea2646970667358221220fa23d43b464b59c8a81eed71af912c3bcd189ceed3ad0033972126f808fd624764736f6c634300081a0033","linkReferences":{}},"methodIdentifiers":{"COST_OF_POST()":"796d4371","addStake(uint32)":"0396cb60","allowance(address,address)":"dd62ed3e","approve(address,uint256)":"095ea7b3","balanceOf(address)":"70a08231","decimals()":"313ce567","deposit()":"d0e30db0","entryPoint()":"b0d691fe","getDeposit()":"c399ec88","mintTokens(address,uint256)":"f0dda65c","name()":"06fdde03","owner()":"8da5cb5b","postOp(uint8,bytes,uint256,uint256)":"7c627b21","renounceOwnership()":"715018a6","symbol()":"95d89b41","theFactory()":"9f5ca221","totalSupply()":"18160ddd","transfer(address,uint256)":"a9059cbb","transferFrom(address,address,uint256)":"23b872dd","transferOwnership(address)":"f2fde38b","unlockStake()":"bb9fe6bf","validatePaymasterUserOp((address,uint256,bytes,bytes,bytes32,uint256,bytes32,bytes,bytes),bytes32,uint256)":"52b7512c","withdrawStake(address)":"c23a5cea","withdrawTo(address,uint256)":"205c2878"},"id":25}