{"abi":[{"type":"constructor","inputs":[{"name":"anEntryPoint","type":"address","internalType":"contract IEntryPoint"}],"stateMutability":"nonpayable"},{"type":"receive","stateMutability":"payable"},{"type":"function","name":"UPGRADE_INTERFACE_VERSION","inputs":[],"outputs":[{"name":"","type":"string","internalType":"string"}],"stateMutability":"view"},{"type":"function","name":"addDeposit","inputs":[],"outputs":[],"stateMutability":"payable"},{"type":"function","name":"entryPoint","inputs":[],"outputs":[{"name":"","type":"address","internalType":"contract IEntryPoint"}],"stateMutability":"view"},{"type":"function","name":"execute","inputs":[{"name":"dest","type":"address","internalType":"address"},{"name":"value","type":"uint256","internalType":"uint256"},{"name":"func","type":"bytes","internalType":"bytes"}],"outputs":[],"stateMutability":"nonpayable"},{"type":"function","name":"executeBatch","inputs":[{"name":"dest","type":"address[]","internalType":"address[]"},{"name":"value","type":"uint256[]","internalType":"uint256[]"},{"name":"func","type":"bytes[]","internalType":"bytes[]"}],"outputs":[],"stateMutability":"nonpayable"},{"type":"function","name":"getDeposit","inputs":[],"outputs":[{"name":"","type":"uint256","internalType":"uint256"}],"stateMutability":"view"},{"type":"function","name":"getNonce","inputs":[],"outputs":[{"name":"","type":"uint256","internalType":"uint256"}],"stateMutability":"view"},{"type":"function","name":"initialize","inputs":[{"name":"anOwner","type":"address","internalType":"address"}],"outputs":[],"stateMutability":"nonpayable"},{"type":"function","name":"onERC1155BatchReceived","inputs":[{"name":"","type":"address","internalType":"address"},{"name":"","type":"address","internalType":"address"},{"name":"","type":"uint256[]","internalType":"uint256[]"},{"name":"","type":"uint256[]","internalType":"uint256[]"},{"name":"","type":"bytes","internalType":"bytes"}],"outputs":[{"name":"","type":"bytes4","internalType":"bytes4"}],"stateMutability":"pure"},{"type":"function","name":"onERC1155Received","inputs":[{"name":"","type":"address","internalType":"address"},{"name":"","type":"address","internalType":"address"},{"name":"","type":"uint256","internalType":"uint256"},{"name":"","type":"uint256","internalType":"uint256"},{"name":"","type":"bytes","internalType":"bytes"}],"outputs":[{"name":"","type":"bytes4","internalType":"bytes4"}],"stateMutability":"pure"},{"type":"function","name":"onERC721Received","inputs":[{"name":"","type":"address","internalType":"address"},{"name":"","type":"address","internalType":"address"},{"name":"","type":"uint256","internalType":"uint256"},{"name":"","type":"bytes","internalType":"bytes"}],"outputs":[{"name":"","type":"bytes4","internalType":"bytes4"}],"stateMutability":"pure"},{"type":"function","name":"owner","inputs":[],"outputs":[{"name":"","type":"address","internalType":"address"}],"stateMutability":"view"},{"type":"function","name":"proxiableUUID","inputs":[],"outputs":[{"name":"","type":"bytes32","internalType":"bytes32"}],"stateMutability":"view"},{"type":"function","name":"supportsInterface","inputs":[{"name":"interfaceId","type":"bytes4","internalType":"bytes4"}],"outputs":[{"name":"","type":"bool","internalType":"bool"}],"stateMutability":"view"},{"type":"function","name":"upgradeToAndCall","inputs":[{"name":"newImplementation","type":"address","internalType":"address"},{"name":"data","type":"bytes","internalType":"bytes"}],"outputs":[],"stateMutability":"payable"},{"type":"function","name":"validateUserOp","inputs":[{"name":"userOp","type":"tuple","internalType":"struct PackedUserOperation","components":[{"name":"sender","type":"address","internalType":"address"},{"name":"nonce","type":"uint256","internalType":"uint256"},{"name":"initCode","type":"bytes","internalType":"bytes"},{"name":"callData","type":"bytes","internalType":"bytes"},{"name":"accountGasLimits","type":"bytes32","internalType":"bytes32"},{"name":"preVerificationGas","type":"uint256","internalType":"uint256"},{"name":"gasFees","type":"bytes32","internalType":"bytes32"},{"name":"paymasterAndData","type":"bytes","internalType":"bytes"},{"name":"signature","type":"bytes","internalType":"bytes"}]},{"name":"userOpHash","type":"bytes32","internalType":"bytes32"},{"name":"missingAccountFunds","type":"uint256","internalType":"uint256"}],"outputs":[{"name":"validationData","type":"uint256","internalType":"uint256"}],"stateMutability":"nonpayable"},{"type":"function","name":"withdrawDepositTo","inputs":[{"name":"withdrawAddress","type":"address","internalType":"address payable"},{"name":"amount","type":"uint256","internalType":"uint256"}],"outputs":[],"stateMutability":"nonpayable"},{"type":"event","name":"Initialized","inputs":[{"name":"version","type":"uint64","indexed":false,"internalType":"uint64"}],"anonymous":false},{"type":"event","name":"SimpleAccountInitialized","inputs":[{"name":"entryPoint","type":"address","indexed":true,"internalType":"contract IEntryPoint"},{"name":"owner","type":"address","indexed":true,"internalType":"address"}],"anonymous":false},{"type":"event","name":"Upgraded","inputs":[{"name":"implementation","type":"address","indexed":true,"internalType":"address"}],"anonymous":false},{"type":"error","name":"AddressEmptyCode","inputs":[{"name":"target","type":"address","internalType":"address"}]},{"type":"error","name":"ECDSAInvalidSignature","inputs":[]},{"type":"error","name":"ECDSAInvalidSignatureLength","inputs":[{"name":"length","type":"uint256","internalType":"uint256"}]},{"type":"error","name":"ECDSAInvalidSignatureS","inputs":[{"name":"s","type":"bytes32","internalType":"bytes32"}]},{"type":"error","name":"ERC1967InvalidImplementation","inputs":[{"name":"implementation","type":"address","internalType":"address"}]},{"type":"error","name":"ERC1967NonPayable","inputs":[]},{"type":"error","name":"FailedInnerCall","inputs":[]},{"type":"error","name":"InvalidInitialization","inputs":[]},{"type":"error","name":"NotInitializing","inputs":[]},{"type":"error","name":"UUPSUnauthorizedCallContext","inputs":[]},{"type":"error","name":"UUPSUnsupportedProxiableUUID","inputs":[{"name":"slot","type":"bytes32","internalType":"bytes32"}]}],"bytecode":{"object":"0x60c06040523073ffffffffffffffffffffffffffffffffffffffff1660809073ffffffffffffffffffffffffffffffffffffffff1681525034801561004357600080fd5b50604051612d90380380612d908339818101604052810190610065919061024e565b8073ffffffffffffffffffffffffffffffffffffffff1660a08173ffffffffffffffffffffffffffffffffffffffff16815250506100a76100ad60201b60201c565b506102b9565b60006100bd6101b160201b60201c565b90508060000160089054906101000a900460ff1615610108576040517ff92ee8a900000000000000000000000000000000000000000000000000000000815260040160405180910390fd5b67ffffffffffffffff80168160000160009054906101000a900467ffffffffffffffff1667ffffffffffffffff16146101ae5767ffffffffffffffff8160000160006101000a81548167ffffffffffffffff021916908367ffffffffffffffff1602179055507fc7f505b2f371ae2175ee4913f4499e1f2633a7b5936321eed1cdaeb6115181d267ffffffffffffffff6040516101a5919061029e565b60405180910390a15b50565b60007ff0c57e16840df040f15088dc2f81fe391c3923bec73e23a9662efc9c229c6a00905090565b600080fd5b600073ffffffffffffffffffffffffffffffffffffffff82169050919050565b6000610209826101de565b9050919050565b600061021b826101fe565b9050919050565b61022b81610210565b811461023657600080fd5b50565b60008151905061024881610222565b92915050565b600060208284031215610264576102636101d9565b5b600061027284828501610239565b91505092915050565b600067ffffffffffffffff82169050919050565b6102988161027b565b82525050565b60006020820190506102b3600083018461028f565b92915050565b60805160a051612a9d6102f36000396000818161094101526113ca015260008181611094015281816110e901526112a40152612a9d6000f3fe6080604052600436106101025760003560e01c80638da5cb5b11610095578063bc197c8111610064578063bc197c8114610312578063c399ec881461034f578063c4d66de81461037a578063d087d288146103a3578063f23a6e61146103ce57610109565b80638da5cb5b14610268578063ad3cb1cc14610293578063b0d691fe146102be578063b61d27f6146102e957610109565b80634a58db19116100d15780634a58db19146101ee5780634d44560d146101f85780634f1ef2861461022157806352d1902d1461023d57610109565b806301ffc9a71461010e578063150b7a021461014b57806319822f7c1461018857806347e1da2a146101c557610109565b3661010957005b600080fd5b34801561011a57600080fd5b5061013560048036038101906101309190611ae6565b61040b565b6040516101429190611b2e565b60405180910390f35b34801561015757600080fd5b50610172600480360381019061016d9190611c42565b610545565b60405161017f9190611cd9565b60405180910390f35b34801561019457600080fd5b506101af60048036038101906101aa9190611d4f565b61055a565b6040516101bc9190611dcd565b60405180910390f35b3480156101d157600080fd5b506101ec60048036038101906101e79190611eea565b61058d565b005b6101f6610799565b005b34801561020457600080fd5b5061021f600480360381019061021a9190611fdc565b61080e565b005b61023b6004803603810190610236919061215d565b61088e565b005b34801561024957600080fd5b506102526108ad565b60405161025f91906121c8565b60405180910390f35b34801561027457600080fd5b5061027d6108e0565b60405161028a91906121f2565b60405180910390f35b34801561029f57600080fd5b506102a8610904565b6040516102b5919061228c565b60405180910390f35b3480156102ca57600080fd5b506102d361093d565b6040516102e0919061230d565b60405180910390f35b3480156102f557600080fd5b50610310600480360381019061030b9190612328565b610965565b005b34801561031e57600080fd5b506103396004803603810190610334919061239c565b6109c2565b6040516103469190611cd9565b60405180910390f35b34801561035b57600080fd5b506103646109da565b6040516103719190611dcd565b60405180910390f35b34801561038657600080fd5b506103a1600480360381019061039c9190612478565b610a62565b005b3480156103af57600080fd5b506103b8610bf1565b6040516103c59190611dcd565b60405180910390f35b3480156103da57600080fd5b506103f560048036038101906103f091906124a5565b610c7c565b6040516104029190611cd9565b60405180910390f35b60007f150b7a02000000000000000000000000000000000000000000000000000000007bffffffffffffffffffffffffffffffffffffffffffffffffffffffff1916827bffffffffffffffffffffffffffffffffffffffffffffffffffffffff191614806104d657507f4e2312e0000000000000000000000000000000000000000000000000000000007bffffffffffffffffffffffffffffffffffffffffffffffffffffffff1916827bffffffffffffffffffffffffffffffffffffffffffffffffffffffff1916145b8061053e57507f01ffc9a7000000000000000000000000000000000000000000000000000000007bffffffffffffffffffffffffffffffffffffffffffffffffffffffff1916827bffffffffffffffffffffffffffffffffffffffffffffffffffffffff1916145b9050919050565b600063150b7a0260e01b905095945050505050565b6000610564610c92565b61056e8484610d09565b905061057d8460200135610ddc565b61058682610ddf565b9392505050565b610595610e7b565b81819050868690501480156105bd575060008484905014806105bc57508181905084849050145b5b6105fc576040517f08c379a00000000000000000000000000000000000000000000000000000000081526004016105f39061258b565b60405180910390fd5b600084849050036106c25760005b868690508110156106bc576106af87878381811061062b5761062a6125ab565b5b90506020020160208101906106409190612478565b6000858585818110610655576106546125ab565b5b905060200281019061066791906125e9565b8080601f016020809104026020016040519081016040528093929190818152602001838380828437600081840152601f19601f82011690508083019250505050505050610f48565b808060010191505061060a565b50610791565b60005b8686905081101561078f576107828787838181106106e6576106e56125ab565b5b90506020020160208101906106fb9190612478565b86868481811061070e5761070d6125ab565b5b90506020020135858585818110610728576107276125ab565b5b905060200281019061073a91906125e9565b8080601f016020809104026020016040519081016040528093929190818152602001838380828437600081840152601f19601f82011690508083019250505050505050610f48565b80806001019150506106c5565b505b505050505050565b6107a161093d565b73ffffffffffffffffffffffffffffffffffffffff1663b760faf934306040518363ffffffff1660e01b81526004016107da91906121f2565b6000604051808303818588803b1580156107f357600080fd5b505af1158015610807573d6000803e3d6000fd5b5050505050565b610816610fcc565b61081e61093d565b73ffffffffffffffffffffffffffffffffffffffff1663205c287883836040518363ffffffff1660e01b815260040161085892919061265b565b600060405180830381600087803b15801561087257600080fd5b505af1158015610886573d6000803e3d6000fd5b505050505050565b610896611092565b61089f82611178565b6108a98282611183565b5050565b60006108b76112a2565b7f360894a13ba1a3210667c828492db98dca3e2076cc3735a920a3ca505d382bbc60001b905090565b60008054906101000a900473ffffffffffffffffffffffffffffffffffffffff1681565b6040518060400160405280600581526020017f352e302e3000000000000000000000000000000000000000000000000000000081525081565b60007f0000000000000000000000000000000000000000000000000000000000000000905090565b61096d610e7b565b6109bc848484848080601f016020809104026020016040519081016040528093929190818152602001838380828437600081840152601f19601f82011690508083019250505050505050610f48565b50505050565b600063bc197c8160e01b905098975050505050505050565b60006109e461093d565b73ffffffffffffffffffffffffffffffffffffffff166370a08231306040518263ffffffff1660e01b8152600401610a1c91906121f2565b602060405180830381865afa158015610a39573d6000803e3d6000fd5b505050506040513d601f19601f82011682018060405250810190610a5d9190612699565b905090565b6000610a6c611329565b905060008160000160089054906101000a900460ff1615905060008260000160009054906101000a900467ffffffffffffffff1690506000808267ffffffffffffffff16148015610aba5750825b9050600060018367ffffffffffffffff16148015610aef575060003073ffffffffffffffffffffffffffffffffffffffff163b145b905081158015610afd575080155b15610b34576040517ff92ee8a900000000000000000000000000000000000000000000000000000000815260040160405180910390fd5b60018560000160006101000a81548167ffffffffffffffff021916908367ffffffffffffffff1602179055508315610b845760018560000160086101000a81548160ff0219169083151502179055505b610b8d86611351565b8315610be95760008560000160086101000a81548160ff0219169083151502179055507fc7f505b2f371ae2175ee4913f4499e1f2633a7b5936321eed1cdaeb6115181d26001604051610be09190612715565b60405180910390a15b505050505050565b6000610bfb61093d565b73ffffffffffffffffffffffffffffffffffffffff166335567e1a3060006040518363ffffffff1660e01b8152600401610c3692919061278f565b602060405180830381865afa158015610c53573d6000803e3d6000fd5b505050506040513d601f19601f82011682018060405250810190610c779190612699565b905090565b600063f23a6e6160e01b90509695505050505050565b610c9a61093d565b73ffffffffffffffffffffffffffffffffffffffff163373ffffffffffffffffffffffffffffffffffffffff1614610d07576040517f08c379a0000000000000000000000000000000000000000000000000000000008152600401610cfe90612804565b60405180910390fd5b565b600080610d158361142e565b9050610d748185806101000190610d2c91906125e9565b8080601f016020809104026020016040519081016040528093929190818152602001838380828437600081840152601f19601f82011690508083019250505050505050611464565b73ffffffffffffffffffffffffffffffffffffffff1660008054906101000a900473ffffffffffffffffffffffffffffffffffffffff1673ffffffffffffffffffffffffffffffffffffffff1614610dd0576001915050610dd6565b60009150505b92915050565b50565b60008114610e785760003373ffffffffffffffffffffffffffffffffffffffff16827fffffffffffffffffffffffffffffffffffffffffffffffffffffffffffffffff90604051610e2f90612855565b600060405180830381858888f193505050503d8060008114610e6d576040519150601f19603f3d011682016040523d82523d6000602084013e610e72565b606091505b50509050505b50565b610e8361093d565b73ffffffffffffffffffffffffffffffffffffffff163373ffffffffffffffffffffffffffffffffffffffff161480610f07575060008054906101000a900473ffffffffffffffffffffffffffffffffffffffff1673ffffffffffffffffffffffffffffffffffffffff163373ffffffffffffffffffffffffffffffffffffffff16145b610f46576040517f08c379a0000000000000000000000000000000000000000000000000000000008152600401610f3d906128b6565b60405180910390fd5b565b6000808473ffffffffffffffffffffffffffffffffffffffff168484604051610f719190612912565b60006040518083038185875af1925050503d8060008114610fae576040519150601f19603f3d011682016040523d82523d6000602084013e610fb3565b606091505b509150915081610fc557805160208201fd5b5050505050565b60008054906101000a900473ffffffffffffffffffffffffffffffffffffffff1673ffffffffffffffffffffffffffffffffffffffff163373ffffffffffffffffffffffffffffffffffffffff16148061105157503073ffffffffffffffffffffffffffffffffffffffff163373ffffffffffffffffffffffffffffffffffffffff16145b611090576040517f08c379a000000000000000000000000000000000000000000000000000000000815260040161108790612975565b60405180910390fd5b565b7f000000000000000000000000000000000000000000000000000000000000000073ffffffffffffffffffffffffffffffffffffffff163073ffffffffffffffffffffffffffffffffffffffff16148061113f57507f000000000000000000000000000000000000000000000000000000000000000073ffffffffffffffffffffffffffffffffffffffff16611126611490565b73ffffffffffffffffffffffffffffffffffffffff1614155b15611176576040517fe07c8dba00000000000000000000000000000000000000000000000000000000815260040160405180910390fd5b565b611180610fcc565b50565b8173ffffffffffffffffffffffffffffffffffffffff166352d1902d6040518163ffffffff1660e01b8152600401602060405180830381865afa9250505080156111eb57506040513d601f19601f820116820180604052508101906111e891906129aa565b60015b61122c57816040517f4c9c8ce300000000000000000000000000000000000000000000000000000000815260040161122391906121f2565b60405180910390fd5b7f360894a13ba1a3210667c828492db98dca3e2076cc3735a920a3ca505d382bbc60001b811461129357806040517faa1d49a400000000000000000000000000000000000000000000000000000000815260040161128a91906121c8565b60405180910390fd5b61129d83836114e7565b505050565b7f000000000000000000000000000000000000000000000000000000000000000073ffffffffffffffffffffffffffffffffffffffff163073ffffffffffffffffffffffffffffffffffffffff1614611327576040517fe07c8dba00000000000000000000000000000000000000000000000000000000815260040160405180910390fd5b565b60007ff0c57e16840df040f15088dc2f81fe391c3923bec73e23a9662efc9c229c6a00905090565b806000806101000a81548173ffffffffffffffffffffffffffffffffffffffff021916908373ffffffffffffffffffffffffffffffffffffffff16021790555060008054906101000a900473ffffffffffffffffffffffffffffffffffffffff1673ffffffffffffffffffffffffffffffffffffffff167f000000000000000000000000000000000000000000000000000000000000000073ffffffffffffffffffffffffffffffffffffffff167f47e55c76e7a6f1fd8996a1da8008c1ea29699cca35e7bcd057f2dec313b6e5de60405160405180910390a350565b60007f19457468657265756d205369676e6564204d6573736167653a0a33320000000060005281601c52603c6000209050919050565b600080600080611474868661155a565b92509250925061148482826115b6565b82935050505092915050565b60006114be7f360894a13ba1a3210667c828492db98dca3e2076cc3735a920a3ca505d382bbc60001b61171a565b60000160009054906101000a900473ffffffffffffffffffffffffffffffffffffffff16905090565b6114f082611724565b8173ffffffffffffffffffffffffffffffffffffffff167fbc7cd75a20ee27fd9adebab32041f755214dbc6bffa90cc0225b39da2e5c2d3b60405160405180910390a260008151111561154d5761154782826117f1565b50611556565b611555611875565b5b5050565b6000806000604184510361159f5760008060006020870151925060408701519150606087015160001a9050611591888285856118b2565b9550955095505050506115af565b60006002855160001b9250925092505b9250925092565b600060038111156115ca576115c96129d7565b5b8260038111156115dd576115dc6129d7565b5b031561171657600160038111156115f7576115f66129d7565b5b82600381111561160a576116096129d7565b5b03611641576040517ff645eedf00000000000000000000000000000000000000000000000000000000815260040160405180910390fd5b60026003811115611655576116546129d7565b5b826003811115611668576116676129d7565b5b036116ad578060001c6040517ffce698f70000000000000000000000000000000000000000000000000000000081526004016116a49190611dcd565b60405180910390fd5b6003808111156116c0576116bf6129d7565b5b8260038111156116d3576116d26129d7565b5b0361171557806040517fd78bce0c00000000000000000000000000000000000000000000000000000000815260040161170c91906121c8565b60405180910390fd5b5b5050565b6000819050919050565b60008173ffffffffffffffffffffffffffffffffffffffff163b0361178057806040517f4c9c8ce300000000000000000000000000000000000000000000000000000000815260040161177791906121f2565b60405180910390fd5b806117ad7f360894a13ba1a3210667c828492db98dca3e2076cc3735a920a3ca505d382bbc60001b61171a565b60000160006101000a81548173ffffffffffffffffffffffffffffffffffffffff021916908373ffffffffffffffffffffffffffffffffffffffff16021790555050565b60606000808473ffffffffffffffffffffffffffffffffffffffff168460405161181b9190612912565b600060405180830381855af49150503d8060008114611856576040519150601f19603f3d011682016040523d82523d6000602084013e61185b565b606091505b509150915061186b8583836119a6565b9250505092915050565b60003411156118b0576040517fb398979f00000000000000000000000000000000000000000000000000000000815260040160405180910390fd5b565b60008060007f7fffffffffffffffffffffffffffffff5d576e7357a4501ddfe92f46681b20a08460001c11156118f257600060038592509250925061199c565b6000600188888888604051600081526020016040526040516119179493929190612a22565b6020604051602081039080840390855afa158015611939573d6000803e3d6000fd5b505050602060405103519050600073ffffffffffffffffffffffffffffffffffffffff168173ffffffffffffffffffffffffffffffffffffffff160361198d57600060016000801b9350935093505061199c565b8060008060001b935093509350505b9450945094915050565b6060826119bb576119b682611a35565b611a2d565b600082511480156119e3575060008473ffffffffffffffffffffffffffffffffffffffff163b145b15611a2557836040517f9996b315000000000000000000000000000000000000000000000000000000008152600401611a1c91906121f2565b60405180910390fd5b819050611a2e565b5b9392505050565b600081511115611a485780518082602001fd5b6040517f1425ea4200000000000000000000000000000000000000000000000000000000815260040160405180910390fd5b6000604051905090565b600080fd5b600080fd5b60007fffffffff0000000000000000000000000000000000000000000000000000000082169050919050565b611ac381611a8e565b8114611ace57600080fd5b50565b600081359050611ae081611aba565b92915050565b600060208284031215611afc57611afb611a84565b5b6000611b0a84828501611ad1565b91505092915050565b60008115159050919050565b611b2881611b13565b82525050565b6000602082019050611b436000830184611b1f565b92915050565b600073ffffffffffffffffffffffffffffffffffffffff82169050919050565b6000611b7482611b49565b9050919050565b611b8481611b69565b8114611b8f57600080fd5b50565b600081359050611ba181611b7b565b92915050565b6000819050919050565b611bba81611ba7565b8114611bc557600080fd5b50565b600081359050611bd781611bb1565b92915050565b600080fd5b600080fd5b600080fd5b60008083601f840112611c0257611c01611bdd565b5b8235905067ffffffffffffffff811115611c1f57611c1e611be2565b5b602083019150836001820283011115611c3b57611c3a611be7565b5b9250929050565b600080600080600060808688031215611c5e57611c5d611a84565b5b6000611c6c88828901611b92565b9550506020611c7d88828901611b92565b9450506040611c8e88828901611bc8565b935050606086013567ffffffffffffffff811115611caf57611cae611a89565b5b611cbb88828901611bec565b92509250509295509295909350565b611cd381611a8e565b82525050565b6000602082019050611cee6000830184611cca565b92915050565b600080fd5b60006101208284031215611d1057611d0f611cf4565b5b81905092915050565b6000819050919050565b611d2c81611d19565b8114611d3757600080fd5b50565b600081359050611d4981611d23565b92915050565b600080600060608486031215611d6857611d67611a84565b5b600084013567ffffffffffffffff811115611d8657611d85611a89565b5b611d9286828701611cf9565b9350506020611da386828701611d3a565b9250506040611db486828701611bc8565b9150509250925092565b611dc781611ba7565b82525050565b6000602082019050611de26000830184611dbe565b92915050565b60008083601f840112611dfe57611dfd611bdd565b5b8235905067ffffffffffffffff811115611e1b57611e1a611be2565b5b602083019150836020820283011115611e3757611e36611be7565b5b9250929050565b60008083601f840112611e5457611e53611bdd565b5b8235905067ffffffffffffffff811115611e7157611e70611be2565b5b602083019150836020820283011115611e8d57611e8c611be7565b5b9250929050565b60008083601f840112611eaa57611ea9611bdd565b5b8235905067ffffffffffffffff811115611ec757611ec6611be2565b5b602083019150836020820283011115611ee357611ee2611be7565b5b9250929050565b60008060008060008060608789031215611f0757611f06611a84565b5b600087013567ffffffffffffffff811115611f2557611f24611a89565b5b611f3189828a01611de8565b9650965050602087013567ffffffffffffffff811115611f5457611f53611a89565b5b611f6089828a01611e3e565b9450945050604087013567ffffffffffffffff811115611f8357611f82611a89565b5b611f8f89828a01611e94565b92509250509295509295509295565b6000611fa982611b49565b9050919050565b611fb981611f9e565b8114611fc457600080fd5b50565b600081359050611fd681611fb0565b92915050565b60008060408385031215611ff357611ff2611a84565b5b600061200185828601611fc7565b925050602061201285828601611bc8565b9150509250929050565b600080fd5b6000601f19601f8301169050919050565b7f4e487b7100000000000000000000000000000000000000000000000000000000600052604160045260246000fd5b61206a82612021565b810181811067ffffffffffffffff8211171561208957612088612032565b5b80604052505050565b600061209c611a7a565b90506120a88282612061565b919050565b600067ffffffffffffffff8211156120c8576120c7612032565b5b6120d182612021565b9050602081019050919050565b82818337600083830152505050565b60006121006120fb846120ad565b612092565b90508281526020810184848401111561211c5761211b61201c565b5b6121278482856120de565b509392505050565b600082601f83011261214457612143611bdd565b5b81356121548482602086016120ed565b91505092915050565b6000806040838503121561217457612173611a84565b5b600061218285828601611b92565b925050602083013567ffffffffffffffff8111156121a3576121a2611a89565b5b6121af8582860161212f565b9150509250929050565b6121c281611d19565b82525050565b60006020820190506121dd60008301846121b9565b92915050565b6121ec81611b69565b82525050565b600060208201905061220760008301846121e3565b92915050565b600081519050919050565b600082825260208201905092915050565b60005b8381101561224757808201518184015260208101905061222c565b60008484015250505050565b600061225e8261220d565b6122688185612218565b9350612278818560208601612229565b61228181612021565b840191505092915050565b600060208201905081810360008301526122a68184612253565b905092915050565b6000819050919050565b60006122d36122ce6122c984611b49565b6122ae565b611b49565b9050919050565b60006122e5826122b8565b9050919050565b60006122f7826122da565b9050919050565b612307816122ec565b82525050565b600060208201905061232260008301846122fe565b92915050565b6000806000806060858703121561234257612341611a84565b5b600061235087828801611b92565b945050602061236187828801611bc8565b935050604085013567ffffffffffffffff81111561238257612381611a89565b5b61238e87828801611bec565b925092505092959194509250565b60008060008060008060008060a0898b0312156123bc576123bb611a84565b5b60006123ca8b828c01611b92565b98505060206123db8b828c01611b92565b975050604089013567ffffffffffffffff8111156123fc576123fb611a89565b5b6124088b828c01611e3e565b9650965050606089013567ffffffffffffffff81111561242b5761242a611a89565b5b6124378b828c01611e3e565b9450945050608089013567ffffffffffffffff81111561245a57612459611a89565b5b6124668b828c01611bec565b92509250509295985092959890939650565b60006020828403121561248e5761248d611a84565b5b600061249c84828501611b92565b91505092915050565b60008060008060008060a087890312156124c2576124c1611a84565b5b60006124d089828a01611b92565b96505060206124e189828a01611b92565b95505060406124f289828a01611bc8565b945050606061250389828a01611bc8565b935050608087013567ffffffffffffffff81111561252457612523611a89565b5b61253089828a01611bec565b92509250509295509295509295565b7f77726f6e67206172726179206c656e6774687300000000000000000000000000600082015250565b6000612575601383612218565b91506125808261253f565b602082019050919050565b600060208201905081810360008301526125a481612568565b9050919050565b7f4e487b7100000000000000000000000000000000000000000000000000000000600052603260045260246000fd5b600080fd5b600080fd5b600080fd5b60008083356001602003843603038112612606576126056125da565b5b80840192508235915067ffffffffffffffff821115612628576126276125df565b5b602083019250600182023603831315612644576126436125e4565b5b509250929050565b61265581611f9e565b82525050565b6000604082019050612670600083018561264c565b61267d6020830184611dbe565b9392505050565b60008151905061269381611bb1565b92915050565b6000602082840312156126af576126ae611a84565b5b60006126bd84828501612684565b91505092915050565b6000819050919050565b600067ffffffffffffffff82169050919050565b60006126ff6126fa6126f5846126c6565b6122ae565b6126d0565b9050919050565b61270f816126e4565b82525050565b600060208201905061272a6000830184612706565b92915050565b6000819050919050565b600077ffffffffffffffffffffffffffffffffffffffffffffffff82169050919050565b600061277961277461276f84612730565b6122ae565b61273a565b9050919050565b6127898161275e565b82525050565b60006040820190506127a460008301856121e3565b6127b16020830184612780565b9392505050565b7f6163636f756e743a206e6f742066726f6d20456e747279506f696e7400000000600082015250565b60006127ee601c83612218565b91506127f9826127b8565b602082019050919050565b6000602082019050818103600083015261281d816127e1565b9050919050565b600081905092915050565b50565b600061283f600083612824565b915061284a8261282f565b600082019050919050565b600061286082612832565b9150819050919050565b7f6163636f756e743a206e6f74204f776e6572206f7220456e747279506f696e74600082015250565b60006128a0602083612218565b91506128ab8261286a565b602082019050919050565b600060208201905081810360008301526128cf81612893565b9050919050565b600081519050919050565b60006128ec826128d6565b6128f68185612824565b9350612906818560208601612229565b80840191505092915050565b600061291e82846128e1565b915081905092915050565b7f6f6e6c79206f776e657200000000000000000000000000000000000000000000600082015250565b600061295f600a83612218565b915061296a82612929565b602082019050919050565b6000602082019050818103600083015261298e81612952565b9050919050565b6000815190506129a481611d23565b92915050565b6000602082840312156129c0576129bf611a84565b5b60006129ce84828501612995565b91505092915050565b7f4e487b7100000000000000000000000000000000000000000000000000000000600052602160045260246000fd5b600060ff82169050919050565b612a1c81612a06565b82525050565b6000608082019050612a3760008301876121b9565b612a446020830186612a13565b612a5160408301856121b9565b612a5e60608301846121b9565b9594505050505056fea2646970667358221220beaf44b37cde75f7d08a17c98cd8140fe48e006f8d48465751288ba9c7ae3a2364736f6c634300081a0033","linkReferences":{}},"methodIdentifiers":{"UPGRADE_INTERFACE_VERSION()":"ad3cb1cc","addDeposit()":"4a58db19","entryPoint()":"b0d691fe","execute(address,uint256,bytes)":"b61d27f6","executeBatch(address[],uint256[],bytes[])":"47e1da2a","getDeposit()":"c399ec88","getNonce()":"d087d288","initialize(address)":"c4d66de8","onERC1155BatchReceived(address,address,uint256[],uint256[],bytes)":"bc197c81","onERC1155Received(address,address,uint256,uint256,bytes)":"f23a6e61","onERC721Received(address,address,uint256,bytes)":"150b7a02","owner()":"8da5cb5b","proxiableUUID()":"52d1902d","supportsInterface(bytes4)":"01ffc9a7","upgradeToAndCall(address,bytes)":"4f1ef286","validateUserOp((address,uint256,bytes,bytes,bytes32,uint256,bytes32,bytes,bytes),bytes32,uint256)":"19822f7c","withdrawDepositTo(address,uint256)":"4d44560d"},"id":26}