{"abi":[{"type":"receive","stateMutability":"payable"},{"type":"function","name":"addStake","inputs":[{"name":"unstakeDelaySec","type":"uint32","internalType":"uint32"}],"outputs":[],"stateMutability":"payable"},{"type":"function","name":"balanceOf","inputs":[{"name":"account","type":"address","internalType":"address"}],"outputs":[{"name":"","type":"uint256","internalType":"uint256"}],"stateMutability":"view"},{"type":"function","name":"delegateAndRevert","inputs":[{"name":"target","type":"address","internalType":"address"},{"name":"data","type":"bytes","internalType":"bytes"}],"outputs":[],"stateMutability":"nonpayable"},{"type":"function","name":"depositTo","inputs":[{"name":"account","type":"address","internalType":"address"}],"outputs":[],"stateMutability":"payable"},{"type":"function","name":"deposits","inputs":[{"name":"","type":"address","internalType":"address"}],"outputs":[{"name":"deposit","type":"uint256","internalType":"uint256"},{"name":"staked","type":"bool","internalType":"bool"},{"name":"stake","type":"uint112","internalType":"uint112"},{"name":"unstakeDelaySec","type":"uint32","internalType":"uint32"},{"name":"withdrawTime","type":"uint48","internalType":"uint48"}],"stateMutability":"view"},{"type":"function","name":"exposed_getValidationData","inputs":[{"name":"validationData","type":"uint256","internalType":"uint256"}],"outputs":[{"name":"aggregator","type":"address","internalType":"address"},{"name":"outOfTimeRange","type":"bool","internalType":"bool"}],"stateMutability":"view"},{"type":"function","name":"getDepositInfo","inputs":[{"name":"account","type":"address","internalType":"address"}],"outputs":[{"name":"info","type":"tuple","internalType":"struct IStakeManager.DepositInfo","components":[{"name":"deposit","type":"uint256","internalType":"uint256"},{"name":"staked","type":"bool","internalType":"bool"},{"name":"stake","type":"uint112","internalType":"uint112"},{"name":"unstakeDelaySec","type":"uint32","internalType":"uint32"},{"name":"withdrawTime","type":"uint48","internalType":"uint48"}]}],"stateMutability":"view"},{"type":"function","name":"getNonce","inputs":[{"name":"sender","type":"address","internalType":"address"},{"name":"key","type":"uint192","internalType":"uint192"}],"outputs":[{"name":"nonce","type":"uint256","internalType":"uint256"}],"stateMutability":"view"},{"type":"function","name":"getSenderAddress","inputs":[{"name":"initCode","type":"bytes","internalType":"bytes"}],"outputs":[],"stateMutability":"nonpayable"},{"type":"function","name":"getUserOpHash","inputs":[{"name":"userOp","type":"tuple","internalType":"struct PackedUserOperation","components":[{"name":"sender","type":"address","internalType":"address"},{"name":"nonce","type":"uint256","internalType":"uint256"},{"name":"initCode","type":"bytes","internalType":"bytes"},{"name":"callData","type":"bytes","internalType":"bytes"},{"name":"accountGasLimits","type":"bytes32","internalType":"bytes32"},{"name":"preVerificationGas","type":"uint256","internalType":"uint256"},{"name":"gasFees","type":"bytes32","internalType":"bytes32"},{"name":"paymasterAndData","type":"bytes","internalType":"bytes"},{"name":"signature","type":"bytes","internalType":"bytes"}]}],"outputs":[{"name":"","type":"bytes32","internalType":"bytes32"}],"stateMutability":"view"},{"type":"function","name":"handleAggregatedOps","inputs":[{"name":"opsPerAggregator","type":"tuple[]","internalType":"struct IEntryPoint.UserOpsPerAggregator[]","components":[{"name":"userOps","type":"tuple[]","internalType":"struct PackedUserOperation[]","components":[{"name":"sender","type":"address","internalType":"address"},{"name":"nonce","type":"uint256","internalType":"uint256"},{"name":"initCode","type":"bytes","internalType":"bytes"},{"name":"callData","type":"bytes","internalType":"bytes"},{"name":"accountGasLimits","type":"bytes32","internalType":"bytes32"},{"name":"preVerificationGas","type":"uint256","internalType":"uint256"},{"name":"gasFees","type":"bytes32","internalType":"bytes32"},{"name":"paymasterAndData","type":"bytes","internalType":"bytes"},{"name":"signature","type":"bytes","internalType":"bytes"}]},{"name":"aggregator","type":"address","internalType":"contract IAggregator"},{"name":"signature","type":"bytes","internalType":"bytes"}]},{"name":"beneficiary","type":"address","internalType":"address payable"}],"outputs":[],"stateMutability":"nonpayable"},{"type":"function","name":"handleOps","inputs":[{"name":"ops","type":"tuple[]","internalType":"struct PackedUserOperation[]","components":[{"name":"sender","type":"address","internalType":"address"},{"name":"nonce","type":"uint256","internalType":"uint256"},{"name":"initCode","type":"bytes","internalType":"bytes"},{"name":"callData","type":"bytes","internalType":"bytes"},{"name":"accountGasLimits","type":"bytes32","internalType":"bytes32"},{"name":"preVerificationGas","type":"uint256","internalType":"uint256"},{"name":"gasFees","type":"bytes32","internalType":"bytes32"},{"name":"paymasterAndData","type":"bytes","internalType":"bytes"},{"name":"signature","type":"bytes","internalType":"bytes"}]},{"name":"beneficiary","type":"address","internalType":"address payable"}],"outputs":[],"stateMutability":"nonpayable"},{"type":"function","name":"incrementNonce","inputs":[{"name":"key","type":"uint192","internalType":"uint192"}],"outputs":[],"stateMutability":"nonpayable"},{"type":"function","name":"innerHandleOp","inputs":[{"name":"callData","type":"bytes","internalType":"bytes"},{"name":"opInfo","type":"tuple","internalType":"struct EntryPoint.UserOpInfo","components":[{"name":"mUserOp","type":"tuple","internalType":"struct EntryPoint.MemoryUserOp","components":[{"name":"sender","type":"address","internalType":"address"},{"name":"nonce","type":"uint256","internalType":"uint256"},{"name":"verificationGasLimit","type":"uint256","internalType":"uint256"},{"name":"callGasLimit","type":"uint256","internalType":"uint256"},{"name":"paymasterVerificationGasLimit","type":"uint256","internalType":"uint256"},{"name":"paymasterPostOpGasLimit","type":"uint256","internalType":"uint256"},{"name":"preVerificationGas","type":"uint256","internalType":"uint256"},{"name":"paymaster","type":"address","internalType":"address"},{"name":"maxFeePerGas","type":"uint256","internalType":"uint256"},{"name":"maxPriorityFeePerGas","type":"uint256","internalType":"uint256"}]},{"name":"userOpHash","type":"bytes32","internalType":"bytes32"},{"name":"prefund","type":"uint256","internalType":"uint256"},{"name":"contextOffset","type":"uint256","internalType":"uint256"},{"name":"preOpGas","type":"uint256","internalType":"uint256"}]},{"name":"context","type":"bytes","internalType":"bytes"}],"outputs":[{"name":"actualGasCost","type":"uint256","internalType":"uint256"}],"stateMutability":"nonpayable"},{"type":"function","name":"nonceSequenceNumber","inputs":[{"name":"","type":"address","internalType":"address"},{"name":"","type":"uint192","internalType":"uint192"}],"outputs":[{"name":"","type":"uint256","internalType":"uint256"}],"stateMutability":"view"},{"type":"function","name":"supportsInterface","inputs":[{"name":"interfaceId","type":"bytes4","internalType":"bytes4"}],"outputs":[{"name":"","type":"bool","internalType":"bool"}],"stateMutability":"view"},{"type":"function","name":"unlockStake","inputs":[],"outputs":[],"stateMutability":"nonpayable"},{"type":"function","name":"withdrawStake","inputs":[{"name":"withdrawAddress","type":"address","internalType":"address payable"}],"outputs":[],"stateMutability":"nonpayable"},{"type":"function","name":"withdrawTo","inputs":[{"name":"withdrawAddress","type":"address","internalType":"address payable"},{"name":"withdrawAmount","type":"uint256","internalType":"uint256"}],"outputs":[],"stateMutability":"nonpayable"},{"type":"event","name":"AccountDeployed","inputs":[{"name":"userOpHash","type":"bytes32","indexed":true,"internalType":"bytes32"},{"name":"sender","type":"address","indexed":true,"internalType":"address"},{"name":"factory","type":"address","indexed":false,"internalType":"address"},{"name":"paymaster","type":"address","indexed":false,"internalType":"address"}],"anonymous":false},{"type":"event","name":"BeforeExecution","inputs":[],"anonymous":false},{"type":"event","name":"Deposited","inputs":[{"name":"account","type":"address","indexed":true,"internalType":"address"},{"name":"totalDeposit","type":"uint256","indexed":false,"internalType":"uint256"}],"anonymous":false},{"type":"event","name":"PostOpRevertReason","inputs":[{"name":"userOpHash","type":"bytes32","indexed":true,"internalType":"bytes32"},{"name":"sender","type":"address","indexed":true,"internalType":"address"},{"name":"nonce","type":"uint256","indexed":false,"internalType":"uint256"},{"name":"revertReason","type":"bytes","indexed":false,"internalType":"bytes"}],"anonymous":false},{"type":"event","name":"SignatureAggregatorChanged","inputs":[{"name":"aggregator","type":"address","indexed":true,"internalType":"address"}],"anonymous":false},{"type":"event","name":"StakeLocked","inputs":[{"name":"account","type":"address","indexed":true,"internalType":"address"},{"name":"totalStaked","type":"uint256","indexed":false,"internalType":"uint256"},{"name":"unstakeDelaySec","type":"uint256","indexed":false,"internalType":"uint256"}],"anonymous":false},{"type":"event","name":"StakeUnlocked","inputs":[{"name":"account","type":"address","indexed":true,"internalType":"address"},{"name":"withdrawTime","type":"uint256","indexed":false,"internalType":"uint256"}],"anonymous":false},{"type":"event","name":"StakeWithdrawn","inputs":[{"name":"account","type":"address","indexed":true,"internalType":"address"},{"name":"withdrawAddress","type":"address","indexed":false,"internalType":"address"},{"name":"amount","type":"uint256","indexed":false,"internalType":"uint256"}],"anonymous":false},{"type":"event","name":"UserOperationEvent","inputs":[{"name":"userOpHash","type":"bytes32","indexed":true,"internalType":"bytes32"},{"name":"sender","type":"address","indexed":true,"internalType":"address"},{"name":"paymaster","type":"address","indexed":true,"internalType":"address"},{"name":"nonce","type":"uint256","indexed":false,"internalType":"uint256"},{"name":"success","type":"bool","indexed":false,"internalType":"bool"},{"name":"actualGasCost","type":"uint256","indexed":false,"internalType":"uint256"},{"name":"actualGasUsed","type":"uint256","indexed":false,"internalType":"uint256"}],"anonymous":false},{"type":"event","name":"UserOperationPrefundTooLow","inputs":[{"name":"userOpHash","type":"bytes32","indexed":true,"internalType":"bytes32"},{"name":"sender","type":"address","indexed":true,"internalType":"address"},{"name":"nonce","type":"uint256","indexed":false,"internalType":"uint256"}],"anonymous":false},{"type":"event","name":"UserOperationRevertReason","inputs":[{"name":"userOpHash","type":"bytes32","indexed":true,"internalType":"bytes32"},{"name":"sender","type":"address","indexed":true,"internalType":"address"},{"name":"nonce","type":"uint256","indexed":false,"internalType":"uint256"},{"name":"revertReason","type":"bytes","indexed":false,"internalType":"bytes"}],"anonymous":false},{"type":"event","name":"Withdrawn","inputs":[{"name":"account","type":"address","indexed":true,"internalType":"address"},{"name":"withdrawAddress","type":"address","indexed":false,"internalType":"address"},{"name":"amount","type":"uint256","indexed":false,"internalType":"uint256"}],"anonymous":false},{"type":"error","name":"DelegateAndRevert","inputs":[{"name":"success","type":"bool","internalType":"bool"},{"name":"ret","type":"bytes","internalType":"bytes"}]},{"type":"error","name":"FailedOp","inputs":[{"name":"opIndex","type":"uint256","internalType":"uint256"},{"name":"reason","type":"string","internalType":"string"}]},{"type":"error","name":"FailedOpWithRevert","inputs":[{"name":"opIndex","type":"uint256","internalType":"uint256"},{"name":"reason","type":"string","internalType":"string"},{"name":"inner","type":"bytes","internalType":"bytes"}]},{"type":"error","name":"PostOpReverted","inputs":[{"name":"returnData","type":"bytes","internalType":"bytes"}]},{"type":"error","name":"ReentrancyGuardReentrantCall","inputs":[]},{"type":"error","name":"SenderAddressResult","inputs":[{"name":"sender","type":"address","internalType":"address"}]},{"type":"error","name":"SignatureValidationFailed","inputs":[{"name":"aggregator","type":"address","internalType":"address"}]}],"bytecode":{"object":"0x60a0604052604051600e90604b565b604051809103906000f0801580156029573d6000803e3d6000fd5b506001600160a01b0316608052348015604157600080fd5b5060016002556058565b61022c806138f883390190565b60805161387e61007a60003960008181610e800152612886015261387e6000f3fe6080604052600436106101175760003560e01c80635287ce12116100a0578063b760faf911610064578063b760faf914610487578063bb9fe6bf1461049a578063c23a5cea146104af578063dbed18e0146104cf578063fc7e286d146104ef57600080fd5b80635287ce12146102d957806370a08231146103f1578063765e827f14610427578063850aaf62146104475780639b249f691461046757600080fd5b80631b2e01b8116100e75780631b2e01b8146101c2578063205c2878146101fa57806322cdde4c1461021a57806332572cca1461023a57806335567e1a1461027957600080fd5b806242dc531461012c57806301ffc9a71461015f5780630396cb601461018f5780630bd28e3b146101a257600080fd5b366101275761012533610597565b005b600080fd5b34801561013857600080fd5b5061014c610147366004612d71565b6105ec565b6040519081526020015b60405180910390f35b34801561016b57600080fd5b5061017f61017a366004612e31565b610775565b6040519015158152602001610156565b61012561019d366004612e5b565b6107fd565b3480156101ae57600080fd5b506101256101bd366004612e98565b610a8c565b3480156101ce57600080fd5b5061014c6101dd366004612eb3565b600160209081526000928352604080842090915290825290205481565b34801561020657600080fd5b50610125610215366004612ee8565b610ac3565b34801561022657600080fd5b5061014c610235366004612f14565b610c14565b34801561024657600080fd5b5061025a610255366004612f4f565b610c56565b604080516001600160a01b039093168352901515602083015201610156565b34801561028557600080fd5b5061014c610294366004612eb3565b6001600160a01b03821660009081526001602090815260408083206001600160c01b038516845290915290819020549082901b67ffffffffffffffff19161792915050565b3480156102e557600080fd5b506103966102f4366004612f68565b6040805160a081018252600080825260208201819052918101829052606081018290526080810191909152506001600160a01b031660009081526020818152604091829020825160a0810184528154815260019091015460ff811615159282019290925261010082046001600160701b031692810192909252600160781b810463ffffffff166060830152600160981b900465ffffffffffff16608082015290565b6040516101569190600060a082019050825182526020830151151560208301526001600160701b03604084015116604083015263ffffffff606084015116606083015265ffffffffffff608084015116608083015292915050565b3480156103fd57600080fd5b5061014c61040c366004612f68565b6001600160a01b031660009081526020819052604090205490565b34801561043357600080fd5b50610125610442366004612fc9565b610c6b565b34801561045357600080fd5b5061012561046236600461301f565b610de7565b34801561047357600080fd5b50610125610482366004613073565b610e66565b610125610495366004612f68565b610597565b3480156104a657600080fd5b50610125610f21565b3480156104bb57600080fd5b506101256104ca366004612f68565b61104d565b3480156104db57600080fd5b506101256104ea366004612fc9565b611271565b3480156104fb57600080fd5b5061055461050a366004612f68565b6000602081905290815260409020805460019091015460ff81169061010081046001600160701b031690600160781b810463ffffffff1690600160981b900465ffffffffffff1685565b6040805195865293151560208601526001600160701b039092169284019290925263ffffffff909116606083015265ffffffffffff16608082015260a001610156565b60006105a3823461168a565b9050816001600160a01b03167f2da466a7b24304f47e87fa2e1e5a81b9831ce54fec19055ce277ca2f39ba42c4826040516105e091815260200190565b60405180910390a25050565b6000805a90503330146106465760405162461bcd60e51b815260206004820152601760248201527f4141393220696e7465726e616c2063616c6c206f6e6c7900000000000000000060448201526064015b60405180910390fd5b8451606081015160a082015181016127100160405a603f028161066b5761066b6130b4565b0410156106835763deaddead60e01b60005260206000fd5b8751600090156107175760006106a0846000015160008c866116bd565b9050806107155760006106b46108006116d5565b80519091501561070f5784600001516001600160a01b03168a602001517f1c4fada7374c0a9ee8841fc38afe82932dc0f8e69012e927f061a8bae611a20187602001518460405161070692919061311a565b60405180910390a35b60019250505b505b600088608001515a8603019050610767828a8a8a8080601f016020809104026020016040519081016040528093929190818152602001838380828437600092019190915250879250611701915050565b9a9950505050505050505050565b60006001600160e01b0319821663307e35b760e11b14806107a657506001600160e01b0319821663122a0e9b60e31b145b806107c157506001600160e01b0319821663cf28ef9760e01b145b806107dc57506001600160e01b03198216633e84f02160e01b145b806107f757506301ffc9a760e01b6001600160e01b03198316145b92915050565b33600090815260208190526040902063ffffffff821661085f5760405162461bcd60e51b815260206004820152601a60248201527f6d757374207370656369667920756e7374616b652064656c6179000000000000604482015260640161063d565b600181015463ffffffff600160781b909104811690831610156108c45760405162461bcd60e51b815260206004820152601c60248201527f63616e6e6f7420646563726561736520756e7374616b652074696d6500000000604482015260640161063d565b60018101546000906108e590349061010090046001600160701b0316613149565b90506000811161092c5760405162461bcd60e51b81526020600482015260126024820152711b9bc81cdd185ad9481cdc1958da599a595960721b604482015260640161063d565b6001600160701b038111156109745760405162461bcd60e51b815260206004820152600e60248201526d7374616b65206f766572666c6f7760901b604482015260640161063d565b6040805160a08101825283548152600160208083018281526001600160701b0386811685870190815263ffffffff8a811660608801818152600060808a0181815233808352828a52918c90209a518b55965199909801805494519151965165ffffffffffff16600160981b0265ffffffffffff60981b1997909416600160781b029690961669ffffffffffffffffffff60781b1991909516610100026effffffffffffffffffffffffffff0019991515999099166effffffffffffffffffffffffffffff1990941693909317979097179190911691909117179055835185815290810192909252917fa5ae833d0bb1dcd632d98a8b70973e8516812898e19bf27b70071ebc8dc52c01910160405180910390a2505050565b3360009081526001602090815260408083206001600160c01b03851684529091528120805491610abb8361315c565b919050555050565b3360009081526020819052604090208054821115610b235760405162461bcd60e51b815260206004820152601960248201527f576974686472617720616d6f756e7420746f6f206c6172676500000000000000604482015260640161063d565b8054610b30908390613175565b8155604080516001600160a01b03851681526020810184905233917fd1c19fbcd4551a5edfb66d43d2e337c04837afda3482b42bdf569a8fccdae5fb910160405180910390a26000836001600160a01b03168360405160006040518083038185875af1925050503d8060008114610bc3576040519150601f19603f3d011682016040523d82523d6000602084013e610bc8565b606091505b5050905080610c0e5760405162461bcd60e51b81526020600482015260126024820152716661696c656420746f20776974686472617760701b604482015260640161063d565b50505050565b6000610c1f826118c4565b6040805160208101929092523090820152466060820152608001604051602081830303815290604052805190602001209050919050565b600080610c62836118dd565b91509150915091565b610c73611930565b816000816001600160401b03811115610c8e57610c8e612b71565b604051908082528060200260200182016040528015610cc757816020015b610cb4612ad9565b815260200190600190039081610cac5790505b50905060005b82811015610d40576000828281518110610ce957610ce9613188565b60200260200101519050600080610d24848a8a87818110610d0c57610d0c613188565b9050602002810190610d1e919061319e565b85611958565b91509150610d358483836000611b5e565b505050600101610ccd565b506040516000907fbb47ee3e183a558b1a2ff0874b079f3fc5478b7454eacf2bfc5af2ff5878f972908290a160005b83811015610dca57610dbe81888884818110610d8d57610d8d613188565b9050602002810190610d9f919061319e565b858481518110610db157610db1613188565b6020026020010151611cfa565b90910190600101610d6f565b50610dd58482611fb6565b505050610de26001600255565b505050565b600080846001600160a01b03168484604051610e049291906131bf565b600060405180830381855af49150503d8060008114610e3f576040519150601f19603f3d011682016040523d82523d6000602084013e610e44565b606091505b50915091508181604051632650415560e21b815260040161063d9291906131cf565b604051632b870d1b60e11b81526000906001600160a01b037f0000000000000000000000000000000000000000000000000000000000000000169063570e1a3690610eb79086908690600401613213565b6020604051808303816000875af1158015610ed6573d6000803e3d6000fd5b505050506040513d601f19601f82011682018060405250810190610efa9190613227565b604051633653dc0360e11b81526001600160a01b038216600482015290915060240161063d565b33600090815260208190526040812060018101549091600160781b90910463ffffffff169003610f805760405162461bcd60e51b815260206004820152600a6024820152691b9bdd081cdd185ad95960b21b604482015260640161063d565b600181015460ff16610fc85760405162461bcd60e51b8152602060048201526011602482015270616c726561647920756e7374616b696e6760781b604482015260640161063d565b6001810154600090610fe790600160781b900463ffffffff1642613244565b60018301805460ff65ffffffffffff60981b011916600160981b65ffffffffffff841690810260ff19169190911790915560405190815290915033907ffa9b3c14cc825c412c9ed81b3ba365a5b459439403f18829e572ed53a4180f0a906020016105e0565b336000908152602081905260409020600181015461010090046001600160701b0316806110b35760405162461bcd60e51b81526020600482015260146024820152734e6f207374616b6520746f20776974686472617760601b604482015260640161063d565b6001820154600160981b900465ffffffffffff166111135760405162461bcd60e51b815260206004820152601d60248201527f6d7573742063616c6c20756e6c6f636b5374616b652829206669727374000000604482015260640161063d565b600182015442600160981b90910465ffffffffffff1611156111775760405162461bcd60e51b815260206004820152601b60248201527f5374616b65207769746864726177616c206973206e6f74206475650000000000604482015260640161063d565b600182018054610100600160c81b0319169055604080516001600160a01b03851681526020810183905233917fb7c918e0e249f999e965cafeb6c664271b3f4317d296461500e71da39f0cbda3910160405180910390a26000836001600160a01b03168260405160006040518083038185875af1925050503d806000811461121b576040519150601f19603f3d011682016040523d82523d6000602084013e611220565b606091505b5050905080610c0e5760405162461bcd60e51b815260206004820152601860248201527f6661696c656420746f207769746864726177207374616b650000000000000000604482015260640161063d565b611279611930565b816000805b828110156113e6573686868381811061129957611299613188565b90506020028101906112ab9190613262565b90503660006112ba8380613278565b909250905060006112d16040850160208601612f68565b90506000196001600160a01b0382160161132d5760405162461bcd60e51b815260206004820152601760248201527f4141393620696e76616c69642061676772656761746f72000000000000000000604482015260640161063d565b6001600160a01b038116156113ca576001600160a01b038116632dd81133848461135a60408901896132c1565b6040518563ffffffff1660e01b8152600401611379949392919061342c565b60006040518083038186803b15801561139157600080fd5b505afa9250505080156113a2575060015b6113ca5760405163086a9f7560e41b81526001600160a01b038216600482015260240161063d565b6113d48287613149565b9550506001909301925061127e915050565b506000816001600160401b0381111561140157611401612b71565b60405190808252806020026020018201604052801561143a57816020015b611427612ad9565b81526020019060019003908161141f5790505b5090506000805b84811015611517573688888381811061145c5761145c613188565b905060200281019061146e9190613262565b905036600061147d8380613278565b909250905060006114946040850160208601612f68565b90508160005b818110156115055760008989815181106114b6576114b6613188565b602002602001015190506000806114d98b898987818110610d0c57610d0c613188565b915091506114e984838389611b5e565b8a6114f38161315c565b9b50506001909301925061149a915050565b50506001909401935061144192505050565b506040517fbb47ee3e183a558b1a2ff0874b079f3fc5478b7454eacf2bfc5af2ff5878f97290600090a150600080805b85811015611645573689898381811061156257611562613188565b90506020028101906115749190613262565b90506115866040820160208301612f68565b6001600160a01b03167f575ff3acadd5ab348fe1855e217e0f3678f8d767d7494c9f9fefbee2e17cca4d60405160405180910390a23660006115c88380613278565b90925090508060005b8181101561163457611613888585848181106115ef576115ef613188565b9050602002810190611601919061319e565b8b8b81518110610db157610db1613188565b61161d9088613149565b9650876116298161315c565b9850506001016115d1565b505060019093019250611547915050565b506040516000907f575ff3acadd5ab348fe1855e217e0f3678f8d767d7494c9f9fefbee2e17cca4d908290a261167b8682611fb6565b5050505050610de26001600255565b6001600160a01b0382166000908152602081905260408120805482906116b1908590613149565b91829055509392505050565b6000806000845160208601878987f195945050505050565b60603d828111156116e35750815b604051602082018101604052818152816000602083013e9392505050565b6000805a855190915060009081611717826120af565b60e08301519091506001600160a01b03811661173657825193506117f2565b8093506000885111156117f257868202955060028a600281111561175c5761175c6134b9565b146117f25760a0830151604051637c627b2160e01b81526001600160a01b03831691637c627b2191611798908e908d908c9089906004016134cf565b600060405180830381600088803b1580156117b257600080fd5b5087f1935050505080156117c4575060015b6117f25760006117d56108006116d5565b905080604051632b5e552f60e21b815260040161063d9190613519565b5a60a0840151606085015160808c015192880399909901980190880380821115611825576064600a828403020498909801975b505060408901518783029650868110156118815760028b600281111561184d5761184d6134b9565b036118705780965061185e8a6120e1565b61186b8a6000898b612130565b6118b6565b63deadaa5160e01b60005260206000fd5b86810361188e868261168a565b506000808d60028111156118a4576118a46134b9565b1490506118b38c828b8d612130565b50505b505050505050949350505050565b60006118cf826121ab565b805190602001209050919050565b600080826000036118f357506000928392509050565b60006118fe84612263565b9050806040015165ffffffffffff164211806119255750806020015165ffffffffffff1642105b905194909350915050565b600280540361195257604051633ee5aeb560e01b815260040160405180910390fd5b60028055565b60008060005a845190915061196d86826122d4565b61197686610c14565b6020860152604081015161012082015161010083015160a08401516080850151606086015160c0870151861717171717176effffffffffffffffffffffffffffff811115611a065760405162461bcd60e51b815260206004820152601860248201527f41413934206761732076616c756573206f766572666c6f770000000000000000604482015260640161063d565b6000611a358460c081015160a08201516080830151606084015160408501516101009095015194010101010290565b9050611a448a8a8a84876123e2565b9650611a5884600001518560200151612579565b611aae5789604051631101335b60e11b815260040161063d918152604060208201819052601a908201527f4141323520696e76616c6964206163636f756e74206e6f6e6365000000000000606082015260800190565b825a86031115611b0a5789604051631101335b60e11b815260040161063d918152604060208201819052601e908201527f41413236206f76657220766572696669636174696f6e4761734c696d69740000606082015260800190565b60e08401516060906001600160a01b031615611b3157611b2c8b8b8b856125c6565b975090505b604089018290528060608a015260a08a01355a870301896080018181525050505050505050935093915050565b600080611b6a856118dd565b91509150816001600160a01b0316836001600160a01b031614611bd05785604051631101335b60e11b815260040161063d9181526040602082018190526014908201527320a0991a1039b4b3b730ba3ab9329032b93937b960611b606082015260800190565b8015611c285785604051631101335b60e11b815260040161063d9181526040602082018190526017908201527f414132322065787069726564206f72206e6f7420647565000000000000000000606082015260800190565b6000611c33856118dd565b925090506001600160a01b03811615611c8f5786604051631101335b60e11b815260040161063d9181526040602082018190526014908201527320a0999a1039b4b3b730ba3ab9329032b93937b960611b606082015260800190565b8115611cf15786604051631101335b60e11b815260040161063d9181526040602082018190526021908201527f41413332207061796d61737465722065787069726564206f72206e6f742064756060820152606560f81b608082015260a00190565b50505050505050565b6000805a90506000611d0d846060015190565b6040519091506000903682611d2560608a018a6132c1565b9150915060606000826003811115611d3c57843591505b506372288ed160e01b6001600160e01b0319821601611dea5760008b8b60200151604051602401611d6e92919061352c565b60408051601f198184030181529181526020820180516001600160e01b0316638dd7712f60e01b1790525190915030906242dc5390611db59084908f908d906024016135f8565b604051602081830303815290604052915060e01b6020820180516001600160e01b038381831617835250505050925050611e3f565b306001600160a01b03166242dc5385858d8b604051602401611e0f949392919061362d565b604051602081830303815290604052915060e01b6020820180516001600160e01b03838183161783525050505091505b602060008351602085016000305af19550600051985084604052505050505080611fac5760003d80602003611e7a5760206000803e60005191505b5063deaddead60e01b8103611ecd5787604051631101335b60e11b815260040161063d918152604060208201819052600f908201526e41413935206f7574206f662067617360881b606082015260800190565b63deadaa5160e01b8103611f1e57600086608001515a611eed9087613175565b611ef79190613149565b6040880151909150611f08886120e1565b611f158860008385612130565b9550611faa9050565b855180516020808901519201516001600160a01b0390911691907ff62676f440ff169a3a9afdbf812e89e7f95975ee8e5c31214ffdef631c5f479290611f656108006116d5565b604051611f7392919061311a565b60405180910390a3600086608001515a611f8d9087613175565b611f979190613149565b9050611fa66002888684611701565b9550505b505b5050509392505050565b6001600160a01b03821661200c5760405162461bcd60e51b815260206004820152601860248201527f4141393020696e76616c69642062656e65666963696172790000000000000000604482015260640161063d565b6000826001600160a01b03168260405160006040518083038185875af1925050503d8060008114612059576040519150601f19603f3d011682016040523d82523d6000602084013e61205e565b606091505b5050905080610de25760405162461bcd60e51b815260206004820152601f60248201527f41413931206661696c65642073656e6420746f2062656e656669636961727900604482015260640161063d565b610100810151610120820151600091908082036120cd575092915050565b6120d982488301612784565b949350505050565b80518051602080840151928101516040519081526001600160a01b0390921692917f67b4fa9642f42120bf031f3051d1824b0fe25627945b27b8a6a65d5761d5482e910160405180910390a350565b835160e081015181516020808801519301516040516001600160a01b039384169492909316927f49628fd1471006c1482da88028e9ce4dbb080b815c9b0344d39e5a8e6ec1419f9161219d9189908990899093845291151560208401526040830152606082015260800190565b60405180910390a450505050565b60608135602083013560006121cb6121c660408701876132c1565b61279c565b905060006121df6121c660608801886132c1565b9050608086013560a087013560c088013560006122026121c660e08c018c6132c1565b604080516001600160a01b039a909a1660208b015289810198909852606089019690965250608087019390935260a086019190915260c085015260e08401526101008084019190915281518084039091018152610120909201905292915050565b60408051606081018252600080825260208201819052918101919091528160a081901c65ffffffffffff811660000361229f575065ffffffffffff5b604080516060810182526001600160a01b03909316835260d09490941c602083015265ffffffffffff16928101929092525090565b6122e16020830183612f68565b6001600160a01b03168152602082810135908201526001600160801b036080808401358281166060850152811c604084015260a084013560c0808501919091528401359182166101008401521c61012082015236600061234460e08501856132c1565b909250905080156123c75760348110156123a05760405162461bcd60e51b815260206004820152601d60248201527f4141393320696e76616c6964207061796d6173746572416e6444617461000000604482015260640161063d565b6123aa82826127af565b60a086015260808501526001600160a01b031660e0840152610c0e565b600060e084018190526080840181905260a084015250505050565b825180516000919061240188876123fc60408b018b6132c1565b612817565b60e082015160006001600160a01b038216612445576001600160a01b03831660009081526020819052604090205487811161243e57808803612441565b60005b9150505b60208801516040516306608bdf60e21b81526001600160a01b038516916319822f7c91899161247b918e91908790600401613663565b60206040518083038160008887f1935050505080156124b7575060408051601f3d908101601f191682019092526124b491810190613688565b60015b6124e257896124c76108006116d5565b6040516365c8fd4d60e01b815260040161063d9291906136a1565b94506001600160a01b03821661256c576001600160a01b0383166000908152602081905260409020805480891115612566578b604051631101335b60e11b815260040161063d9181526040602082018190526017908201527f41413231206469646e2774207061792070726566756e64000000000000000000606082015260800190565b88900390555b5050505095945050505050565b6001600160a01b038216600090815260016020908152604080832084821c80855292528220805484916001600160401b0383169190856125b88361315c565b909155501495945050505050565b60606000805a855160e08101516001600160a01b0381166000908152602081905260409020805493945091929091908781101561264f578a604051631101335b60e11b815260040161063d918152604060208201819052601e908201527f41413331207061796d6173746572206465706f73697420746f6f206c6f770000606082015260800190565b8781038260000181905550600084608001519050836001600160a01b03166352b7512c828d8d602001518d6040518563ffffffff1660e01b815260040161269893929190613663565b60006040518083038160008887f1935050505080156126d957506040513d6000823e601f3d908101601f191682016040526126d691908101906136de565b60015b612704578b6126e96108006116d5565b6040516365c8fd4d60e01b815260040161063d92919061375e565b9098509650805a87031115612775578b604051631101335b60e11b815260040161063d9181526040602082018190526027908201527f41413336206f766572207061796d6173746572566572696669636174696f6e47606082015266185cd31a5b5a5d60ca1b608082015260a00190565b50505050505094509492505050565b60008183106127935781612795565b825b9392505050565b6000604051828085833790209392505050565b600080806127c0601482868861379b565b6127c9916137c5565b60601c6127da60246014878961379b565b6127e391613812565b60801c6127f460346024888a61379b565b6127fd91613812565b9194506001600160801b0316925060801c90509250925092565b8015610c0e578251516001600160a01b0381163b156128825784604051631101335b60e11b815260040161063d918152604060208201819052601f908201527f414131302073656e64657220616c726561647920636f6e737472756374656400606082015260800190565b60007f00000000000000000000000000000000000000000000000000000000000000006001600160a01b031663570e1a3686600001516040015186866040518463ffffffff1660e01b81526004016128db929190613213565b60206040518083038160008887f11580156128fa573d6000803e3d6000fd5b50505050506040513d601f19601f8201168201806040525081019061291f9190613227565b90506001600160a01b0381166129815785604051631101335b60e11b815260040161063d918152604060208201819052601b908201527f4141313320696e6974436f6465206661696c6564206f72204f4f470000000000606082015260800190565b816001600160a01b0316816001600160a01b0316146129eb5785604051631101335b60e11b815260040161063d91815260406020808301829052908201527f4141313420696e6974436f6465206d7573742072657475726e2073656e646572606082015260800190565b806001600160a01b03163b600003612a4e5785604051631101335b60e11b815260040161063d91815260406020808301829052908201527f4141313520696e6974436f6465206d757374206372656174652073656e646572606082015260800190565b6000612a5d601482868861379b565b612a66916137c5565b60601c9050826001600160a01b031686602001517fd51a9c61267aa6196961883ecf5ff2da6619c37dac0fa92122513fb32c032d2d83896000015160e00151604051612ac89291906001600160a01b0392831681529116602082015260400190565b60405180910390a350505050505050565b6040518060a00160405280612b4c60405180610140016040528060006001600160a01b0316815260200160008152602001600081526020016000815260200160008152602001600081526020016000815260200160006001600160a01b0316815260200160008152602001600081525090565b8152602001600080191681526020016000815260200160008152602001600081525090565b634e487b7160e01b600052604160045260246000fd5b60405160a081016001600160401b0381118282101715612ba957612ba9612b71565b60405290565b60405161014081016001600160401b0381118282101715612ba957612ba9612b71565b604051601f8201601f191681016001600160401b0381118282101715612bfa57612bfa612b71565b604052919050565b60006001600160401b03821115612c1b57612c1b612b71565b50601f01601f191660200190565b6001600160a01b0381168114612c3e57600080fd5b50565b8035612c4c81612c29565b919050565b60008183036101c0811215612c6557600080fd5b612c6d612b87565b9150610140811215612c7e57600080fd5b50612c87612baf565b612c9083612c41565b81526020838101359082015260408084013590820152606080840135908201526080808401359082015260a0808401359082015260c08084013590820152612cda60e08401612c41565b60e08201526101008381013590820152610120808401359082015281526101408201356020820152610160820135604082015261018082013560608201526101a0909101356080820152919050565b60008083601f840112612d3b57600080fd5b5081356001600160401b03811115612d5257600080fd5b602083019150836020828501011115612d6a57600080fd5b9250929050565b6000806000806102008587031215612d8857600080fd5b84356001600160401b03811115612d9e57600080fd5b8501601f81018713612daf57600080fd5b8035612dc2612dbd82612c02565b612bd2565b818152886020838501011115612dd757600080fd5b81602084016020830137600060208383010152809650505050612dfd8660208701612c51565b92506101e08501356001600160401b03811115612e1957600080fd5b612e2587828801612d29565b95989497509550505050565b600060208284031215612e4357600080fd5b81356001600160e01b03198116811461279557600080fd5b600060208284031215612e6d57600080fd5b813563ffffffff8116811461279557600080fd5b80356001600160c01b0381168114612c4c57600080fd5b600060208284031215612eaa57600080fd5b61279582612e81565b60008060408385031215612ec657600080fd5b8235612ed181612c29565b9150612edf60208401612e81565b90509250929050565b60008060408385031215612efb57600080fd5b8235612f0681612c29565b946020939093013593505050565b600060208284031215612f2657600080fd5b81356001600160401b03811115612f3c57600080fd5b8201610120818503121561279557600080fd5b600060208284031215612f6157600080fd5b5035919050565b600060208284031215612f7a57600080fd5b813561279581612c29565b60008083601f840112612f9757600080fd5b5081356001600160401b03811115612fae57600080fd5b6020830191508360208260051b8501011115612d6a57600080fd5b600080600060408486031215612fde57600080fd5b83356001600160401b03811115612ff457600080fd5b61300086828701612f85565b909450925050602084013561301481612c29565b809150509250925092565b60008060006040848603121561303457600080fd5b833561303f81612c29565b925060208401356001600160401b0381111561305a57600080fd5b61306686828701612d29565b9497909650939450505050565b6000806020838503121561308657600080fd5b82356001600160401b0381111561309c57600080fd5b6130a885828601612d29565b90969095509350505050565b634e487b7160e01b600052601260045260246000fd5b60005b838110156130e55781810151838201526020016130cd565b50506000910152565b600081518084526131068160208601602086016130ca565b601f01601f19169290920160200192915050565b8281526040602082015260006120d960408301846130ee565b634e487b7160e01b600052601160045260246000fd5b808201808211156107f7576107f7613133565b60006001820161316e5761316e613133565b5060010190565b818103818111156107f7576107f7613133565b634e487b7160e01b600052603260045260246000fd5b6000823561011e198336030181126131b557600080fd5b9190910192915050565b8183823760009101908152919050565b82151581526040602082015260006120d960408301846130ee565b81835281816020850137506000828201602090810191909152601f909101601f19169091010190565b6020815260006120d96020830184866131ea565b60006020828403121561323957600080fd5b815161279581612c29565b65ffffffffffff81811683821601908111156107f7576107f7613133565b60008235605e198336030181126131b557600080fd5b6000808335601e1984360301811261328f57600080fd5b8301803591506001600160401b038211156132a957600080fd5b6020019150600581901b3603821315612d6a57600080fd5b6000808335601e198436030181126132d857600080fd5b8301803591506001600160401b038211156132f257600080fd5b602001915036819003821315612d6a57600080fd5b6000808335601e1984360301811261331e57600080fd5b83016020810192503590506001600160401b0381111561333d57600080fd5b803603821315612d6a57600080fd5b6133668261335983612c41565b6001600160a01b03169052565b60208181013590830152600061337f6040830183613307565b6101206040860152613396610120860182846131ea565b9150506133a66060840184613307565b85830360608701526133b98382846131ea565b6080868101359088015260a0808701359088015260c0808701359088015292506133e991505060e0840184613307565b85830360e08701526133fc8382846131ea565b9250505061340e610100840184613307565b8583036101008701526134228382846131ea565b9695505050505050565b6040808252810184905260006060600586901b83018101908301878361011e1936839003015b8982101561349757868503605f19018452823581811261347157600080fd5b61347d868d830161334c565b955050602083019250602084019350600182019150613452565b5050505082810360208401526134ae8185876131ea565b979650505050505050565b634e487b7160e01b600052602160045260246000fd5b6000600386106134ef57634e487b7160e01b600052602160045260246000fd5b8582526080602083015261350660808301866130ee565b6040830194909452506060015292915050565b60208152600061279560208301846130ee565b60408152600061353f604083018561334c565b90508260208301529392505050565b805180516001600160a01b031683526020810151602084015260408101516040840152606081015160608401526080810151608084015260a081015160a084015260c081015160c084015260e08101516135b360e08501826001600160a01b03169052565b5061010081810151908401526101209081015190830152602081015161014083015260408101516101608301526060810151610180830152608001516101a090910152565b6102008152600061360d6102008301866130ee565b61361a602084018661354e565b8281036101e084015261342281856130ee565b61020081526000613643610200830186886131ea565b613650602084018661354e565b8281036101e08401526134ae81856130ee565b606081526000613676606083018661334c565b60208301949094525060400152919050565b60006020828403121561369a57600080fd5b5051919050565b82815260606020820152600d60608201526c10504c8cc81c995d995c9d1959609a1b608082015260a0604082015260006120d960a08301846130ee565b600080604083850312156136f157600080fd5b82516001600160401b0381111561370757600080fd5b8301601f8101851361371857600080fd5b8051613726612dbd82612c02565b81815286602083850101111561373b57600080fd5b61374c8260208301602086016130ca565b60209590950151949694955050505050565b82815260606020820152600d60608201526c10504cccc81c995d995c9d1959609a1b608082015260a0604082015260006120d960a08301846130ee565b600080858511156137ab57600080fd5b838611156137b857600080fd5b5050820193919092039150565b80356bffffffffffffffffffffffff19811690601484101561380b576bffffffffffffffffffffffff196bffffffffffffffffffffffff198560140360031b1b82161691505b5092915050565b80356001600160801b0319811690601084101561380b576001600160801b031960109490940360031b84901b169092169291505056fea264697066735822122097d2faa2faac06c7d046077b8251e071b591a114cddb0375f0577bc826e8688464736f6c634300081a00336080604052348015600f57600080fd5b5061020d8061001f6000396000f3fe608060405234801561001057600080fd5b506004361061002b5760003560e01c8063570e1a3614610030575b600080fd5b61004361003e3660046100ec565b61005f565b6040516001600160a01b03909116815260200160405180910390f35b60008061006f6014828587610160565b6100789161018a565b60601c9050600061008c8460148188610160565b8080601f016020809104026020016040519081016040528093929190818152602001838380828437600092018290525084519495509360209350849250905082850182875af190506000519350806100e357600093505b50505092915050565b600080602083850312156100ff57600080fd5b823567ffffffffffffffff81111561011657600080fd5b8301601f8101851361012757600080fd5b803567ffffffffffffffff81111561013e57600080fd5b85602082840101111561015057600080fd5b6020919091019590945092505050565b6000808585111561017057600080fd5b8386111561017d57600080fd5b5050820193919092039150565b80356bffffffffffffffffffffffff1981169060148410156101d0576bffffffffffffffffffffffff196bffffffffffffffffffffffff198560140360031b1b82161691505b509291505056fea2646970667358221220dca68b943c7bf9af0210a6c3dc00469b7a7360e440e662c14cac21cdacd034b164736f6c634300081a0033","linkReferences":{}},"methodIdentifiers":{"addStake(uint32)":"0396cb60","balanceOf(address)":"70a08231","delegateAndRevert(address,bytes)":"850aaf62","depositTo(address)":"b760faf9","deposits(address)":"fc7e286d","exposed_getValidationData(uint256)":"32572cca","getDepositInfo(address)":"5287ce12","getNonce(address,uint192)":"35567e1a","getSenderAddress(bytes)":"9b249f69","getUserOpHash((address,uint256,bytes,bytes,bytes32,uint256,bytes32,bytes,bytes))":"22cdde4c","handleAggregatedOps(((address,uint256,bytes,bytes,bytes32,uint256,bytes32,bytes,bytes)[],address,bytes)[],address)":"dbed18e0","handleOps((address,uint256,bytes,bytes,bytes32,uint256,bytes32,bytes,bytes)[],address)":"765e827f","incrementNonce(uint192)":"0bd28e3b","innerHandleOp(bytes,((address,uint256,uint256,uint256,uint256,uint256,uint256,address,uint256,uint256),bytes32,uint256,uint256,uint256),bytes)":"0042dc53","nonceSequenceNumber(address,uint192)":"1b2e01b8","supportsInterface(bytes4)":"01ffc9a7","unlockStake()":"bb9fe6bf","withdrawStake(address)":"c23a5cea","withdrawTo(address,uint256)":"205c2878"},"id":41}