{"abi":[{"type":"constructor","inputs":[{"name":"_ep","type":"address","internalType":"contract IEntryPoint"}],"stateMutability":"payable"},{"type":"function","name":"state","inputs":[],"outputs":[{"name":"","type":"uint256","internalType":"uint256"}],"stateMutability":"view"},{"type":"function","name":"touchPaymaster","inputs":[{"name":"paymaster","type":"address","internalType":"address"}],"outputs":[{"name":"","type":"uint256","internalType":"uint256"}],"stateMutability":"view"},{"type":"function","name":"touchStorage","inputs":[],"outputs":[{"name":"","type":"uint256","internalType":"uint256"}],"stateMutability":"view"},{"type":"function","name":"validateUserOp","inputs":[{"name":"userOp","type":"tuple","internalType":"struct PackedUserOperation","components":[{"name":"sender","type":"address","internalType":"address"},{"name":"nonce","type":"uint256","internalType":"uint256"},{"name":"initCode","type":"bytes","internalType":"bytes"},{"name":"callData","type":"bytes","internalType":"bytes"},{"name":"accountGasLimits","type":"bytes32","internalType":"bytes32"},{"name":"preVerificationGas","type":"uint256","internalType":"uint256"},{"name":"gasFees","type":"bytes32","internalType":"bytes32"},{"name":"paymasterAndData","type":"bytes","internalType":"bytes"},{"name":"signature","type":"bytes","internalType":"bytes"}]},{"name":"","type":"bytes32","internalType":"bytes32"},{"name":"missingAccountFunds","type":"uint256","internalType":"uint256"}],"outputs":[{"name":"validationData","type":"uint256","internalType":"uint256"}],"stateMutability":"nonpayable"}],"bytecode":{"object":"0x6080604052600180556040516107da3803806107da833981810160405281019061002991906100e4565b806000806101000a81548173ffffffffffffffffffffffffffffffffffffffff021916908373ffffffffffffffffffffffffffffffffffffffff16021790555050610111565b600080fd5b600073ffffffffffffffffffffffffffffffffffffffff82169050919050565b600061009f82610074565b9050919050565b60006100b182610094565b9050919050565b6100c1816100a6565b81146100cc57600080fd5b50565b6000815190506100de816100b8565b92915050565b6000602082840312156100fa576100f961006f565b5b6000610108848285016100cf565b91505092915050565b6106ba806101206000396000f3fe608060405234801561001057600080fd5b506004361061004c5760003560e01c806319822f7c14610051578063c19d93fb14610081578063f115d40d1461009f578063fb0c2425146100cf575b600080fd5b61006b6004803603810190610066919061039a565b6100ed565b6040516100789190610418565b60405180910390f35b6100896102ce565b6040516100969190610418565b60405180910390f35b6100b960048036038101906100b49190610491565b6102d4565b6040516100c69190610418565b60405180910390f35b6100d76102f5565b6040516100e49190610418565b60405180910390f35b60008060009054906101000a900473ffffffffffffffffffffffffffffffffffffffff1673ffffffffffffffffffffffffffffffffffffffff1663b760faf983306040518363ffffffff1660e01b815260040161014a91906104cd565b6000604051808303818588803b15801561016357600080fd5b505af1158015610177573d6000803e3d6000fd5b50505050506001846020013503610201573073ffffffffffffffffffffffffffffffffffffffff1663fb0c24256103e86040518263ffffffff1660e01b81526004016020604051808303818786fa1580156101d6573d6000803e3d6000fd5b50505050506040513d601f19601f820116820180604052508101906101fb91906104fd565b506102c3565b60028460200135036102c2576000848060e0019061021f9190610539565b600090601492610231939291906105a6565b9061023c9190610625565b60601c90503073ffffffffffffffffffffffffffffffffffffffff1663f115d40d6103e8836040518363ffffffff1660e01b815260040161027d91906104cd565b6020604051808303818786fa15801561029a573d6000803e3d6000fd5b50505050506040513d601f19601f820116820180604052508101906102bf91906104fd565b50505b5b600090509392505050565b60015481565b60008173ffffffffffffffffffffffffffffffffffffffff163b9050919050565b6000600154905090565b600080fd5b600080fd5b600080fd5b6000610120828403121561032557610324610309565b5b81905092915050565b6000819050919050565b6103418161032e565b811461034c57600080fd5b50565b60008135905061035e81610338565b92915050565b6000819050919050565b61037781610364565b811461038257600080fd5b50565b6000813590506103948161036e565b92915050565b6000806000606084860312156103b3576103b26102ff565b5b600084013567ffffffffffffffff8111156103d1576103d0610304565b5b6103dd8682870161030e565b93505060206103ee8682870161034f565b92505060406103ff86828701610385565b9150509250925092565b61041281610364565b82525050565b600060208201905061042d6000830184610409565b92915050565b600073ffffffffffffffffffffffffffffffffffffffff82169050919050565b600061045e82610433565b9050919050565b61046e81610453565b811461047957600080fd5b50565b60008135905061048b81610465565b92915050565b6000602082840312156104a7576104a66102ff565b5b60006104b58482850161047c565b91505092915050565b6104c781610453565b82525050565b60006020820190506104e260008301846104be565b92915050565b6000815190506104f78161036e565b92915050565b600060208284031215610513576105126102ff565b5b6000610521848285016104e8565b91505092915050565b600080fd5b600080fd5b600080fd5b600080833560016020038436030381126105565761055561052a565b5b80840192508235915067ffffffffffffffff8211156105785761057761052f565b5b60208301925060018202360383131561059457610593610534565b5b509250929050565b600080fd5b600080fd5b600080858511156105ba576105b961059c565b5b838611156105cb576105ca6105a1565b5b6001850283019150848603905094509492505050565b600082905092915050565b60007fffffffffffffffffffffffffffffffffffffffff00000000000000000000000082169050919050565b600082821b905092915050565b600061063183836105e1565b8261063c81356105ec565b9250601482101561067c576106777fffffffffffffffffffffffffffffffffffffffff00000000000000000000000083601403600802610618565b831692505b50509291505056fea2646970667358221220883a75f67ce5fffb5d6cf6632c11a58f9ad2ea50d8ca6a931e58934d1b2cae4e64736f6c634300081a0033","linkReferences":{}},"methodIdentifiers":{"state()":"c19d93fb","touchPaymaster(address)":"f115d40d","touchStorage()":"fb0c2425","validateUserOp((address,uint256,bytes,bytes,bytes32,uint256,bytes32,bytes,bytes),bytes32,uint256)":"19822f7c"},"id":62}